:020000040800F2
:10000000B8060020B5090008BD090008BF090008AE
:10001000C1090008C3090008C50900080000000064
:10002000000000000000000000000000C7090008F8
:10003000C909000800000000CB090008CD0900082C
:10004000CF090008CF090008CF090008CF09000830
:10005000CF090008CF090008CF090008CF09000820
:10006000CF090008CF090008CF090008CF09000810
:10007000CF090008CF090008CF090008CF09000800
:10008000CF090008CF090008CF09000800000000D0
:10009000000000000000000000000000CF09000880
:1000A000CF090008CF090008CF090008CF090008D0
:1000B000CF090008CF090008CF090008CF090008C0
:1000C000CF090008CF090008CF090008CF090008B0
:1000D000CF090008CF090008CF0900080000000080
:1000E000CF090008CF090008CF0900080000000070
:1000F000000000000000000000000000CF09000820
:1001000000000000CF090008CF090008CF0900084F
:1001100000000000000000000000000000000000DF
:10012000CF090008CF090008CF090008CF0900084F
:10013000CF090008000000000000000000000000DF
:10014000000000000000000000000000CF090008CF
:10015000CF090008CF090008CF090008CF0900081F
:10016000CF090008CF0900080000000000000000CF
:10017000000000000000000000000000000000007F
:1001800000000000CF09000800000000000000008F
:10019000CF0900082DE9FF5F4FF000064FF4A0776C
:1001A0004FF000084FF4F0794FF4784B00F017FD52
:1001B0004FF0000B4FF000014FF00003502B1DD00B
:1001C000494850F803904FF000044FF000021E2CF5
:1001D0000FD04FF0010A0AFA04FA19EA0A0F03D005
:1001E0004FF0000B00F00CF802F1100204F10104D2
:1001F000EDE701F1100103F10403DFE7BDE8FF9F24
:100200002DE9C0430E4606F13207904608F1320947
:1002100000F0E5FCBDE8C0832DE9FF5F4FF000066C
:100220004FF4A0774FF000084FF4F0794FF4784B7B
:1002300000F0D5FC4FF0000B4FF000014FF0000331
:10024000142B1BD0284810F803904FF000044FF0F7
:100250000002202C0DD04FF0010A0AFA04FA19EA24
:100260000A0F01D0FFF7CCFF02F1100204F10104E4
:10027000EFE701F1100103F10103E1E7BDE8FF9FA2
:100280002DE9FF5F4FF000064FF4A0774FF0000814
:100290004FF4F0794FF47C4B00F0A1FC4FF00001DB
:1002A0004FF4E0724FF4FC6BFFF7AAFF4FF4987124
:1002B0004FF010024FF01F0BFFF7A2FF4FF0000BA3
:1002C0004FF000014FF00003142B20D04FF000043A
:1002D0004FF00002202C15D04FF0010A0AFA04FA60
:1002E000014800F003F800005C00002010F80390C3
:1002F00019EA0A0F01D0FFF783FF02F1100204F19F
:100300000104E7E701F1100103F10103DCE7BDE8B7
:10031000FF5F70472DE9FF5F0E4601F11007904621
:1003200002F1100900F05BFCBDE8FF5F70472DE9AA
:1003300000584FF0000BFFF7EDFFD4460CF00F0C08
:10034000BCF1010F09D0BCF1020F0CD0BCF1040FBD
:1003500014D0BCF1080F0BD015E0B2F5E87F12D035
:1003600002F110020FE0002A0DD0A2F110020AE003
:10037000B1F5A07F07D0A1F1100104E0102902D04F
:1003800001F11001FFE74FF4FC6BFFF7C3FFBDE87D
:1003900000982DE9FF474FF000064FF4A0774FF08B
:1003A00000084FF4F0794FF4784B00F018FC4FF050
:1003B00000064FF010074FF4E0784FF4E8794FF45F
:1003C000FC6B00F00CFC4FF498764FF4A0774FF0E4
:1003D00010084FF020094FF01F0B00F000FC4FF009
:1003E00010064FF0B0074FF4E0784FF4E8794FF083
:1003F000000B00F0F4FB4FF040064FF060074FF0A9
:10040000E0084FF0F0094FF0000B00F0E8FB4FF070
:1004100050064FF0B0074FF0D0084FF0E0094FF012
:10042000000B00F0DCFB4FF010064FF060074FF0C0
:1004300040084FF050094FF0000B00F0D0FB4FF098
:1004400040064FF080074FF020084FF030094FF082
:10045000000B00F0C4FB4FF050064FF060074FF464
:10046000D8784FF4E0794FF0000B00F0B8FB4FF074
:10047000A0064FF490774FF4D8784FF4E0794FF01E
:10048000000B00F0ACFB4FF020064FF0B0074FF42C
:10049000D0784FF4D8794FF0000B00F0A0FB4FF06C
:1004A00010064FF070074FF4A8784FF4B0794FF072
:1004B000000B00F094FB4FF0E0064FF498774FF4F8
:1004C000C0784FF4C8794FF0000B00F088FB4FF074
:1004D000C0064FF0F0074FF4C8784FF4D0794FF0D2
:1004E000000B00F07CFB4FF0C0064FF488774FF410
:1004F000B0784FF4B8794FF0000B00F070FB4FF07C
:1005000040064FF060074FF4C0784FF4C8794FF0C1
:10051000000B00F064FB4FF030064FF050074FF433
:10052000B8784FF4C0794FF0000B00F058FB4FF053
:1005300010064FF050074FF498784FF4A0794FF021
:10054000000B00F04CFB4FF0A0064FF488774FF4FF
:10055000A0784FF4A8794FF0000B00F040FB4FF06B
:10056000F0064FF498774FF0F0084FF480794FF091
:10057000000B00F034FB4FF010064FF0E0074FF493
:1005800080784FF488794FF0000B00F028FB4FF093
:10059000A0064FF0E0074FF490784FF498794FF0B1
:1005A000000B00F01CFB4FF0A0064FF0E0074FF0EF
:1005B000A0084FF0B0094FF0000B00F010FB4FF017
:1005C00070064FF0B0074FF0B0084FF0C0094FF081
:1005D000000B00F004FB4FF070064FF0A0074FF047
:1005E00090084FF0A0094FF0000B00F0F8FA4FF020
:1005F00070064FF080074FF0A0084FF0B0094FF0A1
:10060000000B00F0ECFA4FF030064FF070074FF09F
:1006100080084FF090094FF0000B00F0E0FA4FF423
:1006200080764FF498774FF010084FF020094FF084
:10063000000B00F0D4FA4FF480764FF498774FF027
:1006400030084FF040094FF0000B00F0C8FA4FF0AF
:10065000E0064FF498774FF050084FF060094FF0E4
:10066000000B00F0BCFA4FF0C0064FF0F0074FF05F
:1006700080084FF090094FF0000B00F0B0FA4FF0F7
:1006800060064FF0B0074FF070084FF080094FF050
:10069000000B00F0A4FA4FF0A0064FF0D0074FF087
:1006A00060084FF070094FF0000B00F098FA4FF01F
:1006B000A0064FF0E0074FF030084FF040094FF030
:1006C000000B00F08CFA4FF0A0064FF0E0074FF05F
:1006D00010084FF020094FF0000B00F080FA4FF0A7
:1006E000A0064FF0B0074FF030084FF070094FF000
:1006F000000B00F074FA4FF0C0064FF0D0074FF037
:1007000070084FF080094FF0000B00F068FA4FF0CE
:10071000E0064FF0F0074FF060084FF080094FF00F
:10072000000B00F05CFA4FF488764FF490774FF4AA
:10073000C8784FF4D8794FF0000B00F050FA4FF022
:10074000A0064FF0B0074FF0A0084FF0E0094FF0BF
:10075000000B00F044FA4FF030064FF040074FF026
:1007600080084FF0F0094FF0000B00F038FA4FF01E
:1007700040064FF050074FF020084FF050094FF05F
:10078000000B00F02CFA4FF050064FF060074FF0CE
:1007900040084FF070094FF0000B00F020FA4FF0C6
:1007A000D0064FF0E0074FF0A0084FF498794FF0D3
:1007B000000B00F014FA4FF090064FF0A0074FF432
:1007C000B8784FF4D0794FF0000B00F008FA4FF0F2
:1007D00080064FF090074FF498784FF4C0794FF0AF
:1007E000000B00F0FCF94FF010064FF020074FF41B
:1007F000A8784FF4D0794FF0000B00F0F0F94FF0EB
:1008000060064FF070074FF4A8784FF4C8794FF0A6
:10081000000B00F0E4F94FF490764FF498774FF026
:10082000F0084FF4C8794FF0000B00F0D8F94FF002
:10083000C0064FF0D0074FF4B0784FF4D0794FF0A6
:10084000000B00F0CCF94FF060064FF070074FF44A
:1008500080784FF4A0794FF0000B00F0C0F94FF012
:1008600040064FF050074FF480784FF498794FF0DE
:10087000000B00F0B4F94FF0F0064FF480774FF022
:10088000A0084FF480794FF0000B00F0A8F94FF06A
:10089000A0064FF0B0074FF480784FF4A8794FF0DE
:1008A000000B00F09CF94FF488764FF490774FF0EE
:1008B00070084FF0E0094FF0000B00F090F94FF096
:1008C00010064FF020074FF010084FF488794FF0D2
:1008D000000B00F084F94FF488764FF490774FF0D6
:1008E00070084FF0E0094FF0000B00F078F94FF07E
:1008F00020064FF030074FF4C8784FF4D0794FF00E
:10090000000B00F06CF94FF070064FF080074FF4C9
:1009100098784FF4A0794FF0000B00F060F94FF099
:1009200010064FF020074FF490784FF498794FF06D
:10093000000B00F054F94FF480764FF488774FF4B1
:10094000A8784FF4B0794FF0000B00F048F94FF45D
:1009500080764FF488774FF0A0084FF0B0094FF041
:10096000000B00F03CF94FF0D0064FF0E0074FF0DD
:1009700020084FF030094FF0000B00F030F94FF431
:1009800080764FF488774FF020084FF030094FF011
:10099000000B00F024F94FF490764FF498774FF065
:1009A00040084FF050094FF0000B00F018F9BDE877
:1009B000FF4770470948804709480047FEE7FEE7C0
:1009C000FEE7FEE7FEE7FEE7FEE7FEE7FEE7FEE7FF
:1009D00004480549054A064B70470000FD09000818
:1009E000D9180008B8000020B8060020B80200207E
:1009F000B802002070477047704700004EF68851DB
:100A0000CEF20001086840F47000086070470000F2
:100A100003B5F948016841F007010160F7484FF05C
:100A200055310160F6484FF0FF310160F5484FF055
:100A300000010160F4484FF055310160F3484FF078
:100A400000010160F2484FF0FF310160F1484FF0C2
:100A500000010160F0484FF05531016003BD06B55B
:100A6000EE490A6822F400420A6022F480520A60C9
:100A700042F480620A6022F0FF0200F0FF0042EAC6
:100A800000020A6022F400620A6042F400620A6016
:100A900042F400420A6006BD704706B5DF490A68A5
:100AA00022F400420A6042F480520A6042F48062FA
:100AB0000A6022F0FF0200F0FF0042EA00020A6032
:100AC00022F400620A6042F400620A6042F40042CA
:100AD0000A6006BD704707B5D0490A6822F48072E3
:100AE0000A6000F0D3F842F480720A6000F0CEF899
:100AF0004FF03A00FFF7B3FF4FF05500FFF7CDFF7F
:100B00004FF0C500FFF7ABFF4FF05400FFF7C5FFF4
:100B10004FF00000FFF7C1FF4FF03600FFF79FFFD7
:100B20004FF00800FFF7B9FF4FF01100FFF797FFF4
:100B300000F0ACF84FF02900FFF791FF07BD7047B8
:100B40002DE9FF5F53F8044B53F8045B4FF02A0084
:100B5000FFF785FF4FEA1120FFF79FFFC8B2FFF7AD
:100B60009CFF01EB0400A0F101004FEA1020FFF709
:100B700094FF01EB0400A0F10100FFF78EFF4FF09E
:100B80002B00FFF76CFF4FEA1220FFF786FFD0B271
:100B9000FFF783FF02EB0500A0F101004FEA1020F0
:100BA000FFF77BFF02EB0500A0F10100FFF775FFE7
:100BB0004FF02C00FFF753FF04FB05F633F8020B50
:100BC0004FEA102100F0FF020846FFF766FF1046CB
:100BD000FFF763FF761EF1D1BDE8FF9F70472DE957
:100BE0003E5C5D464FF02A00FFF739FFB2464FEA00
:100BF0001A2A5046FFF751FF3046FFF74EFFBA461C
:100C00004FEA1A2A5046FFF748FF3846FFF745FFDC
:100C10004FF02B00FFF723FFC2464FEA1A2A504637
:100C2000FFF73BFF4046FFF738FFCA464FEA1A2A54
:100C30005046FFF732FF4846FFF72FFF4FF02C00DA
:100C4000FFF70DFF4FEA152105F0FF02A7EB060B9A
:100C50000BF10A0BA9EB080C0CF10A0C0BFB0CF3C3
:100C60000846FFF71AFF1046FFF717FF5B1EF7D184
:100C7000BDE83E5C704702B54FF0000A6848D0F806
:100C800000A04FF00A0000F001F802BD2DE9FF5F5F
:100C90006449091A0029FCDCBDE8FF9F7EB54FF0CE
:100CA00000024FF000014FF0040300F00F04002C8D
:100CB00014D0012C15D0022C16D0032C17D0042CE4
:100CC00018D0052C19D0062C1AD0072C1BD0082CB4
:100CD0001CD0092C1DD04FF000051CE04FF03F0543
:100CE00019E04FF0060516E04FF05B0513E04FF0FA
:100CF0004F0510E04FF066050DE04FF06D050AE07E
:100D00004FF07D0507E04FF0070504E04FF07F0549
:100D100001E04FF06F0505FA01F642EA060201F123
:100D200008014FEA10105B1EBFD110467EBD2DE9B1
:100D3000E0434FEA54051CF0010F09D0A1EB030674
:100D40000F46A2EB030802EB04099944FFF747FFA3
:100D50001CF0020F09D0A1EB030601EB04071F44AE
:100D6000A2EB03089146FFF73AFF1CF0040F0BD0EB
:100D7000A1EB030601EB04071F4402EB040802EB9E
:100D800004099944FFF72BFF1CF0080F0BD001EB6F
:100D9000040601EB04071F44A2EB030802EB04095D
:100DA0009944FFF71CFF1CF0100F08D0A1EB0306BD
:100DB0000F4602EB050802EB0409FFF710FF1CF0D9
:100DC000200F07D0A1EB03060F46904602EB050962
:100DD000FFF705FF1CF0400F0BD0A1EB030601EB62
:100DE00004071F4402EB050802EB05099944FFF7CD
:100DF000F6FEBDE8E083000030380240000002400B
:100E000008000240040002400C00024000040240BE
:100E100008040240040402400C0402401400024092
:100E200010040240046056002DE9FF474FF0000611
:100E30004FF4A0774FF000084FF4F0794FF0000B1B
:100E4000FFF7CDFE4FF008064FF49C774FF00808EF
:100E50004FF49C794FF6FF7BFFF7C1FE4FF0680619
:100E60004FF070074FF008084FF49C794FF0000BDB
:100E7000FFF7B5FE4FF0D0064FF0D8074FF0080847
:100E80004FF49C794FF0000BFFF7A9FE4FF00806D6
:100E90004FF49C774FF068084FF070094FF0000B4B
:100EA000FFF79DFE4FF008064FF49C774FF0D008F7
:100EB0004FF0D8094FF0000BFFF791FEBDE8FF4758
:100EC00070472DE9FF5FA1F108060F46A2F108085F
:100ED00002F16809FFF783FEA1F1080601F1680736
:100EE000A2F108089146FFF77AFEA1F1080601F188
:100EF000680702F1600802F16809FFF770FE01F16E
:100F0000600601F16807A2F1080802F16809FFF71D
:100F100066FEBDE8FF9F2DE900584FF0000BFFF77C
:100F2000D0FFD4460CF00F0CBCF1010F09D0BCF17E
:100F3000020F0BD0BCF1040F12D0BCF1080F0AD085
:100F400013E0D82A11D002F168020EE0082A0CD072
:100F5000A2F1680209E0082907D0A1F1680104E0C4
:100F6000D82902D001F16801FFE74FF6E07BFFF7D7
:100F7000A8FFBDE800982DE9FF5F4FF0000C08299D
:100F800009D070290AD0D8290BD0082A0CD0702A91
:100F90000DD0D82A0ED00CF1010CF6E70CF1020CA2
:100FA000F3E70CF1040CF0E70CF1080C05E00CF190
:100FB000100C02E00CF1200CFFE7BCF1240F17D05D
:100FC000BCF1220F17D0BCF1210F17D0BCF1140FC8
:100FD00017D0BCF1120F17D0BCF1110F17D0BCF114
:100FE0000C0F17D0BCF10A0F17D0BCF1090F17D0A6
:100FF0004FF0010C17E04FF0020C14E04FF0030C1F
:1010000011E04FF0040C0EE04FF0050C0BE04FF038
:10101000060C08E04FF0070C05E04FF0080C02E06A
:101020004FF0090CFFE7DFF884B0DBF800B04FEABF
:101030004C04A4F102044FF0030505FA04F50BEA91
:10104000050525FA04F5022D58D0012D56D04FF094
:10105000030505FA04F52BEA050BDFF854A0DAF8CE
:1010600000A00AF0020ABAF1020F02D0BAF1000F92
:1010700022D0AAF1020A4FF0010505FA04F54BEA65
:10108000050B0A48C0F800B04FF060034FF0000BAA
:1010900000F04EF90648C0F800A00648D0F800A0BD
:1010A0000AF1010AC0F800A034E0000000000020AE
:1010B00004000020080000200AF1020A4FF0020597
:1010C00005FA04F54BEA050B0948C0F800B04FF0EB
:1010D00060034FF0000B00F063F90648C0F800A071
:1010E0000548D0F800A00AF1010AC0F800A011E0FC
:1010F0000000002004000020080000204FF4784B7E
:10110000FFF7DFFE4FF00500FFF7C0FD4FF6E07B75
:10111000FFF7D7FEBDE8FF9F2DE9FF5F4FF000010D
:10112000F44844F2041241F2410341F21014F24D2A
:10113000F24E42F2820742F2202848F20829DFF8F4
:10114000C0A3DFF8C0B3016801EA0201914253D0A5
:10115000016801F0150115294ED0016801EA03016B
:10116000994249D0016801EA0401A14244D00168D2
:1011700001EA0501A9423FD0016801EA0601B14236
:101180003AD0016801F4A861B1F5A86F34D00168C4
:1011900001F4A831B1F5A83F2ED0016801EA07019A
:1011A000B9422FD0016801EA080141452AD00168FF
:1011B00001F02A012A2925D0016801EA09014945DF
:1011C00020D0016801EA0A0151451BD0016801F4F1
:1011D0002861B1F5286F15D0016801F42831B1F507
:1011E000283F0FD0016801EA0B0159450AD0C64ECD
:1011F0003668092E0CD011E000F012F84FF0FF31E4
:1012000001600BE000F027F84FF0FF31016005E0CE
:1012100000F03BF84FF0FF310160FFE7BDE8FF9FB2
:101220002DE9FF5F4FF000064FF4A0774FF0000864
:101230004FF4F0794FF6FF7BFFF7D1FC4FF07101CF
:101240004FF0C1024FF060034FF2FF0B00F070F857
:10125000AE48BDE8FF9F2DE9FF5F4FF000064FF459
:10126000A0774FF000084FF4F0794FF6FF7BFFF7BF
:10127000B6FC4FF071014FF0C1024FF060034FF226
:10128000FF0B00F08DF8BDE8FF9F2DE9FF5F4FF0E9
:1012900000064FF4A0774FF000084FF4F0794FF4B8
:1012A000784BFFF79CFCBDE8FF9F00B500BD2DE922
:1012B000FF5F5FF804C24FF0100BCCF800B0FFF7EF
:1012C000B3FD5FF818C24FF0000BCCF800B05FF828
:1012D0001CC24FF0000BCCF800B04FF070014FF083
:1012E00070024FF6E07BFFF7ECFDFFF7C4FC0AF05D
:1012F0001F0ABAF1000FF8D0BAF1100F02D0FFF7B1
:101300000AFEF2E7FFF737FE4FF0000BFFF7D9FDBB
:10131000FFF702FF77480068B0F1FF3F00D0DCE73D
:10132000FFF7A9FC0AF01F0ABAF1000FF8D0C6E7D0
:101330002DE9FF5F01F10A0102F10A02A3F1140392
:101340004FF0080A55464FEA5505AAEB050CACF1DB
:10135000010C4FF0000401EB0400A0EB050600EBCC
:101360000C0702EB0400A0EB050800EB0C09FFF7EB
:1013700036FCA3EB0400A0F101000844A0EB050635
:1013800000EB0C0702EB0400A0EB050800EB0C09D6
:10139000FFF725FC04F101049C42DCDBBDE8FF9F64
:1013A0002DE9FF5F01F10A0102F10A02A3F1140322
:1013B0004FF0080A55464FEA5505AAEB050CACF16B
:1013C000010C18464FEA500001EB000302EB000449
:1013D0004FF00001024602F101024FF00107A7EBB6
:1013E000000700F013F891420EDC002F03DDA2F19C
:1013F0000102A7EB420707EB410707F1010700F0E5
:1014000005F801F10101EEE7BDE8FF9F2DE9FF5F5F
:1014100003EB010004EB020AA0EB050600EB0C074E
:10142000AAEB05080AEB0C09FFF7D9FB03EB020056
:1014300004EB010AA0EB050600EB0C07AAEB05087C
:101440000AEB0C09FFF7CBFBA3EB020004EB010A4C
:10145000A0EB050600EB0C07AAEB05080AEB0C094C
:10146000FFF7BDFBA3EB010004EB020AA0EB0506AE
:1014700000EB0C07AAEB05080AEB0C09FFF7AFFB22
:10148000A3EB0100A4EB020AA0EB050600EB0C079E
:10149000AAEB05080AEB0C09FFF7A1FBA3EB02007E
:1014A000A4EB010AA0EB050600EB0C07AAEB05086C
:1014B0000AEB0C09FFF793FB03EB0200A4EB010A14
:1014C000A0EB050600EB0C07AAEB05080AEB0C09DC
:1014D000FFF785FB03EB0100A4EB020AA0EB050676
:1014E00000EB0C07AAEB05080AEB0C09FFF777FBEA
:1014F000BDE8FF9F00000020010101001004010071
:10150000200802000202020008000020040000205F
:101510002DE9C0430E4606F13207904608F1320924
:10152000FFF75DFBBDE8C0832DE9FF5F4FF00006CC
:101530004FF4A0774FF000084FF4F0794FF01F0BF5
:10154000FFF74DFB4FF00A064FF49B774FF028084A
:101550004FF4DC794FF6FF7BFFF741FB4FF4FC6B58
:101560004FF00A014FF00003062B1DD0D74810F8AA
:1015700003904FF000044FF02802082C0FD04FF0DA
:10158000010A0AFA04FA19EA0A0F03D04FF4FC6BB5
:10159000FFF7BEFF02F1320204F10104EDE701F1B1
:1015A000320103F10103DFE7BDE8FF9F2DE9F75F9B
:1015B00057469A4600F054F8A34247D04FF6E07BD6
:1015C0004FF00F00012F0ED106F1320708F132095A
:1015D000FFF705FBFFF75AFB03F1010308F132089F
:1015E000A342F1D132E0022F0ED106F1320708F109
:1015F0003209FFF7F4FAFFF749FBA3F10103A8F161
:101600003208A342F1D121E0042F0ED108F13209B2
:1016100006F13207FFF7E3FAFFF738FB03F108039F
:1016200006F13206A342F1D110E0082F0ED108F1E5
:10163000320906F13207FFF7D2FAFFF727FBA3F1D1
:101640000803A6F13206A342F1D1FFE706F1320703
:1016500008F132094FF0000BFFF7C1FABDE8F79F20
:101660003FB54FF032054FEADA0404FB05F303F10E
:101670000A060AF0070404FB05F303F128083FBD3E
:101680002DE9E744514601F00F01042906D008294D
:101690001ED0012935D0022950D06CE08C481C4660
:1016A0004FEAD40604F007054FF0010202FA05F2F2
:1016B000052E60D0864806F10106875D17425AD193
:1016C00047EA0207875504F10804052EF2D152E0DB
:1016D0001C464FEAD40604F007054FF0010202FA57
:1016E00005F2002E47D07A48A6F10106875D174221
:1016F00041D147EA02078755A4F10804002EF2D130
:1017000039E01C464FEAD40604F007054FF0010209
:1017100002FA05F2072D2ED06D4805F101054FF0B4
:10172000010202FA05F2875D174224D147EA020757
:10173000875504F10104072DEED11CE01C464FEA49
:10174000D40604F007054FF0010202FA05F2002D5D
:1017500011D05F48A5F101054FF0010202FA05F230
:10176000875D174207D147EA02078755A4F10104B4
:10177000002DEED1FFE7BDE8E7842DE9FD5F4FEADC
:10178000D30603F007074FF00508A8EB06084FF053
:101790000709A9EB0709B8F1000F0BDD06F1010BF2
:1017A0004B4C14F80B504FF0010000FA07F00542C3
:1017B00000D15CE0B8F1050F0BDAA6F1010B444C47
:1017C00014F80B504FF0010000FA07F0054200D169
:1017D0004DE014F80850B9F1000F0ADD3C4CA55D4E
:1017E00007F1010C4FF0010000FA0CF0054200D1A6
:1017F0003DE0B9F1070F0ADA354CA55DA7F1010C00
:101800004FF0010000FA0CF0054200D12FE0304CFF
:101810002578FF2D1DD16578FF2D1AD1A578FF2DD4
:1018200017D1E578FF2D14D12579FF2D11D16579D8
:10183000FF2D0ED14FF6FF714FF000064FF4A07749
:101840004FF000084FF4F0794FF4FC6BFFF7C7F945
:101850000DE04AF6AA214FF000064FF4A0774FF0B2
:1018600000084FF4F0794FF4784BFFF7B8F94FF0D8
:101870000001BDE8FD9F2DE9FF5F4FF00002134816
:101880001349835C8B5402F10102062AF7D1FFF75A
:101890004BFE104B1B781C469A464FF05006FFF744
:1018A00085FEFFF76AFF002909D1FFF7E4F90AF086
:1018B0000F0ABAF1000FF8D0FFF7E2FEEFE74FF0A2
:1018C0000100FFF7E3F9BDE8FF9F0000E4180008FE
:1018D000AC000020EA180008FFF79AF8FFF7FBF8C1
:1018E000FFF7C9FF81A581CBD9C12400000000000A
:1018F0000000000000000000000000003AFFEB13B1
:101900002A0029162E7FA9142041AF15E061ED1B96
:101910000E21EF15CA2E09144A2AF914FA2A811742
:10192000803C1F1C800415088405D50B84FD570AD4
:101930007401500B1CFC50091084700910BF000F7B
:10194000FE80FF0102000000000000103AFFEB13D0
:101950002A0029162E7FA9142041AF15E061ED1B46
:101960000E21EF15CA2E09144A2AF914FA2A8117F2
:10197000803C1F1C800415088405D50B84FD570A84
:101980007401500B1CFC50091084700910BF000F2B
:10199000FE80FF01020000000000000000000000C7
:04000005080009B531
:00000001FF
