:020000040800F2
:1000000010060020950100089D0100089F010008CE
:10001000A1010008A3010008A501000800000000DC
:10002000000000000000000000000000A701000820
:10003000A901000800000000AB010008AD010008A4
:10004000AF010008AF010008AF010008AF010008D0
:10005000AF010008AF010008AF010008AF010008C0
:10006000AF010008AF010008AF010008AF010008B0
:10007000AF010008AF010008AF010008AF010008A0
:10008000AF010008AF010008AF0100080000000048
:10009000000000000000000000000000AF010008A8
:1000A000AF010008AF010008AF010008AF01000870
:1000B000AF010008AF010008AF010008AF01000860
:1000C000AF010008AF010008AF010008AF01000850
:1000D000AF010008AF010008AF01000800000000F8
:1000E000AF010008AF010008AF01000800000000E8
:1000F000000000000000000000000000AF01000848
:1001000000000000AF010008AF010008AF010008C7
:1001100000000000000000000000000000000000DF
:10012000AF010008AF010008AF010008AF010008EF
:10013000AF01000800000000000000000000000007
:10014000000000000000000000000000AF010008F7
:10015000AF010008AF010008AF010008AF010008BF
:10016000AF010008AF01000800000000000000001F
:10017000000000000000000000000000000000007F
:1001800000000000AF0100080000000000000000B7
:10019000AF0100080948804709480047FEE7FEE72D
:1001A000FEE7FEE7FEE7FEE7FEE7FEE7FEE7FEE727
:1001B00004480549054A064B70470000DD01000868
:1001C000810B000810000020100600201002002003
:1001D0001002002070477047704700004EF68851AB
:1001E000CEF20001086840F470000860704700001B
:1001F00003B53C48016841F0070101603A484FF0FF
:100200005531016039484FF0FF31016038484FF0F7
:100210000001016037484FF05531016036484FF01A
:100220000001016035484FF0FF31016034484FF064
:100230000001016033484FF05531016003BD06B540
:1002400031490A6822F400420A6022F480520A60AE
:1002500042F480620A6022F0FF0200F0FF0042EAEE
:1002600000020A6022F400620A6042F400620A603E
:1002700042F400420A6006BD704706B522490A688A
:1002800022F400420A6042F480520A6042F4806222
:100290000A6022F0FF0200F0FF0042EA00020A605A
:1002A00022F400620A6042F400620A6042F40042F2
:1002B0000A6006BD704707B513490A6822F48072C8
:1002C0000A6000F0E9F842F480720A6000F0E4F895
:1002D0004FF03A00FFF7B3FF4FF05500FFF7CDFFA7
:1002E00000F014F8303802400000024008000240DC
:1002F000040002400C0002400004024008040240D6
:10030000040402400C040240140002404FF0C500F7
:10031000FFF795FF4FF05400FFF7AFFF4FF00000DD
:10032000FFF7ABFF4FF03600FFF789FF4FF00800F3
:10033000FFF7A3FF4FF01100FFF781FF00F0ACF8CB
:100340004FF02900FFF77BFF07BD70472DE9FF5FE6
:1003500053F8044B53F8045B4FF02A00FFF76FFF8C
:100360004FEA1120FFF789FFC8B2FFF786FF01EBC4
:100370000400A0F101004FEA1020FFF77EFF01EB1F
:100380000400A0F10100FFF778FF4FF02B00FFF70A
:1003900056FF4FEA1220FFF770FFD0B2FFF76DFF54
:1003A00002EB0500A0F101004FEA1020FFF765FF06
:1003B00002EB0500A0F10100FFF75FFF4FF02C00FA
:1003C000FFF73DFF04FB05F633F8020B4FEA10215F
:1003D00000F0FF020846FFF750FF1046FFF74DFF01
:1003E000761EF1D1BDE8FF9F70472DE93E5C5D466A
:1003F0004FF02A00FFF723FFB2464FEA1A2A504671
:10040000FFF73BFF3046FFF738FFBA464FEA1A2A9C
:100410005046FFF732FF3846FFF72FFF4FF02B0013
:10042000FFF70DFFC2464FEA1A2A5046FFF725FF95
:100430004046FFF722FFCA464FEA1A2A5046FFF706
:100440001CFF4846FFF719FF4FF02C00FFF7F7FE9F
:100450004FEA152105F0FF02A7EB060B0BF10A0B83
:10046000A9EB080C0CF10A0C0BFB0CF30846FFF788
:1004700004FF1046FFF701FF5B1EF7D1BDE83E5CAD
:10048000704702B54FF0000A0748D0F800A04FF0BF
:100490000A0000F001F802BD2DE9FF5F0349091AC7
:1004A0000029FCDCBDE8FF9F1004024004605600F8
:1004B0002DE9FF474FF000064FF4A0774FF00008FA
:1004C0004FF4F0794FF0000BFFF78FFF4FF0080665
:1004D0004FF49C774FF008084FF49C794FF6FF7B60
:1004E000FFF783FF4FF068064FF070074FF00808E2
:1004F0004FF49C794FF0000BFFF777FF4FF0D006D9
:100500004FF0D8074FF008084FF49C794FF0000BDC
:10051000FFF76BFF4FF008064FF49C774FF0680829
:100520004FF070094FF0000BFFF75FFF4FF0080628
:100530004FF49C774FF0D0084FF0D8094FF0000BE4
:10054000FFF753FFBDE8FF4770472DE9FF5FA1F1BB
:1005500008060F46A2F1080802F16809FFF745FFF7
:10056000A1F1080601F16807A2F108089146FFF71A
:100570003CFFA1F1080601F1680702F1600802F1F1
:100580006809FFF732FF01F1600601F16807A2F187
:10059000080802F16809FFF728FFBDE8FF9F2DE971
:1005A00000584FF0000BFFF7D0FFD4460CF00F0CB3
:1005B000BCF1010F09D0BCF1020F0BD0BCF1040F4C
:1005C00012D0BCF1080F0AD013E0D82A11D002F1E2
:1005D00068020EE0082A0CD0A2F1680209E008299E
:1005E00007D0A1F1680104E0D82902D001F1680127
:1005F000FFE74FF6E07BFFF7A8FFBDE800982DE985
:10060000FF5F4FF0000C082909D070290AD0D829C3
:100610000BD0082A0CD0702A0DD0D82A0ED00CF19D
:10062000010CF6E70CF1020CF3E70CF1040CF0E717
:100630000CF1080C05E00CF1100C02E00CF1200CA0
:10064000FFE7BCF1240F17D0BCF1220F17D0BCF18B
:10065000210F17D0BCF1140F17D0BCF1120F17D017
:10066000BCF1110F17D0BCF10C0F17D0BCF10A0F61
:1006700017D0BCF1090F17D04FF0010C17E04FF065
:10068000020C14E04FF0030C11E04FF0040C0EE0EC
:100690004FF0050C0BE04FF0060C08E04FF0070C94
:1006A00005E04FF0080C02E04FF0090CFFE7DFF81F
:1006B00084B0DBF800B04FEA4C04A4F102044FF020
:1006C000030505FA04F50BEA050525FA04F5022DE4
:1006D00058D0012D56D04FF0030505FA04F52BEA4A
:1006E000050BDFF854A0DAF800A00AF0020ABAF10C
:1006F000020F02D0BAF1000F22D0AAF1020A4FF085
:10070000010505FA04F54BEA050B0A48C0F800B0EC
:100710004FF060034FF0000B00F04BF90648C0F8B3
:1007200000A00648D0F800A00AF1010AC0F800A015
:1007300034E0000000000020040000200800002039
:100740000AF1020A4FF0020505FA04F54BEA050B1F
:100750000848C0F800B0084BFFF7F8FD0748C0F89C
:1007600000A00748D0F800A00AF1010AC0F800A0D4
:1007700014E00000000000208C0B000804000020A2
:10078000080000204FF4784BFFF7DFFE4FF0050024
:10079000FFF782FE4FF6E07BFFF7D7FEBDE8FF9F35
:1007A0002DE9FF5F4FF00001ED4844F2041241F2E1
:1007B000410341F21014EB4DEB4E42F2820742F23C
:1007C000202848F20829DFF8A4A3DFF8A4B30168C1
:1007D00001EA0201914253D0016801F01501152987
:1007E0004ED0016801EA0301994249D0016801EA4B
:1007F0000401A14244D0016801EA0501A9423FD0A9
:10080000016801EA0601B1423AD0016801F4A86129
:10081000B1F5A86F34D0016801F4A831B1F5A83F53
:100820002ED0016801EA0701B9422FD0016801EA20
:10083000080141452AD0016801F02A012A2925D062
:10084000016801EA0901494520D0016801EA0A016D
:1008500051451BD0016801F42861B1F5286F15D00E
:10086000016801F42831B1F5283F0FD0016801EA91
:100870000B0159450AD0BF4E3668092E0CD011E045
:1008800000F012F84FF0FF3101600BE000F027F8A4
:100890004FF0FF31016005E000F038F84FF0FF3114
:1008A0000160FFE7BDE8FF9F2DE9FF5F4FF0000605
:1008B0004FF4A0774FF000084FF4F0794FF6FF7B2C
:1008C000FFF793FD4FF071014FF0C1024FF060034D
:1008D0004FF2FF0B00F06DF8A748BDE8FF9F2DE930
:1008E000FF5F4FF000064FF4A0774FF000084FF481
:1008F000F0794FF6FF7BFFF778FD4FF071014FF075
:10090000C1029E4BFFF722FDBDE8FF9F2DE9FF5F6F
:100910004FF000064FF4A0774FF000084FF4F07945
:100920004FF4784BFFF761FDBDE8FF9F00B500BDB8
:100930002DE9FF5F5FF800C24FF0100BCCF800B05C
:10094000FFF7B6FD5FF814C24FF0000BCCF800B013
:100950005FF818C24FF0000BCCF800B04FF07001F8
:100960004FF070024FF6E07BFFF7EFFDFFF789FDD8
:100970000AF01F0ABAF1000FF8D0BAF1100F02D036
:10098000FFF70DFEF2E7FFF73AFE4FF0000BFFF71F
:10099000DCFDFFF705FF72480068B0F1FF3F00D0B3
:1009A000DCE7FFF76EFD0AF01F0ABAF1000FF8D07E
:1009B000C6E72DE9FF5F4FF0070A55464FEA550598
:1009C000AAEB050CACF1010C4FF0000401EB0400A4
:1009D000A0EB050600EB0C0702EB0400A0EB0508FA
:1009E00000EB0C09FFF701FDA3EB0400A0F10100EF
:1009F0000844A0EB050600EB0C0702EB0400A0EB9B
:100A0000050800EB0C09FFF7F0FC04F101049C421F
:100A1000DCDBBDE8FF9F2DE9FF5F4FF0070A55467D
:100A20004FEA5505AAEB050CACF1010C18464FEA4C
:100A300050000446064601EB000802EB00094FF0A7
:100A40000107A7EB0007A64210DC00F011F806F141
:100A5000010607EB460707F10107002FF3DBA4F1BE
:100A60000104A7EB440707F10107ECE7BDE8FF9F8E
:100A70002DE9FF5F42464B46B246A34602EB0A0011
:100A800003EB0B01A0EB050600EB0C07A1EB05083F
:100A900001EB0C09FFF7A9FC02EB0B0003EB0A01C9
:100AA000A0EB050600EB0C07A1EB050801EB0C0918
:100AB000FFF79BFCA2EB0B0003EB0A01A0EB050682
:100AC00000EB0C07A1EB050801EB0C09FFF78DFC0F
:100AD000A2EB0A0003EB0B01A0EB050600EB0C07F1
:100AE000A1EB050801EB0C09FFF77FFCA2EB0A0064
:100AF000A3EB0B01A0EB050600EB0C07A1EB05082F
:100B000001EB0C09FFF771FCA2EB0B00A3EB0A0150
:100B1000A0EB050600EB0C07A1EB050801EB0C09A7
:100B2000FFF763FC02EB0B00A3EB0A01A0EB050649
:100B300000EB0C07A1EB050801EB0C09FFF755FCD6
:100B400002EB0A00A3EB0B01A0EB050600EB0C0780
:100B5000A1EB050801EB0C09FFF747FCBDE8FF9F7F
:100B60000000002001010100100401002008020023
:100B70000202020008000020040000208C0B000884
:100B8000FFF736FBFFF797FBFFF7D2FE6000000090
:100B900060000000FFFFFFFFFFFFFFFFFFFFFFFF01
:100BA000FFFFFFFFFFFFFFFFFFFFFFFFFFFFFFFF55
:100BB000FFFFFFFFFFFFFFFFFFFFFFFFFFFFFFFF45
:100BC000FFFFFFFFFFFFFFFFFFFFFFFFFFFFFFFF35
:100BD000FFFFFFFFFFFFFFFFFFFFFFFFFFFFFFFF25
:100F9000FFFFFFFFFFFFDFFFFFFFFFFFFFFFFFFF81
:100FA000FFFFFFFF1CE738C634A530846D6BEB5A9A
:100FB0008A52694A694A8A52EB5A8E73308434A540
:100FC00038C6FBDEFFFFFFFFFFFFFFFFFFFFFFFF56
:100FD000DFFFFFFFFFFFFFFFFFFFFFFFFFFFFFFF41
:100FE000FFFFFFFFFFFFFFFFFFFFFFFFFFFFFFFF11
:100FF000FFFFFFFFFFFFFFFFFFFFFFFFFFFFFFFF01
:10100000FFFFFFFFFFFFFFFFFFFFFFFFFFFFFFFFF0
:10101000FFFFFFFFFFFFFFFFFFFFFFFFFFFFFFFFE0
:10102000FFFFFFFFFFFFFFFFFFFFFFFFFFFFFFFFD0
:10103000FFFFFFFFFFFFFFFFFFFFFFFFFFFFFFFFC0
:10104000FFFFFFFFFFFFFFFFFFFFFFFFFFFFFFFFB0
:10105000FFFFFFFFFFFFFFFFFFFFFFFFBAD6D39C9D
:10106000CB5A652941080000000000000000000084
:101070000000000000000000000000000000000070
:10108000000041084529CB5AD39CBAD6DFFFFFFFA9
:10109000FFFFFFFFFFFFFFFFFFFFFFFFFFFFFFFF60
:1010A000FFFFFFFFFFFFFFFFFFFFFFFFFFFFFFFF50
:1010B000FFFFFFFFFFFFFFFFFFFFFFFFFFFFFFFF40
:1010C000FFFFFFFFFFFFFFFFFFFFFFFFFFFFFFFF30
:1010D000FFFFFFFFFFFFFFFFFFFFFFFFFFFFFFFF20
:1010E000FFFFFFFFFFFFFFFFFFFFFFFFFFFFFFFF10
:1010F000FFFFFFFFFFFFFFFFFFFFFFFFFFFFFFFF00
:10110000FFFFFFFFFFFFFFFFFFFFFFFFFFFFFFFFEF
:10111000FFFFFFFFFFFF59CECF7B652900000000D6
:10112000200000000000000000000000000000009F
:1011300000000000000000000000000000000000AF
:101140000000000000000000000000004529CF7BE7
:1011500059CEFFFFFFFFFFFFFFFFFFFFFFFFFFFF76
:10116000FFFFFFFFFFFFFFFFFFFFFFFFFFFFFFFF8F
:10117000FFFFFFFFFFFFFFFFFFFFFFFFFFFFFFFF7F
:10118000FFFFFFFFFFFFFFFFFFFFFFFFFFFFFFFF6F
:10119000FFFFFFFFFFFFFFFFFFFFFFFFFFFFFFFF5F
:1011A000FFFFFFFFFFFFFFFFFFFFFFFFFFFFFFFF4F
:1011B000FFFFFFFFFFFFFFFFFFFFFFFFFFFFFFFF3F
:1011C000FFFFFFFFFFFFFFFFFFFFFFFFFFFFFFFF2F
:1011D0007DEFD39CA631000000000000000000005D
:1011E00000000000000000000000000000000000FF
:1011F00000000000000000000000000000000000EF
:1012000000000000000000000000000000000000DE
:101210000000A631D39C5DEFFFFFFFFFFFFFFFFF44
:10122000FFFFFFFFFFFFFFFFFFFFFFFFFFFFFFFFCE
:10123000FFFFFFFFFFFFFFFFFFFFFFFFFFFFFFFFBE
:10124000FFFFFFFFFFFFFFFFFFFFFFFFFFFFFFFFAE
:10125000FFFFFFFFFFFFFFFFFFFFFFFFFFFFFFFF9E
:10126000FFFFFFFFFFFFFFFFFFFFFFFFFFFFFFFF8E
:10127000FFFFFFFFFFFFFFFFFFFFFFFFFFFFFFFF7E
:10128000FFFFFFFFFFFFFFFFFFFFFFFF5DEFEF7BB4
:10129000C318000020000000000000000000000053
:1012A000000000000000000000000000000000003E
:1012B000000000000000000000000000000000002E
:1012C000000000000000000000000000000000001E
:1012D000000020000000C318CF7B3CE7FFFFFFFFAA
:1012E000FFFFFFFFFFFFFFFFFFFFFFFFFFFFFFFF0E
:1012F000DFFFFFFFFFFFFFFFFFFFFFFFFFFFFFFF1E
:10130000FFFFFFFFFFFFFFFFFFFFFFFFFFFFFFFFED
:10131000FFFFFFFFFFFFFFFFFFFFFFFFFFFFFFFFDD
:10132000FFFFFFFFFFFFFFFFFFFFFFFFFFFFFFFFCD
:10133000FFFFFFFFFFFFFFFFFFFFDFFFFFFFFFFFDD
:10134000DFFFFFFFFFFFFFFFBEF73084A2100000AA
:10135000200000000000000000000000000000006D
:10136000000000000000000000000000000000007D
:10137000000000000000000000000000000000006D
:10138000000000000000000000000000000000005D
:1013900000000000000020000000A2101084BEF732
:1013A000FFFFFFFFFFFFFFFFFFFFFFFFFFFFFFFF4D
:1013B000FFFFFFFFFFFFFFFFFFFFFFFFFFFFFFFF3D
:1013C000FFFFFFFFFFFFFFFFFFFFFFFFFFFFFFFF2D
:1013D000FFFFFFFFFFFFFFFFFFFFFFFFFFFFFFFF1D
:1013E000FFFFFFFFFFFFFFFFFFFFFFFFFFFFFFFF0D
:1013F000FFFFFFFFFFFFFFFFFFFFFFFFFFFFDFFF1D
:10140000FFFFFFFFFFFF96B5042100000000000072
:1014100000000000000020000000000000000000AC
:10142000200000000000000000000000000000009C
:1014300000000000000000000000000000000000AC
:10144000000000000000200000000000000000007C
:101450002000000000000000000000000000042147
:1014600096B5FFFFFFFFFFFFFFFFFFFFFFFFFFFF3F
:10147000DFFFFFFFFFFFFFFFFFFFFFFFFFFFFFFF9C
:10148000FFFFFFFFFFFFFFFFFFFFFFFFFFFFFFFF6C
:10149000FFFFFFFFFFFFFFFFFFFFFFFFFFFFFFFF5C
:1014A000FFFFFFFFFFFFFFFFFFFFFFFFFFFFFFFF4C
:1014B000FFFFFFFFFFFFFFFFFFFFFFFFDFFFFFFF5C
:1014C000FFFF3CE7CB5A00000000000000000000D6
:1014D00020000000000000000000000020000000CC
:1014E0000000000000000000000000000000610893
:1014F000A210A210A210A2106108000000000000BB
:1015000000000000000000000000200000000000BB
:1015100000000000000000000000000000002000AB
:101520000000CB5A3CE7FFFFFFFFFFFFFFFFDFFF9D
:10153000FFFFFFFFFFFFFFFFFFFFFFFFFFFFFFFFBB
:10154000FFFFFFFFFFFFFFFFFFFFFFFFFFFFFFFFAB
:10155000FFFFFFFFFFFFFFFFFFFFFFFFFFFFFFFF9B
:10156000FFFFFFFFFFFFFFFFFFFFFFFFFFFFFFFF8B
:10157000FFFFFFFFFFFFFFFFFFFFFFFFFFFFFFFF7B
:1015800096B50421000000000000000000000000EB
:10159000000000000000000000000000000000004B
:1015A0000000821008424D6BF39CF7BD9AD61CE7F1
:1015B0007DEFBEF7BEF77DEF1CE79AD6F7BDF39C33
:1015C0004D6B084282100000000000000000000087
:1015D000000000000000000000000000000000000B
:1015E00000000000042175ADFFFFFFFFFFFFFFFFBC
:1015F000FFFFFFFFFFFFFFFFFFFFFFFFFFFFFFFFFB
:10160000FFFFFFFFFFFFFFFFFFFFFFFFFFFFFFFFEA
:10161000FFFFFFFFFFFFFFFFFFFFFFFFFFFFFFFFDA
:10162000FFFFFFFFFFFFFFFFFFFFFFFFFFFFFFFFCA
:10163000FFFFFFFFFFFFDFFFFFFFDFFFFFFF308444
:10164000000000000000000000000000000000009A
:1016500000000000000000000000000024216D6B6D
:10166000B6B57DEFFFFFFFFFFFFFFFFFFFFFFFFFAF
:10167000FFFFFFFFFFFFFFFFFFFFFFFFFFFFFFFF7A
:10168000FFFFFFFF7DEFD7BD6D6B45290000000018
:10169000000000000000000000000000000000004A
:1016A00000002000000000001084FFFFDFFFFFFFAC
:1016B000FFFFFFFFFFFFFFFFFFFFFFFFFFFFFFFF3A
:1016C000FFFFFFFFFFFFFFFFFFFFFFFFFFFFFFFF2A
:1016D000FFFFFFFFFFFFFFFFFFFFFFFFFFFFFFFF1A
:1016E000FFFFFFFFFFFFFFFFFFFFFFFFFFFFFFFF0A
:1016F000FFFFFFFFFFFFFFFFFFFFBEF7CB5A00001A
:1017000000000000000000000000000000000000D9
:101710000000000000002000CB5AD7BDDFFFFFFF14
:10172000FFFFFFFFFFFFFFFFFFFFFFFFFFFFFFFFC9
:10173000FFFFFFFFFFFFFFFFFFFFFFFFFFFFFFFFB9
:10174000FFFFFFFFFFFFFFFFFFFFDFFFD7BDCB5A0C
:101750004108000000000000000000000000000040
:1017600000000000000000000000AA52DFFFFFFFA1
:10177000FFFFFFFFFFFFFFFFFFFFFFFFFFFFFFFF79
:10178000FFFFFFFFFFFFFFFFFFFFFFFFFFFFFFFF69
:10179000FFFFFFFFFFFFFFFFFFFFFFFFFFFFFFFF59
:1017A000FFFFFFFFFFFFFFFFFFFFFFFFFFFFFFFF49
:1017B000FFFFFFFFFFFFFFFF7DEFE73900000000A5
:1017C0000000000000000000000000000000000019
:1017D000000041086D6BDBDEFFFFDFFFFFFFFFFF57
:1017E000FFFFFFFFFFFFFFFFFFFFFFFFFFFFFFFF09
:1017F000FFFFFFFFFFFFFFFFFFFFFFFFFFFFFFFFF9
:10180000FFFFFFFFFFFFFFFFFFFFFFFFDFFFFFFF08
:10181000FBDE6D6B410800000000000000000000CE
:10182000000000000000000000000000E7397DEF2C
:10183000FFFFFFFFFFFFFFFFFFFFFFFFFFFFFFFFB8
:10184000FFFFFFFFFFFFFFFFFFFFFFFFFFFFFFFFA8
:10185000FFFFFFFFFFFFFFFFFFFFFFFFFFFFFFFF98
:10186000FFFFFFFFFFFFFFFFDFFFFFFFFFFFFFFFA8
:10187000FFFFFFFFFFFF3CE7A63100000000000074
:101880000000000000000000000020000000000038
:101890000C63DBDEFFFFFFFFFFFFFFFFFFFFDFFF4C
:1018A000FFFFFFFFFFFFFFFFFFFFFFFFFFFFFFFF48
:1018B000FFFFFFFFFFFFFFFFFFFFFFFFFFFFFFFF38
:1018C000FFFFFFFFFFFFFFFFDFFFFFFFFFFFFFFF48
:1018D000FFFFFFFFDBDE0C630000000020000000C4
:1018E0000000000000000000000000000000A63121
:1018F0003CE7FFFFFFFFDFFFFFFFFFFFFFFFDFFF13
:10190000FFFFFFFFFFFFFFFFFFFFFFFFFFFFFFFFE7
:10191000FFFFFFFFFFFFFFFFFFFFFFFFFFFFFFFFD7
:10192000FFFFFFFFFFFFFFFFFFFFFFFFFFFFFFFFC7
:10193000FFFFFFFF9EF7863100000000000000005F
:101940002000000000000000000000004529D7BD75
:10195000FFFFFFFFFFFFFFFFFFFFFFFFFFFFFFFF97
:10196000FFFFFFFFFFFFFFFFFFFFFFFFFFFFFFFF87
:10197000FFFFFFFFFFFFFFFFFFFFFFFFFFFFFFFF77
:10198000FFFFFFFFDFFFFFFFFFFFFFFFFFFFFFFF87
:10199000FFFFFFFFFFFFFFFFD7BD4529000000004D
:1019A0000000000000002000000000000000000017
:1019B00065297DEFFFFFFFFFFFFFFFFFFFFFFFFF39
:1019C000FFFFFFFFFFFFFFFFFFFFFFFFFFFFFFFF27
:1019D000FFFFFFFFFFFFFFFFFFFFFFFFFFFFFFFF17
:1019E000FFFFFFFFFFFFFFFFFFFFFFFFFFFFFFFF07
:1019F000FFFFDFFFE73900002000000000000000CB
:101A0000000000000000000000006D6BDFFFFFFF22
:101A1000FFFFFFFFFFFFFFFFFFFFFFFFFFFFFFFFD6
:101A2000DFFFFFFFFFFFFFFFFFFFFFFFFFFFFFFFE6
:101A3000FFFFFFFFFFFFFFFFFFFFFFFFFFFFFFFFB6
:101A4000FFFFFFFFFFFFDFFFFFFFFFFFDFFFFFFFE6
:101A5000FFFFFFFFFFFFFFFFFFFFDFFF6D6B0000DA
:101A60002000000000000000000000000000200036
:101A70000000C739FFFFFFFFFFFFFFFFDFFFFFFF92
:101A8000DFFFFFFFFFFFFFFFFFFFFFFFFFFFFFFF86
:101A9000FFFFFFFFFFFFFFFFFFFFFFFFFFFFFFFF56
:101AA000FFFFFFFFFFFFFFFFFFFFFFFFFFFFFFFF46
:101AB000FFFFAA520000000000000000000000002C
:101AC000000000000000410834A5DFFFFFFFFFFF1A
:101AD000FFFFFFFFFFFFFFFFFFFFFFFFFFFFFFFF16
:101AE000FFFFFFFFFFFFFFFFFFFFFFFFFFFFFFFF06
:101AF000FFFFFFFFFFFFFFFFFFFFFFFFFFFFFFFFF6
:101B0000FFFFFFFFFFFFFFFFFFFFFFFFFFFFFFFFE5
:101B1000FFFFFFFFFFFFFFFFFFFFFFFFFFFF34A5FA
:101B2000410800000000000000000000000000006C
:101B3000000000008A52FFFFFFFFFFFFFFFFFFFFD3
:101B4000FFFFFFFFFFFFFFFFFFFFFFFFFFFFFFFFA5
:101B5000FFFFFFFFFFFFFFFFFFFFFFFFFFFFFFFF95
:101B6000FFFFFFFFFFFFFFFFFFFFFFFFFFFFDFFFA5
:101B700030840000000000000000000000000000B1
:101B800000000000C31879CEFFFFFFFFFFFFFFFF3B
:101B9000FFFFFFFFFFFFFFFFFFFFFFFFFFFFFFFF55
:101BA000FFFFFFFFFFFFFFFFFFFFFFFFFFFFFFFF45
:101BB000FFFFFFFFFFFFFFFFFFFFFFFFFFFFFFFF35
:101BC000FFFFFFFFFFFFFFFFFFFFFFFFFFFFFFFF25
:101BD000FFFFFFFFFFFFFFFFFFFFFFFFFFFFFFFF15
:101BE00079CEE318000000000000000000000000B3
:101BF0002000000000001084DFFFFFFFFFFFFFFF59
:101C0000FFFFFFFFFFFFFFFFFFFFFFFFFFFFFFFFE4
:101C1000FFFFFFFFFFFFFFFFFFFFFFFFFFFFFFFFD4
:101C2000FFFFFFFFFFFFDFFFFFFFFFFFFFFFD7BD4E
:101C300000000000000000000000000000000000A4
:101C4000000024211CE7DFFFFFFFFFFFFFFFFFFF76
:101C5000FFFFFFFFFFFFFFFFFFFFFFFFFFFFFFFF94
:101C6000FFFFFFFFFFFFFFFFFFFFFFFFFFFFFFFF84
:101C7000FFFFFFFFFFFFFFFFFFFFFFFFFFFFFFFF74
:101C8000FFFFFFFFFFFFFFFFFFFFFFFFFFFFFFFF64
:101C9000FFFFFFFFFFFFFFFFFFFFFFFFFFFFFFFF54
:101CA000DFFF1CE7452900000000000000000000E5
:101CB0000000000000000000B6B5FFFFFFFFFFFFBF
:101CC000FFFFFFFFFFFFFFFFFFFFFFFFFFFFFFFF24
:101CD000FFFFFFFFFFFFFFFFFFFFFFFFFFFFFFFF14
:101CE000FFFFFFFFFFFFDFFFFFFFFFFF5DEFC318F9
:101CF00000000000000000000000000000000000E4
:101D000024213CE7FFFFFFFFFFFFFFFFFFFFFFFF77
:101D1000FFFFFFFFFFFFFFFFFFFFFFFFFFFFFFFFD3
:101D2000FFFFFFFFFFFFFFFFFFFFFFFFFFFFFFFFC3
:101D3000FFFFFFFFFFFFFFFFFFFFFFFFFFFFFFFFB3
:101D4000FFFFFFFFFFFFFFFFFFFFFFFFFFFFFFFFA3
:101D5000FFFFFFFFFFFFFFFFFFFFFFFFFFFFFFFF93
:101D6000FFFFFFFF3CE7242100000000000000000F
:101D70000000000000000000C3183CE7FFFFFFFF69
:101D8000DFFFFFFFFFFFFFFFFFFFFFFFFFFFFFFF83
:101D9000FFFFFFFFFFFFFFFFFFFFFFFFFFFFFFFF53
:101DA000FFFFFFFFFFFFFFFFFFFFFFFFAA52200023
:101DB0000000000000000000000000000000C31848
:101DC0001CE7FFFFFFFFFFFFFFFFFFFFFFFFFFFF1E
:101DD000FFFFFFFFFFFFFFFFFFFFFFFFFFFFFFFF13
:101DE000FFFFFFFFFFFFFFFFFFFFFFFFFFFFFFFF03
:101DF000FFFFFFFFFFFFFFFFFFFFFFFFFFFFFFFFF3
:101E0000FFFFFFFFFFFFFFFFFFFFFFFFFFFFFFFFE2
:101E1000FFFFFFFFFFFFFFFFFFFFFFFFFFFFFFFFD2
:101E2000FFFFFFFFFFFF1CE7C318000000000000DA
:101E300000000000000000002000AA52FFFFFFFF8A
:101E4000FFFFFFFFFFFFFFFFFFFFFFFFFFFFFFFFA2
:101E5000FFFFFFFFFFFFFFFFFFFFFFFFFFFFFFFF92
:101E6000FFFFFFFFFFFFFFFFFFFFD7BD00000000E8
:101E7000000000000000000000000000200079CEFB
:101E8000FFFFFFFFFFFFFFFFFFFFFFFFFFFFFFFF62
:101E9000FFFFFFFFFFFFFFFFFFFFFFFFFFFFFFFF52
:101EA000FFFFFFFFFFFFFFFFFFFFFFFFFFFFFFFF42
:101EB000FFFFFFFFFFFFFFFFFFFFFFFFFFFFFFFF32
:101EC000FFFFFFFFFFFFFFFFFFFFFFFFFFFFFFFF22
:101ED000FFFFFFFFFFFFFFFFFFFFFFFFFFFFFFFF12
:101EE000FFFFFFFFDFFFFFFF79CE4108000000008A
:101EF000000000002000000000000000B6B5FFFF59
:101F0000FFFFFFFFFFFFFFFFFFFFFFFFFFFFFFFFE1
:101F1000FFFFFFFFFFFFFFFFFFFFFFFFFFFFFFFFD1
:101F2000FFFFFFFFFFFFDFFFBEF7042100000000FF
:101F300000000000000000000000000055ADFFFFA1
:101F4000FFFFFFFFFFFFFFFFFFFFFFFFFFFFFFFFA1
:101F5000FFFFFFFFFFFFFFFFFFFFFFFFFFFFFFFF91
:101F6000FFFFFFFFFFFFFFFFFFFFFFFFFFFFFFFF81
:101F7000FFFFFFFFFFFFFFFFFFFFFFFFFFFFFFFF71
:101F8000FFFFFFFFFFFFFFFFFFFFFFFFFFFFFFFF61
:101F9000FFFFFFFFFFFFFFFFFFFFFFFFFFFFFFFF51
:101FA000FFFFFFFFFFFFFFFFFFFF55AD0000000039
:101FB0000000000000000000000000000421BEF747
:101FC000FFFFFFFFFFFFFFFFFFFFFFFFFFFFFFFF21
:101FD000FFFFFFFFFFFFFFFFFFFFFFFFFFFFFFFF11
:101FE000FFFFFFFFFFFFFFFF308400000000000045
:101FF000000000000000000000002C63FFFFFFFF56
:10200000FFFFFFFFFFFFFFFFFFFFFFFFFFFFFFFFE0
:10201000FFFFFFFFFFFFFFFFFFFFFFFFFFFFFFFFD0
:10202000FFFFFFFFFFFFFFFFFFFFFFFFFFFFFFFFC0
:10203000FFFFFFFFFFFFFFFFFFFFFFFFFFFFFFFFB0
:10204000FFFFFFFFFFFFFFFFFFFFFFFFFFFFFFFFA0
:10205000FFFFFFFFFFFFFFFFFFFFFFFFFFFFFFFF90
:10206000FFFFFFFFFFFFFFFFDFFFFFFF2C6300000D
:1020700000000000000000000000000000003084AC
:10208000FFFFFFFFFFFFFFFFFFFFFFFFFFFFFFFF60
:10209000FFFFFFFFFFFFFFFFFFFFFFFFFFFFFFFF50
:1020A000FFFFFFFFFFFF7DEF610800002000000041
:1020B00000000000000000002421DFFFDFFFFFFF21
:1020C000FFFFFFFFFFFFFFFFFFFFFFFFFFFFFFFF20
:1020D000FFFFFFFFFFFFFFFFFFFFFFFFFFFFFFFF10
:1020E000FFFFFFFFFFFFFFFFFFFFFFFFFFFFFFFF00
:1020F000FFFFFFFFFFFFFFFFFFFFFFFFFFFFFFFFF0
:10210000FFFFFFFFFFFFFFFFFFFFFFFFFFFFFFFFDF
:10211000FFFFFFFFFFFFFFFFFFFFFFFFFFFFFFFFCF
:10212000FFFFFFFFFFFFFFFFFFFFDFFFDFFF45298F
:102130000000000000000000000020000000610816
:102140005DEFFFFFFFFFFFFFFFFFFFFFFFFFFFFF51
:10215000FFFFFFFFFFFFFFFFFFFFFFFFFFFFFFFF8F
:10216000FFFFFFFFFFFFEF7B00000000000000000B
:10217000000000002000000018C6DFFFFFFFFFFF87
:10218000FFFFFFFFFFFFFFFFFFFFFFFFFFFFFFFF5F
:10219000FFFFFFFFFFFFFFFFFFFFFFFFFFFFFFFF4F
:1021A000FFFFFFFFFFFFFFFFFFFFFFFFFFFFFFFF3F
:1021B000FFFFFFFFFFFFFFFFFFFFFFFFFFFFFFFF2F
:1021C000FFFFFFFFFFFFFFFFFFFFFFFFFFFFFFFF1F
:1021D000FFFFFFFFFFFFFFFFFFFFFFFFFFFFFFFF0F
:1021E000FFFFFFFFFFFFFFFFFFFFFFFFFFFF38C6FF
:1021F00000000000000000000000000000000000DF
:10220000EF7BFFFFFFFFFFFFFFFFFFFFFFFFFFFF72
:10221000FFFFFFFFFFFFFFFFFFFFFFFFFFFFFFFFCE
:10222000FFFFFFFF9EF7A21020000000000020002B
:10223000000000000000EB5AFFFFDFFFFFFFFFFF81
:10224000FFFFFFFFFFFFFFFFFFFFFFFFFFFFFFFF9E
:10225000FFFFFFFFFFFFFFFFFFFFFFFFFFFFFFFF8E
:10226000FFFFFFFFFFFFFFFFFFFFFFFFFFFFFFFF7E
:10227000FFFFFFFFFFFFFFFFFFFFFFFFFFFFFFFF6E
:10228000FFFFFFFFFFFFFFFFFFFFFFFFFFFFFFFF5E
:10229000FFFFFFFFFFFFFFFFFFFFFFFFFFFFFFFF4E
:1022A000FFFFFFFFFFFFFFFFFFFFFFFFFFFFFFFF3E
:1022B000EB5A0000000000002000000000000000B9
:1022C00082109EF7FFFFFFFFFFFFFFFFFFFFFFFFF3
:1022D000FFFFFFFFFFFFFFFFFFFFFFFFFFFFFFFF0E
:1022E000FFFFFFFFD39C0000000000000000000083
:1022F0000000000020001CE7FFFFFFFFFFFFFFFFC3
:10230000FFFFFFFFFFFFFFFFFFFFFFFFFFFFFFFFDD
:10231000FFFFFFFFFFFFFFFFFFFFFFFFFFFFFFFFCD
:10232000FFFFFFFFFFFFFFFFFFFFFFFFFFFFFFFFBD
:10233000FFFFFFFFFFFFFFFFFFFFFFFFFFFFFFFFAD
:10234000FFFFFFFFFFFFFFFFFFFFFFFFFFFFFFFF9D
:10235000FFFFFFFFFFFFFFFFFFFFFFFFFFFFFFFF8D
:10236000FFFFFFFFFFFFFFFFFFFFFFFFFFFFFFFF7D
:102370001CE7410800000000000000000000000011
:102380000000D39CFFFFFFFFFFFFFFFFFFFFFFFFEA
:10239000FFFFFFFFFFFFFFFFFFFFFFFFFFFFFFFF4D
:1023A000FFFFFFFF8631200000000000200000003A
:1023B000000000006D6BFFFFFFFFFFFFFFFFFFFF4F
:1023C000FFFFFFFFFFFFFFFFFFFFFFFFFFFFFFFF1D
:1023D000FFFFFFFFFFFFFFFFFFFFFFFFFFFFFFFF0D
:1023E000FFFFFFFFFFFFFFFFFFFFFFFFFFFFFFFFFD
:1023F000FFFFFFFFFFFFFFFFFFFFFFFFFFFFFFFFED
:10240000FFFFFFFFFFFFFFFFFFFFFFFFFFFFFFFFDC
:10241000FFFFFFFFFFFFFFFFFFFFFFFFFFFFFFFFCC
:10242000FFFFFFFFFFFFFFFFFFFFFFFFFFFFFFFFBC
:10243000FFFF6D6B000000000000000000000000C6
:1024400000008631FFFFFFFFFFFFFFFFFFFFFFFFE1
:10245000FFFFFFFFFFFFFFFFFFFFFFFFFFFFDFFFAC
:10246000FFFF59CE00000000200000000000000027
:1024700000002000FBDEFFFFFFFFFFFFFFFFFFFF6D
:10248000FFFFFFFFFFFFFFFFFFFFFFFFFFFFFFFF5C
:10249000FFFFFFFFFFFFFFFFFFFFFFFFFFFFFFFF4C
:1024A000FFFFFFFFFFFFFFFFFFFFFFFFFFFFFFFF3C
:1024B000FFFFFFFFFFFFFFFFFFFFFFFFFFFFFFFF2C
:1024C000FFFFFFFFFFFFFFFFFFFFFFFFFFFFFFFF1C
:1024D000FFFFFFFFFFFFFFFFFFFFFFFFFFFFFFFF0C
:1024E000FFFFFFFFFFFFFFFFFFFFDFFFFFFFFFFF1C
:1024F000FFFF1CE72000000000000000000020009B
:102500000000000059CEFFFFDFFFFFFFFFFFFFFFCE
:10251000FFFFFFFFFFFFFFFFFFFFFFFFFFFFDFFFEB
:10252000FFFFAE730000000000000000000000008C
:102530000000AA52FFFFDFFFFFFFFFFFFFFFFFFFCB
:10254000FFFFFFFFFFFFFFFFFFFFFFFFFFFFFFFF9B
:10255000FFFFFFFFFFFFFFFFFFFFFFFFFFFFFFFF8B
:10256000FFFFFFFFFFFFFFFFFFFFFFFFFFFFFFFF7B
:10257000FFFFFFFFFFFFFFFFFFFFFFFFFFFFFFFF6B
:10258000FFFFFFFFFFFFFFFFFFFFFFFFFFFFFFFF5B
:10259000FFFFFFFFFFFFFFFFFFFFFFFFFFFFFFFF4B
:1025A000FFFFFFFFFFFFFFFFFFFFFFFFFFFFFFFF3B
:1025B000DFFFFFFFAA520000000000000000000043
:1025C00000000000AE73FFFFFFFFFFFFFFFFFFFFF4
:1025D000FFFFFFFFFFFFFFFFFFFFFFFFFFFFFFFF0B
:1025E000DFFF45290000000000000000000000009F
:1025F000000018C6FFFFFFFFFFFFDFFFFFFFFFFF29
:10260000FFFFFFFFFFFFFFFFFFFFFFFFFFFFFFFFDA
:10261000FFFFFFFFFFFFFFFFFFFFFFFFFFFFFFFFCA
:10262000FFFFFFFFFFFFFFFFFFFFFFFFFFFFFFFFBA
:10263000FFFFFFFFFFFFFFFFFFFFFFFFFFFFFFFFAA
:10264000FFFFFFFFFFFFFFFFFFFFFFFFFFFFFFFF9A
:10265000FFFFFFFFFFFFFFFFFFFFFFFFFFFFFFFF8A
:10266000FFFFFFFFFFFFFFFFFFFFFFFFFFFFFFFF7A
:10267000FFFFFFFF18C60000000000000000000080
:10268000000000004529DFFFFFFFFFFFFFFFFFFF06
:10269000FFFFFFFFFFFFFFFFFFFFFFFFFFFFFFFF4A
:1026A000BAD600000000000000000000000000009A
:1026B0000421DFFFFFFFFFFFFFFFFFFFFFFFFFFF23
:1026C000FFFFFFFFFFFFFFFFFFFFFFFFFFFFFFFF1A
:1026D000FFFFFFFFFFFFFFFFFFFFFFFFFFFFFFFF0A
:1026E000FFFFFFFFFFFFFFFFFFFFFFFFFFFFFFFFFA
:1026F000FFFFFFFFFFFFFFFFFFFFFFFFFFFFFFFFEA
:10270000FFFFFFFFFFFFFFFFFFFFFFFFFFFFFFFFD9
:10271000FFFFFFFFFFFFFFFFFFFFFFFFFFFFFFFFC9
:10272000FFFFFFFFFFFFFFFFFFFFFFFFFFFFFFFFB9
:10273000FFFFFFFFDFFF042100000000000000009A
:10274000000000000000BAD6FFFFFFFFFFFFFFFF01
:10275000FFFFFFFFFFFFFFFFFFFFFFFFFFFFFFFF89
:10276000D39C0000200000000000000000000000DA
:102770006D6BFFFFFFFFFFFFFFFFFFFFFFFFFFFF8F
:10278000DFFFFFFFFFFFFFFFFFFFFFFFFFFFFFFF79
:10279000FFFFFFFFFFFFFFFFFFFFFFFFFFFFFFFF49
:1027A000FFFFFFFFFFFFFFFFFFFFFFFFFFFFFFFF39
:1027B000FFFFFFFFFFFFFFFFFFFFFFFFFFFFFFFF29
:1027C000FFFFFFFFFFFFFFFFFFFFFFFFFFFFFFFF19
:1027D000FFFFFFFFFFFFFFFFFFFFFFFFFFFFFFFF09
:1027E000FFFFFFFFFFFFFFFFFFFFFFFFFFFFFFFFF9
:1027F000FFFFFFFFFFFF6D6B000000000000000007
:10280000000020000000D39CFFFFFFFFFFFFFFFF41
:10281000FFFFFFFFFFFFFFFFFFFFFFFFFFFFFFFFC8
:10282000AA520000000000000000000000000000AC
:10283000D7BDFFFFFFFFFFFFFFFFFFFFFFFFFFFF12
:10284000DFFFFFFFFFFFFFFFFFFFFFFFFFFFFFFFB8
:10285000FFFFFFFFFFFFFFFFFFFFFFFFFFFFFFFF88
:10286000FFFFFFFFFFFFFFFFFFFFFFFFFFFFFFFF78
:10287000FFFFFFFFFFFFFFFFFFFFFFFFFFFFFFFF68
:10288000FFFFFFFFFFFFFFFFFFFFFFFFFFFFFFFF58
:10289000FFFFFFFFFFFFFFFFFFFFFFFFFFFFFFFF48
:1028A000FFFFFFFFFFFFFFFFFFFFFFFFFFFFFFFF38
:1028B000FFFFFFFFFFFFF7BD00000000000000006A
:1028C000000000002000AA52FFFFFFFFFFFFFFFFF4
:1028D000FFFFFFFFFFFFFFFFFFFFFFFFFFFFFFFF08
:1028E00045290000000000000000000000008210E8
:1028F0009EF7FFFFFFFFFFFFFFFFFFFFFFFFFFFF51
:10290000FFFFFFFFFFFFFFFFFFFFFFFFFFFFFFFFD7
:10291000FFFFFFFFFFFFFFFFFFFFFFFFFFFFFFFFC7
:10292000FFFFFFFFFFFFFFFFFFFFFFFFFFFFFFFFB7
:10293000FFFFFFFFFFFFFFFFFFFFFFFFFFFFFFFFA7
:10294000FFFFFFFFFFFFFFFFFFFFFFFFFFFFFFFF97
:10295000FFFFFFFFFFFFFFFFFFFFFFFFFFFFFFFF87
:10296000FFFFFFFFFFFFFFFFFFFFFFFFFFFFFFFF77
:10297000FFFFFFFFFFFF9EF7821000000000000036
:102980000000000000002421FFFFFFFFFFFFFFFF0A
:10299000FFFFFFFFFFFFFFFFFFFFFFFFFFFF1CE742
:1029A0004108000000000000000000000000084294
:1029B000FFFFFFFFFFFFFFFFFFFFFFFFFFFFFFFF27
:1029C000FFFFFFFFFFFFFFFFFFFFFFFFFFFFFFFF17
:1029D000FFFFFFFFFFFFFFFFFFFFFFFFFFFFFFFF07
:1029E000FFFFFFFFFFFFFFFFFFFFFFFFFFFFFFFFF7
:1029F000FFFFFFFFFFFFFFFFFFFFFFFFFFFFFFFFE7
:102A0000FFFFFFFFFFFFFFFFFFFFFFFFFFFFFFFFD6
:102A1000FFFFFFFFFFFFFFFFFFFFFFFFFFFFFFFFC6
:102A2000FFFFFFFFFFFFFFFFFFFFFFFFFFFFFFFFB6
:102A3000FFFFFFFFFFFFFFFF084200000000000054
:102A400000000000000020003CE7FFFFFFFFFFFF49
:102A5000FFFFFFFFFFFFFFFFFFFFFFFFFFFF38C686
:102A600000000000000000000000000000004D6BAE
:102A7000FFFFFFFFFFFFFFFFFFFFFFFFFFFFFFFF66
:102A8000FFFFFFFFFFFFFFFFFFFFFFFFFFFFFFFF56
:102A9000FFFFFFFFFFFFFFFFFFFFFFFFFFFFFFFF46
:102AA000FFFFFFFFFFFFFFFFFFFFFFFFFFFFFFFF36
:102AB000FFFFFFFFFFFFFFFFFFFFFFFFFFFFFFFF26
:102AC000FFFFFFFFFFFFFFFFFFFFFFFFFFFFFFFF16
:102AD000FFFFFFFFFFFFFFFFFFFFFFFFFFFFFFFF06
:102AE000FFFFFFFFFFFFFFFFFFFFFFFFFFFFFFFFF6
:102AF000FFFFFFFFFFFFFFFF6D6B00000000000006
:102B0000000000000000000038C6FFFFFFFFFFFFCD
:102B1000FFFFFFFFFFFFFFFFFFFFFFFFFFFF14A50A
:102B20000000000000000000000000000000F39C16
:102B3000FFFFFFFFFFFFFFFFFFFFFFFFFFFFFFFFA5
:102B4000FFFFFFFFFFFFFFFFFFFFFFFFFFFFFFFF95
:102B5000FFFFFFFFFFFFFFFFFFFFFFFFFFFFFFFF85
:102B6000FFFFFFFFFFFFFFFFFFFFFFFFFFFFFFFF75
:102B7000FFFFFFFFFFFFFFFFFFFFFFFFFFFFFFFF65
:102B8000FFFFFFFFFFFFFFFFFFFFFFFFFFFFFFFF55
:102B9000FFFFFFFFFFFFFFFFFFFFFFFFFFFFFFFF45
:102BA000FFFFFFFFFFFFFFFFFFFFFFFFFFFFFFFF35
:102BB000FFFFFFFFFFFFFFFFF39C0000000000008E
:102BC000000000000000000014A5FFFFFFFFFFFF52
:102BD000FFFFFFFFFFFFFFFFFFFFFFFFFFFF10846F
:102BE0000000000000000000000000000000F7BD31
:102BF000FFFFFFFFFFFFFFFFFFFFFFFFFFFFFFFFE5
:102C0000FFFFFFFFFFFFFFFFFFFFFFFFFFFFFFFFD4
:102C1000FFFFFFFFFFFFFFFFFFFFFFFFFFFFFFFFC4
:102C2000FFFFFFFFFFFFFFFFFFFFFFFFFFFFFFFFB4
:102C3000FFFFFFFFFFFFFFFFFFFFFFFFFFFFFFFFA4
:102C4000FFFFFFFFFFFFFFFFFFFFFFFFFFFFFFFF94
:102C5000FFFFFFFFFFFFFFFFFFFFFFFFFFFFFFFF84
:102C6000FFFFFFFFFFFFFFFFFFFFFFFFFFFFFFFF74
:102C7000FFFFFFFFFFFFFFFF18C60000000000007E
:102C800000000000000000001084FFFFFFFFFFFFB6
:102C9000FFFFFFFFFFFFFFFFFFFFFFFFFFFF6D6B6A
:102CA0000000000000000000000000000000BAD694
:102CB000FFFFFFFFFFFFFFFFFFFFFFFFFFFFFFFF24
:102CC000FFFFFFFFFFFFFFFFFFFFFFFFFFFFFFFF14
:102CD000FFFFFFFFFFFFFFFFFFFFFFFFFFFFFFFF04
:102CE000FFFFFFFFFFFFFFFFFFFFFFFFFFFFFFFFF4
:102CF000FFFFFFFFFFFFFFFFFFFFFFFFFFFFFFFFE4
:102D0000FFFFFFFFFFFFFFFFFFFFFFFFFFFFFFFFD3
:102D1000FFFFFFFFFFFFFFFFFFFFFFFFFFFFFFFFC3
:102D2000FFFFFFFFFFFFFFFFFFFFFFFFFFFFFFFFB3
:102D3000FFFFFFFFFFFFFFFFBAD60000000000000B
:102D400000000000000000004D6BFFFFFFFFFFFFD1
:102D5000FFFFFFFFFFFFFFFFFFFFFFFFFFFFEB5A3C
:102D600000000000000000000000000061083CE7D7
:102D7000FFFFFFFFFFFFFFFFFFFFFFFFFFFFFFFF63
:102D8000FFFFFFFFFFFFFFFFFFFFFFFFFFFFFFFF53
:102D9000FFFFFFFFFFFFFFFFFFFFFFFFFFFFFFFF43
:102DA000FFFFFFFFFFFFFFFFFFFFFFFFFFFFFFFF33
:102DB000FFFFFFFFFFFFFFFFFFFFFFFFFFFFFFFF23
:102DC000FFFFFFFFFFFFFFFFFFFFFFFFFFFFFFFF13
:102DD000FFFFFFFFFFFFFFFFFFFFFFFFFFFFFFFF03
:102DE000FFFFFFFFFFFFFFFFFFFFFFFFFFFFFFFFF3
:102DF000FFFFFFFFFFFFFFFF3CE76108000000004F
:102E00000000000000000000CB5AFFFFFFFFFFFFA3
:102E1000FFFFFFFFFFFFFFFFFFFFFFFFFFFF8A52E4
:102E2000000000000000000000000000A2107DEF84
:102E3000FFFFFFFFFFFFFFFFFFFFFFFFFFFFFFFFA2
:102E4000FFFFFFFFFFFFFFFFFFFFFFFFFFFFFFFF92
:102E5000FFFFFFFFFFFFFFFFFFFFFFFFFFFFFFFF82
:102E6000FFFFFFFFFFFFFFFFFFFFFFFFFFFFFFFF72
:102E7000FFFFFFFFFFFFFFFFFFFFFFFFFFFFFFFF62
:102E8000FFFFFFFFFFFFFFFFFFFFFFFFFFFFFFFF52
:102E9000FFFFFFFFFFFFFFFFFFFFFFFFFFFFFFFF42
:102EA000FFFFFFFFFFFFFFFFFFFFFFFFFFFFFFFF32
:102EB000FFFFFFFFFFFFFFFF9EF7A21000000000D3
:102EC00000000000000000008A52FFFFFFFFFFFF2C
:102ED000FFFFFFFFFFFFFFFFFFFFFFFFFFFF494A6D
:102EE000000000000000000000000000C3189EF772
:102EF000FFFFFFFFFFFFFFFFFFFFFFFFFFFFFFFFE2
:102F0000FFFFFFFFFFFFFFFFFFFFFFFFFFFFFFFFD1
:102F1000FFFFFFFFFFFFFFFFFFFFFFFFFFFFFFFFC1
:102F2000FFFFFFFFFFFFFFFFFFFFFFFFFFFFFFFFB1
:102F3000FFFFFFFFFFFFFFFFFFFFFFFFFFFFFFFFA1
:102F4000FFFFFFFFFFFFFFFFFFFFFFFFFFFFFFFF91
:102F5000FFFFFFFFFFFFFFFFFFFFFFFFFFFFFFFF81
:102F6000FFFFFFFFFFFFFFFFFFFFFFFFFFFFFFFF71
:102F7000FFFFFFFFFFFFFFFFBEF7C31800000000C9
:102F80000000000000000000494AFFFFFFFFFFFFB4
:102F9000FFFFFFFFFFFFFFFFFFFFFFFFFFFF494AAC
:102FA000000000000000000000000000C3189EF7B1
:102FB000FFFFFFFFFFFFFFFFFFFFFFFFFFFFFFFF21
:102FC000FFFFFFFFFFFFFFFFFFFFFFFFFFFFFFFF11
:102FD000FFFFFFFFFFFFFFFFFFFFFFFFFFFFFFFF01
:102FE000FFFFFFFFFFFFFFFFFFFFFFFFFFFFFFFFF1
:102FF000FFFFFFFFFFFFFFFFFFFFFFFFFFFFFFFFE1
:10300000FFFFFFFFFFFFFFFFFFFFFFFFFFFFFFFFD0
:10301000FFFFFFFFFFFFFFFFFFFFFFFFFFFFFFFFC0
:10302000FFFFFFFFFFFFFFFFFFFFFFFFFFFFFFFFB0
:10303000FFFFFFFFFFFFFFFFBEF7C3180000000008
:103040000000000000000000494AFFFFFFFFFFFFF3
:10305000FFFFFFFFFFFFFFFFFFFFFFFFFFFF8A52A2
:10306000000000000000000000000000A2107DEF42
:10307000FFFFFFFFFFFFFFFFFFFFFFFFFFFFFFFF60
:10308000FFFFFFFFFFFFFFFFFFFFFFFFFFFFFFFF50
:10309000FFFFFFFFFFFFFFFFFFFFFFFFFFFFFFFF40
:1030A000FFFFFFFFFFFFFFFFFFFFFFFFFFFFFFFF30
:1030B000FFFFFFFFFFFFFFFFFFFFFFFFFFFFFFFF20
:1030C000FFFFFFFFFFFFFFFFFFFFFFFFFFFFFFFF10
:1030D000FFFFFFFFFFFFFFFFFFFFFFFFFFFFFFFF00
:1030E000FFFFFFFFFFFFFFFFFFFFFFFFFFFFFFFFF0
:1030F000FFFFFFFFFFFFFFFF9EF7A2100000000091
:1031000000000000000000008A52FFFFFFFFFFFFE9
:10311000FFFFFFFFFFFFFFFFFFFFFFFFFFFFEB5A78
:1031200000000000000000000000000061081CE733
:10313000FFFFFFFFFFFFFFFFFFFFFFFFFFFFFFFF9F
:10314000FFFFFFFFFFFFFFFFFFFFFFFFFFFFFFFF8F
:10315000FFFFFFFFFFFFFFFFFFFFFFFFFFFFFFFF7F
:10316000FFFFFFFFFFFFFFFFFFFFFFFFFFFFFFFF6F
:10317000FFFFFFFFFFFFFFFFFFFFFFFFFFFFFFFF5F
:10318000FFFFFFFFFFFFFFFFFFFFFFFFFFFFFFFF4F
:10319000FFFFFFFFFFFFFFFFFFFFFFFFFFFFFFFF3F
:1031A000FFFFFFFFFFFFFFFFFFFFFFFFFFFFFFFF2F
:1031B000FFFFFFFFFFFFFFFF3CE76108000000008B
:1031C0000000000000000000CB5AFFFFFFFFFFFFE0
:1031D000FFFFFFFFFFFFFFFFFFFFFFFFFFFF4D6B45
:1031E0000000000000000000000000000000BAD64F
:1031F000FFFFFFFFFFFFFFFFFFFFFFFFFFFFFFFFDF
:10320000FFFFFFFFFFFFFFFFFFFFFFFFFFFFFFFFCE
:10321000FFFFFFFFFFFFFFFFFFFFFFFFFFFFFFFFBE
:10322000FFFFFFFFFFFFFFFFFFFFFFFFFFFFFFFFAE
:10323000FFFFFFFFFFFFFFFFFFFFFFFFFFFFFFFF9E
:10324000FFFFFFFFFFFFFFFFFFFFFFFFFFFFFFFF8E
:10325000FFFFFFFFFFFFFFFFFFFFFFFFFFFFFFFF7E
:10326000FFFFFFFFFFFFFFFFFFFFFFFFFFFFFFFF6E
:10327000FFFFFFFFFFFFFFFFBAD6000000000000C6
:1032800000000000000000004D6BFFFFFFFFFFFF8C
:10329000FFFFFFFFFFFFFFFFFFFFFFFFFFFF1084A8
:1032A0000000000000000000000000000000F7BD6A
:1032B000FFFFFFFFFFFFFFFFFFFFFFFFFFFFFFFF1E
:1032C000FFFFFFFFFFFFFFFFFFFFFFFFFFFFFFFF0E
:1032D000FFFFFFFFFFFFFFFFFFFFFFFFFFFFFFFFFE
:1032E000FFFFFFFFFFFFFFFFFFFFFFFFFFFFFFFFEE
:1032F000FFFFFFFFFFFFFFFFFFFFFFFFFFFFFFFFDE
:10330000FFFFFFFFFFFFFFFFFFFFFFFFFFFFFFFFCD
:10331000FFFFFFFFFFFFFFFFFFFFFFFFFFFFFFFFBD
:10332000FFFFFFFFFFFFFFFFFFFFFFFFFFFFFFFFAD
:10333000FFFFFFFFFFFFFFFF18C6000000000000B7
:1033400000000000000000001084FFFFFFFFFFFFEF
:10335000FFFFFFFFFFFFFFFFFFFFFFFFFFFF14A5C2
:103360000000000000000000000000000000F39CCE
:10337000FFFFFFFFFFFFFFFFFFFFFFFFFFFFFFFF5D
:10338000FFFFFFFFFFFFFFFFFFFFFFFFFFFFFFFF4D
:10339000FFFFFFFFFFFFFFFFFFFFFFFFFFFFFFFF3D
:1033A000FFFFFFFFFFFFFFFFFFFFFFFFFFFFFFFF2D
:1033B000FFFFFFFFFFFFFFFFFFFFFFFFFFFFFFFF1D
:1033C000FFFFFFFFFFFFFFFFFFFFFFFFFFFFFFFF0D
:1033D000FFFFFFFFFFFFFFFFFFFFFFFFFFFFFFFFFD
:1033E000FFFFFFFFFFFFFFFFFFFFFFFFFFFFFFFFED
:1033F000FFFFFFFFFFFFFFFFF39C00000000000046
:10340000000000000000000014A5FFFFFFFFFFFF09
:10341000FFFFFFFFFFFFFFFFFFFFFFFFFFFF38C6BC
:1034200000000000000000000000000000004D6BE4
:10343000FFFFFFFFFFFFFFFFFFFFFFFFFFFFFFFF9C
:10344000FFFFFFFFFFFFFFFFFFFFFFFFFFFFFFFF8C
:10345000FFFFFFFFFFFFFFFFFFFFFFFFFFFFFFFF7C
:10346000FFFFFFFFFFFFFFFFFFFFFFFFFFFFFFFF6C
:10347000FFFFFFFFFFFFFFFFFFFFFFFFFFFFFFFF5C
:10348000FFFFFFFFFFFFFFFFFFFFFFFFFFFFFFFF4C
:10349000FFFFFFFFFFFFFFFFFFFFFFFFFFFFFFFF3C
:1034A000FFFFFFFFFFFFFFFFFFFFFFFFFFFFFFFF2C
:1034B000FFFFFFFFFFFFFFFF6D6B0000000000003C
:1034C000000000000000000038C6FFFFFFFFFFFF04
:1034D000FFFFFFFFFFFFFFFFFFFFFFFFFFFF1CE7F7
:1034E0002000000000000000000000000000084272
:1034F000FFFFFFFFFFFFFFFFFFFFFFFFFFFFFFFFDC
:10350000FFFFFFFFFFFFFFFFFFFFFFFFFFFFFFFFCB
:10351000FFFFFFFFFFFFFFFFFFFFFFFFFFFFFFFFBB
:10352000FFFFFFFFFFFFFFFFFFFFFFFFFFFFFFFFAB
:10353000FFFFFFFFFFFFFFFFFFFFFFFFFFFFFFFF9B
:10354000FFFFFFFFFFFFFFFFFFFFFFFFFFFFFFFF8B
:10355000FFFFFFFFFFFFFFFFFFFFFFFFFFFFFFFF7B
:10356000FFFFFFFFFFFFFFFFFFFFFFFFFFFFFFFF6B
:10357000FFFFFFFFFFFFFFFF084200000000000009
:1035800000000000000041081CE7FFFFFFFFFFFFF5
:10359000FFFFFFFFFFFFFFFFFFFFFFFFFFFFFFFF3B
:1035A0004529000000000000000000000000610844
:1035B0009EF7FFFFFFFFFFFFFFFFFFFFFFFFFFFF84
:1035C000FFFFFFFFFFFFFFFFFFFFFFFFFFFFFFFF0B
:1035D000FFFFFFFFFFFFFFFFFFFFFFFFFFFFFFFFFB
:1035E000FFFFFFFFFFFFFFFFFFFFFFFFFFFFFFFFEB
:1035F000FFFFFFFFFFFFFFFFFFFFFFFFFFFFFFFFDB
:10360000FFFFFFFFFFFFFFFFFFFFFFFFFFFFFFFFCA
:10361000FFFFFFFFFFFFFFFFFFFFFFFFFFFFFFFFBA
:10362000FFFFFFFFFFFFFFFFFFFFFFFFFFFFFFFFAA
:10363000FFFFFFFFFFFF9EF7821000000000000069
:103640000000000000002421FFFFFFFFFFFFFFFF3D
:10365000FFFFFFFFFFFFFFFFFFFFFFFFFFFFFFFF7A
:10366000AA5200000000000000000000000000005E
:10367000F7BDFFFFFFFFFFFFFFFFFFFFFFFFFFFFA4
:10368000FFFFFFFFFFFFFFFFFFFFFFFFFFFFFFFF4A
:10369000FFFFFFFFFFFFFFFFFFFFFFFFFFFFFFFF3A
:1036A000FFFFFFFFFFFFFFFFFFFFFFFFFFFFFFFF2A
:1036B000FFFFFFFFFFFFFFFFFFFFFFFFFFFFFFFF1A
:1036C000FFFFFFFFFFFFFFFFFFFFFFFFFFFFFFFF0A
:1036D000FFFFFFFFFFFFFFFFFFFFFFFFFFFFFFFFFA
:1036E000FFFFFFFFFFFFFFFFFFFFFFFFFFFFFFFFEA
:1036F000FFFFFFFFFFFFF7BD00000000000000001C
:10370000000000000000AA52FFFFFFFFFFFFFFFFC5
:10371000FFFFFFFFFFFFFFFFFFFFFFFFFFFFFFFFB9
:10372000D39C00002000000000000000000000000A
:103730006D6BFFFFFFFFFFFFFFFFFFFFFFFFFFFFBF
:10374000FFFFFFFFFFFFFFFFFFFFFFFFFFFFFFFF89
:10375000FFFFFFFFFFFFFFFFFFFFFFFFFFFFFFFF79
:10376000FFFFFFFFFFFFFFFFFFFFFFFFFFFFFFFF69
:10377000FFFFFFFFFFFFFFFFFFFFFFFFFFFFFFFF59
:10378000FFFFFFFFFFFFFFFFFFFFFFFFFFFFFFFF49
:10379000FFFFFFFFFFFFFFFFFFFFFFFFFFFFFFFF39
:1037A000FFFFFFFFFFFFDFFFFFFFFFFFFFFFFFFF49
:1037B000FFFFFFFFFFFF8E7300000000000000000E
:1037C000000020000000D39CFFFFFFFFFFFFFFFF72
:1037D000FFFFFFFFFFFFFFFFFFFFFFFFFFFFFFFFF9
:1037E000BAD6000000000000000000000000000049
:1037F0000421DFFFFFFFFFFFFFFFFFFFFFFFFFFFD2
:10380000FFFFFFFFFFFFFFFFFFFFFFFFFFFFFFFFC8
:10381000FFFFFFFFFFFFFFFFFFFFFFFFFFFFFFFFB8
:10382000FFFFFFFFFFFFFFFFFFFFFFFFFFFFFFFFA8
:10383000FFFFFFFFFFFFFFFFFFFFFFFFFFFFFFFF98
:10384000FFFFFFFFFFFFFFFFFFFFFFFFFFFFFFFF88
:10385000FFFFFFFFFFFFFFFFFFFFFFFFFFFFFFFF78
:10386000FFFFFFFFFFFFFFFFFFFFFFFFFFFFFFFF68
:10387000FFFFFFFFDFFF2421000000000000000029
:10388000000000000000BAD6FFFFFFFFFFFFFFFFB0
:10389000FFFFFFFFFFFFFFFFFFFFFFFFFFFFFFFF38
:1038A000DFFF4529000000000000000000000000CC
:1038B000000018C6FFFFFFFFFFFFFFFFFFFFFFFF36
:1038C000FFFFFFFFFFFFFFFFFFFFFFFFFFFFFFFF08
:1038D000FFFFFFFFFFFFFFFFFFFFFFFFFFFFFFFFF8
:1038E000FFFFFFFFFFFFFFFFFFFFFFFFFFFFFFFFE8
:1038F000FFFFFFFFFFFFFFFFFFFFFFFFFFFFFFFFD8
:10390000FFFFFFFFFFFFFFFFFFFFFFFFFFFFFFFFC7
:10391000FFFFFFFFFFFFFFFFFFFFFFFFFFFFFFFFB7
:10392000FFFFFFFFFFFFFFFFFFFFFFFFFFFFFFFFA7
:10393000FFFFFFFF18C600000000000000000000AD
:10394000000000004529DFFFFFFFFFFFFFFFFFFF33
:10395000FFFFFFFFFFFFFFFFFFFFFFFFFFFFDFFF97
:10396000FFFFAE7300000000000000000000000038
:103970000000AA52FFFFDFFFFFFFFFFFFFFFFFFF77
:10398000FFFFFFFFFFFFFFFFFFFFFFFFFFFFFFFF47
:10399000FFFFFFFFFFFFFFFFFFFFFFFFFFFFFFFF37
:1039A000FFFFFFFFFFFFFFFFFFFFFFFFFFFFFFFF27
:1039B000FFFFFFFFFFFFFFFFFFFFFFFFFFFFFFFF17
:1039C000FFFFFFFFFFFFFFFFFFFFFFFFFFFFFFFF07
:1039D000FFFFFFFFFFFFFFFFFFFFFFFFFFFFFFFFF7
:1039E000FFFFFFFFFFFFFFFFFFFFFFFFFFFFFFFFE7
:1039F000DFFFFFFFAA5200000000000000000000EF
:103A000000000000AE73FFFFDFFFFFFFFFFFFFFFBF
:103A1000FFFFFFFFFFFFFFFFFFFFFFFFFFFFDFFFD6
:103A2000FFFF59CE00000000200000000000000051
:103A3000000020001CE7FFFFFFFFFFFFDFFFFFFF8D
:103A4000FFFFFFFFFFFFFFFFFFFFFFFFFFFFFFFF86
:103A5000FFFFFFFFFFFFFFFFFFFFFFFFFFFFFFFF76
:103A6000FFFFFFFFFFFFFFFFFFFFFFFFFFFFFFFF66
:103A7000FFFFFFFFFFFFFFFFFFFFFFFFFFFFFFFF56
:103A8000FFFFFFFFFFFFFFFFFFFFFFFFFFFFFFFF46
:103A9000FFFFFFFFFFFFFFFFFFFFFFFFFFFFFFFF36
:103AA000FFFFFFFFFFFFFFFFFFFFDFFFFFFFFFFF46
:103AB000FFFF1CE7200000000000000000002000C5
:103AC0000000000059CEFFFFDFFFFFFFFFFFFFFFF9
:103AD000FFFFFFFFFFFFFFFFFFFFFFFFFFFFFFFFF6
:103AE000FFFFFFFF86310000000000000000000023
:103AF000000000006D6BFFFFFFFFFFFFFFFFFFFFF8
:103B0000FFFFFFFFFFFFFFFFFFFFFFFFFFFFFFFFC5
:103B1000FFFFFFFFFFFFFFFFFFFFFFFFFFFFFFFFB5
:103B2000FFFFFFFFFFFFFFFFFFFFFFFFFFFFFFFFA5
:103B3000FFFFFFFFFFFFFFFFFFFFFFFFFFFFFFFF95
:103B4000FFFFFFFFFFFFFFFFFFFFFFFFFFFFFFFF85
:103B5000FFFFFFFFFFFFFFFFFFFFFFFFFFFFFFFF75
:103B6000FFFFFFFFFFFFFFFFFFFFFFFFFFFFFFFF65
:103B7000FFFF6D6B0000000000000000000000006F
:103B800000006529FFFFFFFFFFFFFFFFFFFFFFFFB3
:103B9000FFFFFFFFFFFFFFFFFFFFFFFFFFFFFFFF35
:103BA000FFFFFFFFD39C00000000000000000000AA
:103BB0000000000041081CE7FFFFFFFFFFFFFFFFC1
:103BC000FFFFFFFFFFFFFFFFFFFFFFFFFFFFFFFF05
:103BD000FFFFFFFFFFFFFFFFFFFFFFFFFFFFFFFFF5
:103BE000FFFFFFFFFFFFFFFFFFFFFFFFFFFFFFFFE5
:103BF000FFFFFFFFFFFFFFFFFFFFFFFFFFFFFFFFD5
:103C0000FFFFFFFFFFFFFFFFFFFFFFFFFFFFFFFFC4
:103C1000FFFFFFFFFFFFFFFFFFFFFFFFFFFFFFFFB4
:103C2000FFFFFFFFFFFFFFFFFFFFFFFFFFFFFFFFA4
:103C30001CE7410800000000000020000000000018
:103C40000000D39CFFFFFFFFFFFFFFFFFFFFFFFF11
:103C5000FFFFFFFFFFFFFFFFFFFFFFFFFFFFFFFF74
:103C6000FFFFFFFF9EF7A210000000000000000011
:103C7000000000000000CB5AFFFFDFFFFFFFFFFF47
:103C8000FFFFFFFFFFFFFFFFFFFFFFFFFFFFFFFF44
:103C9000FFFFFFFFFFFFFFFFFFFFFFFFFFFFFFFF34
:103CA000FFFFFFFFFFFFFFFFFFFFFFFFFFFFFFFF24
:103CB000FFFFFFFFFFFFFFFFFFFFFFFFFFFFFFFF14
:103CC000FFFFFFFFFFFFFFFFFFFFFFFFFFFFFFFF04
:103CD000FFFFFFFFFFFFFFFFFFFFFFFFFFFFFFFFF4
:103CE000FFFFFFFFFFFFFFFFFFFFFFFFDFFFFFFF04
:103CF000CB5A00000000000020000000000000007F
:103D000082109EF7FFFFFFFFFFFFFFFFFFFFFFFF98
:103D1000FFFFFFFFFFFFFFFFFFFFFFFFFFFFFFFFB3
:103D2000FFFFFFFFFFFFEF7B00000000000000002F
:103D3000000000000000000018C6FFFFFFFFFFFFAB
:103D4000FFFFFFFFFFFFFFFFFFFFFFFFFFFFFFFF83
:103D5000FFFFFFFFFFFFFFFFFFFFFFFFFFFFFFFF73
:103D6000FFFFFFFFFFFFFFFFFFFFFFFFFFFFFFFF63
:103D7000FFFFFFFFFFFFFFFFFFFFFFFFFFFFFFFF53
:103D8000FFFFFFFFFFFFFFFFFFFFFFFFFFFFFFFF43
:103D9000FFFFFFFFFFFFFFFFFFFFFFFFFFFFFFFF33
:103DA000FFFFFFFFFFFFFFFFFFFFFFFFFFFF18C643
:103DB00000000000000020000000000020000000C3
:103DC000CF7BFFFFFFFFFFFFFFFFFFFFFFFFFFFFB7
:103DD000FFFFFFFFFFFFFFFFFFFFFFFFFFFFFFFFF3
:103DE000FFFFFFFFFFFF7DEF6108000020000000E4
:103DF00000000000000000004529DFFFFFFFFFFF7B
:103E0000FFFFFFFFFFFFFFFFFFFFFFFFFFFFFFFFC2
:103E1000FFFFFFFFFFFFFFFFFFFFFFFFFFFFFFFFB2
:103E2000FFFFFFFFFFFFFFFFFFFFFFFFFFFFFFFFA2
:103E3000FFFFFFFFFFFFFFFFFFFFFFFFFFFFFFFF92
:103E4000FFFFFFFFFFFFFFFFFFFFFFFFFFFFFFFF82
:103E5000FFFFFFFFFFFFFFFFFFFFFFFFFFFFFFFF72
:103E6000FFFFFFFFFFFFFFFFFFFFFFFFDFFF452912
:103E700000000000000000000000000000006108D9
:103E80005DEFFFFFFFFFFFFFFFFFFFFFFFFFFFFFF4
:103E9000FFFFFFFFFFFFFFFFFFFFFFFFFFFFFFFF32
:103EA000FFFFFFFFFFFFFFFF308400000000000066
:103EB000000000000000000000004D6BFFFFFFFF4E
:103EC000DFFFFFFFFFFFFFFFFFFFFFFFFFFFFFFF22
:103ED000FFFFFFFFFFFFFFFFFFFFFFFFFFFFFFFFF2
:103EE000FFFFFFFFFFFFFFFFFFFFFFFFFFFFFFFFE2
:103EF000FFFFFFFFFFFFFFFFFFFFFFFFFFFFFFFFD2
:103F0000FFFFFFFFFFFFFFFFFFFFFFFFFFFFFFFFC1
:103F1000FFFFFFFFFFFFFFFFFFFFFFFFFFFFFFFFB1
:103F2000FFFFFFFFFFFFDFFFFFFFFFFF4D6B000005
:103F300000000000000000000000000000001084ED
:103F4000FFFFFFFFFFFFFFFFFFFFFFFFFFFFFFFF81
:103F5000FFFFFFFFFFFFFFFFFFFFFFFFFFFFFFFF71
:103F6000FFFFFFFFFFFFDFFFBEF70421000000009F
:103F700020000000200000000000000055ADFFFF01
:103F8000FFFFFFFFFFFFFFFFFFFFFFFFFFFFFFFF41
:103F9000FFFFFFFFFFFFFFFFFFFFFFFFFFFFFFFF31
:103FA000FFFFFFFFFFFFFFFFFFFFFFFFFFFFFFFF21
:103FB000FFFFFFFFFFFFFFFFFFFFFFFFFFFFFFFF11
:103FC000FFFFFFFFFFFFFFFFFFFFFFFFFFFFFFFF01
:103FD000FFFFFFFFFFFFFFFFFFFFFFFFFFFFFFFFF1
:103FE000FFFFFFFFFFFFFFFFFFFF75AD00000000B9
:103FF000000000000000000000000000E3189EF731
:10400000FFFFFFFFFFFFFFFFFFFFFFFFFFFFFFFFC0
:10401000FFFFFFFFFFFFFFFFFFFFFFFFFFFFFFFFB0
:10402000FFFFFFFFFFFFFFFFFFFFB6B5000000002F
:10403000000000000000000000000000200079CE19
:10404000FFFFFFFFFFFFFFFFFFFFFFFFFFFFFFFF80
:10405000FFFFFFFFFFFFFFFFFFFFFFFFFFFFFFFF70
:10406000FFFFFFFFFFFFFFFFFFFFFFFFFFFFFFFF60
:10407000FFFFFFFFFFFFFFFFFFFFFFFFFFFFFFFF50
:10408000FFFFFFFFFFFFFFFFFFFFFFFFFFFFFFFF40
:10409000FFFFFFFFFFFFFFFFFFFFFFFFFFFFFFFF30
:1040A000FFFFFFFFFFFFFFFF79CE200000000000B1
:1040B000000000002000000000000000B6B5FFFF77
:1040C000FFFFFFFFFFFFFFFFFFFFFFFFFFFFFFFF00
:1040D000FFFFFFFFFFFFFFFFFFFFFFFFFFFFFFFFF0
:1040E000FFFFFFFFFFFFFFFFFFFFDFFFAA522000E0
:1040F0000000000000000000000000000000C318E5
:104100001CE7FFFFFFFFFFFFFFFFFFFFFFFFFFFFBA
:10411000FFFFFFFFFFFFFFFFFFFFFFFFFFFFFFFFAF
:10412000FFFFFFFFFFFFFFFFFFFFFFFFFFFFFFFF9F
:10413000FFFFFFFFFFFFFFFFFFFFFFFFFFFFFFFF8F
:10414000FFFFFFFFFFFFFFFFFFFFFFFFFFFFFFFF7F
:10415000FFFFFFFFFFFFFFFFFFFFFFFFFFFFFFFF6F
:10416000FFFFFFFFFFFF1CE7C31800000000000077
:10417000000000000000000000008A52FFFFFFFF67
:10418000FFFFFFFFFFFFFFFFFFFFFFFFFFFFFFFF3F
:10419000FFFFFFFFFFFFFFFFFFFFFFFFFFFFFFFF2F
:1041A000FFFFFFFFFFFFDFFFFFFFFFFF3CE7C3183D
:1041B00000000000000000000000000000000000FF
:1041C00024213CE7FFFFFFFFFFFFFFFFFFFFFFFF93
:1041D000FFFFFFFFFFFFFFFFFFFFFFFFFFFFFFFFEF
:1041E000FFFFFFFFFFFFFFFFFFFFFFFFFFFFFFFFDF
:1041F000FFFFFFFFFFFFFFFFFFFFFFFFFFFFFFFFCF
:10420000FFFFFFFFFFFFFFFFFFFFFFFFFFFFFFFFBE
:10421000FFFFFFFFFFFFFFFFFFFFFFFFFFFFFFFFAE
:10422000FFFFFFFF3CE7242100000000000000002A
:104230000000000000000000C3183CE7FFFFFFFF84
:10424000DFFFFFFFFFFFFFFFFFFFFFFFFFFFFFFF9E
:10425000FFFFFFFFFFFFFFFFFFFFFFFFFFFFFFFF6E
:10426000FFFFFFFFFFFFFFFFFFFFFFFFFFFFB6B5F1
:10427000000000000000000000000000000000003E
:10428000000045291CE7DFFFFFFFDFFFFFFFFFFF07
:10429000FFFFFFFFFFFFFFFFFFFFFFFFFFFFFFFF2E
:1042A000FFFFFFFFFFFFFFFFFFFFFFFFFFFFFFFF1E
:1042B000FFFFFFFFFFFFFFFFFFFFFFFFFFFFFFFF0E
:1042C000FFFFFFFFFFFFFFFFFFFFFFFFFFFFFFFFFE
:1042D000FFFFFFFFFFFFFFFFFFFFFFFFFFFFFFFFEE
:1042E000FFFFFBDE45290000000000000000000089
:1042F0000000000000000000B6B5FFFFFFFFFFFF59
:10430000FFFFFFFFFFFFFFFFFFFFFFFFFFFFFFFFBD
:10431000FFFFFFFFFFFFFFFFFFFFFFFFFFFFFFFFAD
:10432000FFFFFFFFFFFFFFFFFFFFFFFFFFFFDFFFBD
:1043300010840000000000000000000000000000E9
:1043400000000000C3189AD6FFFFFFFFFFFFFFFF2A
:10435000FFFFFFFFFFFFFFFFFFFFFFFFFFFFFFFF6D
:10436000FFFFFFFFFFFFFFFFFFFFFFFFFFFFFFFF5D
:10437000FFFFFFFFFFFFFFFFFFFFFFFFFFFFFFFF4D
:10438000FFFFFFFFFFFFFFFFFFFFFFFFFFFFFFFF3D
:10439000FFFFFFFFFFFFFFFFFFFFFFFFFFFFFFFF2D
:1043A0009AD6E318000000000000000000000000A2
:1043B0000000000000001084FFFFFFFFDFFFFFFF91
:1043C000FFFFFFFFFFFFFFFFFFFFFFFFFFFFFFFFFD
:1043D000FFFFFFFFFFFFFFFFFFFFFFFFFFFFFFFFED
:1043E000FFFFFFFFFFFFFFFFFFFFFFFFFFFFFFFFDD
:1043F000FFFF8A52000000000000000000000000E3
:10440000000000000000410834A5FFFFFFFFFFFF90
:10441000FFFFFFFFFFFFFFFFFFFFFFFFFFFFFFFFAC
:10442000FFFFFFFFFFFFFFFFFFFFFFFFFFFFFFFF9C
:10443000FFFFFFFFFFFFFFFFFFFFFFFFFFFFFFFF8C
:10444000FFFFFFFFFFFFFFFFFFFFFFFFFFFFFFFF7C
:10445000FFFFFFFFFFFFFFFFFFFFFFFFFFFF34A591
:104460004108000000000000000000000000000003
:10447000000000008A52FFFFFFFFFFFFFFFFDFFF8A
:10448000FFFFFFFFFFFFFFFFFFFFFFFFFFFFFFFF3C
:10449000FFFFFFFFFFFFFFFFFFFFFFFFFFFFFFFF2C
:1044A000FFFFFFFFFFFFDFFFFFFFDFFFFFFFFFFF5C
:1044B000FFFFFFFFC73900002000000000000000E0
:1044C000000000000000000000006D6BDFFFFFFF38
:1044D000FFFFFFFFFFFFFFFFFFFFDFFFFFFFFFFF0C
:1044E000DFFFFFFFFFFFFFFFFFFFFFFFFFFFFFFFFC
:1044F000FFFFFFFFFFFFFFFFFFFFFFFFFFFFFFFFCC
:10450000FFFFFFFFFFFFDFFFFFFFFFFFDFFFFFFFFB
:10451000FFFFFFFFFFFFFFFFFFFFDFFF8E730000C6
:10452000000000000000000000000000000020006B
:104530000000C739FFFFFFFFFFFFFFFFDFFFFFFFA7
:10454000DFFFFFFFFFFFFFFFFFFFFFFFFFFFFFFF9B
:10455000FFFFFFFFFFFFFFFFFFFFFFFFFFFFFFFF6B
:10456000FFFFFFFFFFFFFFFFFFFFFFFFFFFFFFFF5B
:10457000FFFFFFFF9EF7652900000000000000001C
:104580002000000000000000000000002421D7BD32
:10459000FFFFFFFFFFFFFFFFFFFFFFFFFFFFFFFF2B
:1045A000FFFFDFFFFFFFFFFFFFFFFFFFFFFFFFFF3B
:1045B000FFFFFFFFFFFFFFFFFFFFFFFFFFFFFFFF0B
:1045C000FFFFFFFFDFFFFFFFFFFFFFFFFFFFFFFF1B
:1045D000FFFFFFFFDFFFFFFFF7BD452900000000E1
:1045E00000000000000020000000000000000000AB
:1045F00065297DEFFFFFFFFFFFFFFFFFFFFFFFFFCD
:10460000FFFFFFFFFFFFFFFFFFFFFFFFFFFFFFFFBA
:10461000FFFFFFFFFFFFFFFFFFFFFFFFFFFFFFFFAA
:10462000FFFFFFFFFFFFFFFFDFFFFFFFFFFFFFFFBA
:10463000DFFFFFFFFFFF3CE78631000000000000C6
:10464000000000000000000000002000000000004A
:104650000C63DBDEFFFFFFFFFFFFFFFFFFFFDFFF5E
:10466000FFFFFFFFFFFFFFFFFFFFFFFFFFFFFFFF5A
:10467000FFFFFFFFFFFFFFFFFFFFFFFFFFFFFFFF4A
:10468000FFFFFFFFFFFFFFFFDFFFFFFFFFFFFFFF5A
:10469000FFFFFFFFFBDE0C630000000020000000B6
:1046A0000000000000000000000000000000863153
:1046B0003CE7FFFFFFFFDFFFFFFFFFFFFFFFDFFF25
:1046C000FFFFFFFFFFFFFFFFFFFFFFFFFFFFFFFFFA
:1046D000FFFFFFFFFFFFFFFFFFFFFFFFFFFFFFFFEA
:1046E000FFFFFFFFFFFFFFFFFFFFFFFFFFFFFFFFDA
:1046F000FFFFFFFFFFFFFFFF5DEFE7390000000056
:1047000000000000000000000000000000000000A9
:10471000000041086D6BFBDEFFFFDFFFFFFFFFFFC7
:10472000FFFFFFFFFFFFFFFFFFFFFFFFFFFFFFFF99
:10473000FFFFFFFFFFFFFFFFFFFFFFFFFFFFFFFF89
:10474000FFFFFFFFFFFFFFFFFFFFFFFFDFFFFFFF99
:10475000FBDE6D6B6108000000000000000000003F
:10476000000000000000000000000000E7395DEFDD
:10477000FFFFFFFFFFFFFFFFFFFFFFFFFFFFFFFF49
:10478000FFFFFFFFFFFFFFFFFFFFFFFFFFFFFFFF39
:10479000FFFFFFFFFFFFFFFFFFFFFFFFFFFFFFFF29
:1047A000FFFFFFFFFFFFFFFFFFFFFFFFFFFFFFFF19
:1047B000FFFFFFFFFFFFFFFFFFFFDFFFAA52000029
:1047C00000000000000000000000000000000000E9
:1047D0000000000000002000CB5AD7BDDFFFFFFF24
:1047E000FFFFFFFFFFFFFFFFFFFFFFFFFFFFFFFFD9
:1047F000FFFFFFFFFFFFFFFFFFFFFFFFFFFFFFFFC9
:10480000FFFFFFFFFFFFFFFFFFFFFFFFD7BDCB5AFB
:10481000410800000000000000000000000000004F
:1048200000000000000000000000AA52BEF7FFFFD9
:10483000FFFFFFFFFFFFFFFFFFFFFFFFFFFFFFFF88
:10484000FFFFFFFFFFFFFFFFFFFFFFFFFFFFFFFF78
:10485000FFFFFFFFFFFFFFFFFFFFFFFFFFFFFFFF68
:10486000FFFFFFFFFFFFFFFFFFFFFFFFFFFFFFFF58
:10487000FFFFFFFFFFFFFFFFFFFFDFFFFFFF1084D2
:104880000000000020000000000000000000000008
:1048900000000000000000000000000045298E73A9
:1048A000D7BD7DEFFFFFFFFFFFFFFFFFFFFFFFFF14
:1048B000FFFFFFFFFFFFFFFFFFFFFFFFFFFFFFFF08
:1048C000FFFFFFFF9EF7D7BD8E7345290000000054
:1048D00000000000000000000000000000000000D8
:1048E00000002000000000001084FFFFDFFFFFFF3A
:1048F000FFFFFFFFFFFFFFFFFFFFFFFFFFFFFFFFC8
:10490000FFFFFFFFFFFFFFFFFFFFFFFFFFFFFFFFB7
:10491000FFFFFFFFFFFFFFFFFFFFFFFFFFFFFFFFA7
:10492000FFFFFFFFFFFFFFFFFFFFFFFFFFFFFFFF97
:10493000FFFFFFFFFFFFFFFFFFFFFFFFFFFFFFFF87
:1049400075AD042100000000000000000000000020
:104950000000000000000000000000000000000057
:104960000000821008424D6BF39CF7BD9AD61CE7FD
:104970009EF7BEF7BEF77DEF1CE79AD618C6F39CEC
:104980006D6B084282100000000000000000000073
:104990000000000000000000000000000000000017
:1049A00000000000E31875ADFFFFFFFFFFFFFFFFF2
:1049B000FFFFDFFFFFFFFFFFFFFFFFFFFFFFFFFF27
:1049C000FFFFFFFFFFFFFFFFFFFFFFFFFFFFFFFFF7
:1049D000FFFFFFFFFFFFFFFFFFFFFFFFFFFFFFFFE7
:1049E000FFFFFFFFFFFFFFFFFFFFFFFFFFFFFFFFD7
:1049F000FFFFFFFFFFFFFFFFDFFFFFFFFFFFFFFFE7
:104A0000FFFF3CE7CB5A0000200000000000000040
:104A10000000000000000000000000002000000076
:104A2000000000000000000000000000000061081D
:104A3000A210A210A210A210610800000000000045
:104A40000000000000000000000020000000000046
:104A50000000000000000000000000000000200036
:104A60000000AA521CE7FFFFFFFFFFFFFFFFDFFF71
:104A7000FFFFFFFFFFFFFFFFFFFFFFFFFFFFFFFF46
:104A8000FFFFFFFFFFFFFFFFFFFFFFFFFFFFFFFF36
:104A9000FFFFFFFFFFFFFFFFFFFFFFFFFFFFFFFF26
:104AA000FFFFFFFFFFFFFFFFFFFFFFFFFFFFFFFF16
:104AB000FFFFFFFFFFFFDFFFFFFFFFFFFFFFFFFF26
:104AC000FFFFFFFFFFFF96B504210000000000007C
:104AD00000000000000020000000000000000000B6
:104AE00020000000000000000000000000000000A6
:104AF00000000000000000000000000000000000B6
:104B00000000000000002000000000000000000085
:104B10000000000000000000000000000000042170
:104B200096B5FFFFFFFFFFFFFFFFFFFFFFFFFFFF48
:104B3000DFFFFFFFFFFFFFFFFFFFFFFFFFFFFFFFA5
:104B4000FFFFFFFFFFFFFFFFFFFFFFFFFFFFFFFF75
:104B5000FFFFFFFFFFFFFFFFFFFFFFFFFFFFFFFF65
:104B6000FFFFFFFFFFFFFFFFFFFFFFFFFFFFFFFF55
:104B7000FFFFFFFFFFFFFFFFFFFFFFFFFFFFFFFF45
:104B8000FFFFFFFFFFFFFFFFBEF71084A210000032
:104B900020000000000020000000000000000000D5
:104BA0000000000000000000000000000000000005
:104BB00000000000000000000000000000000000F5
:104BC00000000000000000000000000000000000E5
:104BD00000000000000020000000A21010849EF7DA
:104BE000FFFFFFFFFFFFFFFFFFFFFFFFFFFFFFFFD5
:104BF000FFFFFFFFFFFFFFFFFFFFFFFFFFFFFFFFC5
:104C0000FFFFFFFFFFFFFFFFFFFFFFFFFFFFFFFFB4
:104C1000FFFFFFFFFFFFFFFFFFFFFFFFFFFFFFFFA4
:104C2000FFFFFFFFFFFFFFFFFFFFFFFFFFFFFFFF94
:104C3000FFFFFFFFFFFFDFFFFFFFFFFFFFFFFFFFA4
:104C4000FFFFFFFFFFFFFFFFFFFFFFFF3CE7CF7B03
:104C5000C318000020000000000000000000000059
:104C60000000000000000000000000000000000044
:104C70000000000000000000000000000000000034
:104C80000000000000000000000000000000000024
:104C9000000020000000C318CF7B3CE7FFFFFFFFB0
:104CA000FFFFFFFFFFFFFFFFFFFFFFFFFFFFFFFF14
:104CB000DFFFFFFFFFFFFFFFFFFFFFFFFFFFFFFF24
:104CC000FFFFFFFFFFFFFFFFFFFFFFFFFFFFFFFFF4
:104CD000FFFFFFFFFFFFFFFFFFFFFFFFFFFFFFFFE4
:104CE000FFFFFFFFFFFFFFFFFFFFFFFFFFFFFFFFD4
:104CF000FFFFFFFFFFFFFFFFFFFFFFFFFFFFFFFFC4
:104D0000FFFFFFFFFFFFFFFFFFFFFFFFFFFFFFFFB3
:104D10007DEFB294A631000000000000000000000A
:104D20000000000000000000000000000000000083
:104D30000000000000000000000000000000000073
:104D40000000000000000000000000000000000063
:104D50000000A631D39C5DEFFFFFFFFFFFFFFFFFC9
:104D6000FFFFFFFFFFFFFFFFFFFFFFFFFFFFFFFF53
:104D7000FFFFFFFFFFFFFFFFFFFFFFFFFFFFFFFF43
:104D8000FFFFFFFFFFFFFFFFFFFFFFFFFFFFFFFF33
:104D9000FFFFFFFFFFFFFFFFFFFFFFFFFFFFFFFF23
:104DA000FFFFFFFFFFFFFFFFFFFFFFFFFFFFFFFF13
:104DB000FFFFFFFFFFFFFFFFFFFFFFFFFFFFFFFF03
:104DC000FFFFFFFFFFFFFFFFFFFFFFFFFFFFFFFFF3
:104DD000FFFFFFFFFFFF38C6AE736529000000002C
:104DE00000000000000000000000000000000000C3
:104DF00000000000000000000000000000000000B3
:104E000000000000000000000000000065298E7313
:104E100038C6FFFFFFFFFFFFFFFFFFFFFFFFFFFFA2
:104E2000FFFFFFFFFFFFFFFFFFFFFFFFFFFFFFFF92
:104E3000FFFFFFFFFFFFFFFFFFFFFFFFFFFFFFFF82
:104E4000FFFFFFFFFFFFFFFFFFFFFFFFFFFFFFFF72
:104E5000FFFFFFFFFFFFFFFFFFFFFFFFFFFFFFFF62
:104E6000FFFFFFFFFFFFFFFFFFFFFFFFFFFFFFFF52
:104E7000FFFFFFFFFFFFFFFFFFFFFFFFFFFFFFFF42
:104E8000FFFFFFFFFFFFFFFFFFFFFFFFFFFFFFFF32
:104E9000FFFFFFFFFFFFFFFFFFFFFFFFBAD6D39C1F
:104EA000CB5A452941082000000000000000000006
:104EB00000000000000000000000000000000000F2
:104EC000000041084529CB5AD39C9AD6DFFFFFFF4B
:104ED000FFFFFFFFFFFFFFFFFFFFFFFFFFFFFFFFE2
:104EE000FFFFFFFFFFFFFFFFFFFFFFFFFFFFFFFFD2
:104EF000FFFFFFFFFFFFFFFFFFFFFFFFFFFFFFFFC2
:104F0000FFFFFFFFFFFFFFFFFFFFFFFFFFFFFFFFB1
:104F1000FFFFFFFFFFFFFFFFFFFFFFFFFFFFFFFFA1
:104F2000FFFFFFFFFFFFFFFFFFFFFFFFFFFFFFFF91
:104F3000FFFFFFFFFFFFFFFFFFFFFFFFFFFFFFFF81
:104F4000FFFFFFFFFFFFFFFFFFFFFFFFFFFFFFFF71
:104F5000FFFFFFFFFFFFDFFFFFFFFFFFFFFFFFFF81
:104F6000FFFFFFFFFBDE38C614A530846D6BEB5AE4
:104F7000694A494A494A8A52EB5A6D6B108414A512
:104F800018C6FBDEDFFFFFFFFFFFFFFFFFFFFFFF96
:104F9000FFFFFFFFFFFFFFFFFFFFFFFFFFFFFFFF21
:104FA000FFFFFFFFFFFFFFFFFFFFFFFFFFFFFFFF11
:104FB000FFFFFFFFFFFFFFFFFFFFFFFFFFFFFFFF01
:104FC000FFFFFFFFFFFFFFFFFFFFFFFFFFFFFFFFF1
:104FD000FFFFFFFFFFFFFFFFFFFFFFFFFFFFFFFFE1
:104FE000FFFFFFFFFFFFFFFFFFFFFFFFFFFFFFFFD1
:104FF000FFFFFFFFFFFFFFFFFFFFFFFFFFFFFFFFC1
:10500000FFFFFFFFFFFFFFFFFFFFFFFFFFFFFFFFB0
:10501000FFFFFFFFFFFFFFFFFFFFFFFFFFFFFFFFA0
:10502000FFFFFFFFFFFFFFFFFFFFFFFFFFFFFFFF90
:10503000FFFFFFFFFFFFFFFFFFFFFFFFFFFFFFFF80
:10504000FFFFFFFFFFFFFFFFFFFFFFFFFFFFFFFF70
:10505000FFFFFFFFFFFFFFFFFFFFFFFFFFFFFFFF60
:10506000FFFFFFFFFFFFFFFFFFFFFFFFFFFFFFFF50
:10507000FFFFFFFFFFFFFFFFFFFFFFFFFFFFFFFF40
:10508000FFFFFFFFFFFFFFFFFFFFFFFFFFFFFFFF30
:10509000FFFFFFFFFFFFFFFFFFFFFFFFFFFFFFFF20
:1050A000FFFFFFFFFFFFFFFFFFFFFFFFFFFFFFFF10
:1050B000FFFFFFFFFFFFFFFFFFFFFFFFFFFFFFFF00
:1050C000FFFFFFFFFFFFFFFFFFFFFFFFFFFFFFFFF0
:1050D000FFFFFFFFDFFFFFFFFFFFFFFFFFFFFFFF00
:1050E000FFFFFFFFFFFFFFFFFFFFFFFFFFFFFFFFD0
:1050F000FFFFFFFFFFFFFFFFFFFFFFFFFFFFFFFFC0
:10510000FFFFFFFFFFFFFFFFFFFFFFFFFFFFFFFFAF
:10511000FFFFFFFFFFFFFFFFFFFFFFFFFFFFFFFF9F
:10539000FFFFFFFF00000000000000000000000011
:040000050800019559
:00000001FF
