:020000040800F2
:10000000A00600205D0300086503000867030008E0
:10001000690300086B0300086D030008000000007E
:100020000000000000000000000000006F03000856
:100030007103000800000000730300087503000846
:1000400077030008770300087703000877030008A8
:100050007703000877030008770300087703000898
:100060007703000877030008770300087703000888
:100070007703000877030008770300087703000878
:1000800077030008770300087703000800000000EA
:1000900000000000000000000000000077030008DE
:1000A0007703000877030008770300087703000848
:1000B0007703000877030008770300087703000838
:1000C0007703000877030008770300087703000828
:1000D000770300087703000877030008000000009A
:1000E000770300087703000877030008000000008A
:1000F000000000000000000000000000770300087E
:100100000000000077030008770300087703000869
:1001100000000000000000000000000000000000DF
:1001200077030008770300087703000877030008C7
:10013000770300080000000000000000000000003D
:10014000000000000000000000000000770300082D
:100150007703000877030008770300087703000897
:10016000770300087703000800000000000000008B
:10017000000000000000000000000000000000007F
:1001800000000000770300080000000000000000ED
:10019000770300082DE9FF5F4FF000064FF4A077CA
:1001A0004FF000084FF4F0794FF4784B00F000FA6C
:1001B0004FF0000B4FF000014FF00003502B1BD00D
:1001C000644850F803904FF000044FF00002202CD8
:1001D0000DD04FF0010A0AFA04FA19EA0A0F01D009
:1001E00000F024F802F1100204F10104EFE701F13C
:1001F000100103F10403E1E74FF000064FF0100790
:100200004FF4E0784FF4E8794FF4FC6B00F0D0F94C
:100210004FF498764FF4A0774FF010084FF0200974
:100220004FF01F0B00F0C4F9BDE8FF9F2DE9FF5F01
:100230000E4601F11007904602F1100900F0B8F9DE
:10024000BDE8FF9F2DE9F04142484FEA53144FEAC1
:10025000840403F01F05065926FA05F616F0010F6F
:1002600006D040F26128434505D04FF0000004E07D
:100270004FF0020001E04FF00100BDE8F0812DE9F0
:10028000F75F4FEA531603F01F074FEA06114FEAD4
:1002900007124FF0000BFFF7C9FFD4460CF00F0C0C
:1002A000BCF1010F09D0BCF1020F0ED0BCF1040F5C
:1002B00019D0BCF1080F0FD01DE0B2F5E87F1AD0BD
:1002C00002F1100203F1010315E0002A13D0A2F19C
:1002D0001002A3F101030EE000290CD0A1F11001DE
:1002E000A3F1200307E0B1F5A07F04D001F11001D4
:1002F00003F12003FFE74FF4FC6BFFF797FFBDE826
:10030000F79F2DE9FF5F144B1B684FF00000FFF7CC
:1003100041FF00F099F90AF02F0ABAF1200F17D027
:10032000BAF1000FF5D0FFF7AAFFFFF78BFF012806
:1003300002D00228E7D0ECE74FF000064FF4A07798
:100340004FF000084FF4F0794FF4FC6B00F030F9F7
:10035000BDE8FF9FAC280108FC2801080948804738
:1003600009480047FEE7FEE7FEE7FEE7FEE7FEE797
:10037000FEE7FEE7FEE7FEE704480549054A064BAF
:1003800070470000A5030008BD1C0008A000002065
:10039000A0060020A0020020A002002070477047A5
:1003A000704700004EF68851CEF20001086840F414
:1003B000700008607047000003B53148016841F0E3
:1003C000070101602F484FF0553101602E484FF072
:1003D000FF3101602D484FF0000101602C484FF0C3
:1003E000553101602B484FF0000101602A484FF061
:1003F000FF31016029484FF00001016028484FF0AB
:100400005531016003BD06B526490A6822F4004251
:100410000A6022F480520A6042F480620A6022F08C
:10042000FF0200F0FF0042EA00020A6022F40062CC
:100430000A6042F400620A6042F400420A6006BDAB
:10044000704706B517490A6822F400420A6042F470
:1004500080520A6042F480620A6022F0FF0200F0DB
:10046000FF0042EA00020A6022F400620A6042F4DD
:1004700000620A6042F400420A6006BD7047000054
:1004800030380240000002400800024004000240F0
:100490000C00024000040240080402400404024030
:1004A0000C0402401400024007B57C490A6822F49B
:1004B00080720A6000F0D5F842F480720A6000F0A1
:1004C000D0F84FF03A00FFF79EFF4FF05500FFF7CE
:1004D000B8FF4FF0C500FFF796FF4FF05400FFF74D
:1004E000B0FF4FF00000FFF7ACFF4FF03600FFF712
:1004F0008AFF4FF00800FFF7A4FF4FF01100FFF74D
:1005000082FF00F0AEF84FF02900FFF77CFF07BD37
:1005100070472DE9FF5F53F8044B53F8045B4FF02D
:100520002A00FFF770FF4FEA1120FFF78AFFC8B2D9
:10053000FFF787FF01EB0400A0F101004FEA102054
:10054000FFF77FFF01EB0400A0F10100FFF779FF47
:100550004FF02B00FFF757FF4FEA1220FFF771FF14
:10056000D0B2FFF76EFF02EB0500A0F101004FEAE9
:100570001020FFF766FF02EB0500A0F10100FFF776
:1005800060FF4FF02C00FFF73EFF04FB05F633F849
:10059000020B4FEA102100F0FF020846FFF751FF5F
:1005A0001046FFF74EFF761EF1D1BDE8FF9F704762
:1005B0002DE93E5C5D464FF02A00FFF724FFB2466E
:1005C0004FEA1A2A5046FFF73CFF3046FFF739FF43
:1005D000BA464FEA1A2A5046FFF733FF3846FFF76C
:1005E00030FF4FF02B00FFF70EFFC2464FEA1A2AEA
:1005F0005046FFF726FF4046FFF723FFCA464FEA63
:100600001A2A5046FFF71DFF4846FFF71AFF4FF022
:100610002C00FFF7F8FE4FEA152105F0FF02A7EBCB
:10062000060B0BF10A0BA9EB080C0CF10A0C0BFBE7
:100630000CF30846FFF705FF1046FFF702FF5B1EAD
:10064000F7D1BDE83E9C704702B54FF0000A144850
:10065000D0F800A000F00DF84FF00A0000F001F80B
:1006600002BD2DE9FF5F0F49091A0029FCDCBDE836
:10067000FF9F02B50C490868002808BF012080EAE6
:10068000403080EA504080EA4010086002BD0748D0
:100690000068002808BF0120034909E01400024057
:1006A00010040240046056000000002018E000E042
:1006B000086070472DE9E043A94604EB030505EB0C
:1006C000830500F013F800F041F807464FF00006EC
:1006D00027FA06FC0CF0FF0C00F081F82A4406F122
:1006E0000806B9F10109F3D1BDE8E0833EB5014642
:1006F0004FF000024FF01003144604F00F05052DD3
:1007000028BFD21C04F0F0054FEA1515052D28BFAF
:10071000303204F470654FEA1525052D28BF02F527
:10072000407204F470454FEA1535052D28BF02F5D7
:1007300040524FEA420211F4004F18BF42F001024A
:100740004FEA41015B1ED7D110463EBD7EB54FF04A
:1007500000024FF000014FF0040300F00F04002CE2
:1007600014D0012C15D0022C16D0032C17D0042C39
:1007700018D0052C19D0062C1AD0072C1BD0082C09
:100780001CD0092C1DD04FF000051CE04FF03F0598
:1007900019E04FF0060516E04FF05B0513E04FF04F
:1007A0004F0510E04FF066050DE04FF06D050AE0D3
:1007B0004FF07D0507E04FF0070504E04FF07F059F
:1007C00001E04FF06F0505FA01F642EA060201F179
:1007D00008014FEA10105B1EBFD110467EBD2DE907
:1007E000E0431CF0010F0CD002EB030808EB0409F6
:1007F00001EB03061E442644264406EB0307FFF7DD
:10080000D7FE1CF0020F0DD0904602EB030901EB5E
:1008100004061E441E4401EB03071F4427442744DB
:10082000FFF7C6FE1CF0040F08D0904608EB030942
:1008300001EB030606EB0407FFF7BAFE1CF0080FF6
:1008400008D002EB030808EB04090E4601EB03078E
:10085000FFF7AEFE1CF0100F0AD002EB0308A04415
:1008600008EB030901EB030606EB0407FFF7A0FE04
:100870001CF0200F0FD002EB0308A04408EB030983
:1008800001EB03061E44264401EB03071F442744E3
:100890002744FFF78DFE1CF0400F0AD002EB03083F
:1008A00008EB040901EB0306264406EB0307FFF7F8
:1008B0007FFEBDE8E0832DE9FF5F4FF000064FF4B7
:1008C000A0774FF000084FF4F0794FF6FF7BFFF769
:1008D0006FFE40F2FF7B4FF000064FF00A074FF02B
:1008E00000084FF4F079FFF763FE4FF49B764FF466
:1008F000A0774FF000084FF4F079FFF759FE4FF062
:1009000000064FF4A0774FF000084FF00A09FFF7F8
:100910004FFE4FF000064FF4A0774FF4EB784FF402
:10092000F079FFF745FE40F2FF7B4FF023064FF0D2
:1009300087074FF073084FF0D709FFF739FE4FF0E4
:10094000000B314642464FF00A034FF0640400F0BA
:10095000BEF840F2FF7B4FF0B90640F21D174FF092
:1009600073084FF0D709FFF723FE314642466E4B1E
:10097000FFF7CFFD4FF0000B314642464FF00A0320
:100980004FF0640400F0A3F840F2FF7B4FF0230621
:100990004FF0870740F2091840F26D19FFF708FE83
:1009A00031464246614BFFF7B4FD4FF0000B314634
:1009B00042464FF00A034FF0640400F088F840F21A
:1009C000FF7B4FF0B90640F21D1740F2091840F2C4
:1009D0006D19FFF7EDFD31464246554BFFF799FD86
:1009E0004FF0000B314642464FF00A034FF06404CB
:1009F00000F06DF84FF0B90140F209124FF00A0310
:100A00004FF064044FF6E07B00F061F8FFF71CFE46
:100A10000AF01F0ABAF1000FF8D0BAF1100F02D095
:100A200000F01BF8F2E7B92901D0232905D040F2E4
:100A3000091C624507D0732A08D040F2091C6245A0
:100A400007D0732A08D000F00BFB36E700F0FDFD5D
:100A500033E7FFF756FC30E72FE72DE918584FF042
:100A6000000B4FF064044FF00A0300F030F8D44656
:100A70000CF00F0CBCF1040F09D0BCF1080F0BD027
:100A8000BCF1010F12D0BCF1020F0AD015E0B92958
:100A900013D001F1960110E023290ED0A1F19601A7
:100AA0000BE0732A09D0A2F1960206E040F2091C7D
:100AB000624502D002F19602FFE74FF6E07B4FF06D
:100AC0000A034FF0640400F002F8BDE818982DE91D
:100AD000FF5FA4EB030AA1EB03060F46A2EB03089A
:100AE00002EB0409FFF764FDA1EB030601EB040729
:100AF000A2EB03089146FFF75BFDA1EB030601EBB8
:100B0000040702EB0A0802EB0409FFF751FD01EBB1
:100B10000A0601EB0407A2EB030802EB0409FFF746
:100B200047FDBDE8FF9F0000D47D000884EF00086A
:100B3000ACB600082DE9FF474FF000064FF4A07750
:100B40004FF000084FF4F0794FF0000BFFF730FD45
:100B50004FF008064FF49C774FF008084FF49C794B
:100B60004FF6FF7BFFF724FD4FF068064FF070074C
:100B70004FF008084FF49C794FF0000BFFF718FD79
:100B80004FF0D0064FF0D8074FF008084FF49C798B
:100B90004FF0000BFFF70CFD4FF008064FF49C7769
:100BA0004FF068084FF070094FF0000BFFF700FDA1
:100BB0004FF008064FF49C774FF0D0084FF0D8095B
:100BC0004FF0000BFFF7F4FC4FF0000BFFF7F0FCC9
:100BD0004FF098064FF0A8074FF4A4784FF4E87947
:100BE0004FF4FC6BFFF7E4FC4FF4BE724FF0500182
:100BF0004FF032034FF4FC6B00F080FA8E4800682F
:100C00004FF4BE724FF01E014FF002034FF010047C
:100C10004FF00205FFF74EFD4FF4BE724FF0FA01A0
:100C20004FF032034FF4FC6B00F0A0FA83480068E9
:100C30004FF4BE724FF0C8014FF002034FF01004A2
:100C40004FF00205FFF736FDBDE8FF4770472DE97D
:100C5000FF5FA1F108060F46A2F1080802F168093A
:100C6000FFF7A6FCA1F1080601F16807A2F1080848
:100C70009146FFF79DFCA1F1080601F1680702F11A
:100C8000600802F16809FFF793FC01F1600601F1C9
:100C90006807A2F1080802F16809FFF789FCBDE8BE
:100CA000FF9F2DE900584FF0000BFFF7D0FFD4460F
:100CB0000CF00F0CBCF1010F09D0BCF1020F0BD0EE
:100CC000BCF1040F12D0BCF1080F0AD013E0D82AEF
:100CD00011D002F168020EE0082A0CD0A2F16802DD
:100CE00009E0082907D0A1F1680104E0D82902D061
:100CF00001F16801FFE74FF6E07BFFF7A8FFBDE8D1
:100D000000982DE9FF5F4FF0000C082909D07029E9
:100D10000AD0D8290BD0082A0CD0702A0DD0D82A96
:100D20000ED00CF1010CF6E70CF1020CF3E70CF11C
:100D3000040CF0E70CF1080C05E00CF1100C02E0DB
:100D40000CF1200CFFE7BCF1240F17D0BCF1220FEF
:100D500017D0BCF1210F17D0BCF1140F17D0BCF184
:100D6000120F17D0BCF1110F17D0BCF10C0F17D018
:100D7000BCF10A0F17D0BCF1090F17D04FF0010CCE
:100D800017E04FF0020C14E04FF0030C11E04FF0AD
:100D9000040C0EE04FF0050C0BE04FF0060C08E0E1
:100DA0004FF0070C05E04FF0080C02E04FF0090C83
:100DB000FFE7DFF88CB0DBF800B04FEA4C04A4F199
:100DC00002044FF0030505FA04F50BEA050525FAC0
:100DD00004F5022D5CD0012D5AD04FF0030505FA21
:100DE00004F52BEA050BDFF85CA0DAF800A00AF0A6
:100DF000020ABAF1020F02D0BAF1000F26D0AAF10E
:100E0000020A4FF0010505FA04F54BEA050B0C4800
:100E1000C0F800B04FF060034FF0000B00F06EF927
:100E20000848C0F800A00848D0F800A00AF1010A5C
:100E3000C0F800A038E000001000002014000020DE
:100E400004000020080000200C0000200AF1020A23
:100E50004FF0020505FA04F54BEA050B0948C0F806
:100E600000B04FF060034FF0000B00F07FF9064830
:100E7000C0F800A00548D0F800A00AF1010AC0F8A7
:100E800000A011E004000020080000200C00002059
:100E90004FF4784BFFF7DBFE4FF00500FFF7E1FB67
:100EA0004FF6E07BFFF7D3FEBDE8FF9F2DE9FF5F24
:100EB0004FF00001004801E00400002044F2041259
:100EC00041F2410341F21014FD4DFE4E42F2820701
:100ED00042F2202848F20829DFF8ECA3DFF8ECB34F
:100EE000016801EA0201914253D0016801F0150145
:100EF00015294ED0016801EA0301994249D00168E1
:100F000001EA0401A14244D0016801EA0501A942B5
:100F10003FD0016801EA0601B1423AD0016801F40C
:100F2000A861B1F5A86F34D0016801F4A831B1F51A
:100F3000A83F2ED0016801EA0701B94236D0016806
:100F400001EA0801414531D0016801F02A012A294E
:100F50002CD0016801EA0901494527D0016801EA5E
:100F60000A01514522D0016801F42861B1F5286FCA
:100F70001CD0016801F42831B1F5283F16D0016872
:100F800001EA0B01594511D0D14E3668092E1AD00D
:100F90001FE000F020F8CF49D1F800C00CF1010C9F
:100FA000C1F800C04FF0FF31016012E000F02EF8F0
:100FB000C949D1F800C00CF1010CC1F800C04FF0D4
:100FC000FF31016005E000F03BF84FF0FF310160B8
:100FD000FFE7BDE8FF9F2DE9FF5F4FF000064FF4EC
:100FE000A0774FF000084FF4F0794FF6FF7BFFF742
:100FF000DFFA4FF071014FF0C1024FF060034FF480
:10100000FC6B00F07BF8B548BDE8FF9F2DE9FF5F62
:101010004FF000064FF4A0774FF000084FF4F0793E
:101020004FF6FF7BFFF7C4FA4FF071014FF0C1029A
:101030004FF060034FF4FC6B00F098F8BDE8FF9FA1
:101040002DE9FF5F4FF000064FF4A0774FF0000846
:101050004FF4F0794FF4784BFFF7AAFABDE8FF9F01
:101060002DE9FF5F5FF824C24FF0100BCCF800B001
:1010700098484FF00001016097484FF0000101606F
:10108000FFF758FD5FF848C24FF0000BCCF800B0F6
:101090005FF84CC24FF0000BCCF800B04FF070017D
:1010A0004FF070024FF6E07BFFF7D1FDFFF7CCFA6F
:1010B0000AF03F0ABAF1200F1ED0BAF1000FF5D0A6
:1010C000BAF1100F02D0FFF7ECFDEFE7FFF719FEC2
:1010D0004FF0000BFFF7BBFDFFF7E8FE804800680C
:1010E000B0F1FF3F00D0D9E7FFF7AEFA0AF01F0AD0
:1010F000BAF1000FF8D0C3E7BDE8FF9F2DE9FF5F0D
:1011000001F10A0102F10A02A3F114034FF0080AE7
:1011100055464FEA5505AAEB050CACF1010C4FF012
:10112000000401EB0400A0EB050600EB0C0702EB4A
:101130000400A0EB050800EB0C09FFF739FAA3EB5C
:101140000400A0F101000844A0EB050600EB0C0729
:1011500002EB0400A0EB050800EB0C09FFF728FAEE
:1011600004F101049C42DCDBBDE8FF9F2DE9FF5F39
:1011700001F10A0102F10A02A3F114034FF0080A77
:1011800055464FEA5505AAEB050CACF1010C184683
:101190004FEA500001EB000302EB00044FF00001A6
:1011A000024602F101024FF00107A7EB000700F031
:1011B00013F891420EDC002F03DDA2F10102A7EB30
:1011C000420707EB410707F1010700F005F801F1BD
:1011D0000101EEE7BDE8FF9F2DE9FF5F03EB010092
:1011E00004EB020AA0EB050600EB0C07AAEB0508CE
:1011F0000AEB0C09FFF7DCF903EB020004EB010A30
:10120000A0EB050600EB0C07AAEB05080AEB0C099E
:10121000FFF7CEF9A3EB020004EB010AA0EB0506F1
:1012200000EB0C07AAEB05080AEB0C09FFF7C0F965
:10123000A3EB010004EB020AA0EB050600EB0C0790
:10124000AAEB05080AEB0C09FFF7B2F9A3EB0100C2
:10125000A4EB020AA0EB050600EB0C07AAEB0508BD
:101260000AEB0C09FFF7A4F9A3EB0200A4EB010AB7
:10127000A0EB050600EB0C07AAEB05080AEB0C092E
:10128000FFF796F903EB0200A4EB010AA0EB0506B9
:1012900000EB0C07AAEB05080AEB0C09FFF788F92D
:1012A00003EB0100A4EB020AA0EB050600EB0C0720
:1012B000AAEB05080AEB0C09FFF77AF9BDE8FF9FD6
:1012C00001010100100401002008020002020200D6
:1012D0000C00002010000020140000200800002056
:1012E000040000202DE9C0430E4606F13207904667
:1012F00008F13209FFF75CF9BDE8C0832DE9FF5F13
:101300004FF000064FF4A0774FF000084FF4F0794B
:101310004FF01F0BFFF74CF94FF00A064FF49B7785
:101320004FF028084FF4DC794FF6FF7BFFF740F9C8
:101330004FF4FC6B4FF00A014FF00003062B1DD059
:10134000E44810F803904FF000044FF02802082CF6
:101350000FD04FF0010A0AFA04FA19EA0A0F03D073
:101360004FF4FC6BFFF7BEFF02F1320204F10104FF
:10137000EDE701F1320103F10103DFE7BDE8FF9F73
:101380002DE9F75F57469A4600F053F8A34247D03D
:101390004FF6E07B4FF00F00012F0ED106F1320720
:1013A00008F13209FFF704F9FFF75BF903F10103D4
:1013B00008F13208A342F1D132E0022F0ED106F13A
:1013C000320708F13209FFF7F3F8FFF74AF9A3F102
:1013D0000103A8F13208A342F1D121E0042F0ED17C
:1013E00008F1320906F13207FFF7E2F8FFF739F9A1
:1013F00003F1080306F13206A342F1D110E0082FF1
:101400000ED108F1320906F13207FFF7D1F8FFF7E4
:1014100028F9A3F10803A6F13206A342F1D1FFE7B0
:101420000EB431464246AC4BFFF773F80EBCBDE834
:10143000F79F3FB54FF032054FEADA0404FB05F39E
:1014400003F10A060AF0070404FB05F303F1280878
:101450003FBD2DE9E744514601F00F01042906D0B4
:1014600008291ED0012935D0022950D06CE09948B6
:101470001C464FEAD40604F007054FF0010202FAB9
:1014800005F2052E60D0934806F10106875D1742EC
:101490005AD147EA0207875504F10804052EF2D114
:1014A00052E01C464FEAD40604F007054FF0010253
:1014B00002FA05F2002E47D08648A6F10106875DA4
:1014C000174241D147EA02078755A4F10804002ECC
:1014D000F2D139E01C464FEAD40604F007054FF07C
:1014E000010202FA05F2072D2ED07A4805F1010516
:1014F0004FF0010202FA05F2875D174224D147EA54
:101500000207875504F10104072DEED11CE01C46AB
:101510004FEAD40604F007054FF0010202FA05F283
:10152000002D11D06B48A5F101054FF0010202FA20
:1015300005F2875D174207D147EA02078755A4F1F4
:101540000104002DEED1FFE7BDE8E7842DE9FD5F42
:101550004FEAD30603F007074FF00508A8EB06088B
:101560004FF00709A9EB0709B8F1000F0BDD06F1F1
:10157000010B584C14F80B504FF0010000FA07F023
:10158000054200D15DE0B8F1050F0BDAA6F1010BC1
:10159000504C14F80B504FF0010000FA07F00542D0
:1015A00000D14EE014F80850B9F1000F0ADD494CA3
:1015B000A55D07F1010C4FF0010000FA0CF00542A7
:1015C00000D13EE0B9F1070F0ADA424CA55DA7F160
:1015D000010C4FF0010000FA0CF0054200D130E0A0
:1015E0003C4C2578FF2D1DD16578FF2D1AD1A578AB
:1015F000FF2D17D1E578FF2D14D12579FF2D11D1BD
:101600006579FF2D0ED14FF0FF014FF000064FF42A
:10161000A0774FF000084FF4F0794FF4FC6BFEF721
:10162000C7FF10E040F6AA214FF000064FF4A07764
:101630004FF000084FF4F0794FF4784BFEF7B8FF05
:1016400001E04FF00001BDE8FD9F2DE9FF5F4FF085
:101650000309CC46ACF1010C204B13F80C301C46AE
:101660004FF006020CFB02FC4FF000021C486044E5
:101670001849835C8B5402F10102062AF6D1FFF768
:101680003DFE2346FFF77CFEFFF760FF00290CD1EB
:10169000FEF7DAFF0AF02F0ABAF1200F17D0BAF1DD
:1016A000000FF5D0FFF7D5FEECE74FF00100FEF795
:1016B000D8FFFEF7C9FF0AF01F0ABAF1000FF8D0F1
:1016C000FF2908BF09F10109B9F1030FC1DDBDE828
:1016D000FF9F000018000020E41C0008DE1C00082A
:1016E000CC1C00083FB55C485C4C2588002D0BD015
:1016F0004FF00005258019464FEA41010844028851
:1017000042F00102028002E04FF0010525803FBD5A
:101710001FB5534821464FEA41010844028842F46C
:10172000004202801FBD2DE9FF5F4FF000054A48CF
:1017300029464FEA4101084402884FF020064FF045
:1017400030074FEA05184FEA051909F110094FF063
:1017500001044FF0010101FA04F102EA0103002B38
:1017600017D0C246CC4608F10508A9F10509A6F133
:101770001006A7F110074FF0000BFEF719FF06F156
:10178000100607F110074FF61F0BFEF711FFD046AA
:10179000E14606F1100607F1100704F10104102CD0
:1017A000D7DBA6F11006A7F110074FF0000BFEF7EC
:1017B000FFFE05F101051E2DB9DBBDE8FF9F2DE9F8
:1017C000FF5F4FF00005264829464FEA41010844D3
:1017D00002884FF020064FF030074FEA05184FEA15
:1017E000051909F110094FF001044FF0010101FA48
:1017F00004F102EA0103002B17D0C246CC4608F1DF
:101800000508A9F1050906F1100607F110074FF0C8
:10181000000BFEF7CDFEA6F11006A7F110074FF65C
:10182000205BFEF7C5FED046E14606F1100607F143
:10183000100704F10104102CD7DB05F101051E2D62
:10184000C1DBBDE8FF9F2DE9FF5F4FF000034FF0C4
:101850001E020148024905E0200000209E000020F1
:101860005C000020934208D030F813404FEA440453
:1018700020F8134003F10103F4E74FF00003934213
:1018800010D030F8134031F8135004EA050624EA6A
:10189000060425EA060520F8134021F8135003F149
:1018A0000103ECE74FF00003934208D031F81340F6
:1018B0004FEA540421F8134003F10103F4E74FF019
:1018C0000003934210D030F8134031F8135004EA6B
:1018D000050624EA060425EA060520F8134021F847
:1018E000135003F10103ECE7BDE8FF9F2DE9E04F42
:1018F000BAFA8AFACAF11F0A4FF0010505EB8A0508
:101900004FEA051808F110094FF488764FF4A077D4
:101910004FF0000BFEF74CFEBDE8E08F2DE9C15FF4
:1019200018460AF0030ABAF1010F03D0BAF1020F08
:1019300004D024E0012B18BF5B1E03E01C2B18BF52
:101940005B1CFFE74FEA00104FF000064FF0300736
:10195000A0F1100800F120094FF0000BFEF728FE5F
:1019600018464FEA00104FF000064FF03007A0F184
:10197000100800F120094FF01F0BFEF719FEBDE81B
:10198000C19F2DE93F48C74800884FF496714FF436
:10199000E1724FF001034FF006044FF003054FF6DC
:1019A0001F0BFEF787FEBDE83F882DE9C34F4FF4BC
:1019B00096764FF4A0774FF4E1784FF4F0794FF03A
:1019C000000BFEF7F5FDB748018861440180FFF781
:1019D000D8FFBDE8C38F2DE93F48B34800884FF4D6
:1019E00087714FF4E1724FF001034FF007044FF09D
:1019F00001054FF6205BFEF75DFEBDE83F882DE94F
:101A0000C34F4FF4877640F22B174FF4E1784FF431
:101A1000F0794FF0000BFEF7CBFDA3480188A1F150
:101A200001010180002801DC4FF0AA0CFFF7D3FF71
:101A3000BDE8C38F13B5FEF71CFE014601F001019E
:101A400000290DD0FEF715FE044604F007044FEA06
:101A5000840404F10204FFF75BFEA1F10101EFE74A
:101A6000BDE813402DE9FE4F9B4690494FF001031E
:101A70001D2B47D0C9584FEAD13101F0010101298E
:101A800002D003F10103F3E713F00304002C39D073
:101A900003F103034FEA930385490968A3F10103A6
:101AA0004FF0010202FA03F292466FEA020201EAE3
:101AB00002017F4A1160FFF719FF002920D07D49FC
:101AC00051F80B104FEAD13101F00101012914D076
:101AD0000BF1010B51F80B104FEAD13101F001016C
:101AE00001290AD0ABF1020B51F80B104FEAD131AA
:101AF00001F00101012900D004E0FFF780FF01E0BF
:101B00004FF0FF0CBDE8FE8F2DE9C04F4FF6E07B94
:101B10000E4601F13007904602F13009FEF748FD0C
:101B20004FF0000B01F1200601F1280702F10C082B
:101B300002F11409FEF73CFD01F1200601F128072E
:101B400002F11C0802F12409FEF732FD01F1100632
:101B500001F1180702F10C0802F12409FEF728FD33
:101B6000BDE8C08F2DE9C04F4FF01F0B0E4601F1AD
:101B70003007904602F13009FEF71AFD4FF0000BD6
:101B800001F1200601F1280702F10C0802F1140905
:101B9000FEF70EFD01F1200601F1280702F11C08F5
:101BA00002F12409FEF704FD01F1100601F1180706
:101BB00002F10C0802F12409FEF7FAFCBDE8C08F1F
:101BC0002DE9FF5F4FF000064FF4A0774FF00008BB
:101BD0004FF4F0794FF0000BFEF7EAFC4FF00306EC
:101BE000314806804FF000062E48068032480680B5
:101BF0004FF000064FF000031E2B08D02B4820F8B2
:101C000013602C4820F8136003F10103F4E74FF050
:101C100000034FF488714FF01002072B06D0FFF736
:101C200073FF03F1010302F14002F6E74FF00001F8
:101C30004FF0D002FFF796FF4FF00E03BDE8FF9F75
:101C40002DE9FF5FFFF7BCFF4FF00E03FFF7F2FE39
:101C5000FFF7B5FDFFF767FDFFF744FDFFF7F3FD65
:101C6000FEF7F2FCFFF75AFEF0E7FFF7ECFDFFF797
:101C7000EAFDFFF758FDFFF735FDFFF7E4FDFFF73D
:101C800052FDFFF79CFD4FF00400FEF7EAFCFFF762
:101C9000E9FEBCF1FF0F03D0BCF1AA0F00D0D5E7DD
:101CA000BDE8FF9F9A0000209C000020200000203B
:101CB000980000205C0000209E000020FEF7E7FC5A
:101CC000FEF77AFBFEF7F0FBFFF7BAFF81A581CBA9
:101CD000D9C10008801054048CA088E0808024249E
:101CE000130000003200000032000000FF2EFF262B
:101CF0001F1F1F171F171F171F171F171F173F170C
:101D00003F173F173F173F173F1F3F171E173E173D
:101D10003F1F1F171F171F171F171F171F171F17EB
:101D20001F171F171F1F1F1F1F1F1F1F3F1F3F179B
:101D30001F1F1F1F1F173F173F173F173F171F1763
:101D40001F171F171F1F1F1F1F1F1F1F1F1F1F1FB3
:101D50001F2F3F273F1F5F175F173F0F5F175F174B
:101D60003F173F173F173F175F175F175F175F1743
:101D70005F177F175F175F173F173F173F173F1713
:101D80003F173F173F173F173F173F173F173F17A3
:101D90003F173F173F173F173F173F175F175F1753
:101DA0007F175F175F173F173F173F173F173F1703
:101DB0003F173F171F1F3F175F0F5F0F5F075F073B
:101DC0005F0F5F0F5F0F5F0F5F0F7F077F077F0F53
:101DD0007F0F7F0F5F0F5F0F5F0F5F0F5F0F5F0F53
:101DE0007F0F7F0F5F0F5F075F075F075F0F5F0F5B
:101DF0005F0F5F0F7F0F5F0F5F0F5F0F5F0F5F0F53
:101E00007F0F7F0F5F075F0F5F0F5F0F5F0F5F0F2A
:101E10005F0F5F0F5F0F5F0F1F173F173F075F07D2
:101E20005F075F075F077F0F5F075F075F075F075A
:101E30005F075F075F075F075F073F073F075F07B2
:101E40005F075F077F077F077F077F077F077F07A2
:101E50007F077F077F075F075F075F073F073F0732
:101E60003F075F075F075F073F075F075F075F0782
:101E70005F077F077F077F075F075F073F175F17D2
:101E80005F0F5F075F075F075F0F5F175F175F0FEA
:101E90005F0F5F0F5F0F5F0F5F0F5F0F7F0F5F0FB2
:101EA0005F0F5F0F7F075F075F075F077F077F0792
:101EB0007F077F077F075F075F075F077F0F5F0F62
:101EC0005F0F5F0F5F0F5F0F5F0F7F0F5F0F7F0F62
:101ED0007F0F5F0F5F077F077F075F075F075F0762
:101EE0005F1F5F175F0F5F0F7F0F5F0F1F0FFF0EEB
:101EF000FF0EFF0EFF0EFF0EFF0EFF0EFF0E1F0F59
:101F0000FF0EFF0E1F0F3F0F7F0F5F075F075F077B
:101F10007F077F077F077F075F075F075F073F0731
:101F20001F071F0FFF0EFF0EFF0EFF0EFF0E1F0FEE
:101F3000FF061F0FFF0EFF063F077F077F075F07A4
:101F40005F075F073F173F0F5F0F5F0F5F0F1F0FA9
:101F5000BE063D063D063E063E063E063E063E06E3
:101F60003E063E065E065D069E061F0F5F0F5F0F74
:101F70005F077F077F077F077F077F075F075F0791
:101F80003F071F0F5D063D063E063E061E061E0667
:101F90003E063D063E065E065E067E06DE065F0FD8
:101FA0007F0F7F075F075F073F175F0F5F0F7F0F91
:101FB0007F0F1F075E06DC051E06FE05FE05FE05FB
:101FC000FE05FE05FE05FE05FD051D065E06FF0E6F
:101FD0005F0F5F0F5F075F077F077F077F077F0741
:101FE0007F075F073F071F0F1D06FD05FD05DE0587
:101FF000DE05DE05FD05FD05DD05FD05FD051D060E
:102000009E061F0F7F0F5F075F075F073F0F5F0F82
:102010007F075F075F07FF065E06FD05FE05DE051D
:10202000DE05DE05DE05DE05DE05DE05FE05FD0559
:102030007E06FF0E5F0F5F075F075F075F075F07A3
:102040007F077F075F077F075F07FF061D06FE0507
:10205000FE05DE05DE05DE05DE05DE05DE05FE0528
:10206000FE051E069E061F0F5F0F5F075F075F07D7
:102070003F0F5F0F7F075F075F07FF065E06DE0506
:10208000DE05DE05DF05DF05DF05DE05DF05DE0534
:10209000DE05FE055E06FF0E5F0F5F075F075F0749
:1020A0005F075F077F077F075F075F075F07FF0621
:1020B0001D06FE05DE05DF05DE05DE05DE05DE05A7
:1020C000DE05FE05FE051E069E061F0F5F0F5F075D
:1020D0005F075F073F175F175F0F5F075F0FFF0621
:1020E0005E06DE05DE05DF05DE05DE05DE05DE0556
:1020F000DE05DE05DE05DE055E06FF0E5F0F5F070F
:102100005F075F075F075F077F077F075F075F075F
:102110005F0FFF061D06FE05DF05DF05DF05DE0597
:10212000DE05DE05DF05DF05DE051E067E061F0F68
:102130005F075F075F075F0F1F175F175F0F5F077F
:102140005F0FFF0E5E06FE05DE05DF05DE05DE0520
:10215000DE05DE05DE05DE05DE05DE055E06FF0EBC
:102160005F0F5F075F075F075F075F077F077F07F7
:102170005F077F075F0FFF061E06FE05FE05DF05F2
:10218000DF05DF05DE05DE05BF05DF05DE05FE0533
:102190007E061F0F5F075F075F075F0F1F175F1741
:1021A0005F0F5F075F0FFF0E5E06FE05DE05DF05B2
:1021B000DE05DE05DE05DE05DE05DE05DE05DE0507
:1021C0007E061F075F075F077F077F075F075F07C1
:1021D0007F077F077F077F075F07FF061E06FE0555
:1021E000FE05DF05DF05DF05DF05DE05BF05DF05D1
:1021F000DE05FE057E061F0F5F0F5F075F075F07A7
:102200001F175F175F0F5F075F0FFF0E5E06FE056C
:10221000DE05DF05DF05DE05DE05DE05DE05DE05A4
:10222000DE05FE057E061F075F077F077F077F0726
:102230005F075F077F077F077F077F075F07FF064F
:102240001D06FE05FE05FF05DF05DF05DF05DF05D1
:10225000BF05DF05DE05FE057E061F0F5F0F5F076A
:102260005F075F071F0F5F175F0F5F075F0FFF0EAF
:102270005E06FE05DF05DF05DF05DF05DE05DE05A1
:10228000DE05DE05DE05FE057E061F075F077F070C
:102290005F075F075F075F075F077F077F077F07AE
:1022A0005F0FFF0E1D06FE05FE05FF05DE05DE05C0
:1022B000DE05DF05DF05DF05DE05FE057F061F0FF6
:1022C0005F0F5F075F075F071F0F5F175F0F5F07F6
:1022D0005F0FFF0E5E06FE05DE05DF05BF05DF05AD
:1022E000DE05DE05DE05DE05DE05FD057E061F0FCB
:1022F0005F0F5F075F075F075F075F075F075F07A6
:102300005F077F0F5F0FFF0E1E06FE05FE05FF0530
:10231000FF05DE05DE05DF05DF05DF05DE05FE0561
:102320007F061F0F5F0F5F075F075F073F175F178E
:102330005F0F5F0F5F0FFF0E5E06DD05DE05DE053A
:10234000DE05DE05DE05DE05DE05DE05DE05FD0556
:102350005E06FF0E5F0F7F075F075F075F075F0780
:102360005F075F075F075F073F07FF0EFD05FE057D
:10237000DE05DE05DE05DE05BE05BE05FF05DE0564
:10238000DE05FD057E061F0F5F0F5F075F075F0716
:102390003F175F175F0F5F075F0FFF065E06FD05C4
:1023A000FE05DE05DE05FE05FE05FE05FE05FE0555
:1023B0001D061D067E06FF065F0F7F077F077F074E
:1023C0005F075F075F075F075F073F073F071F0F55
:1023D0001D061E06FE05FE05FE05DE05DE05DE0504
:1023E000DE05FD05FD051D069E061F0F5F0F5F0F35
:1023F0005F075F073F0F5F0F5F075F075F0F1F07F5
:10240000BE065E065E065E065E065E065E067E062C
:102410007E067E067E067E06BE061F077F077F07B6
:102420007F077F077F077F075F075F075F075F07FC
:102430003F071F0F7D065D065E065E063E063E06F2
:102440003E065E065E065E065E069D06DE063F07EB
:102450007F075F075F075F071F0F5F0F5F077F073C
:102460007F077F0F1F07FF06FF06FF06FF0EFF0E09
:102470001F0F1F0F1F0F1F0F1F07FF061F075F0FE5
:102480007F0F7F077F077F077F075F075F075F0774
:102490005F075F075F073F073F0F1F0F1F0F1F0FEC
:1024A0001F0F1F0F1F0F1F0F1F0F1F0FFF0E1F07E5
:1024B0003F077F077F075F075F075F071F0F5F17F4
:1024C0005F0F7F079F077F075F0F5F0F5F0F5F0F34
:1024D0005F0F5F0F5F0F7F0F5F0F5F0F7F0F5F0754
:1024E0007F0F7F0F7F0F7F077F077F075F075F07E4
:1024F0005F075F075F075F075F075F077F0F7F0F5C
:102500007F0F5F0F5F0F5F0F5F0F7F0F5F0F5F0F1B
:102510005F0F5F0F7F077F077F075F075F075F071B
:102520001F175F175F0F5F077F077F075F077F0F2B
:102530005F075F075F075F0F5F0F5F0F5F0F5F074B
:102540007F077F077F077F077F077F077F075F077B
:102550005F075F075F075F075F077F075F075F072B
:102560005F077F075F0F5F0F5F0F5F0F7F077F07BB
:102570005F075F0F5F0F7F0F7F077F077F077F0773
:102580005F075F071F175F175F175E0F5F0F5F0F14
:102590005F0F7F0F5F0F5F0F5F0F5F0F5F0F5F0FAB
:1025A0005F0F5F0F5F0F7F0F7F077F077F077F073B
:1025B0007F077F077F075F075F075F077F077F074B
:1025C0005F075F079F0F7F0F9F0F9F0F9F0F9F0F4B
:1025D0009F0F9F0F5F0F5F0F7F177F0F7F0F7F078B
:1025E0007F077F0F5F0F5F0FFE2E3E375E2F3E2768
:1025F0005E275E275E2F7F2F7F2F7F2F7F2F7F2FDE
:102600005F2F5F2F5F275F275E277E1F7E177F0F5D
:102610005F077F077F077F075F075F075F075F072A
:102620007F077F077F0F5F0F5E175E1F5E275E27A6
:102630005E275E275E275E279F2F7F2F7F2F7F2FAE
:102640005F273E273E275E275E273E271D675E6782
:102650003D5F5D5F3D57FF6F393EBB4E9B4E9B4ECE
:10266000DC565A3E7B46DF6F1E573E575E577E4F05
:102670007F3F5E1F7F0F9F075F077F075F077F0713
:102680005F075F075F075F073E0F5E275E3F7E4F76
:102690007E575E5F1D57BF671D575A3EBB4E9B4E10
:1026A000DC56393E9B469F673E575E5F5E5F3E5FEE
:1026B000BFA7FFAFDFA7FFA7BF9F5D978E1B4A0293
:1026C0004A0229024A02490231349F9FFFA7FFA70D
:1026D000DF9FDF87BF677E377F177F0F5F075F074B
:1026E0005F077F077F077F077F075F0F3E1F5E3F04
:1026F000FF7FFF97FF9FFF9FBF9F9E97144D69022B
:10270000290228026A028A02D4449E97DFA7FFA703
:10271000DFA7DFA7DFDFFFDFFFD7FFDFFFDF7ECF32
:102720006A2A2100A2008200820061002C43BED7E9
:10273000FFDFFFD7FFD7FFBFFF877E4F5E1F7F0FF3
:102740003F077F075F077F077F077F077F075F17C9
:102750003E275E57FFA7FFCFFFD7FFD7FFDFFFDF83
:10276000516C6100C200A20061008200EF5BDFD704
:10277000FFDFFFDFFFDFFFDFFFFFFFF7DFF7FFF721
:10278000FFFF9EEF8A528210E32003212421A2182A
:102790002C63DEF7FFFFBEEFFFEFFFD7DF975E573B
:1027A0003E277F175F077F075F077F077F075F076A
:1027B0007F0F5E173E2F5E5FFFBFFFE7FFEFDFEF8C
:1027C000FFFFFFFF9294811044294429E3208110E8
:1027D0000F7CFFFFFFFFDFF7FFFFFFF7FFFFFFFFAC
:1027E000FFFFFFFFFFFF7DEF6952C218C320E32008
:1027F000232981180B63DEFFFFFFFFF7FFEFFFD7F1
:10280000DF9F5E5F3E2F7F175F0F7F0F5F0F5F0FB2
:102810005F075F077F0F3F1F3E375E67FFBFFFE722
:10282000FFEFFFF7FFFFFFFF9194A218C2200329DB
:10283000E32081100F84FFFFFFFFFFFFFFFFFFFF7B
:10284000DFFFDFF7FFFFFFFFFFFF7DF7494AA21819
:10285000E320E320032981182B6BDEFFFFFFFFFF3E
:10286000FFF7FFDFDFA75E673E3F5F2F3F1F5F1F62
:102870003F1F5F1F3F173F175F1F3F2F1F475E6FB1
:10288000DFBFFFE7FFF7FFF7FFFFFFFF7194A2181D
:10289000C220E228E220A1182F84FFFFFFFFFFFFE4
:1028A000FFFFFFFFFFFFFFFFFFFFFFFFFFFF7EF7C1
:1028B000494AA2180329C2200329A2184C73FFFF1A
:1028C000FFFFFFFFFFFFFFE7BFB71E77FE561F4763
:1028D000FF3EFF3EFF3EFF3EFF36FF36FF3EFF4618
:1028E000FF561E7FFFC7FFEFFFEFFFF7FFFFFFFF62
:1028F0009194A218E320E328E32082180F84FFFFBD
:10290000FFFFFFFFFFFFDFFFDFFFFFFFFFFFFFFF17
:10291000FFFF9EF74952A2202429C32003298118D2
:102920002C73DFFFFFFFFFFFFFFFFFEF7FC7BD96A9
:102930007E769F6E7F667F6E9F6E9F6E7F6E7F66D8
:102940009F6E7F6E9E7EBE9EDFD7FFEFFFF7FFFF7D
:10295000FFFFFFFF71946110E328E3280329821829
:10296000EF83FFFFFFFFDFFFFFFFFFFFFFFFDFF74B
:10297000FFFFFFFFFFFF7DF74952A220E328C2209F
:10298000E328A2204C6BDEFFFFFFFFFFFFFFFFF7F6
:102990003FD73DB6BDA5DEA5DFA5BFA5BEA5BFA59A
:1029A000BFA5BFA5BFA59EA5BDAD3DBEBFEFFFFFA7
:1029B000FFFFFFFFFFFFFFFF308CA218E328C220BC
:1029C000C320A218CF83FFFFFFFFFFFFFFFFFFFF22
:1029D000DFFFDFF7FFFFFFFFFFFF7DF76952C22038
:1029E00024310329032981182C6BDEFFFFFFFFFF31
:1029F000FFFFFFFF3FEFFDCD7DC57FCD7FCD5FCDDD
:102A00007FCD7FCD7FCD7FCD7FCD7EC59ECD1DD6A9
:102A10009FFFFFFFFFFFDFFFFFFFFFFF71948218A3
:102A2000E328E328E328A218EF83FFFFFFFFDFFF7F
:102A3000FFFFFFFFFFFFFFFFFFFFDFFFFFFF7DF750
:102A40006952C218A218C220E32061100C6BFFFF6C
:102A5000FFFFDFFFDFFFDFFFFFF6DDD53DCD5FDDF1
:102A60005FDD3FDD3FDD3FDD3FDD3FDD5FD53ECD5F
:102A70005DD5FDD59FFFFFFFFFFFFFFFFFFFFFFFBE
:102A800071946110C320E328C32082181084FFFFD3
:102A9000FFFFFFFFFFFFFFFFDFF7FFFFFFFFFFFF6E
:102AA000FFFF9EF78952A218032924292429A2187E
:102AB0004C6BFFFFFFFFDEFFFFFFDFFF1FFFDDDDD2
:102AC0005DD57FE57FE53FE55FE57FE55FE55FE5B8
:102AD0007FDD5ED59ED51DDE9FFFFFFFFFFFDFFF81
:102AE000FFFFFFFFB29CC31804292429E3208218AA
:102AF0000F84FFFFFFFFBEF7FFFFFFFFBEF7FFFFE3
:102B0000DFFFFFFFFFFF3CE7484A2008611061102C
:102B100061102008CB5A5DEFFFFFFFFFFFFFFFFFB3
:102B20001FF7FCD55CCD5DD55DDD3DD55DDD5DDDA3
:102B30005DDD5DD57DD55CCD9CCDFBD59FFFFFFFD9
:102B4000DFFFFFFFFFFFFFFF108400006110821016
:102B500061108210EF83BEFFFFFFFFFFFFFFFFFF4B
:102B6000FFFFFFFFDFFFFFFFFFFF5DEFCF7B89521E
:102B70008952695269526952308C9DF7FFFFFFFFFD
:102B8000FFFFDFFF3FF77DDEFDDDFDDDFDE5FDE560
:102B9000FDE5FDE5DDDDFDDDFDDDFCD51CD65CDE06
:102BA000DFFFFFFFFFFFFFFFFFFFDFF713A5284257
:102BB000284A494A494A6952D39C9EF7FFFFFFFFC2
:102BC000FFFFFFFFDFF7FFFFFFFFFFFFFFFFFFFF3D
:102BD0001CE71CE79EF77DEF7DF71CE75CEFFFFF2E
:102BE000DFFFFFFFFFFFFFFFDFFF7FF73FF75FF72D
:102BF0005FFF5FFF7FFF5FFF5FFF5FFF7FFF5FFFA5
:102C00007FFFBFFFFFFFFFFFDFFFFFFFDFFFFFFFD4
:102C1000DEF73CE7BEF77DF77DF7FBE69DF7FFFFAC
:102C2000FFFFFFFFFFFFFFFFDFFFFFFFFFFFFFFFD4
:102C3000BEF7FFFFFFFFFFFFFFFFFFFFFFFFFFFFED
:102C4000FFFFFFFFBEF7FFFFFFFFFFFFFFFFDFFFFD
:102C5000DFFFDFFFDFFFDFFFDFFFDFFFDFFFDFFF84
:102C6000DFFFDFFFDFFFFFFFDFFFFFFFFFFFFFFFF4
:102C7000FFFFFFFFFFFFFFFFFFFFFFFFFFFFFFFF64
:102C8000FFFFFFFFDEFFFFFFFFFFFFFFFFFFFFFF75
:102C9000FFFFFFFFFFFFFFFFFFFFFFFFFFFFFFFF44
:102CA000FFFFFFFFFFFFFFFFFFFFFFFFFFFFFFFF34
:102CB000FFFFFFFFDFFFFFFFFFFFFFFFFFFFFFFF44
:102CC000FFFFFFFFFFFFFFFFFFFFFFFFFFFFFFFF14
:102CD000FFFFFFFFFFFFFFFFFFFFFFFFFFFFFFFF04
:102CE000FFFFFFFFFFFFFFFFFFFFFFFFFFFFFFFFF4
:102CF000FFFFFFFFFFFFFFFFFFFFFFFFFFFFFFFFE4
:102D0000FFFFFFFFFFFFFFFFFFFFFFFFFFFFFFFFD3
:102D1000FFFFFFFFFFFFFFFFFFFFFFFFFFFFFFFFC3
:102D2000FFFFFFFFFFFFFFFFFFFFFFFFFFFFFFFFB3
:102D3000FFFFFFFFFFFFFFFFFFFFFFFFFFFFFFFFA3
:102D4000FFFFFFFFFFFFFFFFFFFFFFFFFFFFFFFF93
:102D5000FFFFFFFFFFFFFFFFFFFFFFFFFFFFFFFF83
:102D6000FFFFFFFFFFFFFFFFFFFFFFFFFFFFFFFF73
:102D7000FFFFFFFFFFFFFFFFFFFFFFFFFFFFFFFF63
:102D8000FFFFFFFFFFFFFFFFFFFFFFFFFFFFFFFF53
:102D9000FFFFFFFFFFFFFFFFFFFFFFFFFFFFFFFF43
:102DA000FFFFFFFFFFFFFFFFFFFFFFFFFFFFFFFF33
:102DB000FFFFFFFFFFFFFFFFDFF7FFFFFFFFFFFF4B
:102DC000FFFFFFFFFFFFFFFFFFFFFFFFFFFFFFFF13
:102DD000FFFFFFFFFFFFFFFFFFFFFFFFFFFFFFFF03
:102DE000FFFFFFFFFFFFFFFFFFFFFFFFFFFFFFFFF3
:102DF000FFFFFFFFFFFFFFFFFFFFFFFFFFFFFFFFE3
:102E0000FFFFFFFFFFFFFFFFFFFFFFFFFFFFFFFFD2
:102E1000FFFFFFFFFFFFFFFFFFFFFFFFDFF7FFFFEA
:102E2000FFFFFFFFFFFFFFFFFFFFFFFFFFFFFFFFB2
:102E3000FFFFFFFFFFFFFFFFFFFFFFFFFFFFFFFFA2
:102E4000FFFFFFFFFFFFFFFFFFFFFFFFFFFFFFFF92
:102E5000FFFFFFFFFFFFFFFFFFFFFFFFFFFFFFFF82
:102E6000FFFFFFFFFFFFFFFFFFFFFFFFFFFFFFFF72
:102E7000FFFFFFFFFFFFFFFFFFFFFFFFFFFFFFFF62
:102E8000DFF7FFFFFFFFFFFFFFFFFFFFFFFFFFFF7A
:102E9000FFFFFFFFFFFFFFFFFFFFFFFFFFFFFFFF42
:102EA000FFFFFFFFFFFFFFFFFFFFFFFFFFFFFFFF32
:102EB000FFFFFFFFFFFFFFFFFFFFFFFFFFFFFFFF22
:102EC000FFFFFFFFFFFFFFFFFFFFFFFFFFFFFFFF12
:102ED000FFFFFFFFFFFFFFFFFFFFFFFFFFFFFFFF02
:102EE000FFFFFFFFFFF7FFFFFFFFFFFFFFFFFFFFFA
:102EF000FFFFFFFFFFFFFFFFFFFFFFFFFFFFFFFFE2
:102F0000FFFFFFFFFFFFFFFFFFFFFFFFFFFFFFFFD1
:102F1000FFFFFFFFFFFFFFFFFFFFFFFFFFFFFFFFC1
:102F2000FFFFFFFFFFFFFFFFFFFFFFFFFFFFFFFFB1
:102F3000FFFFFFFFFFFFFFFFFFFFFFFFFFFFFFFFA1
:102F4000FFFFFFFFFFFFFFFFFFF7FFFFFFFFFFFF99
:102F5000FFFFFFFFFFFFFFFFFFFFFFFFFFFFFFFF81
:102F6000FFFFFFFFFFFFFFFFFFFFFFFFFFFFFFFF71
:102F7000FFFFFFFFFFFFFFFFFFFFFFFFFFFFFFFF61
:102F8000FFFFFFFFFFFFFFFFFFFFFFFFFFFFFFFF51
:102F9000FFFFFFFFFFFFFFFFFFFFFFFFFFFFFFFF41
:102FA000FFFFFFFFFFFFFFFFFFFFFFFFDFF7FFF761
:102FB000FFFFFFFFFFFFFFFFFFFFFFFFFFFFFFFF21
:102FC000FFFFFFFFFFFFFFFFFFFFFFFFFFFFFFFF11
:102FD000FFFFFFFFFFFFFFFFFFFFFFFFFFFFFFFF01
:102FE000FFFFFFFFFFFFFFFFFFFFFFFFFFFFFFFFF1
:102FF000FFFFFFFFFFFFFFFFFFFFFFFFFFFFFFFFE1
:10300000FFFFFFFFFFFFFFFFFFFFFFFFFFFFFFF7D8
:10301000DFF7DFF7FFFFFFFFFFFFFFFFFFFFFFFF10
:10302000FFFFFFFFFFFFFFFFFFFFFFFFFFFFFFFFB0
:10303000FFFFFFFFFFFFFFFFFFFFFFFFFFFFFFFFA0
:10304000FFFFFFFFFFFFFFFFFFFFFFFFFFFFFFFF90
:10305000FFFFFFFFFFFFFFFFFFFFFFFFFFFFFFFF80
:10306000FFFFFFFFFFFFFFFFFFFFFFFFFFFFFFFF70
:10307000FFF7DFF7640000006300000062186218C9
:103080006218621862186218621862186218621870
:1030900062186218621862186218821882208220F0
:1030A000822082206220622063186318431863180C
:1030B0006320621862188220621862188218A220A7
:1030C00082186218831883186218621862188218AE
:1030D0006218611861186118411840106010601082
:1030E000601060106010601060104110611882184C
:1030F0008318621862188320832062188320621864
:1031000062186318631863186318621882188218AB
:103110008218822062186320632063186218621884
:10312000621862186218621862188218821862188F
:10313000621863186318621882188218821862185D
:1031400062186218621862186218621862186218AF
:10315000621862186218621862186218621862189F
:10316000621862186220622062206220622062205F
:10317000631863186318632063206218621882184A
:1031800082186218822061188218822062188218C0
:103190008220401040106010A018E22022296331E4
:1031A000C541064A46526752875267524752064AFD
:1031B000A43963312229C1206010601060104010D2
:1031C0006118A220621882188318631862186318A5
:1031D0006218621882208218822082206218621887
:1031E00063208320621862186218621862186218DD
:1031F00062186218621862186218621862186218FF
:1032000082188218621862186218621862186218AE
:1032100062186218621862186218621862186218DE
:1032200062186218621862186218621863206320BC
:1032300043206320631863186318621862186218C9
:1032400063186320822082188218821862188320F3
:103250008220611860104010C020A3398552686B2D
:103260004B8CED9C0EA54FA550AD50AD30AD31ADA2
:1032700010A510A530A52FA52FA56FAD0E9DCD9C37
:103280002B84486B244A6231C018601041104218E8
:10329000621863188320821862188320621842180B
:1032A00062188220822082206218421862186218F6
:1032B00082188218821882186218621862186218BE
:1032C000621862186218621862186218621862182E
:1032D000621862186218621862186218621862181E
:1032E000621862186218621862186218621862180E
:1032F00062186218632063206320632063186218D9
:10330000621862188220821862184218621882209D
:103310008218611881184010601023296752CC7BF5
:10332000AF9C10A52FA5EE9C4B8C8873065BA55215
:103330002442C2396231623142296231C339E341E8
:103340002342A5522763A9736B8CEE9C50AD50AD00
:103350006D946A73064AE220401060186118821862
:1033600082204218832063208320821862188218EA
:1033700082208218621862188218821882188218B5
:10338000621862186218621862186218821862184D
:10339000621862186218621862186218621862185D
:1033A000621862186218621862186218621862184D
:1033B000621862186218621862186218622062202D
:1033C0008218821882188218821882188320621844
:1033D0006218822063204218411060102029444A5C
:1033E000EB8330A531AD6E944A7367524331C120EF
:1033F0006010601060184010401040106118601894
:10340000601860186018601040106018601860182C
:103410008118E1288339875ACC83CF9C90B50EA5BB
:10342000C9730342C0186010611883204218431802
:103430006318631862186218822082188218621852
:10344000621862188218821882188218621862182C
:10345000621862188218821862186218621862185C
:10346000621862186218621862186218621862188C
:10347000621862186218621862186218621862187C
:1034800062186218622082208218821882188218BC
:1034900082188218621862188220A22041104010FF
:1034A0008439E962CF9C70ADAD94E75A8331E12055
:1034B0008018401061184118621883208320621818
:1034C0006318832062188220822082186218832069
:1034D00083206220632042186220822061184010FD
:1034E000A0182129444AC97B0EA570AD8D94A75A16
:1034F000E120401082184218631863206318621894
:10350000821882188218621862186318621882186A
:10351000821882188218621862186218821882183B
:1035200062186218621862186218621862186218CB
:1035300062186218621862186218621862186218BB
:1035400062186218621862186218621862186218AB
:103550006218621862186218821882188218A320F2
:10356000611840108231CA7B2FA530AD6A73C54106
:1035700080186018601861188220621882208220EA
:103580006218621862188320832062186218621819
:103590006218621842186218832062186218621852
:1035A0006218821862186218621861184118401077
:1035B000022966520C8470B50E9D47630121801864
:1035C00041186320832062186218822082186218D2
:1035D0006318631863186218821882188218821898
:1035E000621862186218621862186218621862180B
:1035F00062186218621862186218621862186218FB
:1036000062186218621862186218621862186218EA
:1036100062186218621862186318631862186218D8
:10362000821882188118401042298A7350AD0FA564
:10363000076342316018611861186220822082207D
:103640006218822062186218411862186218821883
:1036500062186218821821102110421821102110BE
:103660006218831862186218621862186218632060
:10367000621862184218832061182010A018C339FC
:10368000C9736FAD0FA5E862C120401061188218A0
:103690006218621862186218621862186318631858
:1036A000621862188218821862186218621862180A
:1036B000621882186218621862186218621862181A
:1036C000621862186218621862186218621862182A
:1036D00062186218621862186218621882206218F2
:1036E000621862186218821862186010E020E65AA8
:1036F0004FA52FA5086302294010411862188220A7
:103700008218611882186218822061180008A220AD
:103710000429A22021106218831862186110EB623C
:10372000B6BDF7C555B58A5A41106218621882189D
:10373000822041180008211062188320621882201C
:1037400062186218821861186010A339EB7B90B57B
:10375000CD94444A801840106218631842188320A0
:10376000621862186218631843186320621882187E
:103770006218621862186218621862186218621879
:103780006218621862186218621862186218621869
:103790006218621862186218621862186218621859
:1037A00062188218621862188320621882206118D9
:1037B0006010A3396D8C90B5E97B412960104110F0
:1037C00062184218832042186218822082208218D0
:1037D0004110A3200F8C59D679DE79DEEB6A2110D7
:1037E00062184118A6393CEFCF83AA5AB2A49ADED8
:1037F000E42862186218A32076BD96BDF08BC741FD
:1038000041106218822062186218832063184218DF
:1038100062184010801823428C8CB1B5AB7B2229F2
:103820006018611882206218822062188220421873
:10383000842043186218821882188218621862184D
:1038400062186218621862186218621862186218A8
:103850006218621862186218621862186218621898
:10386000621862188220822062186218621883200F
:10387000821861184010C020E76271B58E94E5414E
:10388000401061188218A220621882206218421823
:1038900042188320421883184210D4A4BBE62D732B
:1038A000A741CF83DBE6243141100010084A1CEF0A
:1038B000EC6A86398639C741821882182110A741DF
:1038C000FCEED3A4B7C51CEF4D732010821862180C
:1038D0008218621862188318832082188118401099
:1038E000C020A75A70AD0EA524428010A1188220D6
:1038F0006218A32062186320631863206320621893
:103900008218821882188220822062186218621837
:1039100062186218621862186218621862186218D7
:103920006218621862188220822062186218621877
:103930006218621863186218811880182229EC83B3
:1039400091B56973E120201083204218631882200A
:103950006218000841104531E4280110A3204218E4
:10396000C4289BE6AB620008001082189ADE4D7BEB
:103970002010821862188F7B7ADE7ADE9ADE14AD10
:10398000A320621801088F7B19CE0008000830942C
:1039900017CE41106218A320411841180110621877
:1039A000621862184218832062186010A3396C8C68
:1039B00090AD486BA0188018A2206218822062186F
:1039C00062186320631863186218821882188218BC
:1039D0006218621862186218621862186218621817
:1039E00062186218621862186218621862188220DF
:1039F00082206218621862186218621883206218A6
:103A00004010C3390FA550AD254A801841186320D6
:103A100043188320421862186218084A34B51BEF15
:103A200079DEE84921104210A3205AD62D730008F0
:103A30008218000855B551940108411066396D731C
:103A400062188318A7413DF7295200080108F3A422
:103A50007EFF34B52C7379DE929C000882186218C0
:103A60000108CC6A118CA32042188320832062189D
:103A7000421882202010A118496BB1BD2C84012965
:103A800040108220821882208220621862186318F7
:103A90006318621882188218621862186218621815
:103AA0006218621862186218621862186218621846
:103AB000621862186218621882206218621862180E
:103AC0008220821862182010465250AD8C8CA23190
:103AD0006010611862186318632043186318621835
:103AE00031945DF713AD8539B29CD7C5411062188A
:103AF000411034AD55B50008000825319ADEAF837A
:103B000000084110C7413DF776BD319476BD7BDE9C
:103B100005294210E4287ADE929C309438CE14AD08
:103B2000E4286218621800086F7BBFFF5EFF8639C9
:103B300021106218621862186320621883208218AC
:103B40006018455230ADCF9C63314010A2206218FE
:103B5000821882206218621862186218821882180D
:103B60006218621862186218621862186218621885
:103B70006218621862186218621862186218621875
:103B800062186218621882206218811880188652A2
:103B900051AD2D8CC0204010A120811862186218F0
:103BA0002210421862180008AE83FBEE821800084B
:103BB0007194D7C5621862182110C741BBE6B6BD23
:103BC00096BDFBE676BDC320621862184110084A14
:103BD0005194F4AC719CA64141102010084ADBE6D8
:103BE0004531000841184118411861102008CF8361
:103BF000BADE719459D6663921108220832082184A
:103C0000822082208218621861186018E441EF9CBB
:103C1000EFA4833960108218822063206218821812
:103C200062188218621862186218621862186218A4
:103C30006218621882186218621862186218621894
:103C4000621862186218621862186218621882207C
:103C500081188010C65AB1B5AB7B801881188220BC
:103C60008118811862182110095225314218411813
:103C7000E32818CE54B5F7C5DFFFB6BDA320421028
:103C800062184110E749108CEF8B6952821841107D
:103C90008218821882182110000820100008411094
:103CA000A2208218E32886418218A32041186218B6
:103CB00062186218729CFFFFAE7B895279D6E320AE
:103CC0008218621882184110411020108218822038
:103CD000632062184010A339CE9C10A5A339401070
:103CE000832062188218821882186218621863187A
:103CF00062186218621862186218621882188218B4
:103D000062186318631863186218621862186218E0
:103D100063204218621881188010A552B0B5A973AB
:103D2000A120411863204218A2202010621831946B
:103D30003DF7E8492008822000084D73FFFF0F84FB
:103D4000284A18CE39D62631221882204110001078
:103D500000082010621882188218821882188220A7
:103D60008218621862186218832082186218211063
:103D70006218822062206220011811949AE6929CB7
:103D80009AD6FBDED6BD81106118A2202110C32077
:103D90006A5AA639000862188320622061188018C8
:103DA0002129CE9C2FA582314010622082206218EA
:103DB0006218621863186318621862186218621831
:103DC00062186218821882186318631863186318DF
:103DD000621862186218621862186218821840101D
:103DE000654A70ADCA7BE0204118622043188320E9
:103DF0002110653176BDDBE6E8410008A32061189B
:103E00004118A32079D6AE7B000004294A5AC42861
:103E100063204218621862186218621882188218A9
:103E20008218621882186218621882208320621831
:103E30006218621883188318821862184218622068
:103E40006220664146390008453158CEB6BD40086B
:103E500082180010864118D6BBE6DBE6108C611094
:103E6000411862208220611860106231EE9CEFA43C
:103E70002331611882208220421883206218621840
:103E80006320621862186218621862188218821819
:103E90006318631863186218621862186218632046
:103EA000821881184010A43951AD0C84A01840101C
:103EB0008220621862204218621834B57DF703210F
:103EC000653175B54531000841180008AF83B3A4CA
:103ED000821841102110621882206218632063202A
:103EE00063206320621862186218621882186218D0
:103EF00062186218621842186218832042188320E0
:103F000062188218621862188320211842188220D1
:103F10000008108C75B541104218C42859D655B503
:103F2000C3206A521CEFD3A4411882188218821849
:103F3000A2204010422910A58D94E020411842187B
:103F4000A32082186218821883204318621862180E
:103F50006218621882188218621863186218821830
:103F60008218621883204218A12060104331B09C4F
:103F70004E94E120611883186218821882208218FA
:103F80002110C7419ADEF3A4BADE13AD821808529D
:103F900086394118421863208320621882186218FB
:103FA000621883204218421842206220611840188B
:103FB000411861186118811861186018411861185A
:103FC0004118401081186118822082186218621806
:103FD00083186320621862186218253187412218FD
:103FE0002110119439D6821821080000294AD7C51A
:103FF00045314110611882186218A3206018C43935
:1040000070ADEB83811862206218821882208220B2
:1040100042186320621862186218621882188218A7
:104020006218621862188218821882188218822018
:104030008118A0184C8C10A5222941106318631810
:10404000821841188220821862180008895AFFFFDE
:10405000B29C00008E7B7EFFAA6221106320632049
:1040600082208218821883186218821861186018DA
:104070008018E12883394652096B6A73CB7BEC7B4D
:10408000EC83EC83CB7B6A73C75A254A6331A01853
:1040900080186018611882186218831883186320CA
:1040A0006220621821186218211097C552940008E6
:1040B0006218A31862188218A22082188218821827
:1040C0006218421862186018665291B5E862601072
:1040D0006118822082188218621883206218621880
:1040E00062186218821862186218621882188218A0
:1040F000821882186218A2206010296B71B50442E0
:1041000040108220431863206218822082186218AF
:10411000A32062182008CE837AD696BDFCEE8A5A78
:1041200041108218632042186218621882188118A0
:104130006110601022294652AB7B4E942D8CAB7BD4
:10414000296BE8628752664A464A464A8752E862C5
:104150006A73AB832D8C2D8C4B73E541C120811884
:1041600061108218822042188320621883208320E5
:104170000010EB623DEF8A5A00082110411882209E
:104180004118A22041100108631883208218611889
:1041900080186A7391B50442601082206218621818
:1041A000A3206218621862186218621862186218F6
:1041B000631862188218821862186318A2206010AF
:1041C000E34170AD096B40108118821862186218C3
:1041D00082184110000821108218821861104110C5
:1041E00015AD5AD6663900088218822082208220B6
:1041F0008318621880108010E339AA738E94CC7BE8
:10420000A85A8539C2208118611840104110411008
:1042100041104118211020106118A120E228E54129
:10422000E9622E8C4E94E862623180106118A220FF
:10423000621863206218621861106110CE835DF706
:1042400075BDA7416218621863200110E4280D6B48
:1042500083186218621882186118C1208C940EA508
:10426000E120811882206218621882186218621890
:10427000621862186218621863186218821882182D
:10428000631862186118C020CD9C8D94C1206118FC
:10429000821882186118C32035B5B6C5AF83663958
:1042A0006110000841104210C320A3200110832098
:1042B000822062186218821861186010A439CB7BC2
:1042C0006D8C28636231C01840104110621862186A
:1042D0006218621863186318631862186318631809
:1042E00062186118611860184010A020C4416B73F7
:1042F0004E944A7342316010611862188218831814
:104300008218611020104952B3A40852211862206B
:1043100001106639F8CDDFFFB083000862188218FB
:1043200082204010C33971AD496B60108218832020
:10433000621882206218621862186218621863207C
:104340006218621882186218621882186010086376
:1043500071ADA33960106218822062184110E42800
:104360009ADEDBE6B6BD9ADEB7C5CF83C7418218B9
:10437000421862186218832062186218821860104E
:1043800042298B7B4E94A862E228201041188218A3
:104390008218821883186318631883206218822099
:1043A000621882208218821882188218821882204D
:1043B000A22061186118201024310B6B6E94286BB9
:1043C000C1204110621883186218621862184118DF
:1043D0000010421862180008EB6A7DF7F3A4CB6264
:1043E0005DF76A5A00106118A22081184010096B0D
:1043F00070ADE34140106218822082186218621882
:104400006218621883206218621882208218822043
:1044100083204010623150AD4A6B40108118A320B8
:104420006218822082180008EB62FBE62431929C1D
:104430005DF719CE529C62184218832063208220B7
:10444000821881186018264A8F9C6A73E128201010
:10445000421883206320421862188218621862187A
:10446000621862188220A2206218621882188218CC
:104470008318621862186218622062206218822013
:1044800041184118A3390C8C4E8C643161104110D5
:10449000832063188320422082206218A320719C0D
:1044A000BADE9ADE95BD2008CF831CEF874141100C
:1044B000821882184218C220CE9C4C8CA018A220D0
:1044C000611882186218621862186218631842181C
:1044D000832082206218821863206118EA7B0E9D77
:1044E000E12041188320621862186218621882184D
:1044F000411054B579D6BADE4A5221106218832091
:1045000083206218621882186010A0186A73AF9C2A
:10451000E549401081206118A320621863204218E9
:10452000832082206218A2208220622082208220A2
:1045300082208218831842108318831883206218FF
:104540008220822062188218C32061182010A020C7
:10455000C75ACF9C875280184218431863206218AC
:1045600082184010A6397DF7318C6210BADE719442
:104570006118AE83874141106118822043182110D1
:10458000454AB1B5464A6010822062186218621826
:104590006218621843186218832062186218822019
:1045A0002110A53970ADE65A20106320632042180F
:1045B00062186218621862182010E741DFFF5294F7
:1045C00000086318621821106218822082184010B7
:1045D000E120EC830C84012920108218421822105B
:1045E0004218621842186218622062186220822003
:1045F0008220621882206218621862188318631879
:1046000063184218631842186218821862188218D8
:1046100041084108621882186010C3398E94296BD2
:1046200040108220621882208218A21820086D7320
:10463000FCE6A739653169524110201042188218F2
:10464000821862184318621880184D8CAE94E020CE
:1046500041186218621862186218621862186320A2
:1046600062186218832082188018EC83AE9C0021A7
:104670006118621842188220621882208320621812
:1046800082180008729CB7C562184218621883200D
:10469000622082206118E1202D8CAB7BA1202010AC
:1046A000A31883102208C939A4106310831883202B
:1046B00042186220832862206218822062208220B1
:1046C0008320621862188320821862186218822080
:1046D0006218621883102208262187296208621056
:1046E0006218611822294D948A7B40106118621863
:1046F0006218421882182008B29CFCE6E4280008E0
:104700008220821862186218A3206218632042185F
:104710006118E54190B5A5524010632062186218F7
:1047200062186218621882206218632062184010B2
:10473000C33970ADC75A40108220631862186218DE
:104740008220621882206218821841106531CB6283
:104750006218621862206220A2206018E1204E8C4C
:104760006B73801841186318421022002B3AEE52E6
:104770004B42640822088318632062208320622051
:1047800082208220621862186218821862188220C1
:104790006218A32082208220831863102200E51073
:1047A000CD4AEE5267212200631062186018013171
:1047B0004D946A7340108218832083186218611820
:1047C000E320108C86410010821882208218821803
:1047D0006218621882208220411880184B8CAD9498
:1047E000C120621862186218621862186218621892
:1047F0008320832042188018A973ED9CE020811843
:104800008320421883208220621862184218832075
:1048100062188220611020108218621862208220A3
:104820006018A020CC7BAC7B801861188220831894
:104830002200C929EE42CA198D3A4C3A6300220877
:10484000832062204220622063186318832042186C
:104850004218621882208220622062206220221880
:10486000831863106408AD4A2C32AA2150532711D3
:104870002308631861204018E1284E94E96260081B
:104880006118822063206320411841184118832059
:1048900063204218822062186218832062208220DE
:1048A00062186018644A91B5054A4010821862186F
:1048B00062186218A220621862186218621802292F
:1048C0002FA5476B8018611863186320621862185F
:1048D000822082188320621883206218821882182E
:1048E00082206218632061188018296B0D8CA01833
:1048F0006118621862202210472170530F3B8E2AE4
:104900006D2ACE42A92943006210822062208320B2
:10491000421884184310C518272984186218822069
:104920008220622082208318431043004C3ACE42FA
:104930000C2A6D3230437053A410631882208228F1
:10494000401843318F942542601081186220632003
:1049500082286220622062186218832062188320F5
:10496000622062188220822062186118E020AE94D2
:10497000EC8380188118621862186218822062180D
:10498000832062184010C86230ADA23980186218C6
:1049900063186318631862188218821862206220F4
:1049A00082208220821882106218622062186010B1
:1049B000444A8E9C03294118621863206320021028
:1049C000C9292F437664EC096D22AE3A0F4B471983
:1049D0004200821862188320421863102300AE4AF6
:1049E000188D481921088220822082208220821876
:1049F0004200EA29304B4C2A4C3289111454B24BF4
:104A0000061921108220822082202010254A8E94AF
:104A100022298010621883204220622062206218BE
:104A2000821882186218631863186218822062184C
:104A3000832062184010C86270ADA23160186218FD
:104A4000632063188218621863208218C1200C84C6
:104A50002D8CA018811862186318631863186218E7
:104A60008218821882206220622062206210621006
:104A70006218822061180221AE94254A411842181A
:104A800062186218632042108408EE3A5554D443E9
:104A90008A096D2AEF422F4B05112100832022182D
:104AA000822083100200504B35642C2A2208822079
:104AB00062208220A220220867197053CE3A6D32FC
:104AC00069111043B76C6D2A42008218622082205F
:104AD0006218822060104A6BCC7B601081186218CB
:104AE000621883206218621882188218621863188C
:104AF000631862188220821862186218611883395C
:104B00004FA5E65A60106218631863188218822055
:104B100062184118833930ADA85A401082188218A3
:104B20006318631862186218821882188218621853
:104B300062206320631863188218812060186B73E9
:104B40006B73601862206320831862106218631010
:104B50002208C92111331A752D22EB218E2A715397
:104B6000CD4284084318832881206110840091532A
:104B7000555CCE3A2108822863206218421027191A
:104B80001043724BEB21CA198B01F9747253071150
:104B90004210621862188220632062184118E220D5
:104BA0002E8C67526010A218411083206218621880
:104BB000821882186218631863186218821882209B
:104BC00062188220821880186C8C6C8CA018821855
:104BD000631863188218621862184010C65A30AD04
:104BE00043316118821882186218621862186218BC
:104BF0006218621882188220632063206318631889
:104C000062186118A4396F942331611882208220C0
:104C10004210A318821882108318A4108F321554E2
:104C2000D86C09012C22AE32547468210208221873
:104C3000621841008400145CD443313B020022100E
:104C40002210631022080B3296740D1A4C32A60003
:104C5000775C77644D3A43086318621883206218C2
:104C60006320822082204010264A2E8CC218811098
:104C700082206218621862188218821862186318FB
:104C800063186218821882206218832082186010CC
:104C9000E75A50AD633161188220621862186218B9
:104CA000832060182B846C8C60186218821882181C
:104CB0006218621862186218621862186220622014
:104CC0006318631863186218621861182A6BA96266
:104CD000401882206118822082188210A21882183F
:104CE00082180208CA29F0325B75322B08012C3277
:104CF0005153AA210200A518A8296819CB11975C65
:104D0000733336544811A8298829840802008C423C
:104D1000EE42EB21E700AF2A5A75513B471942108A
:104D200063184318421862186218821862186218D1
:104D300081206C7BE749411062208220622062184A
:104D40008218821862186218621862188218821813
:104D50006218621882188118823151AD8752401052
:104D600082204218621862186218E2200EA5486B71
:104D7000401062186218821862186218621862186D
:104D80006218621862206220621862186218621843
:104D900062186218A22061184118A32062186218D4
:104DA00082206210611062102208220084004D2AC5
:104DB000F543BD7D8A09A919CB218D3AE710AD4A8B
:104DC0000A32EA21AF2AB864D11AB7640B2AEA2959
:104DD0004B326C3A27198D42A921CA1908017A7DF4
:104DE000354C4C1A220022002208221084208320F5
:104DF000611082188218822041188220C3208218F4
:104E000082206218622062186218621862186218A2
:104E1000621862188218821842186218832061187A
:104E2000C018AF9CAB7B60108218621862186218C1
:104E30004110C5414FAD23426118631862186218D2
:104E40006218621862186218631863188218821850
:104E50006220622062206220631863184218832057
:104E60008320621862208328421863104200C5081C
:104E7000C92988216919F042B02A5B7D5654A600E1
:104E80004C2AA92110434C32892902008B11D86485
:104E9000F01A187583000100AA218E3AEF4A2819EA
:104EA0004C3A4500F5437B6D7133AD2A8819A92131
:104EB0006921A510020862208218611882206220F0
:104EC00062188318621082188220621862186218B1
:104ED00062186218621862186218621882188218C2
:104EE000621862188320611860108B738E94012100
:104EF00061188220621862186018C85A2FA56129AB
:104F000041186320621882186218621882186218A9
:104F1000631863186218821882208220822062201F
:104F200062186318832063184210631063206320A3
:104F300063202208891996748E32CB19CA19AB11D5
:104F40008800B4431D86AF1AC6006C322801F35B9B
:104F5000CA3902006E32D4532D12B574E4182208F7
:104F6000EB31356C08096D3286002D1ADD7D732B0F
:104F70000801CA11CA11CA115143346CC510621814
:104F800062188220822062186310631083188218CE
:104F90006218821862186218621882186218621801
:104FA000821882188218621883206318621882207F
:104FB0004010875A30AD823160108220621862182A
:104FC0006010AB7B8E94C018821862188218821809
:104FD00062186218621862186218631842188320F7
:104FE0008320622082208220621882184218621078
:104FF0004619C40862186320211006213A8DDD8D00
:10500000B864D43BAF1A8A0165006A019B6D7A6D62
:10501000E700280955647153220022106821CE420E
:10502000A9110E4BC31842102300B263D77C0801AC
:10503000C700F86C7B752B018700AC09F12AF5439A
:1050400039651C8E7474A4106210821862080519E8
:10505000062123008318621063186318421862182F
:1050600083208220621862188220621882188218B7
:1050700062186218632062186118C43950AD444A3E
:105080006010822062188118C0202D8CCB7B801884
:1050900081186218821882186218621862186218E1
:1050A00062186218832042186220832061186218F7
:1050B000621882184210E9398F5B4A32010062108F
:1050C000220885082D2A12335654396DDB7DFC8D5C
:1050D0009A850C12B433FD7DD443AB09B76C8500BF
:1050E00042088318440069192B2AC50862088318EE
:1050F0002200C608D7740D0A722B1D865233D13296
:10510000BC8DDC959C85F964354C50330A228300B4
:1051100042084208A3080E530E5B68290208631870
:1051200063206220832082206218621882208320FC
:10513000621882206218821862186218632062184E
:10514000411823312FA5E65A801882186218611879
:105150002129CF9CE9626010821882188218821877
:105160006318631862186218621882188210831814
:10517000621862208218822083200208A931EE5230
:10518000C6087053E921871967192719A50065001A
:105190006500070148014C1A9243723BAC015B6DFC
:1051A0007B65BC750C1A6400A7314200C600CF3A7B
:1051B000714B6D3222004308A92924004D229B7DAA
:1051C0009C653A5D2E12D35351430C220809860088
:1051D000650023006400A408E51005116C3AAA21BB
:1051E0006508306B0729221062208220621862183D
:1051F0006218621862188320621882206218822066
:1052000062186218632062186218C120CD94A973D5
:105210008018621862186118623130A5475261180F
:105220008220821882188218631863186218621824
:1052300082188218831882186318822082206218CC
:10524000220888310F5B2300CA296C42E9294A32BF
:105250004B3A6B42AC4A8C4AAD528D4A4C3A4C2A7E
:105260000C1A724BAA09B3431E7ED43B25000E5381
:105270000611471933748D3A6911915BB16364006B
:105280004719EE4245001554FE85322B6E220F431E
:10529000EA214B326B426B4A8C52AD52CD52AC4A32
:1052A0008B4A6B422F5B0B320300A5102F63052145
:1052B00061186120622062188220832042188320B6
:1052C000832062188220822062186218632062188C
:1052D000621880184B8C4B84801862186320401031
:1052E000C33950ADE64161188218821882188218BD
:1052F000631863186218821882188218621883185B
:10530000632062206220421067212F53A5002719D5
:1053100006214208411061182110421062188318BA
:105320004310C5180621061927190A328400A9213D
:10533000D7740901314BCB21E8005474A82901002E
:1053400002000200EF4AD26322006C32CF3A2901F8
:10535000187D690907116B42462125192521252150
:10536000C420A418630863088210411063100A4225
:10537000E6208510E6180E5BC418421083208320B7
:105380004218832062186218632062188220621813
:10539000621882188220621863206018E97BAC943E
:1053A000A118621863184010444A50ADA43941183E
:1053B000621882208220821863186318621882188B
:1053C0008218822062188220621863184210E51841
:1053D0002E53C50007095474E61023004208420802
:1053E00001002208220863086310430843000200FA
:1053F0008408882962108310C6008F3A7253860091
:10540000346C891102002A32B163882102000F4BEB
:105410004F53020014646D328500640043088829EC
:105420008300010062006208630843082200220032
:1054300022000200020002006500705BE6084719C6
:105440000E5B8410210883206218421883206218A2
:1054500062186320822062186218822083206218FA
:1054600063206010686BED9CC120621863184010C7
:1054700065524FA56331411862186318821882186B
:105480006218621882188218821882208220822074
:1054900041186310A508505B26110200AE3A198529
:1054A000D974976CD34BF0322D1A8A0927018400E6
:1054B000650004000400AA1195742B3A21084208E3
:1054C000C6009674C7000F4B4B3A0200CB09BB8550
:1054D000DB8DF77CE710030091530A1AE600B67CD7
:1054E000A508630842084B4296746909230002002C
:1054F00044008600C7006A09EC116E22323BF45367
:10550000965C7985915303004811CE4AA31862181E
:1055100083204218632063206218621862186218A0
:1055200082208218822062186318401026630EA51C
:10553000022942186320201065522FA543316118BB
:1055400062184218621862186218621862186218AB
:10555000621862206220622082204208EF4A304BAB
:10556000E929E9298A118C092F12332B564C196528
:10557000BD7D9C75797DF76C155C5243B4439A856B
:10558000F363230063100100915BAF322809B2631B
:1055900022008400B8645B6D28014911EF520300BA
:1055A000E708F25B4400704B505B02004208430086
:1055B000345C9B85924B924BF55B976C5A7D9B8537
:1055C0009C7D5B75B85C154431234D12EB19CA21E3
:1055D0000C22B163294A41104218621862186218FD
:1055E00062186218621862188220611862186218C4
:1055F00063184010C55A2FA5233142186318401074
:1056000085526FAD4231611882206218821882186B
:105610006218621862186218621862186218A32071
:105620006218631868218C420E532F53314BF13AA4
:105630006F222E122D126E1AD0229333354CF8643D
:105640009C7DDD7DFD7D3975071122086210E5180E
:1056500033748600104BAA2102006C32FD8D112B91
:10566000020001004C42AA290200CD426B32C60062
:1056700034748608421022084709597D1D7EDD7565
:10568000BD7DD96C565C933BF1326F1A6E1A6E1267
:10569000B01A3133514B705BEE4A8C4A0429822098
:1056A00042186320822062186218822062186320E8
:1056B00062188218821882186218401065522FA54D
:1056C0006431411063184010644A4FA5633161187A
:1056D00082186218621882186218621862186218BA
:1056E0006218621862188220421843186308630027
:1056F000A4082719AA21314B145CF4533043924B70
:10570000513BAF22AF1A8F12D11A7433774CCC09A8
:105710000200631821004A420E4BA500715B240071
:105720002400756CBB85CA0901004210E618AD4A19
:1057300023002619906303003053CA3101088318EF
:1057400001002B1A153C7423D11A8F128F1A102BBB
:10575000724BB25371437564F453103B4819E61011
:10576000840842088218621862186320621882183E
:1057700082186218621863206218821882188218D0
:105780006218401085522FA54331611863184010EC
:10579000444A2FA5A4396118621862186218621869
:1057A00062186218621862186218622083288320C7
:1057B00063206320821062084208630802008D4261
:1057C0001795EA290609A9212A2A504B7233732B0F
:1057D00011336F2A0D22EA29672983106208AC4A27
:1057E0004719E9296C42020049019A7D396D070188
:1057F0006200631023008D4AC41802000F5B481931
:10580000A9218C4A211062186729CA294D22F02A41
:10581000522BD43B933B52430B2A8821C5086B3251
:10582000B57C0B2A220043106318631842188220AB
:1058300083206218621882208220821862186218FF
:10584000621882188218822062184010A5522FA573
:105850002331611863204010244230ADA43941182F
:105860006218631863186318621862186218621865
:1058700082188220622062206320632062188318CD
:10588000A21862106210262146212200620822001E
:105890000200EA29713BBB854D2A0C326D3AC610D5
:1058A000E51883088300E82942002E5B6731020077
:1058B0004D1ABC7D196D860002002200E710916B25
:1058C00087310100EA314C3A6300E9394210421055
:1058D00027212821EF4AEB21EF329A7D10330C2249
:1058E00001002208420801008821E51042106218D8
:1058F0004318621882208220621862186320822076
:10590000621882206218621862186218821862187F
:1059100063184010C65A2FA5222961186320401031
:10592000E34150ADC5414010621843186318631835
:10593000631862186218821882188218A2206220E6
:10594000832083204318421882188218821862101C
:10595000410882184210832002108A31B784AE4277
:10596000220002008D422811230022000200630061
:105970008400CD52C42022002C2A523B7C75364C28
:1059800051433464B77C8E3A093A01002719CD4A55
:10599000630862102208430003008A29EB390200E1
:1059A00002007053B67C6919430883188320832052
:1059B0000108631063186218822082206220621836
:1059C000421862188320822062188218822062188E
:1059D00062186218621862186318401006632EA5D8
:1059E0000229611862186118823130AD46524010A8
:1059F000822063186318631863186218621882188B
:105A000082188218A2206218421863204318631873
:105A100062186218A22061188118A22083204318FE
:105A2000431865182821430862104110A9290B2A40
:105A30007053B163EA298400A508CE526318831815
:105A40008D3A290197642E1229013464B35307015A
:105A50004B3A42008400EE526308A4100A32F26B03
:105A6000CF4A8D42C6206318421062086821640044
:105A70006210622062206228621862188320621815
:105A800081208220621862186320621862188218CE
:105A900062188218822062186218632062186218E5
:105AA000621860188873CD94C1206118621861185B
:105AB0002129EFA4E8626010811882188218621808
:105AC00062186218621862186218621862188320DD
:105AD0008320632062186218832082206218A2202B
