:020000040800F2
:1000000010060020950100089D0100089F010008CE
:10001000A1010008A3010008A501000800000000DC
:10002000000000000000000000000000A701000820
:10003000A901000800000000AB010008AD010008A4
:10004000AF010008AF010008AF010008AF010008D0
:10005000AF010008AF010008AF010008AF010008C0
:10006000AF010008AF010008AF010008AF010008B0
:10007000AF010008AF010008AF010008AF010008A0
:10008000AF010008AF010008AF0100080000000048
:10009000000000000000000000000000AF010008A8
:1000A000AF010008AF010008AF010008AF01000870
:1000B000AF010008AF010008AF010008AF01000860
:1000C000AF010008AF010008AF010008AF01000850
:1000D000AF010008AF010008AF01000800000000F8
:1000E000AF010008AF010008AF01000800000000E8
:1000F000000000000000000000000000AF01000848
:1001000000000000AF010008AF010008AF010008C7
:1001100000000000000000000000000000000000DF
:10012000AF010008AF010008AF010008AF010008EF
:10013000AF01000800000000000000000000000007
:10014000000000000000000000000000AF010008F7
:10015000AF010008AF010008AF010008AF010008BF
:10016000AF010008AF01000800000000000000001F
:10017000000000000000000000000000000000007F
:1001800000000000AF0100080000000000000000B7
:10019000AF0100080948804709480047FEE7FEE72D
:1001A000FEE7FEE7FEE7FEE7FEE7FEE7FEE7FEE727
:1001B00004480549054A064B70470000DD01000868
:1001C000AD090008100000201006002010020020D9
:1001D0001002002070477047704700004EF68851AB
:1001E000CEF20001086840F470000860704700001B
:1001F00003B53C48016841F0070101603A484FF0FF
:100200005531016039484FF0FF31016038484FF0F7
:100210000001016037484FF05531016036484FF01A
:100220000001016035484FF0FF31016034484FF064
:100230000001016033484FF05531016003BD06B540
:1002400031490A6822F400420A6022F480520A60AE
:1002500042F480620A6022F0FF0200F0FF0042EAEE
:1002600000020A6022F400620A6042F400620A603E
:1002700042F400420A6006BD704706B522490A688A
:1002800022F400420A6042F480520A6042F4806222
:100290000A6022F0FF0200F0FF0042EA00020A605A
:1002A00022F400620A6042F400620A6042F40042F2
:1002B0000A6006BD704707B513490A6822F48072C8
:1002C0000A6000F090F942F480720A6000F08BF945
:1002D0004FF03A00FFF7B3FF4FF05500FFF7CDFFA7
:1002E00000F014F8303802400000024008000240DC
:1002F000040002400C0002400004024008040240D6
:10030000040402400C040240140002404FF0C500F7
:10031000FFF795FF4FF05400FFF7AFFF4FF00000DD
:10032000FFF7ABFF4FF03600FFF789FF4FF00800F3
:10033000FFF7A3FF4FF01100FFF781FF00F053F923
:100340004FF02900FFF77BFF07BD70472DE9FF5FE6
:1003500053F8044B53F8045B4FF02A00FFF76FFF8C
:100360004FEA1120FFF789FFC8B2FFF786FF01EBC4
:100370000400A0F101004FEA1020FFF77EFF01EB1F
:100380000400A0F10100FFF778FF4FF02B00FFF70A
:1003900056FF4FEA1220FFF770FFD0B2FFF76DFF54
:1003A00002EB0500A0F101004FEA1020FFF765FF06
:1003B00002EB0500A0F10100FFF75FFF4FF02C00FA
:1003C000FFF73DFF04FB05F633F8020B4FEA10215F
:1003D00000F0FF020846FFF750FF1046FFF74DFF01
:1003E000761EF1D1BDE8FF9F70472DE9FF474FF022
:1003F00000064FF4A0774FF000084FF4F0794FF06B
:10040000000B00F099F84FF008064FF49C774FF07E
:1004100008084FF49C794FF6FF7B00F08DF84FF001
:1004200068064FF070074FF008084FF49C794FF0C2
:10043000000B00F081F84FF0D0064FF0D8074FF0D6
:1004400008084FF49C794FF0000B00F075F84FF05E
:1004500008064FF49C774FF068084FF070094FF092
:10046000000B00F069F84FF008064FF49C774FF04E
:10047000D0084FF0D8094FF0000B00F05DF8BDE850
:10048000FF4770472DE9FF5FA1F108060F46A2F173
:10049000080802F1680900F04FF8A1F1080601F11F
:1004A0006807A2F10808914600F046F8A1F1080695
:1004B00001F1680702F1600802F1680900F03CF8F8
:1004C00001F1600601F16807A2F1080802F168096C
:1004D00000F032F8BDE8FF9F2DE900584FF0000B07
:1004E000FFF7D0FFD4460CF00F0CBCF1010F09D080
:1004F000BCF1020F0BD0BCF1040F12D0BCF1080FFD
:100500000AD013E0D82A11D002F168020EE0082ABE
:100510000CD0A2F1680209E0082907D0A1F1680116
:1005200004E0D82902D001F16801FFE74FF6E07B33
:10053000FFF7A8FFBDE800982DE93E5C5D464FF04F
:100540002A00FFF77CFEB2464FEA1A2A5046FFF710
:1005500094FE3046FFF791FEBA464FEA1A2A5046FB
:10056000FFF78BFE3846FFF788FE4FF02B00FFF7B2
:1005700066FEC2464FEA1A2A5046FFF77EFE404604
:10058000FFF77BFECA464FEA1A2A5046FFF775FE70
:100590004846FFF772FE4FF02C00FFF750FE4FEA7F
:1005A000152105F0FF02A7EB060B0BF10A0BA9EBD7
:1005B000080C0CF10A0C0BFB0CF30846FFF75DFE70
:1005C0001046FFF75AFE5B1EF7D1BDE83E5C704750
:1005D00002B54FF0000AE948D0F800A04FF00A0039
:1005E00000F001F802BD2DE9FF5FE549091A002975
:1005F000FCDCBDE8FF9F2DE9FF5F4FF0000C0829F0
:1006000009D070290AD0D8290BD0082A0CD0702A1A
:100610000DD0D82A0ED00CF1010CF6E70CF1020C2B
:10062000F3E70CF1040CF0E70CF1080C05E00CF119
:10063000100C02E00CF1200CFFE7BCF1240F17D0E6
:10064000BCF1220F17D0BCF1210F17D0BCF1140F51
:1006500017D0BCF1120F17D0BCF1110F17D0BCF19D
:100660000C0F17D0BCF10A0F17D0BCF1090F17D02F
:100670004FF0010C17E04FF0020C14E04FF0030CA8
:1006800011E04FF0040C0EE04FF0050C0BE04FF0C2
:10069000060C08E04FF0070C05E04FF0080C02E0F4
:1006A0004FF0090CFFE7DFF8DCB2DBF800B04FEAEF
:1006B0004C04A4F102044FF0030505FA04F50BEA1B
:1006C000050525FA04F5022D45D0012D43D04FF044
:1006D000030505FA04F52BEA050BDFF8ACA2DAF8FE
:1006E00000A00AF0020ABAF1020F02D0BAF1000F1C
:1006F00018D0AAF1020A4FF0010505FA04F54BEAF9
:10070000050BA048C0F800B0A04BFFF71FFE9E48A5
:10071000C0F800A09E48D0F800A00AF1010AC0F875
:1007200000A024E00AF1020A4FF0020505FA04F5E0
:100730004BEA050B9348C0F800B0964BFFF706FE56
:100740009148C0F800A09248D0F800A00AF1010A30
:10075000C0F800A00BE04FF4784BFFF793FE4FF08A
:100760000500FFF740FF4FF6E07BFFF78BFEBDE88B
:10077000FF9F2DE9FF5F4FF00001824844F2041211
:1007800041F2410341F21014834D844E42F282073C
:1007900042F2202848F20829DFF804A2DFF804B268
:1007A000016801EA0201914253D0016801F015018C
:1007B00015294ED0016801EA0301994249D0016828
:1007C00001EA0401A14244D0016801EA0501A942FD
:1007D0003FD0016801EA0601B1423AD0016801F454
:1007E000A861B1F5A86F34D0016801F4A831B1F562
:1007F000A83F2ED0016801EA0701B9422FD0016855
:1008000001EA080141452AD0016801F02A012A299C
:1008100025D0016801EA0901494520D0016801EAB3
:100820000A0151451BD0016801F42861B1F5286F18
:1008300015D0016801F42831B1F5283F0FD00168C7
:1008400001EA0B0159450AD0514E3668092E0CD0E9
:1008500011E000F012F84FF0FF3101600BE000F002
:1008600023F84FF0FF31016005E000F034F84FF05D
:10087000FF310160FFE7BDE8FF9F2DE9FF5F4FF00B
:1008800000064FF4A0774FF000084FF4F0794FF6D0
:10089000FF7BFFF751FE4FF071014FF0C1023B4B60
:1008A000FFF754FDBDE8FF9F2DE9FF5F4FF0000605
:1008B0004FF4A0774FF000084FF4F0794FF6FF7B2C
:1008C000FFF73AFE4FF071014FF0C102314BFFF7D5
:1008D0003DFDBDE8FF9F2DE9FF5F4FF000064FF49F
:1008E000A0774FF000084FF4F0794FF4784BFFF702
:1008F00023FEBDE8FF9F00B500BD2DE9FF5FDFF8D7
:1009000088C04FF0100BCCF800B0FFF76EFDDFF899
:1009100074C04FF0000BCCF800B0DFF874C04FF09B
:10092000000BCCF800B04FF070014FF070024FF6A2
:10093000E07BFFF7A7FDFFF74BFE0AF01F0ABAF1B5
:10094000000FF8D0BAF1100F02D0FFF7C5FDF2E7A3
:10095000FFF751FE4FF0000BFFF794FDFFF709FF83
:1009600008480068B0F1FF3F00D0DCE7FFF730FE39
:100970000AF01F0ABAF1000FF8D0C6E710040240CF
:10098000046056000000002004000020C051000850
:1009900008000020B809000801010100100401004E
:1009A000200802000202020070D270D2FFF720FC81
:1009B000FFF781FCFFF7A1FF60000000600000006E
:1009C000FFFFFFFFFFFFFFFFFFFFFFFFFFFFFFFF37
:1009D000FFFFFFFFFFFFFFFFFFFFFFFFFFFFFFFF27
:1009E000FFFFFFFFFFFFFFFFFFFFFFFFFFFFFFFF17
:1009F000FFFFFFFFFFFFFFFFFFFFFFFFFFFFFFFF07
:100DC000FFFFDFFFFFFFFFFFFFFFFFFFFFFFFFFF53
:100DD0001CE738C634A530846D6BEB5A8A52694AD9
:100DE000694A8A52EB5A8E73308434A538C6FBDECA
:100DF000FFFFFFFFFFFFFFFFFFFFFFFFDFFFFFFF23
:100E0000FFFFFFFFFFFFFFFFFFFFFFFFFFFFFFFFF2
:100E1000FFFFFFFFFFFFFFFFFFFFFFFFFFFFFFFFE2
:100E2000FFFFFFFFFFFFFFFFFFFFFFFFFFFFFFFFD2
:100E3000FFFFFFFFFFFFFFFFFFFFFFFFFFFFFFFFC2
:100E4000FFFFFFFFFFFFFFFFFFFFFFFFFFFFFFFFB2
:100E5000FFFFFFFFFFFFFFFFFFFFFFFFFFFFFFFFA2
:100E6000FFFFFFFFFFFFFFFFFFFFFFFFFFFFFFFF92
:100E7000FFFFFFFFFFFFFFFFFFFFFFFFFFFFFFFF82
:100E8000FFFFFFFFFFFFFFFFBAD6D39CCB5A6529B8
:100E90004108000000000000000000000000000009
:100EA00000000000000000000000000000004108F9
:100EB0004529CB5AD39CBAD6DFFFFFFFFFFFFFFFC8
:100EC000FFFFFFFFFFFFFFFFFFFFFFFFFFFFFFFF32
:100ED000FFFFFFFFFFFFFFFFFFFFFFFFFFFFFFFF22
:100EE000FFFFFFFFFFFFFFFFFFFFFFFFFFFFFFFF12
:100EF000FFFFFFFFFFFFFFFFFFFFFFFFFFFFFFFF02
:100F0000FFFFFFFFFFFFFFFFFFFFFFFFFFFFFFFFF1
:100F1000FFFFFFFFFFFFFFFFFFFFFFFFFFFFFFFFE1
:100F2000FFFFFFFFFFFFFFFFFFFFFFFFFFFFFFFFD1
:100F3000FFFFFFFFFFFFFFFFFFFFFFFFFFFFFFFFC1
:100F4000FFFF59CECF7B6529000000002000000084
:100F50000000000000000000000000000000000091
:100F60000000000000000000000000000000000081
:100F700000000000000000004529CF7B59CEFFFF94
:100F8000FFFFFFFFFFFFFFFFFFFFFFFFFFFFFFFF71
:100F9000FFFFFFFFFFFFFFFFFFFFFFFFFFFFFFFF61
:100FA000FFFFFFFFFFFFFFFFFFFFFFFFFFFFFFFF51
:100FB000FFFFFFFFFFFFFFFFFFFFFFFFFFFFFFFF41
:100FC000FFFFFFFFFFFFFFFFFFFFFFFFFFFFFFFF31
:100FD000FFFFFFFFFFFFFFFFFFFFFFFFFFFFFFFF21
:100FE000FFFFFFFFFFFFFFFFFFFFFFFFFFFFFFFF11
:100FF000FFFFFFFFFFFFFFFFFFFFFFFF7DEFD39C22
:10100000A631000000000000000000000000000009
:1010100000000000000000000000000000000000D0
:1010200000000000000000000000000000000000C0
:101030000000000000000000000000000000A631D9
:10104000D39C5DEFFFFFFFFFFFFFFFFFFFFFFFFFF1
:10105000FFFFFFFFFFFFFFFFFFFFFFFFFFFFFFFFA0
:10106000FFFFFFFFFFFFFFFFFFFFFFFFFFFFFFFF90
:10107000FFFFFFFFFFFFFFFFFFFFFFFFFFFFFFFF80
:10108000FFFFFFFFFFFFFFFFFFFFFFFFFFFFFFFF70
:10109000FFFFFFFFFFFFFFFFFFFFFFFFFFFFFFFF60
:1010A000FFFFFFFFFFFFFFFFFFFFFFFFFFFFFFFF50
:1010B000FFFFFFFFFFFFFFFF5DEFEF7BC3180000A7
:1010C0002000000000000000000000000000000000
:1010D0000000000000000000000000000000000010
:1010E0000000000000000000000000000000000000
:1010F00000000000000000000000000000002000D0
:101100000000C318CF7B3CE7FFFFFFFFFFFFFFFF9F
:10111000FFFFFFFFFFFFFFFFFFFFFFFFDFFFFFFFFF
:10112000FFFFFFFFFFFFFFFFFFFFFFFFFFFFFFFFCF
:10113000FFFFFFFFFFFFFFFFFFFFFFFFFFFFFFFFBF
:10114000FFFFFFFFFFFFFFFFFFFFFFFFFFFFFFFFAF
:10115000FFFFFFFFFFFFFFFFFFFFFFFFFFFFFFFF9F
:10116000FFFFFFFFFFFFDFFFFFFFFFFFDFFFFFFFCF
:10117000FFFFFFFFBEF73084A21000002000000038
:10118000000000000000000000000000000000005F
:10119000000000000000000000000000000000004F
:1011A000000000000000000000000000000000003F
:1011B000000000000000000000000000000000002F
:1011C000000020000000A2101084BEF7FFFFFFFF08
:1011D000FFFFFFFFFFFFFFFFFFFFFFFFFFFFFFFF1F
:1011E000FFFFFFFFFFFFFFFFFFFFFFFFFFFFFFFF0F
:1011F000FFFFFFFFFFFFFFFFFFFFFFFFFFFFFFFFFF
:10120000FFFFFFFFFFFFFFFFFFFFFFFFFFFFFFFFEE
:10121000FFFFFFFFFFFFFFFFFFFFFFFFFFFFFFFFDE
:10122000FFFFFFFFFFFFFFFFFFFFDFFFFFFFFFFFEE
:10123000FFFF96B504210000000000000000000040
:10124000000020000000000000000000200000005E
:10125000000000000000000000000000000000008E
:10126000000000000000000000000000000000007E
:10127000000020000000000000000000200000002E
:1012800000000000000000000000042196B5FFFFF0
:10129000FFFFFFFFFFFFFFFFFFFFFFFFDFFFFFFF7E
:1012A000FFFFFFFFFFFFFFFFFFFFFFFFFFFFFFFF4E
:1012B000FFFFFFFFFFFFFFFFFFFFFFFFFFFFFFFF3E
:1012C000FFFFFFFFFFFFFFFFFFFFFFFFFFFFFFFF2E
:1012D000FFFFFFFFFFFFFFFFFFFFFFFFFFFFFFFF1E
:1012E000FFFFFFFFFFFFFFFFDFFFFFFFFFFF3CE709
:1012F000CB5A0000000000000000000020000000A9
:1013000000000000000000002000000000000000BD
:10131000000000000000000000006108A210A21000
:10132000A210A210610800000000000000000000F0
:10133000000000000000200000000000000000008D
:101340000000000000000000000020000000CB5A58
:101350003CE7FFFFFFFFFFFFFFFFDFFFFFFFFFFF98
:10136000FFFFFFFFFFFFFFFFFFFFFFFFFFFFFFFF8D
:10137000FFFFFFFFFFFFFFFFFFFFFFFFFFFFFFFF7D
:10138000FFFFFFFFFFFFFFFFFFFFFFFFFFFFFFFF6D
:10139000FFFFFFFFFFFFFFFFFFFFFFFFFFFFFFFF5D
:1013A000FFFFFFFFFFFFFFFFFFFFFFFF96B50421D9
:1013B000000000000000000000000000000000002D
:1013C000000000000000000000000000000082108B
:1013D00008424D6BF39CF7BD9AD61CE77DEFBEF734
:1013E000BEF77DEF1CE79AD6F7BDF39C4D6B084224
:1013F000821000000000000000000000000000005B
:1014000000000000000000000000000000000000DC
:10141000042175ADFFFFFFFFFFFFFFFFFFFFFFFF91
:10142000FFFFFFFFFFFFFFFFFFFFFFFFFFFFFFFFCC
:10143000FFFFFFFFFFFFFFFFFFFFFFFFFFFFFFFFBC
:10144000FFFFFFFFFFFFFFFFFFFFFFFFFFFFFFFFAC
:10145000FFFFFFFFFFFFFFFFFFFFFFFFFFFFFFFF9C
:10146000FFFFDFFFFFFFDFFFFFFF30840000000012
:10147000000000000000000000000000000000006C
:10148000000000000000000024216D6BB6B57DEF68
:10149000FFFFFFFFFFFFFFFFFFFFFFFFFFFFFFFF5C
:1014A000FFFFFFFFFFFFFFFFFFFFFFFFFFFFFFFF4C
:1014B0007DEFD7BD6D6B45290000000000000000E6
:1014C00000000000000000000000000000002000FC
:1014D000000000001084FFFFDFFFFFFFFFFFFFFFA2
:1014E000FFFFFFFFFFFFFFFFFFFFFFFFFFFFFFFF0C
:1014F000FFFFFFFFFFFFFFFFFFFFFFFFFFFFFFFFFC
:10150000FFFFFFFFFFFFFFFFFFFFFFFFFFFFFFFFEB
:10151000FFFFFFFFFFFFFFFFFFFFFFFFFFFFFFFFDB
:10152000FFFFFFFFFFFFBEF7CB5A000000000000E7
:1015300000000000000000000000000000000000AB
:1015400000002000CB5AD7BDDFFFFFFFFFFFFFFFEA
:10155000FFFFFFFFFFFFFFFFFFFFFFFFFFFFFFFF9B
:10156000FFFFFFFFFFFFFFFFFFFFFFFFFFFFFFFF8B
:10157000FFFFFFFFFFFFDFFFD7BDCB5A4108000091
:10158000000000000000000000000000000000005B
:10159000000000000000AA52DFFFFFFFFFFFFFFF77
:1015A000FFFFFFFFFFFFFFFFFFFFFFFFFFFFFFFF4B
:1015B000FFFFFFFFFFFFFFFFFFFFFFFFFFFFFFFF3B
:1015C000FFFFFFFFFFFFFFFFFFFFFFFFFFFFFFFF2B
:1015D000FFFFFFFFFFFFFFFFFFFFFFFFFFFFFFFF1B
:1015E000FFFFFFFF7DEFE739000000000000000073
:1015F00000000000000000000000000000004108A2
:101600006D6BDBDEFFFFDFFFFFFFFFFFFFFFFFFF75
:10161000FFFFFFFFFFFFFFFFFFFFFFFFFFFFFFFFDA
:10162000FFFFFFFFFFFFFFFFFFFFFFFFFFFFFFFFCA
:10163000FFFFFFFFFFFFFFFFDFFFFFFFFBDE6D6B25
:101640004108000000000000000000000000000051
:101650000000000000000000E7397DEFFFFFFFFF02
:10166000FFFFFFFFFFFFFFFFFFFFFFFFFFFFFFFF8A
:10167000FFFFFFFFFFFFFFFFFFFFFFFFFFFFFFFF7A
:10168000FFFFFFFFFFFFFFFFFFFFFFFFFFFFFFFF6A
:10169000FFFFFFFFDFFFFFFFFFFFFFFFFFFFFFFF7A
:1016A000FFFF3CE7A6310000000000000000000042
:1016B0000000000000002000000000000C63DBDEE2
:1016C000FFFFFFFFFFFFFFFFFFFFDFFFFFFFFFFF4A
:1016D000FFFFFFFFFFFFFFFFFFFFFFFFFFFFFFFF1A
:1016E000FFFFFFFFFFFFFFFFFFFFFFFFFFFFFFFF0A
:1016F000FFFFFFFFDFFFFFFFFFFFFFFFFFFFFFFF1A
:10170000DBDE0C6300000000200000000000000091
:1017100000000000000000000000A6313CE7FFFFD1
:10172000FFFFDFFFFFFFFFFFFFFFDFFFFFFFFFFF09
:10173000FFFFFFFFFFFFFFFFFFFFFFFFFFFFFFFFB9
:10174000FFFFFFFFFFFFFFFFFFFFFFFFFFFFFFFFA9
:10175000FFFFFFFFFFFFFFFFFFFFFFFFFFFFFFFF99
:101760009EF786310000000000000000200000000D
:1017700000000000000000004529D7BDFFFFFFFF6B
:10178000FFFFFFFFFFFFFFFFFFFFFFFFFFFFFFFF69
:10179000FFFFFFFFFFFFFFFFFFFFFFFFFFFFFFFF59
:1017A000FFFFFFFFFFFFFFFFFFFFFFFFFFFFFFFF49
:1017B000DFFFFFFFFFFFFFFFFFFFFFFFFFFFFFFF59
:1017C000FFFFFFFFD7BD452900000000000000001B
:1017D00000002000000000000000000065297DEFEF
:1017E000FFFFFFFFFFFFFFFFFFFFFFFFFFFFFFFF09
:1017F000FFFFFFFFFFFFFFFFFFFFFFFFFFFFFFFFF9
:10180000FFFFFFFFFFFFFFFFFFFFFFFFFFFFFFFFE8
:10181000FFFFFFFFFFFFFFFFFFFFFFFFFFFFDFFFF8
:10182000E739000020000000000000000000000078
:101830000000000000006D6BDFFFFFFFFFFFFFFFF8
:10184000FFFFFFFFFFFFFFFFFFFFFFFFDFFFFFFFC8
:10185000FFFFFFFFFFFFFFFFFFFFFFFFFFFFFFFF98
:10186000FFFFFFFFFFFFFFFFFFFFFFFFFFFFFFFF88
:10187000FFFFDFFFFFFFFFFFDFFFFFFFFFFFFFFFB8
:10188000FFFFFFFFFFFFDFFF6D6B00002000000088
:101890000000000000000000000020000000C73928
:1018A000FFFFFFFFFFFFFFFFDFFFFFFFDFFFFFFF88
:1018B000FFFFFFFFFFFFFFFFFFFFFFFFFFFFFFFF38
:1018C000FFFFFFFFFFFFFFFFFFFFFFFFFFFFFFFF28
:1018D000FFFFFFFFFFFFFFFFFFFFFFFFFFFFAA521A
:1018E00000000000000000000000000000000000F8
:1018F0000000410834A5DFFFFFFFFFFFFFFFFFFFF0
:10190000FFFFFFFFFFFFFFFFFFFFFFFFFFFFFFFFE7
:10191000FFFFFFFFFFFFFFFFFFFFFFFFFFFFFFFFD7
:10192000FFFFFFFFFFFFFFFFFFFFFFFFFFFFFFFFC7
:10193000FFFFFFFFFFFFFFFFFFFFFFFFFFFFFFFFB7
:10194000FFFFFFFFFFFFFFFFFFFF34A5410800007F
:101950000000000000000000000000000000000087
:101960008A52FFFFFFFFFFFFFFFFFFFFFFFFFFFFA9
:10197000FFFFFFFFFFFFFFFFFFFFFFFFFFFFFFFF77
:10198000FFFFFFFFFFFFFFFFFFFFFFFFFFFFFFFF67
:10199000FFFFFFFFFFFFFFFFFFFFDFFF30840000BF
:1019A0000000000000000000000000000000000037
:1019B000C31879CEFFFFFFFFFFFFFFFFFFFFFFFF11
:1019C000FFFFFFFFFFFFFFFFFFFFFFFFFFFFFFFF27
:1019D000FFFFFFFFFFFFFFFFFFFFFFFFFFFFFFFF17
:1019E000FFFFFFFFFFFFFFFFFFFFFFFFFFFFFFFF07
:1019F000FFFFFFFFFFFFFFFFFFFFFFFFFFFFFFFFF7
:101A0000FFFFFFFFFFFFFFFFFFFFFFFF79CEE318A0
:101A100000000000000000000000000020000000A6
:101A200000001084DFFFFFFFFFFFFFFFFFFFFFFF4E
:101A3000FFFFFFFFFFFFFFFFFFFFFFFFFFFFFFFFB6
:101A4000FFFFFFFFFFFFFFFFFFFFFFFFFFFFFFFFA6
:101A5000FFFFDFFFFFFFFFFFFFFFD7BD000000001C
:101A60000000000000000000000000000000242131
:101A70001CE7DFFFFFFFFFFFFFFFFFFFFFFFFFFF91
:101A8000FFFFFFFFFFFFFFFFFFFFFFFFFFFFFFFF66
:101A9000FFFFFFFFFFFFFFFFFFFFFFFFFFFFFFFF56
:101AA000FFFFFFFFFFFFFFFFFFFFFFFFFFFFFFFF46
:101AB000FFFFFFFFFFFFFFFFFFFFFFFFFFFFFFFF36
:101AC000FFFFFFFFFFFFFFFFFFFFFFFFDFFF1CE741
:101AD0004529000000000000000000000000000098
:101AE00000000000B6B5FFFFFFFFFFFFFFFFFFFF95
:101AF000FFFFFFFFFFFFFFFFFFFFFFFFFFFFFFFFF6
:101B0000FFFFFFFFFFFFFFFFFFFFFFFFFFFFFFFFE5
:101B1000FFFFDFFFFFFFFFFF5DEFC31800000000C6
:101B200000000000000000000000000024213CE74D
:101B3000FFFFFFFFFFFFFFFFFFFFFFFFFFFFFFFFB5
:101B4000FFFFFFFFFFFFFFFFFFFFFFFFFFFFFFFFA5
:101B5000FFFFFFFFFFFFFFFFFFFFFFFFFFFFFFFF95
:101B6000FFFFFFFFFFFFFFFFFFFFFFFFFFFFFFFF85
:101B7000FFFFFFFFFFFFFFFFFFFFFFFFFFFFFFFF75
:101B8000FFFFFFFFFFFFFFFFFFFFFFFFFFFFFFFF65
:101B90003CE72421000000000000000000000000DD
:101BA00000000000C3183CE7FFFFFFFFDFFFFFFF5F
:101BB000FFFFFFFFFFFFFFFFFFFFFFFFFFFFFFFF35
:101BC000FFFFFFFFFFFFFFFFFFFFFFFFFFFFFFFF25
:101BD000FFFFFFFFFFFFFFFFAA52200000000000F1
:101BE00000000000000000000000C3181CE7FFFF19
:101BF000FFFFFFFFFFFFFFFFFFFFFFFFFFFFFFFFF5
:101C0000FFFFFFFFFFFFFFFFFFFFFFFFFFFFFFFFE4
:101C1000FFFFFFFFFFFFFFFFFFFFFFFFFFFFFFFFD4
:101C2000FFFFFFFFFFFFFFFFFFFFFFFFFFFFFFFFC4
:101C3000FFFFFFFFFFFFFFFFFFFFFFFFFFFFFFFFB4
:101C4000FFFFFFFFFFFFFFFFFFFFFFFFFFFFFFFFA4
:101C5000FFFF1CE7C31800000000000000000000A8
:101C6000000000002000AA52FFFFFFFFFFFFFFFF60
:101C7000FFFFFFFFFFFFFFFFFFFFFFFFFFFFFFFF74
:101C8000FFFFFFFFFFFFFFFFFFFFFFFFFFFFFFFF64
:101C9000FFFFFFFFFFFFD7BD0000000000000000B6
:101CA0000000000000000000200079CEFFFFFFFFD1
:101CB000FFFFFFFFFFFFFFFFFFFFFFFFFFFFFFFF34
:101CC000FFFFFFFFFFFFFFFFFFFFFFFFFFFFFFFF24
:101CD000FFFFFFFFFFFFFFFFFFFFFFFFFFFFFFFF14
:101CE000FFFFFFFFFFFFFFFFFFFFFFFFFFFFFFFF04
:101CF000FFFFFFFFFFFFFFFFFFFFFFFFFFFFFFFFF4
:101D0000FFFFFFFFFFFFFFFFFFFFFFFFFFFFFFFFE3
:101D1000DFFFFFFF79CE4108000000000000000057
:101D20002000000000000000B6B5FFFFFFFFFFFF2E
:101D3000FFFFFFFFFFFFFFFFFFFFFFFFFFFFFFFFB3
:101D4000FFFFFFFFFFFFFFFFFFFFFFFFFFFFFFFFA3
:101D5000FFFFDFFFBEF704210000000000000000CD
:101D6000000000000000000055ADFFFFFFFFFFFF77
:101D7000FFFFFFFFFFFFFFFFFFFFFFFFFFFFFFFF73
:101D8000FFFFFFFFFFFFFFFFFFFFFFFFFFFFFFFF63
:101D9000FFFFFFFFFFFFFFFFFFFFFFFFFFFFFFFF53
:101DA000FFFFFFFFFFFFFFFFFFFFFFFFFFFFFFFF43
:101DB000FFFFFFFFFFFFFFFFFFFFFFFFFFFFFFFF33
:101DC000FFFFFFFFFFFFFFFFFFFFFFFFFFFFFFFF23
:101DD000FFFFFFFFFFFF55AD000000000000000007
:101DE00000000000000000000421BEF7FFFFFFFF1D
:101DF000FFFFFFFFFFFFFFFFFFFFFFFFFFFFFFFFF3
:101E0000FFFFFFFFFFFFFFFFFFFFFFFFFFFFFFFFE2
:101E1000FFFFFFFF30840000000000000000000012
:101E20000000000000002C63FFFFFFFFFFFFFFFF2B
:101E3000FFFFFFFFFFFFFFFFFFFFFFFFFFFFFFFFB2
:101E4000FFFFFFFFFFFFFFFFFFFFFFFFFFFFFFFFA2
:101E5000FFFFFFFFFFFFFFFFFFFFFFFFFFFFFFFF92
:101E6000FFFFFFFFFFFFFFFFFFFFFFFFFFFFFFFF82
:101E7000FFFFFFFFFFFFFFFFFFFFFFFFFFFFFFFF72
:101E8000FFFFFFFFFFFFFFFFFFFFFFFFFFFFFFFF62
:101E9000FFFFFFFFDFFFFFFF2C63000000000000DB
:101EA000000000000000000000003084FFFFFFFF82
:101EB000FFFFFFFFFFFFFFFFFFFFFFFFFFFFFFFF32
:101EC000FFFFFFFFFFFFFFFFFFFFFFFFFFFFFFFF22
:101ED000FFFF7DEF6108000020000000000000000F
:101EE000000000002421DFFFDFFFFFFFFFFFFFFFF7
:101EF000FFFFFFFFFFFFFFFFFFFFFFFFFFFFFFFFF2
:101F0000FFFFFFFFFFFFFFFFFFFFFFFFFFFFFFFFE1
:101F1000FFFFFFFFFFFFFFFFFFFFFFFFFFFFFFFFD1
:101F2000FFFFFFFFFFFFFFFFFFFFFFFFFFFFFFFFC1
:101F3000FFFFFFFFFFFFFFFFFFFFFFFFFFFFFFFFB1
:101F4000FFFFFFFFFFFFFFFFFFFFFFFFFFFFFFFFA1
:101F5000FFFFFFFFFFFFDFFFDFFF4529000000005D
:101F60000000000000002000000061085DEFFFFF9E
:101F7000FFFFFFFFFFFFFFFFFFFFFFFFFFFFFFFF71
:101F8000FFFFFFFFFFFFFFFFFFFFFFFFFFFFFFFF61
:101F9000FFFFEF7B000000000000000000000000D9
:101FA0002000000018C6DFFFFFFFFFFFFFFFFFFF5D
:101FB000FFFFFFFFFFFFFFFFFFFFFFFFFFFFFFFF31
:101FC000FFFFFFFFFFFFFFFFFFFFFFFFFFFFFFFF21
:101FD000FFFFFFFFFFFFFFFFFFFFFFFFFFFFFFFF11
:101FE000FFFFFFFFFFFFFFFFFFFFFFFFFFFFFFFF01
:101FF000FFFFFFFFFFFFFFFFFFFFFFFFFFFFFFFFF1
:10200000FFFFFFFFFFFFFFFFFFFFFFFFFFFFFFFFE0
:10201000FFFFFFFFFFFFFFFFFFFF38C600000000CC
:10202000000000000000000000000000EF7BFFFF48
:10203000FFFFFFFFFFFFFFFFFFFFFFFFFFFFFFFFB0
:10204000FFFFFFFFFFFFFFFFFFFFFFFFFFFFFFFFA0
:102050009EF7A210200000000000200000000000F9
:102060000000EB5AFFFFDFFFFFFFFFFFFFFFFFFF57
:10207000FFFFFFFFFFFFFFFFFFFFFFFFFFFFFFFF70
:10208000FFFFFFFFFFFFFFFFFFFFFFFFFFFFFFFF60
:10209000FFFFFFFFFFFFFFFFFFFFFFFFFFFFFFFF50
:1020A000FFFFFFFFFFFFFFFFFFFFFFFFFFFFFFFF40
:1020B000FFFFFFFFFFFFFFFFFFFFFFFFFFFFFFFF30
:1020C000FFFFFFFFFFFFFFFFFFFFFFFFFFFFFFFF20
:1020D000FFFFFFFFFFFFFFFFFFFFFFFFEB5A0000C7
:1020E00000000000200000000000000082109EF7A9
:1020F000FFFFFFFFFFFFFFFFFFFFFFFFFFFFFFFFF0
:10210000FFFFFFFFFFFFFFFFFFFFFFFFFFFFFFFFDF
:10211000D39C000000000000000000000000000050
:1021200020001CE7FFFFFFFFFFFFFFFFFFFFFFFF98
:10213000FFFFFFFFFFFFFFFFFFFFFFFFFFFFFFFFAF
:10214000FFFFFFFFFFFFFFFFFFFFFFFFFFFFFFFF9F
:10215000FFFFFFFFFFFFFFFFFFFFFFFFFFFFFFFF8F
:10216000FFFFFFFFFFFFFFFFFFFFFFFFFFFFFFFF7F
:10217000FFFFFFFFFFFFFFFFFFFFFFFFFFFFFFFF6F
:10218000FFFFFFFFFFFFFFFFFFFFFFFFFFFFFFFF5F
:10219000FFFFFFFFFFFFFFFFFFFFFFFF1CE74108FF
:1021A0000000000000000000000000000000D39CC0
:1021B000FFFFFFFFFFFFFFFFFFFFFFFFFFFFFFFF2F
:1021C000FFFFFFFFFFFFFFFFFFFFFFFFFFFFFFFF1F
:1021D0008631200000000000200000000000000008
:1021E0006D6BFFFFFFFFFFFFFFFFFFFFFFFFFFFF25
:1021F000FFFFFFFFFFFFFFFFFFFFFFFFFFFFFFFFEF
:10220000FFFFFFFFFFFFFFFFFFFFFFFFFFFFFFFFDE
:10221000FFFFFFFFFFFFFFFFFFFFFFFFFFFFFFFFCE
:10222000FFFFFFFFFFFFFFFFFFFFFFFFFFFFFFFFBE
:10223000FFFFFFFFFFFFFFFFFFFFFFFFFFFFFFFFAE
:10224000FFFFFFFFFFFFFFFFFFFFFFFFFFFFFFFF9E
:10225000FFFFFFFFFFFFFFFFFFFFFFFFFFFF6D6BB4
:1022600000000000000000000000000000008631B7
:10227000FFFFFFFFFFFFFFFFFFFFFFFFFFFFFFFF6E
:10228000FFFFFFFFFFFFFFFFFFFFDFFFFFFF59CE55
:1022900000000000200000000000000000002000FE
:1022A000FBDEFFFFFFFFFFFFFFFFFFFFFFFFFFFF63
:1022B000FFFFFFFFFFFFFFFFFFFFFFFFFFFFFFFF2E
:1022C000FFFFFFFFFFFFFFFFFFFFFFFFFFFFFFFF1E
:1022D000FFFFFFFFFFFFFFFFFFFFFFFFFFFFFFFF0E
:1022E000FFFFFFFFFFFFFFFFFFFFFFFFFFFFFFFFFE
:1022F000FFFFFFFFFFFFFFFFFFFFFFFFFFFFFFFFEE
:10230000FFFFFFFFFFFFFFFFFFFFFFFFFFFFFFFFDD
:10231000FFFFFFFFFFFFDFFFFFFFFFFFFFFF1CE7E8
:10232000200000000000000000002000000000006D
:1023300059CEFFFFDFFFFFFFFFFFFFFFFFFFFFFFA4
:10234000FFFFFFFFFFFFFFFFFFFFDFFFFFFFAE739A
:102350000000000000000000000000000000AA5281
:10236000FFFFDFFFFFFFFFFFFFFFFFFFFFFFFFFF9D
:10237000FFFFFFFFFFFFFFFFFFFFFFFFFFFFFFFF6D
:10238000FFFFFFFFFFFFFFFFFFFFFFFFFFFFFFFF5D
:10239000FFFFFFFFFFFFFFFFFFFFFFFFFFFFFFFF4D
:1023A000FFFFFFFFFFFFFFFFFFFFFFFFFFFFFFFF3D
:1023B000FFFFFFFFFFFFFFFFFFFFFFFFFFFFFFFF2D
:1023C000FFFFFFFFFFFFFFFFFFFFFFFFFFFFFFFF1D
:1023D000FFFFFFFFFFFFFFFFFFFFFFFFDFFFFFFF2D
:1023E000AA520000000000000000000000000000F1
:1023F000AE73FFFFFFFFFFFFFFFFFFFFFFFFFFFFCA
:10240000FFFFFFFFFFFFFFFFFFFFFFFFDFFF45298C
:10241000000000000000000000000000000018C6DE
:10242000FFFFFFFFFFFFDFFFFFFFFFFFFFFFFFFFDC
:10243000FFFFFFFFFFFFFFFFFFFFFFFFFFFFFFFFAC
:10244000FFFFFFFFFFFFFFFFFFFFFFFFFFFFFFFF9C
:10245000FFFFFFFFFFFFFFFFFFFFFFFFFFFFFFFF8C
:10246000FFFFFFFFFFFFFFFFFFFFFFFFFFFFFFFF7C
:10247000FFFFFFFFFFFFFFFFFFFFFFFFFFFFFFFF6C
:10248000FFFFFFFFFFFFFFFFFFFFFFFFFFFFFFFF5C
:10249000FFFFFFFFFFFFFFFFFFFFFFFFFFFFFFFF4C
:1024A00018C600000000000000000000000000004E
:1024B0004529DFFFFFFFFFFFFFFFFFFFFFFFFFFFDC
:1024C000FFFFFFFFFFFFFFFFFFFFFFFFBAD6000088
:1024D0000000000000000000000000000421DFFFF9
:1024E000FFFFFFFFFFFFFFFFFFFFFFFFFFFFFFFFFC
:1024F000FFFFFFFFFFFFFFFFFFFFFFFFFFFFFFFFEC
:10250000FFFFFFFFFFFFFFFFFFFFFFFFFFFFFFFFDB
:10251000FFFFFFFFFFFFFFFFFFFFFFFFFFFFFFFFCB
:10252000FFFFFFFFFFFFFFFFFFFFFFFFFFFFFFFFBB
:10253000FFFFFFFFFFFFFFFFFFFFFFFFFFFFFFFFAB
:10254000FFFFFFFFFFFFFFFFFFFFFFFFFFFFFFFF9B
:10255000FFFFFFFFFFFFFFFFFFFFFFFFFFFFFFFF8B
:10256000DFFF042100000000000000000000000068
:102570000000BAD6FFFFFFFFFFFFFFFFFFFFFFFFD7
:10258000FFFFFFFFFFFFFFFFFFFFFFFFD39C0000E8
:102590002000000000000000000000006D6BFFFF45
:1025A000FFFFFFFFFFFFFFFFFFFFFFFFDFFFFFFF5B
:1025B000FFFFFFFFFFFFFFFFFFFFFFFFFFFFFFFF2B
:1025C000FFFFFFFFFFFFFFFFFFFFFFFFFFFFFFFF1B
:1025D000FFFFFFFFFFFFFFFFFFFFFFFFFFFFFFFF0B
:1025E000FFFFFFFFFFFFFFFFFFFFFFFFFFFFFFFFFB
:1025F000FFFFFFFFFFFFFFFFFFFFFFFFFFFFFFFFEB
:10260000FFFFFFFFFFFFFFFFFFFFFFFFFFFFFFFFDA
:10261000FFFFFFFFFFFFFFFFFFFFFFFFFFFFFFFFCA
:10262000FFFF6D6B000000000000000000002000B4
:102630000000D39CFFFFFFFFFFFFFFFFFFFFFFFF37
:10264000FFFFFFFFFFFFFFFFFFFFFFFFAA5200009A
:10265000000000000000000000000000D7BDFFFFE8
:10266000FFFFFFFFFFFFFFFFFFFFFFFFDFFFFFFF9A
:10267000FFFFFFFFFFFFFFFFFFFFFFFFFFFFFFFF6A
:10268000FFFFFFFFFFFFFFFFFFFFFFFFFFFFFFFF5A
:10269000FFFFFFFFFFFFFFFFFFFFFFFFFFFFFFFF4A
:1026A000FFFFFFFFFFFFFFFFFFFFFFFFFFFFFFFF3A
:1026B000FFFFFFFFFFFFFFFFFFFFFFFFFFFFFFFF2A
:1026C000FFFFFFFFFFFFFFFFFFFFFFFFFFFFFFFF1A
:1026D000FFFFFFFFFFFFFFFFFFFFFFFFFFFFFFFF0A
:1026E000FFFFF7BD00000000000000000000000038
:1026F0002000AA52FFFFFFFFFFFFFFFFFFFFFFFFCA
:10270000FFFFFFFFFFFFFFFFFFFFFFFF4529000067
:102710000000000000000000000082109EF7FFFF94
:10272000FFFFFFFFFFFFFFFFFFFFFFFFFFFFFFFFB9
:10273000FFFFFFFFFFFFFFFFFFFFFFFFFFFFFFFFA9
:10274000FFFFFFFFFFFFFFFFFFFFFFFFFFFFFFFF99
:10275000FFFFFFFFFFFFFFFFFFFFFFFFFFFFFFFF89
:10276000FFFFFFFFFFFFFFFFFFFFFFFFFFFFFFFF79
:10277000FFFFFFFFFFFFFFFFFFFFFFFFFFFFFFFF69
:10278000FFFFFFFFFFFFFFFFFFFFFFFFFFFFFFFF59
:10279000FFFFFFFFFFFFFFFFFFFFFFFFFFFFFFFF49
:1027A000FFFF9EF782100000000000000000000004
:1027B00000002421FFFFFFFFFFFFFFFFFFFFFFFFE0
:1027C000FFFFFFFFFFFFFFFFFFFF1CE741080000C7
:1027D000000000000000000000000842FFFFFFFFB3
:1027E000FFFFFFFFFFFFFFFFFFFFFFFFFFFFFFFFF9
:1027F000FFFFFFFFFFFFFFFFFFFFFFFFFFFFFFFFE9
:10280000FFFFFFFFFFFFFFFFFFFFFFFFFFFFFFFFD8
:10281000FFFFFFFFFFFFFFFFFFFFFFFFFFFFFFFFC8
:10282000FFFFFFFFFFFFFFFFFFFFFFFFFFFFFFFFB8
:10283000FFFFFFFFFFFFFFFFFFFFFFFFFFFFFFFFA8
:10284000FFFFFFFFFFFFFFFFFFFFFFFFFFFFFFFF98
:10285000FFFFFFFFFFFFFFFFFFFFFFFFFFFFFFFF88
:10286000FFFFFFFF08420000000000000000000022
:10287000000020003CE7FFFFFFFFFFFFFFFFFFFF1F
:10288000FFFFFFFFFFFFFFFFFFFF38C60000000054
:10289000000000000000000000004D6BFFFFFFFF84
:1028A000FFFFFFFFFFFFFFFFFFFFFFFFFFFFFFFF38
:1028B000FFFFFFFFFFFFFFFFFFFFFFFFFFFFFFFF28
:1028C000FFFFFFFFFFFFFFFFFFFFFFFFFFFFFFFF18
:1028D000FFFFFFFFFFFFFFFFFFFFFFFFFFFFFFFF08
:1028E000FFFFFFFFFFFFFFFFFFFFFFFFFFFFFFFFF8
:1028F000FFFFFFFFFFFFFFFFFFFFFFFFFFFFFFFFE8
:10290000FFFFFFFFFFFFFFFFFFFFFFFFFFFFFFFFD7
:10291000FFFFFFFFFFFFFFFFFFFFFFFFFFFFFFFFC7
:10292000FFFFFFFF6D6B00000000000000000000D3
:102930000000000038C6FFFFFFFFFFFFFFFFFFFFA3
:10294000FFFFFFFFFFFFFFFFFFFF14A500000000D8
:1029500000000000000000000000F39CFFFFFFFFEC
:10296000FFFFFFFFFFFFFFFFFFFFFFFFFFFFFFFF77
:10297000FFFFFFFFFFFFFFFFFFFFFFFFFFFFFFFF67
:10298000FFFFFFFFFFFFFFFFFFFFFFFFFFFFFFFF57
:10299000FFFFFFFFFFFFFFFFFFFFFFFFFFFFFFFF47
:1029A000FFFFFFFFFFFFFFFFFFFFFFFFFFFFFFFF37
:1029B000FFFFFFFFFFFFFFFFFFFFFFFFFFFFFFFF27
:1029C000FFFFFFFFFFFFFFFFFFFFFFFFFFFFFFFF17
:1029D000FFFFFFFFFFFFFFFFFFFFFFFFFFFFFFFF07
:1029E000FFFFFFFFF39C000000000000000000005C
:1029F0000000000014A5FFFFFFFFFFFFFFFFFFFF28
:102A0000FFFFFFFFFFFFFFFFFFFF1084000000003C
:102A100000000000000000000000F7BDFFFFFFFF06
:102A2000FFFFFFFFFFFFFFFFFFFFFFFFFFFFFFFFB6
:102A3000FFFFFFFFFFFFFFFFFFFFFFFFFFFFFFFFA6
:102A4000FFFFFFFFFFFFFFFFFFFFFFFFFFFFFFFF96
:102A5000FFFFFFFFFFFFFFFFFFFFFFFFFFFFFFFF86
:102A6000FFFFFFFFFFFFFFFFFFFFFFFFFFFFFFFF76
:102A7000FFFFFFFFFFFFFFFFFFFFFFFFFFFFFFFF66
:102A8000FFFFFFFFFFFFFFFFFFFFFFFFFFFFFFFF56
:102A9000FFFFFFFFFFFFFFFFFFFFFFFFFFFFFFFF46
:102AA000FFFFFFFF18C6000000000000000000004C
:102AB000000000001084FFFFFFFFFFFFFFFFFFFF8C
:102AC000FFFFFFFFFFFFFFFFFFFF6D6B0000000038
:102AD00000000000000000000000BAD6FFFFFFFF6A
:102AE000FFFFFFFFFFFFFFFFFFFFFFFFFFFFFFFFF6
:102AF000FFFFFFFFFFFFFFFFFFFFFFFFFFFFFFFFE6
:102B0000FFFFFFFFFFFFFFFFFFFFFFFFFFFFFFFFD5
:102B1000FFFFFFFFFFFFFFFFFFFFFFFFFFFFFFFFC5
:102B2000FFFFFFFFFFFFFFFFFFFFFFFFFFFFFFFFB5
:102B3000FFFFFFFFFFFFFFFFFFFFFFFFFFFFFFFFA5
:102B4000FFFFFFFFFFFFFFFFFFFFFFFFFFFFFFFF95
:102B5000FFFFFFFFFFFFFFFFFFFFFFFFFFFFFFFF85
:102B6000FFFFFFFFBAD600000000000000000000D9
:102B7000000000004D6BFFFFFFFFFFFFFFFFFFFFA7
:102B8000FFFFFFFFFFFFFFFFFFFFEB5A000000000A
:102B9000000000000000000061083CE7FFFFFFFFAD
:102BA000FFFFFFFFFFFFFFFFFFFFFFFFFFFFFFFF35
:102BB000FFFFFFFFFFFFFFFFFFFFFFFFFFFFFFFF25
:102BC000FFFFFFFFFFFFFFFFFFFFFFFFFFFFFFFF15
:102BD000FFFFFFFFFFFFFFFFFFFFFFFFFFFFFFFF05
:102BE000FFFFFFFFFFFFFFFFFFFFFFFFFFFFFFFFF5
:102BF000FFFFFFFFFFFFFFFFFFFFFFFFFFFFFFFFE5
:102C0000FFFFFFFFFFFFFFFFFFFFFFFFFFFFFFFFD4
:102C1000FFFFFFFFFFFFFFFFFFFFFFFFFFFFFFFFC4
:102C2000FFFFFFFF3CE7610800000000000000001C
:102C300000000000CB5AFFFFFFFFFFFFFFFFFFFF79
:102C4000FFFFFFFFFFFFFFFFFFFF8A5200000000B2
:102C50000000000000000000A2107DEFFFFFFFFF5A
:102C6000FFFFFFFFFFFFFFFFFFFFFFFFFFFFFFFF74
:102C7000FFFFFFFFFFFFFFFFFFFFFFFFFFFFFFFF64
:102C8000FFFFFFFFFFFFFFFFFFFFFFFFFFFFFFFF54
:102C9000FFFFFFFFFFFFFFFFFFFFFFFFFFFFFFFF44
:102CA000FFFFFFFFFFFFFFFFFFFFFFFFFFFFFFFF34
:102CB000FFFFFFFFFFFFFFFFFFFFFFFFFFFFFFFF24
:102CC000FFFFFFFFFFFFFFFFFFFFFFFFFFFFFFFF14
:102CD000FFFFFFFFFFFFFFFFFFFFFFFFFFFFFFFF04
:102CE000FFFFFFFF9EF7A2100000000000000000A1
:102CF000000000008A52FFFFFFFFFFFFFFFFFFFF02
:102D0000FFFFFFFFFFFFFFFFFFFF494A000000003A
:102D10000000000000000000C3189EF7FFFFFFFF47
:102D2000FFFFFFFFFFFFFFFFFFFFFFFFFFFFFFFFB3
:102D3000FFFFFFFFFFFFFFFFFFFFFFFFFFFFFFFFA3
:102D4000FFFFFFFFFFFFFFFFFFFFFFFFFFFFFFFF93
:102D5000FFFFFFFFFFFFFFFFFFFFFFFFFFFFFFFF83
:102D6000FFFFFFFFFFFFFFFFFFFFFFFFFFFFFFFF73
:102D7000FFFFFFFFFFFFFFFFFFFFFFFFFFFFFFFF63
:102D8000FFFFFFFFFFFFFFFFFFFFFFFFFFFFFFFF53
:102D9000FFFFFFFFFFFFFFFFFFFFFFFFFFFFFFFF43
:102DA000FFFFFFFFBEF7C318000000000000000097
:102DB00000000000494AFFFFFFFFFFFFFFFFFFFF8A
:102DC000FFFFFFFFFFFFFFFFFFFF494A000000007A
:102DD0000000000000000000C3189EF7FFFFFFFF87
:102DE000FFFFFFFFFFFFFFFFFFFFFFFFFFFFFFFFF3
:102DF000FFFFFFFFFFFFFFFFFFFFFFFFFFFFFFFFE3
:102E0000FFFFFFFFFFFFFFFFFFFFFFFFFFFFFFFFD2
:102E1000FFFFFFFFFFFFFFFFFFFFFFFFFFFFFFFFC2
:102E2000FFFFFFFFFFFFFFFFFFFFFFFFFFFFFFFFB2
:102E3000FFFFFFFFFFFFFFFFFFFFFFFFFFFFFFFFA2
:102E4000FFFFFFFFFFFFFFFFFFFFFFFFFFFFFFFF92
:102E5000FFFFFFFFFFFFFFFFFFFFFFFFFFFFFFFF82
:102E6000FFFFFFFFBEF7C3180000000000000000D6
:102E700000000000494AFFFFFFFFFFFFFFFFFFFFC9
:102E8000FFFFFFFFFFFFFFFFFFFF8A520000000070
:102E90000000000000000000A2107DEFFFFFFFFF18
:102EA000FFFFFFFFFFFFFFFFFFFFFFFFFFFFFFFF32
:102EB000FFFFFFFFFFFFFFFFFFFFFFFFFFFFFFFF22
:102EC000FFFFFFFFFFFFFFFFFFFFFFFFFFFFFFFF12
:102ED000FFFFFFFFFFFFFFFFFFFFFFFFFFFFFFFF02
:102EE000FFFFFFFFFFFFFFFFFFFFFFFFFFFFFFFFF2
:102EF000FFFFFFFFFFFFFFFFFFFFFFFFFFFFFFFFE2
:102F0000FFFFFFFFFFFFFFFFFFFFFFFFFFFFFFFFD1
:102F1000FFFFFFFFFFFFFFFFFFFFFFFFFFFFFFFFC1
:102F2000FFFFFFFF9EF7A21000000000000000005E
:102F3000000000008A52FFFFFFFFFFFFFFFFFFFFBF
:102F4000FFFFFFFFFFFFFFFFFFFFEB5A0000000046
:102F5000000000000000000061081CE7FFFFFFFF09
:102F6000FFFFFFFFFFFFFFFFFFFFFFFFFFFFFFFF71
:102F7000FFFFFFFFFFFFFFFFFFFFFFFFFFFFFFFF61
:102F8000FFFFFFFFFFFFFFFFFFFFFFFFFFFFFFFF51
:102F9000FFFFFFFFFFFFFFFFFFFFFFFFFFFFFFFF41
:102FA000FFFFFFFFFFFFFFFFFFFFFFFFFFFFFFFF31
:102FB000FFFFFFFFFFFFFFFFFFFFFFFFFFFFFFFF21
:102FC000FFFFFFFFFFFFFFFFFFFFFFFFFFFFFFFF11
:102FD000FFFFFFFFFFFFFFFFFFFFFFFFFFFFFFFF01
:102FE000FFFFFFFF3CE76108000000000000000059
:102FF00000000000CB5AFFFFFFFFFFFFFFFFFFFFB6
:10300000FFFFFFFFFFFFFFFFFFFF4D6B0000000012
:1030100000000000000000000000BAD6FFFFFFFF24
:10302000FFFFFFFFFFFFFFFFFFFFFFFFFFFFFFFFB0
:10303000FFFFFFFFFFFFFFFFFFFFFFFFFFFFFFFFA0
:10304000FFFFFFFFFFFFFFFFFFFFFFFFFFFFFFFF90
:10305000FFFFFFFFFFFFFFFFFFFFFFFFFFFFFFFF80
:10306000FFFFFFFFFFFFFFFFFFFFFFFFFFFFFFFF70
:10307000FFFFFFFFFFFFFFFFFFFFFFFFFFFFFFFF60
:10308000FFFFFFFFFFFFFFFFFFFFFFFFFFFFFFFF50
:10309000FFFFFFFFFFFFFFFFFFFFFFFFFFFFFFFF40
:1030A000FFFFFFFFBAD60000000000000000000094
:1030B000000000004D6BFFFFFFFFFFFFFFFFFFFF62
:1030C000FFFFFFFFFFFFFFFFFFFF10840000000076
:1030D00000000000000000000000F7BDFFFFFFFF40
:1030E000FFFFFFFFFFFFFFFFFFFFFFFFFFFFFFFFF0
:1030F000FFFFFFFFFFFFFFFFFFFFFFFFFFFFFFFFE0
:10310000FFFFFFFFFFFFFFFFFFFFFFFFFFFFFFFFCF
:10311000FFFFFFFFFFFFFFFFFFFFFFFFFFFFFFFFBF
:10312000FFFFFFFFFFFFFFFFFFFFFFFFFFFFFFFFAF
:10313000FFFFFFFFFFFFFFFFFFFFFFFFFFFFFFFF9F
:10314000FFFFFFFFFFFFFFFFFFFFFFFFFFFFFFFF8F
:10315000FFFFFFFFFFFFFFFFFFFFFFFFFFFFFFFF7F
:10316000FFFFFFFF18C60000000000000000000085
:10317000000000001084FFFFFFFFFFFFFFFFFFFFC5
:10318000FFFFFFFFFFFFFFFFFFFF14A50000000090
:1031900000000000000000000000F39CFFFFFFFFA4
:1031A000FFFFFFFFFFFFFFFFFFFFFFFFFFFFFFFF2F
:1031B000FFFFFFFFFFFFFFFFFFFFFFFFFFFFFFFF1F
:1031C000FFFFFFFFFFFFFFFFFFFFFFFFFFFFFFFF0F
:1031D000FFFFFFFFFFFFFFFFFFFFFFFFFFFFFFFFFF
:1031E000FFFFFFFFFFFFFFFFFFFFFFFFFFFFFFFFEF
:1031F000FFFFFFFFFFFFFFFFFFFFFFFFFFFFFFFFDF
:10320000FFFFFFFFFFFFFFFFFFFFFFFFFFFFFFFFCE
:10321000FFFFFFFFFFFFFFFFFFFFFFFFFFFFFFFFBE
:10322000FFFFFFFFF39C0000000000000000000013
:103230000000000014A5FFFFFFFFFFFFFFFFFFFFDF
:10324000FFFFFFFFFFFFFFFFFFFF38C6000000008A
:10325000000000000000000000004D6BFFFFFFFFBA
:10326000FFFFFFFFFFFFFFFFFFFFFFFFFFFFFFFF6E
:10327000FFFFFFFFFFFFFFFFFFFFFFFFFFFFFFFF5E
:10328000FFFFFFFFFFFFFFFFFFFFFFFFFFFFFFFF4E
:10329000FFFFFFFFFFFFFFFFFFFFFFFFFFFFFFFF3E
:1032A000FFFFFFFFFFFFFFFFFFFFFFFFFFFFFFFF2E
:1032B000FFFFFFFFFFFFFFFFFFFFFFFFFFFFFFFF1E
:1032C000FFFFFFFFFFFFFFFFFFFFFFFFFFFFFFFF0E
:1032D000FFFFFFFFFFFFFFFFFFFFFFFFFFFFFFFFFE
:1032E000FFFFFFFF6D6B000000000000000000000A
:1032F0000000000038C6FFFFFFFFFFFFFFFFFFFFDA
:10330000FFFFFFFFFFFFFFFFFFFF1CE720000000A4
:10331000000000000000000000000842FFFFFFFF67
:10332000FFFFFFFFFFFFFFFFFFFFFFFFFFFFFFFFAD
:10333000FFFFFFFFFFFFFFFFFFFFFFFFFFFFFFFF9D
:10334000FFFFFFFFFFFFFFFFFFFFFFFFFFFFFFFF8D
:10335000FFFFFFFFFFFFFFFFFFFFFFFFFFFFFFFF7D
:10336000FFFFFFFFFFFFFFFFFFFFFFFFFFFFFFFF6D
:10337000FFFFFFFFFFFFFFFFFFFFFFFFFFFFFFFF5D
:10338000FFFFFFFFFFFFFFFFFFFFFFFFFFFFFFFF4D
:10339000FFFFFFFFFFFFFFFFFFFFFFFFFFFFFFFF3D
:1033A000FFFFFFFF084200000000000000000000D7
:1033B000000041081CE7FFFFFFFFFFFFFFFFFFFFCB
:1033C000FFFFFFFFFFFFFFFFFFFFFFFF452900009B
:1033D0000000000000000000000061089EF7FFFFF1
:1033E000FFFFFFFFFFFFFFFFFFFFFFFFFFFFFFFFED
:1033F000FFFFFFFFFFFFFFFFFFFFFFFFFFFFFFFFDD
:10340000FFFFFFFFFFFFFFFFFFFFFFFFFFFFFFFFCC
:10341000FFFFFFFFFFFFFFFFFFFFFFFFFFFFFFFFBC
:10342000FFFFFFFFFFFFFFFFFFFFFFFFFFFFFFFFAC
:10343000FFFFFFFFFFFFFFFFFFFFFFFFFFFFFFFF9C
:10344000FFFFFFFFFFFFFFFFFFFFFFFFFFFFFFFF8C
:10345000FFFFFFFFFFFFFFFFFFFFFFFFFFFFFFFF7C
:10346000FFFF9EF782100000000000000000000037
:1034700000002421FFFFFFFFFFFFFFFFFFFFFFFF13
:10348000FFFFFFFFFFFFFFFFFFFFFFFFAA5200004C
:10349000000000000000000000000000F7BDFFFF7A
:1034A000FFFFFFFFFFFFFFFFFFFFFFFFFFFFFFFF2C
:1034B000FFFFFFFFFFFFFFFFFFFFFFFFFFFFFFFF1C
:1034C000FFFFFFFFFFFFFFFFFFFFFFFFFFFFFFFF0C
:1034D000FFFFFFFFFFFFFFFFFFFFFFFFFFFFFFFFFC
:1034E000FFFFFFFFFFFFFFFFFFFFFFFFFFFFFFFFEC
:1034F000FFFFFFFFFFFFFFFFFFFFFFFFFFFFFFFFDC
:10350000FFFFFFFFFFFFFFFFFFFFFFFFFFFFFFFFCB
:10351000FFFFFFFFFFFFFFFFFFFFFFFFFFFFFFFFBB
:10352000FFFFF7BD000000000000000000000000E9
:103530000000AA52FFFFFFFFFFFFFFFFFFFFFFFF9B
:10354000FFFFFFFFFFFFFFFFFFFFFFFFD39C000018
:103550002000000000000000000000006D6BFFFF75
:10356000FFFFFFFFFFFFFFFFFFFFFFFFFFFFFFFF6B
:10357000FFFFFFFFFFFFFFFFFFFFFFFFFFFFFFFF5B
:10358000FFFFFFFFFFFFFFFFFFFFFFFFFFFFFFFF4B
:10359000FFFFFFFFFFFFFFFFFFFFFFFFFFFFFFFF3B
:1035A000FFFFFFFFFFFFFFFFFFFFFFFFFFFFFFFF2B
:1035B000FFFFFFFFFFFFFFFFFFFFFFFFFFFFFFFF1B
:1035C000FFFFFFFFFFFFFFFFFFFFFFFFFFFFFFFF0B
:1035D000FFFFDFFFFFFFFFFFFFFFFFFFFFFFFFFF1B
:1035E000FFFF8E73000000000000000000002000BC
:1035F0000000D39CFFFFFFFFFFFFFFFFFFFFFFFF68
:10360000FFFFFFFFFFFFFFFFFFFFFFFFBAD6000036
:103610000000000000000000000000000421DFFFA7
:10362000FFFFFFFFFFFFFFFFFFFFFFFFFFFFFFFFAA
:10363000FFFFFFFFFFFFFFFFFFFFFFFFFFFFFFFF9A
:10364000FFFFFFFFFFFFFFFFFFFFFFFFFFFFFFFF8A
:10365000FFFFFFFFFFFFFFFFFFFFFFFFFFFFFFFF7A
:10366000FFFFFFFFFFFFFFFFFFFFFFFFFFFFFFFF6A
:10367000FFFFFFFFFFFFFFFFFFFFFFFFFFFFFFFF5A
:10368000FFFFFFFFFFFFFFFFFFFFFFFFFFFFFFFF4A
:10369000FFFFFFFFFFFFFFFFFFFFFFFFFFFFFFFF3A
:1036A000DFFF2421000000000000000000000000F7
:1036B0000000BAD6FFFFFFFFFFFFFFFFFFFFFFFF86
:1036C000FFFFFFFFFFFFFFFFFFFFFFFFDFFF4529BA
:1036D000000000000000000000000000000018C60C
:1036E000FFFFFFFFFFFFFFFFFFFFFFFFFFFFFFFFEA
:1036F000FFFFFFFFFFFFFFFFFFFFFFFFFFFFFFFFDA
:10370000FFFFFFFFFFFFFFFFFFFFFFFFFFFFFFFFC9
:10371000FFFFFFFFFFFFFFFFFFFFFFFFFFFFFFFFB9
:10372000FFFFFFFFFFFFFFFFFFFFFFFFFFFFFFFFA9
:10373000FFFFFFFFFFFFFFFFFFFFFFFFFFFFFFFF99
:10374000FFFFFFFFFFFFFFFFFFFFFFFFFFFFFFFF89
:10375000FFFFFFFFFFFFFFFFFFFFFFFFFFFFFFFF79
:1037600018C600000000000000000000000000007B
:103770004529DFFFFFFFFFFFFFFFFFFFFFFFFFFF09
:10378000FFFFFFFFFFFFFFFFFFFFDFFFFFFFAE7346
:103790000000000000000000000000000000AA522D
:1037A000FFFFDFFFFFFFFFFFFFFFFFFFFFFFFFFF49
:1037B000FFFFFFFFFFFFFFFFFFFFFFFFFFFFFFFF19
:1037C000FFFFFFFFFFFFFFFFFFFFFFFFFFFFFFFF09
:1037D000FFFFFFFFFFFFFFFFFFFFFFFFFFFFFFFFF9
:1037E000FFFFFFFFFFFFFFFFFFFFFFFFFFFFFFFFE9
:1037F000FFFFFFFFFFFFFFFFFFFFFFFFFFFFFFFFD9
:10380000FFFFFFFFFFFFFFFFFFFFFFFFFFFFFFFFC8
:10381000FFFFFFFFFFFFFFFFFFFFFFFFDFFFFFFFD8
:10382000AA5200000000000000000000000000009C
:10383000AE73FFFFDFFFFFFFFFFFFFFFFFFFFFFF95
:10384000FFFFFFFFFFFFFFFFFFFFDFFFFFFF59CE7F
:103850000000000020000000000000000000200028
:103860001CE7FFFFFFFFFFFFDFFFFFFFFFFFFFFF83
:10387000FFFFFFFFFFFFFFFFFFFFFFFFFFFFFFFF58
:10388000FFFFFFFFFFFFFFFFFFFFFFFFFFFFFFFF48
:10389000FFFFFFFFFFFFFFFFFFFFFFFFFFFFFFFF38
:1038A000FFFFFFFFFFFFFFFFFFFFFFFFFFFFFFFF28
:1038B000FFFFFFFFFFFFFFFFFFFFFFFFFFFFFFFF18
:1038C000FFFFFFFFFFFFFFFFFFFFFFFFFFFFFFFF08
:1038D000FFFFFFFFFFFFDFFFFFFFFFFFFFFF1CE713
:1038E0002000000000000000000020000000000098
:1038F00059CEFFFFDFFFFFFFFFFFFFFFFFFFFFFFCF
:10390000FFFFFFFFFFFFFFFFFFFFFFFFFFFFFFFFC7
:1039100086310000000000000000000000000000F0
:103920006D6BFFFFFFFFFFFFFFFFFFFFFFFFFFFFCD
:10393000FFFFFFFFFFFFFFFFFFFFFFFFFFFFFFFF97
:10394000FFFFFFFFFFFFFFFFFFFFFFFFFFFFFFFF87
:10395000FFFFFFFFFFFFFFFFFFFFFFFFFFFFFFFF77
:10396000FFFFFFFFFFFFFFFFFFFFFFFFFFFFFFFF67
:10397000FFFFFFFFFFFFFFFFFFFFFFFFFFFFFFFF57
:10398000FFFFFFFFFFFFFFFFFFFFFFFFFFFFFFFF47
:10399000FFFFFFFFFFFFFFFFFFFFFFFFFFFF6D6B5D
:1039A0000000000000000000000000000000652989
:1039B000FFFFFFFFFFFFFFFFFFFFFFFFFFFFFFFF17
:1039C000FFFFFFFFFFFFFFFFFFFFFFFFFFFFFFFF07
:1039D000D39C000000000000000000000000000078
:1039E00041081CE7FFFFFFFFFFFFFFFFFFFFFFFF97
:1039F000FFFFFFFFFFFFFFFFFFFFFFFFFFFFFFFFD7
:103A0000FFFFFFFFFFFFFFFFFFFFFFFFFFFFFFFFC6
:103A1000FFFFFFFFFFFFFFFFFFFFFFFFFFFFFFFFB6
:103A2000FFFFFFFFFFFFFFFFFFFFFFFFFFFFFFFFA6
:103A3000FFFFFFFFFFFFFFFFFFFFFFFFFFFFFFFF96
:103A4000FFFFFFFFFFFFFFFFFFFFFFFFFFFFFFFF86
:103A5000FFFFFFFFFFFFFFFFFFFFFFFF1CE7410826
:103A60000000000000002000000000000000D39CC7
:103A7000FFFFFFFFFFFFFFFFFFFFFFFFFFFFFFFF56
:103A8000FFFFFFFFFFFFFFFFFFFFFFFFFFFFFFFF46
:103A90009EF7A210000000000000000000000000DF
:103AA0000000CB5AFFFFDFFFFFFFFFFFFFFFFFFF1D
:103AB000FFFFFFFFFFFFFFFFFFFFFFFFFFFFFFFF16
:103AC000FFFFFFFFFFFFFFFFFFFFFFFFFFFFFFFF06
:103AD000FFFFFFFFFFFFFFFFFFFFFFFFFFFFFFFFF6
:103AE000FFFFFFFFFFFFFFFFFFFFFFFFFFFFFFFFE6
:103AF000FFFFFFFFFFFFFFFFFFFFFFFFFFFFFFFFD6
:103B0000FFFFFFFFFFFFFFFFFFFFFFFFFFFFFFFFC5
:103B1000FFFFFFFFFFFFFFFFDFFFFFFFCB5A0000AC
:103B200000000000200000000000000082109EF74E
:103B3000FFFFFFFFFFFFFFFFFFFFFFFFFFFFFFFF95
:103B4000FFFFFFFFFFFFFFFFFFFFFFFFFFFFFFFF85
:103B5000FFFFEF7B000000000000000000000000FD
:103B60000000000018C6FFFFFFFFFFFFFFFFFFFF81
:103B7000FFFFFFFFFFFFFFFFFFFFFFFFFFFFFFFF55
:103B8000FFFFFFFFFFFFFFFFFFFFFFFFFFFFFFFF45
:103B9000FFFFFFFFFFFFFFFFFFFFFFFFFFFFFFFF35
:103BA000FFFFFFFFFFFFFFFFFFFFFFFFFFFFFFFF25
:103BB000FFFFFFFFFFFFFFFFFFFFFFFFFFFFFFFF15
:103BC000FFFFFFFFFFFFFFFFFFFFFFFFFFFFFFFF05
:103BD000FFFFFFFFFFFFFFFFFFFF18C60000000011
:103BE000000020000000000020000000CF7BFFFF4D
:103BF000FFFFFFFFFFFFFFFFFFFFFFFFFFFFFFFFD5
:103C0000FFFFFFFFFFFFFFFFFFFFFFFFFFFFFFFFC4
:103C1000FFFF7DEF610800002000000000000000B1
:103C2000000000004529DFFFFFFFFFFFFFFFFFFF50
:103C3000FFFFFFFFFFFFFFFFFFFFFFFFFFFFFFFF94
:103C4000FFFFFFFFFFFFFFFFFFFFFFFFFFFFFFFF84
:103C5000FFFFFFFFFFFFFFFFFFFFFFFFFFFFFFFF74
:103C6000FFFFFFFFFFFFFFFFFFFFFFFFFFFFFFFF64
:103C7000FFFFFFFFFFFFFFFFFFFFFFFFFFFFFFFF54
:103C8000FFFFFFFFFFFFFFFFFFFFFFFFFFFFFFFF44
:103C9000FFFFFFFFFFFFFFFFDFFF452900000000E0
:103CA0000000000000000000000061085DEFFFFF61
:103CB000FFFFFFFFFFFFFFFFFFFFFFFFFFFFFFFF14
:103CC000FFFFFFFFFFFFFFFFFFFFFFFFFFFFFFFF04
:103CD000FFFFFFFF30840000000000000000000034
:103CE0000000000000004D6BFFFFFFFFDFFFFFFF44
:103CF000FFFFFFFFFFFFFFFFFFFFFFFFFFFFFFFFD4
:103D0000FFFFFFFFFFFFFFFFFFFFFFFFFFFFFFFFC3
:103D1000FFFFFFFFFFFFFFFFFFFFFFFFFFFFFFFFB3
:103D2000FFFFFFFFFFFFFFFFFFFFFFFFFFFFFFFFA3
:103D3000FFFFFFFFFFFFFFFFFFFFFFFFFFFFFFFF93
:103D4000FFFFFFFFFFFFFFFFFFFFFFFFFFFFFFFF83
:103D5000FFFFDFFFFFFFFFFF4D6B000000000000D3
:103D6000000000000000000000001084FFFFFFFFC3
:103D7000FFFFFFFFFFFFFFFFFFFFFFFFFFFFFFFF53
:103D8000FFFFFFFFFFFFFFFFFFFFFFFFFFFFFFFF43
:103D9000FFFFDFFFBEF7042100000000200000004D
:103DA000200000000000000055ADFFFFFFFFFFFFF7
:103DB000FFFFFFFFFFFFFFFFFFFFFFFFFFFFFFFF13
:103DC000FFFFFFFFFFFFFFFFFFFFFFFFFFFFFFFF03
:103DD000FFFFFFFFFFFFFFFFFFFFFFFFFFFFFFFFF3
:103DE000FFFFFFFFFFFFFFFFFFFFFFFFFFFFFFFFE3
:103DF000FFFFFFFFFFFFFFFFFFFFFFFFFFFFFFFFD3
:103E0000FFFFFFFFFFFFFFFFFFFFFFFFFFFFFFFFC2
:103E1000FFFFFFFFFFFF75AD000000000000000086
:103E20000000000000000000E3189EF7FFFFFFFF06
:103E3000FFFFFFFFFFFFFFFFFFFFFFFFFFFFFFFF92
:103E4000FFFFFFFFFFFFFFFFFFFFFFFFFFFFFFFF82
:103E5000FFFFFFFFFFFFB6B50000000000000000FD
:103E60000000000000000000200079CEFFFFFFFFEF
:103E7000FFFFFFFFFFFFFFFFFFFFFFFFFFFFFFFF52
:103E8000FFFFFFFFFFFFFFFFFFFFFFFFFFFFFFFF42
:103E9000FFFFFFFFFFFFFFFFFFFFFFFFFFFFFFFF32
:103EA000FFFFFFFFFFFFFFFFFFFFFFFFFFFFFFFF22
:103EB000FFFFFFFFFFFFFFFFFFFFFFFFFFFFFFFF12
:103EC000FFFFFFFFFFFFFFFFFFFFFFFFFFFFFFFF02
:103ED000FFFFFFFF79CE200000000000000000007F
:103EE0002000000000000000B6B5FFFFFFFFFFFF4D
:103EF000FFFFFFFFFFFFFFFFFFFFFFFFFFFFFFFFD2
:103F0000FFFFFFFFFFFFFFFFFFFFFFFFFFFFFFFFC1
:103F1000FFFFFFFFFFFFDFFFAA52200000000000AD
:103F200000000000000000000000C3181CE7FFFFB5
:103F3000FFFFFFFFFFFFFFFFFFFFFFFFFFFFFFFF91
:103F4000FFFFFFFFFFFFFFFFFFFFFFFFFFFFFFFF81
:103F5000FFFFFFFFFFFFFFFFFFFFFFFFFFFFFFFF71
:103F6000FFFFFFFFFFFFFFFFFFFFFFFFFFFFFFFF61
:103F7000FFFFFFFFFFFFFFFFFFFFFFFFFFFFFFFF51
:103F8000FFFFFFFFFFFFFFFFFFFFFFFFFFFFFFFF41
:103F9000FFFF1CE7C3180000000000000000000045
:103FA0000000000000008A52FFFFFFFFFFFFFFFF3D
:103FB000FFFFFFFFFFFFFFFFFFFFFFFFFFFFFFFF11
:103FC000FFFFFFFFFFFFFFFFFFFFFFFFFFFFFFFF01
:103FD000FFFFDFFFFFFFFFFF3CE7C318000000000B
:103FE00000000000000000000000000024213CE769
:103FF000FFFFFFFFFFFFFFFFFFFFFFFFFFFFFFFFD1
:10400000FFFFFFFFFFFFFFFFFFFFFFFFFFFFFFFFC0
:10401000FFFFFFFFFFFFFFFFFFFFFFFFFFFFFFFFB0
:10402000FFFFFFFFFFFFFFFFFFFFFFFFFFFFFFFFA0
:10403000FFFFFFFFFFFFFFFFFFFFFFFFFFFFFFFF90
:10404000FFFFFFFFFFFFFFFFFFFFFFFFFFFFFFFF80
:104050003CE72421000000000000000000000000F8
:1040600000000000C3183CE7FFFFFFFFDFFFFFFF7A
:10407000FFFFFFFFFFFFFFFFFFFFFFFFFFFFFFFF50
:10408000FFFFFFFFFFFFFFFFFFFFFFFFFFFFFFFF40
:10409000FFFFFFFFFFFFFFFFFFFFB6B500000000BF
:1040A00000000000000000000000000000004529A2
:1040B0001CE7DFFFFFFFDFFFFFFFFFFFFFFFFFFF4B
:1040C000FFFFFFFFFFFFFFFFFFFFFFFFFFFFFFFF00
:1040D000FFFFFFFFFFFFFFFFFFFFFFFFFFFFFFFFF0
:1040E000FFFFFFFFFFFFFFFFFFFFFFFFFFFFFFFFE0
:1040F000FFFFFFFFFFFFFFFFFFFFFFFFFFFFFFFFD0
:10410000FFFFFFFFFFFFFFFFFFFFFFFFFFFFFBDEE4
:104110004529000000000000000000000000000031
:1041200000000000B6B5FFFFFFFFFFFFFFFFFFFF2E
:10413000FFFFFFFFFFFFFFFFFFFFFFFFFFFFFFFF8F
:10414000FFFFFFFFFFFFFFFFFFFFFFFFFFFFFFFF7F
:10415000FFFFFFFFFFFFFFFFFFFFDFFF10840000F7
:10416000000000000000000000000000000000004F
:10417000C3189AD6FFFFFFFFFFFFFFFFFFFFFFFF00
:10418000FFFFFFFFFFFFFFFFFFFFFFFFFFFFFFFF3F
:10419000FFFFFFFFFFFFFFFFFFFFFFFFFFFFFFFF2F
:1041A000FFFFFFFFFFFFFFFFFFFFFFFFFFFFFFFF1F
:1041B000FFFFFFFFFFFFFFFFFFFFFFFFFFFFFFFF0F
:1041C000FFFFFFFFFFFFFFFFFFFFFFFF9AD6E31890
:1041D00000000000000000000000000000000000DF
:1041E00000001084FFFFFFFFDFFFFFFFFFFFFFFF67
:1041F000FFFFFFFFFFFFFFFFFFFFFFFFFFFFFFFFCF
:10420000FFFFFFFFFFFFFFFFFFFFFFFFFFFFFFFFBE
:10421000FFFFFFFFFFFFFFFFFFFFFFFFFFFF8A52D0
:10422000000000000000000000000000000000008E
:104230000000410834A5FFFFFFFFFFFFFFFFFFFF66
:10424000FFFFFFFFFFFFFFFFFFFFFFFFFFFFFFFF7E
:10425000FFFFFFFFFFFFFFFFFFFFFFFFFFFFFFFF6E
:10426000FFFFFFFFFFFFFFFFFFFFFFFFFFFFFFFF5E
:10427000FFFFFFFFFFFFFFFFFFFFFFFFFFFFFFFF4E
:10428000FFFFFFFFFFFFFFFFFFFF34A54108000016
:10429000000000000000000000000000000000001E
:1042A0008A52FFFFFFFFFFFFFFFFDFFFFFFFFFFF60
:1042B000FFFFFFFFFFFFFFFFFFFFFFFFFFFFFFFF0E
:1042C000FFFFFFFFFFFFFFFFFFFFFFFFFFFFFFFFFE
:1042D000FFFFDFFFFFFFDFFFFFFFFFFFFFFFFFFF2E
:1042E000C7390000200000000000000000000000AE
:1042F0000000000000006D6BDFFFFFFFFFFFFFFF0E
:10430000FFFFFFFFFFFFDFFFFFFFFFFFDFFFFFFFFD
:10431000FFFFFFFFFFFFFFFFFFFFFFFFFFFFFFFFAD
:10432000FFFFFFFFFFFFFFFFFFFFFFFFFFFFFFFF9D
:10433000FFFFDFFFFFFFFFFFDFFFFFFFFFFFFFFFCD
:10434000FFFFFFFFFFFFDFFF8E7300000000000094
:104350000000000000000000000020000000C7393D
:10436000FFFFFFFFFFFFFFFFDFFFFFFFDFFFFFFF9D
:10437000FFFFFFFFFFFFFFFFFFFFFFFFFFFFFFFF4D
:10438000FFFFFFFFFFFFFFFFFFFFFFFFFFFFFFFF3D
:10439000FFFFFFFFFFFFFFFFFFFFFFFFFFFFFFFF2D
:1043A0009EF76529000000000000000020000000CA
:1043B00000000000000000002421D7BDFFFFFFFF28
:1043C000FFFFFFFFFFFFFFFFFFFFFFFFFFFFDFFF1D
:1043D000FFFFFFFFFFFFFFFFFFFFFFFFFFFFFFFFED
:1043E000FFFFFFFFFFFFFFFFFFFFFFFFFFFFFFFFDD
:1043F000DFFFFFFFFFFFFFFFFFFFFFFFFFFFFFFFED
:10440000DFFFFFFFF7BD45290000000000000000AE
:1044100000002000000000000000000065297DEF82
:10442000FFFFFFFFFFFFFFFFFFFFFFFFFFFFFFFF9C
:10443000FFFFFFFFFFFFFFFFFFFFFFFFFFFFFFFF8C
:10444000FFFFFFFFFFFFFFFFFFFFFFFFFFFFFFFF7C
:10445000FFFFFFFFDFFFFFFFFFFFFFFFDFFFFFFFAC
:10446000FFFF3CE786310000000000000000000074
:104470000000000000002000000000000C63DBDEF4
:10448000FFFFFFFFFFFFFFFFFFFFDFFFFFFFFFFF5C
:10449000FFFFFFFFFFFFFFFFFFFFFFFFFFFFFFFF2C
:1044A000FFFFFFFFFFFFFFFFFFFFFFFFFFFFFFFF1C
:1044B000FFFFFFFFDFFFFFFFFFFFFFFFFFFFFFFF2C
:1044C000FBDE0C6300000000200000000000000084
:1044D0000000000000000000000086313CE7FFFF04
:1044E000FFFFDFFFFFFFFFFFFFFFDFFFFFFFFFFF1C
:1044F000FFFFFFFFFFFFFFFFFFFFFFFFFFFFFFFFCC
:10450000FFFFFFFFFFFFFFFFFFFFFFFFFFFFFFFFBB
:10451000FFFFFFFFFFFFFFFFFFFFFFFFFFFFFFFFAB
:10452000FFFFFFFF5DEFE739000000000000000023
:104530000000000000000000000000000000410832
:104540006D6BFBDEFFFFDFFFFFFFFFFFFFFFFFFFE6
:10455000FFFFFFFFFFFFFFFFFFFFFFFFFFFFFFFF6B
:10456000FFFFFFFFFFFFFFFFFFFFFFFFFFFFFFFF5B
:10457000FFFFFFFFFFFFFFFFDFFFFFFFFBDE6D6BB6
:1045800061080000000000000000000000000000C2
:104590000000000000000000E7395DEFFFFFFFFFB3
:1045A000FFFFFFFFFFFFFFFFFFFFFFFFFFFFFFFF1B
:1045B000FFFFFFFFFFFFFFFFFFFFFFFFFFFFFFFF0B
:1045C000FFFFFFFFFFFFFFFFFFFFFFFFFFFFFFFFFB
:1045D000FFFFFFFFFFFFFFFFFFFFFFFFFFFFFFFFEB
:1045E000FFFFFFFFFFFFDFFFAA52000000000000F7
:1045F00000000000000000000000000000000000BB
:1046000000002000CB5AD7BDDFFFFFFFFFFFFFFFF9
:10461000FFFFFFFFFFFFFFFFFFFFFFFFFFFFFFFFAA
:10462000FFFFFFFFFFFFFFFFFFFFFFFFFFFFFFFF9A
:10463000FFFFFFFFFFFFFFFFD7BDCB5A4108000080
:10464000000000000000000000000000000000006A
:10465000000000000000AA52BEF7FFFFFFFFFFFFAF
:10466000FFFFFFFFFFFFFFFFFFFFFFFFFFFFFFFF5A
:10467000FFFFFFFFFFFFFFFFFFFFFFFFFFFFFFFF4A
:10468000FFFFFFFFFFFFFFFFFFFFFFFFFFFFFFFF3A
:10469000FFFFFFFFFFFFFFFFFFFFFFFFFFFFFFFF2A
:1046A000FFFFFFFFFFFFDFFFFFFF108400000000A0
:1046B00020000000000000000000000000000000DA
:1046C000000000000000000045298E73D7BD7DEF7B
:1046D000FFFFFFFFFFFFFFFFFFFFFFFFFFFFFFFFEA
:1046E000FFFFFFFFFFFFFFFFFFFFFFFFFFFFFFFFDA
:1046F0009EF7D7BD8E734529000000000000000022
:104700000000000000000000000000000000200089
:10471000000000001084FFFFDFFFFFFFFFFFFFFF2F
:10472000FFFFFFFFFFFFFFFFFFFFFFFFFFFFFFFF99
:10473000FFFFFFFFFFFFFFFFFFFFFFFFFFFFFFFF89
:10474000FFFFFFFFFFFFFFFFFFFFFFFFFFFFFFFF79
:10475000FFFFFFFFFFFFFFFFFFFFFFFFFFFFFFFF69
:10476000FFFFFFFFFFFFFFFFFFFFFFFF75AD04210E
:104770000000000000000000000000000000000039
:104780000000000000000000000000000000821097
:1047900008424D6BF39CF7BD9AD61CE79EF7BEF717
:1047A000BEF77DEF1CE79AD618C6F39C6D6B0842E6
:1047B0008210000000000000000000000000000067
:1047C00000000000000000000000000000000000E9
:1047D000E31875ADFFFFFFFFFFFFFFFFFFFFDFFFE8
:1047E000FFFFFFFFFFFFFFFFFFFFFFFFFFFFFFFFD9
:1047F000FFFFFFFFFFFFFFFFFFFFFFFFFFFFFFFFC9
:10480000FFFFFFFFFFFFFFFFFFFFFFFFFFFFFFFFB8
:10481000FFFFFFFFFFFFFFFFFFFFFFFFFFFFFFFFA8
:10482000FFFFFFFFDFFFFFFFFFFFFFFFFFFF3CE793
:10483000CB5A000020000000000000000000000033
:104840000000000000000000200000000000000048
:10485000000000000000000000006108A210A2108B
:10486000A210A2106108000000000000000000007B
:104870000000000000002000000000000000000018
:104880000000000000000000000020000000AA520C
:104890001CE7FFFFFFFFFFFFFFFFDFFFFFFFFFFF43
:1048A000FFFFFFFFFFFFFFFFFFFFFFFFFFFFFFFF18
:1048B000FFFFFFFFFFFFFFFFFFFFFFFFFFFFFFFF08
:1048C000FFFFFFFFFFFFFFFFFFFFFFFFFFFFFFFFF8
:1048D000FFFFFFFFFFFFFFFFFFFFFFFFFFFFFFFFE8
:1048E000FFFFDFFFFFFFFFFFFFFFFFFFFFFFFFFFF8
:1048F000FFFF96B50421000000000000000000004A
:104900000000200000000000000000002000000067
:104910000000000000000000000000000000000097
:104920000000000000000000000000000000000087
:104930000000200000000000000000000000000057
:1049400000000000000000000000042196B5FFFFF9
:10495000FFFFFFFFFFFFFFFFFFFFFFFFDFFFFFFF87
:10496000FFFFFFFFFFFFFFFFFFFFFFFFFFFFFFFF57
:10497000FFFFFFFFFFFFFFFFFFFFFFFFFFFFFFFF47
:10498000FFFFFFFFFFFFFFFFFFFFFFFFFFFFFFFF37
:10499000FFFFFFFFFFFFFFFFFFFFFFFFFFFFFFFF27
:1049A000FFFFFFFFFFFFFFFFFFFFFFFFFFFFFFFF17
:1049B000FFFFFFFFBEF71084A210000020000000E0
:1049C00000002000000000000000000000000000C7
:1049D00000000000000000000000000000000000D7
:1049E00000000000000000000000000000000000C7
:1049F00000000000000000000000000000000000B7
:104A0000000020000000A21010849EF7FFFFFFFFAF
:104A1000FFFFFFFFFFFFFFFFFFFFFFFFFFFFFFFFA6
:104A2000FFFFFFFFFFFFFFFFFFFFFFFFFFFFFFFF96
:104A3000FFFFFFFFFFFFFFFFFFFFFFFFFFFFFFFF86
:104A4000FFFFFFFFFFFFFFFFFFFFFFFFFFFFFFFF76
:104A5000FFFFFFFFFFFFFFFFFFFFFFFFFFFFFFFF66
:104A6000FFFFDFFFFFFFFFFFFFFFFFFFFFFFFFFF76
:104A7000FFFFFFFFFFFFFFFF3CE7CF7BC3180000F6
:104A80002000000000000000000000000000000006
:104A90000000000000000000000000000000000016
:104AA0000000000000000000000000000000000006
:104AB00000000000000000000000000000002000D6
:104AC0000000C318CF7B3CE7FFFFFFFFFFFFFFFFA6
:104AD000FFFFFFFFFFFFFFFFFFFFFFFFDFFFFFFF06
:104AE000FFFFFFFFFFFFFFFFFFFFFFFFFFFFFFFFD6
:104AF000FFFFFFFFFFFFFFFFFFFFFFFFFFFFFFFFC6
:104B0000FFFFFFFFFFFFFFFFFFFFFFFFFFFFFFFFB5
:104B1000FFFFFFFFFFFFFFFFFFFFFFFFFFFFFFFFA5
:104B2000FFFFFFFFFFFFFFFFFFFFFFFFFFFFFFFF95
:104B3000FFFFFFFFFFFFFFFFFFFFFFFF7DEFB294CF
:104B4000A63100000000000000000000000000008E
:104B50000000000000000000000000000000000055
:104B60000000000000000000000000000000000045
:104B70000000000000000000000000000000A6315E
:104B8000D39C5DEFFFFFFFFFFFFFFFFFFFFFFFFF76
:104B9000FFFFFFFFFFFFFFFFFFFFFFFFFFFFFFFF25
:104BA000FFFFFFFFFFFFFFFFFFFFFFFFFFFFFFFF15
:104BB000FFFFFFFFFFFFFFFFFFFFFFFFFFFFFFFF05
:104BC000FFFFFFFFFFFFFFFFFFFFFFFFFFFFFFFFF5
:104BD000FFFFFFFFFFFFFFFFFFFFFFFFFFFFFFFFE5
:104BE000FFFFFFFFFFFFFFFFFFFFFFFFFFFFFFFFD5
:104BF000FFFFFFFFFFFFFFFFFFFFFFFFFFFFFFFFC5
:104C0000FFFF38C6AE7365290000000000000000F9
:104C10000000000000000000000000000000000094
:104C20000000000000000000000000000000000084
:104C3000000000000000000065298E7338C6FFFFE9
:104C4000FFFFFFFFFFFFFFFFFFFFFFFFFFFFFFFF74
:104C5000FFFFFFFFFFFFFFFFFFFFFFFFFFFFFFFF64
:104C6000FFFFFFFFFFFFFFFFFFFFFFFFFFFFFFFF54
:104C7000FFFFFFFFFFFFFFFFFFFFFFFFFFFFFFFF44
:104C8000FFFFFFFFFFFFFFFFFFFFFFFFFFFFFFFF34
:104C9000FFFFFFFFFFFFFFFFFFFFFFFFFFFFFFFF24
:104CA000FFFFFFFFFFFFFFFFFFFFFFFFFFFFFFFF14
:104CB000FFFFFFFFFFFFFFFFFFFFFFFFFFFFFFFF04
:104CC000FFFFFFFFFFFFFFFFBAD6D39CCB5A45295A
:104CD000410820000000000000000000000000006B
:104CE000000000000000000000000000000041087B
:104CF0004529CB5AD39C9AD6DFFFFFFFFFFFFFFF6A
:104D0000FFFFFFFFFFFFFFFFFFFFFFFFFFFFFFFFB3
:104D1000FFFFFFFFFFFFFFFFFFFFFFFFFFFFFFFFA3
:104D2000FFFFFFFFFFFFFFFFFFFFFFFFFFFFFFFF93
:104D3000FFFFFFFFFFFFFFFFFFFFFFFFFFFFFFFF83
:104D4000FFFFFFFFFFFFFFFFFFFFFFFFFFFFFFFF73
:104D5000FFFFFFFFFFFFFFFFFFFFFFFFFFFFFFFF63
:104D6000FFFFFFFFFFFFFFFFFFFFFFFFFFFFFFFF53
:104D7000FFFFFFFFFFFFFFFFFFFFFFFFFFFFFFFF43
:104D8000FFFFDFFFFFFFFFFFFFFFFFFFFFFFFFFF53
:104D9000FBDE38C614A530846D6BEB5A694A494A6C
:104DA000494A8A52EB5A6D6B108414A518C6FBDE73
:104DB000DFFFFFFFFFFFFFFFFFFFFFFFFFFFFFFF23
:104DC000FFFFFFFFFFFFFFFFFFFFFFFFFFFFFFFFF3
:104DD000FFFFFFFFFFFFFFFFFFFFFFFFFFFFFFFFE3
:104DE000FFFFFFFFFFFFFFFFFFFFFFFFFFFFFFFFD3
:104DF000FFFFFFFFFFFFFFFFFFFFFFFFFFFFFFFFC3
:104E0000FFFFFFFFFFFFFFFFFFFFFFFFFFFFFFFFB2
:104E1000FFFFFFFFFFFFFFFFFFFFFFFFFFFFFFFFA2
:104E2000FFFFFFFFFFFFFFFFFFFFFFFFFFFFFFFF92
:104E3000FFFFFFFFFFFFFFFFFFFFFFFFFFFFFFFF82
:104E4000FFFFFFFFFFFFFFFFFFFFFFFFFFFFFFFF72
:104E5000FFFFFFFFFFFFFFFFFFFFFFFFFFFFFFFF62
:104E6000FFFFFFFFFFFFFFFFFFFFFFFFFFFFFFFF52
:104E7000FFFFFFFFFFFFFFFFFFFFFFFFFFFFFFFF42
:104E8000FFFFFFFFFFFFFFFFFFFFFFFFFFFFFFFF32
:104E9000FFFFFFFFFFFFFFFFFFFFFFFFFFFFFFFF22
:104EA000FFFFFFFFFFFFFFFFFFFFFFFFFFFFFFFF12
:104EB000FFFFFFFFFFFFFFFFFFFFFFFFFFFFFFFF02
:104EC000FFFFFFFFFFFFFFFFFFFFFFFFFFFFFFFFF2
:104ED000FFFFFFFFFFFFFFFFFFFFFFFFFFFFFFFFE2
:104EE000FFFFFFFFFFFFFFFFFFFFFFFFFFFFFFFFD2
:104EF000FFFFFFFFFFFFFFFFFFFFFFFFFFFFFFFFC2
:104F0000DFFFFFFFFFFFFFFFFFFFFFFFFFFFFFFFD1
:104F1000FFFFFFFFFFFFFFFFFFFFFFFFFFFFFFFFA1
:104F2000FFFFFFFFFFFFFFFFFFFFFFFFFFFFFFFF91
:104F3000FFFFFFFFFFFFFFFFFFFFFFFFFFFFFFFF81
:104F4000FFFFFFFFFFFFFFFFFFFFFFFFFFFFFFFF71
:1051C0006000000060000000FFFFFFFFFFFFFFFF27
:1051D000FFFFFFFFFFFFFFFFFFFFFFFFFFFFFFFFDF
:1051E000FFFFFFFFFFFFFFFFFFFFFFFFFFFFFFFFCF
:1051F000FFFFFFFFFFFFFFFFFFFFFFFFFFFFFFFFBF
:10520000FFFFFFFFFFFFFFFFFFFFFFFFFFFFFFFFAE
:105F7000FFFFFFFFFFFFFFFFB6B53084518C518C50
:105F8000518C518C518C518C518C518C518C518C29
:105F9000518C518C518C79CEFFFFFFFFFFFFFFFF2B
:105FA000FFFFFFFFFFFFFFFFFFFFFFFFFFFFFFFF01
:105FB000FFFFFFFFFFFFFFFFFFFFFFFFFFFFFFFFF1
:105FC000FFFFBAD6518C518C518C518C518C518C15
:105FD000B294FFFFFFFFFFFFFFFFFFFFFFFFFFFF89
:105FE000FFFFFFFFFFFFFFFFFFFFFFFFFFFFFFFFC1
:105FF000FFFFFFFFFFFFFFFFFFFFFFFFFFFFFFFFB1
:10600000FFFFFFFFFFFFFFFFFFFFFFFFFFFFFFFFA0
:10601000FFFFFFFFFFFFFFFFFFFFFFFFFFFFFFFF90
:10602000FFFFFFFFFFFFFFFFFFFFFFFFFFFFFFFF80
:10603000FFFFFFFFFFFFFFFFD7BD000000000000D4
:106040000000000000000000000000000000000050
:10605000000000000000C739FFFFFFFFFFFFFFFF48
:10606000FFFFFFFFFFFFFFFFFFFFFFFFFFFFFFFF40
:10607000FFFFFFFFFFFFFFFFFFFFFFFFFFFFFFFF30
:10608000DFFF86310000000000000000000000007B
:106090003084FFFFFFFFFFFFFFFFFFFFFFFFFFFF5A
:1060A000FFFFFFFFFFFFFFFFFFFFFFFFFFFFFFFF00
:1060B000FFFFFFFFFFFFFFFFFFFFFFFFFFFFFFFFF0
:1060C000FFFFFFFFFFFFFFFFFFFFFFFFFFFFFFFFE0
:1060D000FFFFFFFFFFFFFFFFFFFFFFFFFFFFFFFFD0
:1060E000FFFFFFFFFFFFFFFFFFFFFFFFFFFFFFFFC0
:1060F000FFFFFFFFFFFFFFFFFFFFCB5A0000000085
:10610000000000000000000000000000000000008F
:10611000000000000000000034A5FFFFFFFFFFFFAC
:10612000FFFFFFFFFFFFFFFFFFFFFFFFFFFFFFFF7F
:10613000FFFFFFFFFFFFFFFFFFFFFFFFFFFFFFFF6F
:106140003084000000000000000000000000C7399B
:10615000FFFFFFFFFFFFFFFFFFFFFFFFFFFFFFFF4F
:10616000FFFFFFFFFFFFFFFFFFFFFFFFFFFFFFFF3F
:10617000FFFFFFFFFFFFFFFFFFFFFFFFFFFFFFFF2F
:10618000FFFFFFFFFFFFFFFFFFFFFFFFFFFFFFFF1F
:10619000FFFFFFFFFFFFFFFFFFFFFFFFFFFFFFFF0F
:1061A000FFFFFFFFFFFFFFFFFFFFFFFFFFFFFFFFFF
:1061B000FFFFFFFFFFFFFFFFFFFFFBDE61080000A7
:1061C00000000000000000000000000000000000CF
:1061D00000000000000000002421BEF7FFFFFFFFC9
:1061E000FFFFFFFFFFFFFFFFFFFFFFFFFFFFFFFFBF
:1061F000FFFFFFFFFFFFFFFFFFFFFFFFFFFFBAD61D
:1062000061080000000000000000000041089AD66C
:10621000FFFFFFFFFFFFFFFFFFFFFFFFFFFFFFFF8E
:10622000FFFFFFFFFFFFFFFFFFFFFFFFFFFFFFFF7E
:10623000FFFFFFFFFFFFFFFFFFFFFFFFFFFFFFFF6E
:10624000FFFFFFFFFFFFFFFFFFFFFFFFFFFFFFFF5E
:10625000FFFFFFFFFFFFFFFFFFFFFFFFFFFFFFFF4E
:10626000FFFFFFFFFFFFFFFFFFFFFFFFFFFFFFFF3E
:10627000FFFFFFFFFFFFFFFFFFFFFFFFAE73000009
:10628000000000000000000000000000000000000E
:1062900000000000000000000000718CFFFFFFFF05
:1062A000FFFFFFFFFFFFFFFFFFFFFFFFFFFFFFFFFE
:1062B000FFFFFFFFFFFFFFFFFFFFFFFFFFFF284282
:1062C0000000000000000000000000003084FFFF1C
:1062D000FFFFFFFFFFFFFFFFFFFFFFFFFFFFFFFFCE
:1062E000FFFFFFFFFFFFFFFFFFFFFFFFFFFFFFFFBE
:1062F000FFFFFFFFFFFFFFFFFFFFFFFFFFFFFFFFAE
:10630000FFFFFFFFFFFFFFFFFFFFFFFFFFFFFFFF9D
:10631000FFFFFFFFFFFFFFFFFFFFFFFFFFFFFFFF8D
:10632000FFFFFFFFFFFFFFFFFFFFFFFFFFFFFFFF7D
:10633000FFFFFFFFFFFFFFFFFFFFFFFF7DEFE31802
:10634000000000000000000020002000000000000D
:106350000000000000000000000082105DEFFFFF61
:10636000FFFFFFFFFFFFFFFFFFFFFFFFFFFFFFFF3D
:10637000FFFFFFFFFFFFFFFFFFFFFFFFD39C0000BA
:10638000000000000000000000008631DFFFFFFF7A
:10639000FFFFFFFFFFFFFFFFFFFFFFFFFFFFFFFF0D
:1063A000FFFFFFFFFFFFFFFFFFFFFFFFFFFFFFFFFD
:1063B000FFFFFFFFFFFFFFFFFFFFFFFFFFFFFFFFED
:1063C000FFFFFFFFFFFFFFFFFFFFFFFFFFFFFFFFDD
:1063D000FFFFFFFFFFFFFFFFFFFFFFFFFFFFFFFFCD
:1063E000FFFFFFFFFFFFFFFFFFFFFFFFFFFFFFFFBD
:1063F000FFFFFFFFFFFFFFFFFFFFFFFFFFFFB29465
:106400000000000000000000821038C6BAD6BAD6DC
:10641000BAD6AA520000000000000000AE73FFFFD1
:10642000FFFFFFFFFFFFFFFFFFFFFFFFFFFFFFFF7C
:10643000FFFFFFFFFFFFFFFFFFFF1CE761080000FA
:106440000000000000000000000018C6FFFFFFFF72
:10645000FFFFFFFFFFFFFFFFFFFFFFFFFFFFFFFF4C
:10646000FFFFFFFFFFFFFFFFFFFFFFFFFFFFFFFF3C
:10647000FFFFFFFFFFFFFFFFFFFFFFFFFFFFFFFF2C
:10648000FFFFFFFFFFFFFFFFFFFFFFFFFFFFFFFF1C
:10649000FFFFFFFFFFFFFFFFFFFFFFFFFFFFFFFF0C
:1064A000FFFFFFFFFFFFFFFFFFFFFFFFFFFFFFFFFC
:1064B000FFFFFFFFFFFFFFFFFFFFFFFFFFFFDFFF0C
:1064C000652900000000000000003084FFFFFFFF8E
:1064D000FFFFFBDE61080000000000004108DBDE7A
:1064E000FFFFFFFFFFFFFFFFFFFFFFFFFFFFFFFFBC
:1064F000FFFFFFFFFFFFFFFFFFFFAA5200000000AA
:1065000000000000000000004D6BFFFFFFFFFFFFD9
:10651000FFFFFFFFFFFFFFFFFFFFFFFFFFFFFFFF8B
:10652000FFFFFFFFFFFFFFFFFFFFFFFFFFFFFFFF7B
:10653000FFFFFFFFFFFFFFFFFFFFFFFFFFFFFFFF6B
:10654000FFFFFFFFFFFFFFFFFFFFFFFFFFFFFFFF5B
:10655000FFFFFFFFFFFFFFFFFFFFFFFFFFFFFFFF4B
:10656000FFFFFFFFFFFFFFFFFFFFFFFFFFFFFFFF3B
:10657000FFFFFFFFFFFFFFFFFFFFFFFFFFFFFFFF2B
:1065800096B500000000000000006108DBDEFFFFA0
:10659000FFFFFFFFAE730000000000000000EB5A99
:1065A000FFFFFFFFFFFFFFFFFFFFFFFFFFFFFFFFFB
:1065B000FFFFFFFFFFFFFFFF55AD000000000000E1
:1065C00000000000000004217DEFFFFFFFFFFFFF40
:1065D000FFFFFFFFFFFFFFFFFFFFFFFFFFFFFFFFCB
:1065E000FFFFFFFFFFFFFFFFFFFFFFFFFFFFFFFFBB
:1065F000FFFFFFFFFFFFFFFFFFFFFFFFFFFFFFFFAB
:10660000FFFFFFFFFFFFFFFFFFFFFFFFFFFFFFFF9A
:10661000FFFFFFFFFFFFFFFFFFFFFFFFFFFFFFFF8A
:10662000FFFFFFFFFFFFFFFFFFFFFFFFFFFFFFFF7A
:10663000FFFFFFFFFFFFFFFFFFFFFFFFFFFFFFFF6A
:10664000FFFF08420000000000000000EB5AFFFFBF
:10665000FFFFFFFF5DEFC318000000000000000017
:1066600038C6FFFFFFFFFFFFFFFFFFFFFFFFFFFF3A
:10667000FFFFFFFFFFFF5DEFE318000000000000D9
:1066800000000000000096B5FFFFFFFFFFFFFFFFC7
:10669000FFFFFFFFFFFFFFFFFFFFFFFFFFFFFFFF0A
:1066A000FFFFFFFFFFFFFFFFFFFFFFFFFFFFFFFFFA
:1066B000FFFFFFFFFFFFFFFFFFFFFFFFFFFFFFFFEA
:1066C000FFFFFFFFFFFFFFFFFFFFFFFFFFFFFFFFDA
:1066D000FFFFFFFFFFFFFFFFFFFFFFFFFFFFFFFFCA
:1066E000FFFFFFFFFFFFFFFFFFFFFFFFFFFFFFFFBA
:1066F000FFFFFFFFFFFFFFFFFFFFFFFFFFFFFFFFAA
:10670000FFFF59CE0000000000000000000038C666
:10671000FFFFFFFFFFFF9294000000000000000059
:106720002842FFFFFFFFFFFFFFFFFFFFFFFFFFFF0D
:10673000FFFFFFFFFFFFEB5A00000000000000001A
:1067400000000000AA52FFFFFFFFFFFFFFFFFFFF57
:10675000FFFFFFFFFFFFFFFFFFFFFFFFFFFFFFFF49
:10676000FFFFFFFFFFFFFFFFFFFFFFFFFFFFFFFF39
:10677000FFFFFFFFFFFFFFFFFFFFFFFFFFFFFFFF29
:10678000FFFFFFFFFFFFFFFFFFFFFFFFFFFFFFFF19
:10679000FFFFFFFFFFFFFFFFFFFFFFFFFFFFFFFF09
:1067A000FFFFFFFFFFFFFFFFFFFFFFFFFFFFFFFFF9
:1067B000FFFFFFFFFFFFFFFFFFFFFFFFFFFFFFFFE9
:1067C000FFFFFFFFCB5A000000000000000008425E
:1067D000FFFFFFFFFFFFBEF745290000000000009C
:1067E000000096B5FFFFFFFFFFFFFFFFFFFFFFFF6A
:1067F000FFFFFFFFD7BD0000000000000000000009
:10680000000082101CE7FFFFFFFFFFFFFFFFFFFFFD
:10681000FFFFFFFFFFFFFFFFFFFFFFFFFFFFFFFF88
:10682000FFFFFFFFFFFFFFFFFFFFFFFFFFFFFFFF78
:10683000FFFFFFFFFFFFFFFFFFFFFFFFFFFFFFFF68
:10684000FFFFFFFFFFFFFFFFFFFFFFFFFFFFFFFF58
:10685000FFFFFFFFFFFFFFFFFFFFFFFFFFFFFFFF48
:10686000FFFFFFFFFFFFFFFFFFFFFFFFFFFFFFFF38
:10687000FFFFFFFFFFFFFFFFFFFFFFFFFFFFFFFF28
:10688000FFFFFFFFFBDE61080000000000000000CA
:1068900075ADFFFFFFFFFFFF55AD000000000000DA
:1068A00000008631DFFFFFFFFFFFFFFFFFFFFFFF5D
:1068B000FFFF9EF724210000000000000000000000
:1068C0000000F39CFFFFFFFFFFFFFFFFFFFFFFFF45
:1068D000FFFFFFFFFFFFFFFFFFFFFFFFFFFFFFFFC8
:1068E000FFFFFFFFFFFFFFFFFFFFFFFFFFFFFFFFB8
:1068F000FFFFFFFFFFFFFFFFFFFFFFFFFFFFFFFFA8
:10690000FFFFFFFFFFFFFFFFFFFFFFFFFFFFFFFF97
:10691000FFFFFFFFFFFFFFFFFFFFFFFFFFFFFFFF87
:10692000FFFFFFFFFFFFFFFFFFFFFFFFFFFFFFFF77
:10693000FFFFFFFFFFFFFFFFFFFFFFFFFFFFFFFF67
:10694000FFFFFFFFFFFF8E7300000000000000004C
:106950004529DFFFFFFFFFFFFFFFC73900000000F1
:1069600000000000D39CFFFFFFFFFFFFFFFFFFFFC2
:10697000FFFFAE73000000000000000000000000F8
:106980000842FFFFFFFFFFFFFFFFFFFFFFFFFFFFCB
:10699000FFFFFFFFFFFFFFFFFFFFFFFFFFFFFFFF07
:1069A000FFFFFFFFFFFFFFFFFFFFFFFFFFFFFFFFF7
:1069B000FFFFFFFFFFFFFFFFFFFFFFFFFFFFFFFFE7
:1069C000FFFFFFFFFFFFFFFFFFFFFFFFFFFFFFFFD7
:1069D000FFFFFFFFFFFFFFFFFFFFFFFFFFFFFFFFC7
:1069E000FFFFFFFFFFFFFFFFFFFFFFFFFFFFFFFFB7
:1069F000FFFFFFFFFFFFFFFFFFFFFFFFFFFFFFFFA7
:106A0000FFFFFFFFFFFF7DEFC31800000000000045
:106A100000009294FFFFFFFFFFFF18C60000000078
:106A200000000000E3189EF7FFFFFFFFFFFFFFFFDE
:106A300038C6000000000000000000000000200038
:106A4000BAD6FFFFFFFFFFFFFFFFFFFFFFFFFFFFC4
:106A5000FFFFFFFFFFFFFFFFFFFFFFFFFFFFFFFF46
:106A6000FFFFFFFFFFFFFFFFFFFFFFFFFFFFFFFF36
:106A7000FFFFFFFFFFFFFFFFFFFFFFFFFFFFFFFF26
:106A8000FFFFFFFFFFFFFFFFFFFFFFFFFFFFFFFF16
:106A9000FFFFFFFFFFFFFFFFFFFFFFFFFFFFFFFF06
:106AA000FFFFFFFFFFFFFFFFFFFFFFFFFFFFFFFFF6
:106AB000FFFFFFFFFFFFFFFFFFFFFFFFFFFFFFFFE6
:106AC000FFFFFFFFFFFFFFFFB29400000000000088
:106AD0000000A2105DEFFFFFFFFFFFFF8A520000E2
:106AE0000000000000001084FFFFFFFFFFFFBEF763
:106AF0006529000000000000000000000000108474
:106B0000FFFFFFFFFFFFFFFFFFFFFFFFFFFFFFFF95
:106B1000FFFFFFFFFFFFFFFFFFFFFFFFFFFFFFFF85
:106B2000FFFFFFFFFFFFFFFFFFFFFFFFFFFFFFFF75
:106B3000FFFFFFFFFFFFFFFFFFFFFFFFFFFFFFFF65
:106B4000FFFFFFFFFFFFFFFFFFFFFFFFFFFFFFFF55
:106B5000FFFFFFFFFFFFFFFFFFFFFFFFFFFFFFFF45
:106B6000FFFFFFFFFFFFFFFFFFFFFFFFFFFFFFFF35
:106B7000FFFFFFFFFFFFFFFFFFFFFFFFFFFFFFFF25
:106B8000FFFFFFFFFFFFFFFFDFFF652900000000A1
:106B900000000000CF7BFFFFFFFFFFFFBAD6000021
:106BA00000000000000082101CE7FFFFFFFF1084C0
:106BB000000000000000000000000000A631DFFF20
:106BC000FFFFFFFFFFFFFFFFFFFFFFFFFFFFFFFFD5
:106BD000FFFFFFFFFFFFFFFFFFFFFFFFFFFFFFFFC5
:106BE000FFFFFFFFFFFFFFFFFFFFFFFFFFFFFFFFB5
:106BF000FFFFFFFFFFFFFFFFFFFFFFFFFFFFFFFFA5
:106C0000FFFFFFFFFFFFFFFFFFFFFFFFFFFFFFFF94
:106C1000FFFFFFFFFFFFFFFFFFFFFFFFFFFFFFFF84
:106C2000FFFFFFFFFFFFFFFFFFFFFFFFFFFFFFFF74
:106C3000FFFFFFFFFFFFFFFFFFFFFFFFFFFFFFFF64
:106C4000FFFFFFFFFFFFFFFFFFFF75AD000000002C
:106C5000000000004108DBDEFFFFFFFFFFFF4D6B80
:106C600000000000000000002C63FFFF9AD64108DE
:106C700000000000000000000000200059CEFFFFCF
:106C8000FFFFFFFFFFFFFFFFFFFFFFFFFFFFFFFF14
:106C9000FFFFFFFFFFFFFFFFFFFFFFFFFFFFFFFF04
:106CA000FFFFFFFFFFFFFFFFFFFFFFFFFFFFFFFFF4
:106CB000FFFFFFFFFFFFFFFFFFFFFFFFFFFFFFFFE4
:106CC000FFFFFFFFFFFFFFFFFFFFFFFFFFFFFFFFD4
:106CD000FFFFFFFFFFFFFFFFFFFFFFFFFFFFFFFFC4
:106CE000FFFFFFFFFFFFFFFFFFFFFFFFFFFFFFFFB4
:106CF000FFFFFFFFFFFFFFFFFFFFFFFFFFFFFFFFA4
:106D0000FFFFFFFFFFFFFFFFFFFFFFFF0842000045
:106D1000000000000000EB5AFFFFFFFFFFFF3CE711
:106D20008210000000000000410879CE694A00008E
:106D300000000000000000000000AE73FFFFFFFF36
:106D4000FFFFFFFFFFFFFFFFFFFFFFFFFFFFFFFF53
:106D5000FFFFFFFFFFFFFFFFFFFFFFFFFFFFFFFF43
:106D6000FFFFFFFFFFFFFFFFFFFFFFFFFFFFFFFF33
:106D7000FFFFFFFFFFFFFFFFFFFFFFFFFFFFFFFF23
:106D8000FFFFFFFFFFFFFFFFFFFFFFFFFFFFFFFF13
:106D9000FFFFFFFFFFFFFFFFFFFFFFFFFFFFFFFF03
:106DA000FFFFFFFFFFFFFFFFFFFFFFFFFFFFFFFFF3
:106DB000FFFFFFFFFFFFFFFFFFFFFFFFFFFFFFFFE3
:106DC000FFFFFFFFFFFFFFFFFFFFFFFF59CE0000A8
:106DD000000000000000000038C6FFFFFFFFFFFFBB
:106DE00010840000000000000000A210000000005D
:106DF000000000000000000004219EF7FFFFFFFFDD
:106E0000FFFFFFFFFFFFFFFFFFFFFFFFFFFFFFFF92
:106E1000FFFFFFFFFFFFFFFFFFFFFFFFFFFFFFFF82
:106E2000FFFFFFFFFFFFFFFFFFFFFFFFFFFFFFFF72
:106E3000FFFFFFFFFFFFFFFFFFFFFFFFFFFFFFFF62
:106E4000FFFFFFFFFFFFFFFFFFFFFFFFFFFFFFFF52
:106E5000FFFFFFFFFFFFFFFFFFFFFFFFFFFFFFFF42
:106E6000FFFFFFFFFFFFFFFFFFFFFFFFFFFFFFFF32
