:020000040800F2
:1000000000060020950100089D0100089F010008DE
:10001000A1010008A3010008A501000800000000DC
:10002000000000000000000000000000A701000820
:10003000A901000800000000AB010008AD010008A4
:10004000AF010008AF010008AF010008AF010008D0
:10005000AF010008AF010008AF010008AF010008C0
:10006000AF010008AF010008AF010008AF010008B0
:10007000AF010008AF010008AF010008AF010008A0
:10008000AF010008AF010008AF0100080000000048
:10009000000000000000000000000000AF010008A8
:1000A000AF010008AF010008AF010008AF01000870
:1000B000AF010008AF010008AF010008AF01000860
:1000C000AF010008AF010008AF010008AF01000850
:1000D000AF010008AF010008AF01000800000000F8
:1000E000AF010008AF010008AF01000800000000E8
:1000F000000000000000000000000000AF01000848
:1001000000000000AF010008AF010008AF010008C7
:1001100000000000000000000000000000000000DF
:10012000AF010008AF010008AF010008AF010008EF
:10013000AF01000800000000000000000000000007
:10014000000000000000000000000000AF010008F7
:10015000AF010008AF010008AF010008AF010008BF
:10016000AF010008AF01000800000000000000001F
:10017000000000000000000000000000000000007F
:1001800000000000AF0100080000000000000000B7
:10019000AF0100080948804709480047FEE7FEE72D
:1001A000FEE7FEE7FEE7FEE7FEE7FEE7FEE7FEE727
:1001B00004480549054A064B70470000DD01000868
:1001C0005503000800000020000600200002002067
:1001D0000002002070477047704700004EF68851BB
:1001E000CEF20001086840F470000860704700001B
:1001F00007B5474801684FF0010241EA020101607A
:10020000434801684FF0010241EA42010160404861
:1002100001684FF0010241EA820101603D484FF060
:10022000553202603C484FF0553202603B484FF077
:10023000553202603A484FF0FF32026039484FF0C1
:10024000FF32026038484FF0FF32026037484FF00B
:100250000002026036484FF00002026035484FF05D
:100260000002026034484FF05532026033484FF0CC
:100270005532026032484FF05532026031484FF03B
:10028000FF31016030484FF0FF3101602F484FF0DF
:10029000FF31016007BD2DE9FF5F2A484FF00002E2
:1002A0004FF0010101FA02F1016000F02AF802F1B9
:1002B0000102102AF4DBBDE8FF9F2DE9FF5F224811
:1002C0004FF000024FF0010101FA02F1016000F06D
:1002D00018F802F10102102AF4DBBDE8FF9F2DE9B6
:1002E000FF5F1A484FF000024FF0010101FA02F1DE
:1002F000016000F006F802F10102102AF4DBBDE80B
:10030000FF9F01B5124802380028FCDC01BD000047
:100310003038024000000240000402400008024061
:10032000080002400804024008080240040002409D
:1003300004040240040802400C0002400C04024085
:100340000C08024014000240140402401408024049
:0803500004605600FFF74CFFAA
:040000050800019559
:00000001FF
