:020000040800F2
:10000000A8060020090400081104000813040008D1
:100010001504000817040008190400080000000077
:100020000000000000000000000000001B040008A9
:100030001D040008000000001F040008210400083F
:1000400023040008230400082304000823040008F4
:1000500023040008230400082304000823040008E4
:1000600023040008230400082304000823040008D4
:1000700023040008230400082304000823040008C4
:1000800023040008230400082304000800000000E3
:100090000000000000000000000000002304000831
:1000A0002304000823040008230400082304000894
:1000B0002304000823040008230400082304000884
:1000C0002304000823040008230400082304000874
:1000D0002304000823040008230400080000000093
:1000E0002304000823040008230400080000000083
:1000F00000000000000000000000000023040008D1
:100100000000000023040008230400082304000862
:1001100000000000000000000000000000000000DF
:100120002304000823040008230400082304000813
:100130002304000800000000000000000000000090
:100140000000000000000000000000002304000880
:1001500023040008230400082304000823040008E3
:100160002304000823040008000000000000000031
:10017000000000000000000000000000000000007F
:100180000000000023040008000000000000000040
:10019000230400082DE9FF5F4FF000064FF4A0771D
:1001A0004FF000084FF4F0794FF4784B00F056FA16
:1001B0004FF0000B4FF000014FF00003502B1BD00D
:1001C0008F4850F803904FF000044FF00002202CAD
:1001D0000DD04FF0010A0AFA04FA19EA0A0F01D009
:1001E00000F07CF802F1100204F10104EFE701F1E4
:1001F000100103F10403E1E74FF000064FF0100790
:100200004FF4E0784FF4E8794FF4FC6B00F026FAF5
:100210004FF498764FF4A0774FF010084FF0200974
:100220004FF01F0B00F01AFABDE8FF9F2DE9FF5FAA
:100230004FF4FC6B01F1000601F1050702F105081E
:1002400002F1070900F00AFA01F1000601F10507C1
:1002500002F1090802F10B0900F000FA01F10506AC
:1002600001F10B0702F1050802F10B0900F0F6F9A4
:1002700001F10B0601F10C0702F1030802F10D096F
:1002800000F0ECF901F1070601F10B0702F1030898
:1002900002F1040900F0E2F901F1070601F10B0790
:1002A00002F10C0802F10D0900F0D8F901F10C0679
:1002B00001F1100702F1060802F10A0900F0CEF977
:1002C0004FF4784B01F10E0601F10F0702F1070818
:1002D00002F1090900F0C2F9BDE8FF9F2DE9FF5FB7
:1002E0000E4601F11007904602F1100900F0B6F930
:1002F000BDE8FF9F2DE9F04141484FEA53144FEA12
:10030000840403F01F05065926FA05F616F0010FBE
:1003100006D040F26128434505D04FF0000004E0CC
:100320004FF0020001E04FF00100BDE8F0812DE93F
:10033000F75F4FEA531603F01F074FEA06114FEA23
:1003400007124FF0000BFFF7C9FFD4460CF00F0C5B
:10035000BCF1010F09D0BCF1020F0ED0BCF1040FAB
:1003600019D0BCF1080F0FD01DE0B2F5E87F1AD00C
:1003700002F1100203F1010315E0002A13D0A2F1EB
:100380001002A3F101030EE000290CD0A1F110012D
:10039000A3F1200307E0B1F5A07F04D001F1100123
:1003A00003F12003FFE7FFF741FFBDE8F79F2DE9C9
:1003B000FF5F144B1B684FF00000FFF7EBFE00F0EF
:1003C00099F90AF02F0ABAF1200F17D0BAF1000FED
:1003D000F5D0FFF7ACFFFFF78DFF012802D0022810
:1003E000E7D0ECE74FF000064FF4A0774FF000089D
:1003F0004FF4F0794FF4FC6B00F030F9BDE8FF9F4B
:10040000706E0108C06E010809488047094800471E
:10041000FEE7FEE7FEE7FEE7FEE7FEE7FEE7FEE7B4
:10042000FEE7FEE704480549054A064B7047000011
:1004300051040008A9210008A8000020A8060020F7
:10044000A8020020A80200207047704770470000F3
:100450004EF68851CEF20001086840F47000086042
:100460007047000003B53148016841F007010160A1
:100470002F484FF0553101602E484FF0FF31016099
:100480002D484FF0000101602C484FF055310160BC
:100490002B484FF0000101602A484FF0FF31016006
:1004A00029484FF00001016028484FF055310160A4
:1004B00003BD06B526490A6822F400420A6022F408
:1004C00080520A6042F480620A6022F0FF0200F06B
:1004D000FF0042EA00020A6022F400620A6042F46D
:1004E00000620A6042F400420A6006BD704706B529
:1004F00017490A6822F400420A6042F480520A60F6
:1005000042F480620A6022F0FF0200F0FF0042EA3B
:1005100000020A6022F400620A6042F400620A608B
:1005200042F400420A6006BD7047000030380240C5
:100530000000024008000240040002400C0002409B
:100540000004024008040240040402400C0402407B
:100550001400024007B57F490A6822F480720A60DD
:1005600000F0DAF842F480720A6000F0D5F84FF03B
:100570003A00FFF79EFF4FF05500FFF7B8FF4FF02E
:10058000C500FFF796FF4FF05400FFF7B0FF4FF0A4
:100590000000FFF7ACFF4FF03600FFF78AFF4FF087
:1005A0000800FFF7A4FF4FF01100FFF782FF00F0F3
:1005B000B3F84FF02900FFF77CFF07BD70472DE926
:1005C000FF5F53F8044B53F8045B4FF02A00FFF72A
:1005D00070FF4FEA1120FFF78AFFC8B2FFF787FFCD
:1005E00001EB0400A0F101004FEA1020FFF77FFFAC
:1005F00001EB0400A0F10100FFF779FF4FF02B00A1
:10060000FFF757FF4FEA1220FFF771FFD0B2FFF755
:100610006EFF02EB0500A0F101004FEA1020FFF78A
:1006200066FF02EB0500A0F10100FFF760FF4FF04D
:100630002C00FFF73EFF04FB05F633F8020B4FEAF0
:10064000102100F0FF020846FFF751FF1046FFF7A8
:100650004EFF761EF1D1BDE8FF9F70472DE93E5C4D
:100660005D464FF02A00FFF724FFB2464FEA1A2AF0
:100670005046FFF73CFF3046FFF739FFBA464FEAD6
:100680001A2A5046FFF733FF3846FFF730FF4FF086
:100690002B00FFF70EFFC2464FEA1A2A5046FFF71B
:1006A00026FF4046FFF723FFCA464FEA1A2A504664
:1006B000FFF71DFF4846FFF71AFF4FF02C00FFF72A
:1006C000F8FE4FEA152105F0FF02A7EB060B0BF130
:1006D0000A0BA9EB080C0CF10A0C0BFB0CF30846F7
:1006E000FFF705FF1046FFF702FF5B1EF7D1BDE8DD
:1006F0003E9C704702B54FF0000A1748D0F800A0A2
:100700004FF00A0000F008F802BD02B54FF0000AF1
:100710001148D0F800A002BD2DE9FF5F0F49091A6A
:100720000029FCDCBDE8FF9F02B50D4908680028E0
:1007300008BF012080EA403080EA504080EA401043
:10074000086002BD07480068002808BF012004496E
:100750000AE0000014000240100402400460560049
:100760000400002018E000E0086070472DE9E05325
:10077000A94604EB030505EB830500F013F800F030
:1007800041F807464FF0000627FA06FC0CF0FF0C74
:1007900000F081F82A4406F10806B9F10109F3D105
:1007A000BDE8E0933EB501464FF000024FF0100364
:1007B000144604F00F05052D28BFD21C04F0F005E7
:1007C0004FEA1515052D28BF303204F470654FEA45
:1007D0001525052D28BF02F5407204F470454FEA37
:1007E0001535052D28BF02F540524FEA420211F49B
:1007F000004F18BF42F001024FEA41015B1ED7D102
:1008000010463EBD7EB54FF000024FF000014FF0A4
:10081000040300F00F04002C14D0012C15D0022C7E
:1008200016D0032C17D0042C18D0052C19D0062C68
:100830001AD0072C1BD0082C1CD0092C1DD04FF02F
:1008400000051CE04FF03F0519E04FF0060516E0EB
:100850004FF05B0513E04FF04F0510E04FF06605D9
:100860000DE04FF06D050AE04FF07D0507E04FF019
:10087000070504E04FF07F0501E04FF06F0505FA32
:1008800001F642EA060201F108014FEA10105B1E70
:10089000BFD110467EBD2DE9E0431CF0010F0CD006
:1008A00002EB030808EB040901EB03061E4426448F
:1008B000264406EB0307FFF7D1FE1CF0020F0DD014
:1008C000904602EB030901EB04061E441E4401EBB3
:1008D00003071F4427442744FFF7C0FE1CF0040F02
:1008E00008D0904608EB030901EB030606EB04076A
:1008F000FFF7B4FE1CF0080F08D002EB030808EB6A
:1009000004090E4601EB0307FFF7A8FE1CF0100FC9
:100910000AD002EB0308A04408EB030901EB03062D
:1009200006EB0407FFF79AFE1CF0200F0FD002EB36
:100930000308A04408EB030901EB03061E44264408
:1009400001EB03071F4427442744FFF787FE1CF0F1
:10095000400F0AD002EB030808EB040901EB030681
:10096000264406EB0307FFF779FEBDE8E0832DE997
:10097000FF5F4FF000064FF4A0774FF000084FF4F0
:10098000F0794FF6FF7BFFF769FE40F2FF7B4FF0F7
:1009900000064FF00A074FF000084FF4F079FFF718
:1009A0005DFE4FF49B764FF4A0774FF000084FF4B4
:1009B000F079FFF753FE4FF000064FF4A0774FF0A9
:1009C00000084FF00A09FFF749FE4FF000064FF408
:1009D000A0774FF4EB784FF4F079FFF73FFE40F249
:1009E000FF7B4FF023064FF087074FF073084FF05F
:1009F000D709FFF733FE4FF0000B314642464FF068
:100A00000A034FF06E0400F0C5F831464246774BBA
:100A1000FFF7D5FD40F2FF7B4FF0B90640F21D17FE
:100A20004FF073084FF0D709FFF718FE31464246E2
:100A30006F4BFFF7C4FD4FF0000B314642464FF0BD
:100A40000A034FF06E0400F0A5F840F2FF7B4FF070
:100A500023064FF0870740F2091840F26D19FFF79F
:100A6000FDFD31464246634BFFF7A9FD4FF0000BF9
:100A7000314642464FF00A034FF06E0400F08AF808
:100A800040F2FF7B4FF0B90640F21D1740F2091803
:100A900040F26D19FFF7E2FD31464246564BFFF733
:100AA0008EFD4FF0000B314642464FF00A034FF0E7
:100AB0006E0400F06FF84FF0B90140F209124FF0E8
:100AC0000A034FF06E044FF6E07B00F063F8FFF787
:100AD00011FE0AF01F0ABAF1000FF8D0BAF1100F98
:100AE00002D000F01DF8F2E7B92901D0232905D082
:100AF00040F2091C624507D0732A08D040F2091C55
:100B0000624507D0732A08D000F00EFB31E700F0F1
:100B100000FE2EE7FFF74BFC2BE701F0F1F928E789
:100B20002DE918584FF0000B4FF06E044FF00A03F8
:100B300000F030F8D4460CF00F0CBCF1040F09D0D3
:100B4000BCF1080F0BD0BCF1010F12D0BCF1020FA9
:100B50000AD015E0B92913D001F1960110E023293C
:100B60000ED0A1F196010BE0732A09D0A2F19602F2
:100B700006E040F2091C624502D002F19602FFE74E
:100B80004FF6E07B4FF00A034FF06E0400F002F8DE
:100B9000BDE818982DE9FF5FA4EB030AA1EB03065B
:100BA0000F46A2EB030802EB0409FFF757FDA1EB88
:100BB000030601EB0407A2EB03089146FFF74EFD85
:100BC000A1EB030601EB040702EB0A0802EB0409A0
:100BD000FFF744FD01EB0A0601EB0407A2EB030853
:100BE00002EB0409FFF73AFDBDE8FF9F80350008DE
:100BF000A8830008F81F0108D0D100082DE9FF479D
:100C00004FF000064FF4A0774FF000084FF4F07952
:100C10004FF0000BFFF722FD4FF008064FF49C77D2
:100C20004FF008084FF49C794FF6FF7BFFF716FD55
:100C30004FF068064FF070074FF008084FF49C79AA
:100C40004FF0000BFFF70AFD4FF0D0064FF0D8072A
:100C50004FF008084FF49C794FF0000BFFF7FEFCB3
:100C60004FF008064FF49C774FF068084FF070097A
:100C70004FF0000BFFF7F2FC4FF008064FF49C77A3
:100C80004FF0D0084FF0D8094FF0000BFFF7E6FC0B
:100C90004FF0000BFFF7E2FC4FF098064FF0A8076B
:100CA0004FF4A4784FF4E8794FF4FC6BFFF7D6FCCF
:100CB0004FF4BE724FF050014FF032034FF4FC6B13
:100CC00000F080FA8E4800684FF4BE724FF01E01AB
:100CD0004FF002034FF010044FF00205FFF746FDFE
:100CE0004FF4BE724FF0FA014FF032034FF4FC6B39
:100CF00000F0A0FA834800684FF4BE724FF0C801BC
:100D00004FF002034FF010044FF00205FFF72EFDE5
:100D1000BDE8FF4770472DE9FF5FA1F108060F46C8
:100D2000A2F1080802F16809FFF798FCA1F1080692
:100D300001F16807A2F108089146FFF78FFCA1F1C5
:100D4000080601F1680702F1600802F16809FFF77F
:100D500085FC01F1600601F16807A2F1080802F1C3
:100D60006809FFF77BFCBDE8FF9F2DE900584FF0B5
:100D7000000BFFF7D0FFD4460CF00F0CBCF1010FB5
:100D800009D0BCF1020F0BD0BCF1040F12D0BCF1A2
:100D9000080F0AD013E0D82A11D002F168020EE041
:100DA000082A0CD0A2F1680209E0082907D0A1F1B5
:100DB000680104E0D82902D001F16801FFE74FF68D
:100DC000E07BFFF7A8FFBDE800982DE9FF5F4FF03B
:100DD000000C082909D070290AD0D8290BD0082A7C
:100DE0000CD0702A0DD0D82A0ED00CF1010CF6E7E9
:100DF0000CF1020CF3E70CF1040CF0E70CF1080C19
:100E000005E00CF1100C02E00CF1200CFFE7BCF146
:100E1000240F17D0BCF1220F17D0BCF1210F17D02F
:100E2000BCF1140F17D0BCF1120F17D0BCF1110F89
:100E300017D0BCF10C0F17D0BCF10A0F17D0BCF1C2
:100E4000090F17D04FF0010C17E04FF0020C14E01F
:100E50004FF0030C11E04FF0040C0EE04FF0050CC6
:100E60000BE04FF0060C08E04FF0070C05E04FF0E8
:100E7000080C02E04FF0090CFFE7DFF88CB0DBF85C
:100E800000B04FEA4C04A4F102044FF0030505FA48
:100E900004F50BEA050525FA04F5022D5CD0012DB9
:100EA0005AD04FF0030505FA04F52BEA050BDFF8DD
:100EB0005CA0DAF800A00AF0020ABAF1020F02D030
:100EC000BAF1000F26D0AAF1020A4FF0010505FA87
:100ED00004F54BEA050B0C48C0F800B04FF0600376
:100EE0004FF0000B00F06EF90848C0F800A0084869
:100EF000D0F800A00AF1010AC0F800A038E0000014
:100F00001400002018000020080000200C00002021
:100F1000100000200AF1020A4FF0020505FA04F55C
:100F20004BEA050B0948C0F800B04FF060034FF0E2
:100F3000000B00F07FF90648C0F800A00548D0F883
:100F400000A00AF1010AC0F800A011E0080000208A
:100F50000C000020100000204FF4784BFFF7DBFE60
:100F60004FF00500FFF7D8FB4FF6E07BFFF7D3FE0D
:100F7000BDE8FF9F2DE9FF5F4FF00001004801E051
:100F80000800002044F2041241F2410341F210141F
:100F9000FD4DFE4E42F2820742F2202848F2082917
:100FA000DFF8ECA3DFF8ECB3016801EA020191423B
:100FB00053D0016801F0150115294ED0016801EAEE
:100FC0000301994249D0016801EA0401A14244D0D9
:100FD000016801EA0501A9423FD0016801EA060162
:100FE000B1423AD0016801F4A861B1F5A86F34D0DC
:100FF000016801F4A831B1F5A83F2ED0016801EADB
:101000000701B94236D0016801EA0801414531D0F3
:10101000016801F02A012A292CD0016801EA09019E
:10102000494527D0016801EA0A01514522D00168EB
:1010300001F42861B1F5286F1CD0016801F4283152
:10104000B1F5283F16D0016801EA0B01594511D0CE
:10105000D14E3668092E1AD01FE000F020F8CF4993
:10106000D1F800C00CF1010CC1F800C04FF0FF3105
:10107000016012E000F02EF8C949D1F800C00CF16F
:10108000010CC1F800C04FF0FF31016005E000F035
:101090003BF84FF0FF310160FFE7BDE8FF9F2DE90E
:1010A000FF5F4FF000064FF4A0774FF000084FF4B9
:1010B000F0794FF6FF7BFFF7D1FA4FF071014FF057
:1010C000C1024FF060034FF4FC6B00F07BF8B548B1
:1010D000BDE8FF9F2DE9FF5F4FF000064FF4A077BA
:1010E0004FF000084FF4F0794FF6FF7BFFF7B6FAA8
:1010F0004FF071014FF0C1024FF060034FF4FC6BF1
:1011000000F098F8BDE8FF9F2DE9FF5F4FF0000663
:101110004FF4A0774FF000084FF4F0794FF4784B7C
:10112000FFF79CFABDE8FF9F2DE9FF5F5FF824C23F
:101130004FF0100BCCF800B098484FF00001016060
:1011400097484FF000010160FFF758FD5FF848C273
:101150004FF0000BCCF800B05FF84CC24FF0000B22
:10116000CCF800B04FF070014FF070024FF6E07B0A
:10117000FFF7D1FDFFF7BEFA0AF03F0ABAF1200FE0
:101180001ED0BAF1000FF5D0BAF1100F02D0FFF760
:10119000ECFDEFE7FFF719FE4FF0000BFFF7BBFD8B
:1011A000FFF7E8FE80480068B0F1FF3F00D0D9E7C4
:1011B000FFF7A0FA0AF01F0ABAF1000FF8D0C3E750
:1011C000BDE8FF9F2DE9FF5F01F10A0102F10A026C
:1011D000A3F114034FF0080A55464FEA5505AAEB50
:1011E000050CACF1010C4FF0000401EB0400A0EB86
:1011F000050600EB0C0702EB0400A0EB050800EB72
:101200000C09FFF72BFAA3EB0400A0F1010008443E
:10121000A0EB050600EB0C0702EB0400A0EB0508B1
:1012200000EB0C09FFF71AFA04F101049C42DCDB25
:10123000BDE8FF9F2DE9FF5F01F10A0102F10A02FB
:10124000A3F114034FF0080A55464FEA5505AAEBDF
:10125000050CACF1010C18464FEA500001EB0003FD
:1012600002EB00044FF00001024602F101024FF0D0
:101270000107A7EB000700F013F891420EDC002FE6
:1012800003DDA2F10102A7EB420707EB410707F1DB
:10129000010700F005F801F10101EEE7BDE8FF9F4D
:1012A0002DE9FF5F03EB010004EB020AA0EB05064A
:1012B00000EB0C07AAEB05080AEB0C09FFF7CEF9C7
:1012C00003EB020004EB010AA0EB050600EB0C07A0
:1012D000AAEB05080AEB0C09FFF7C0F9A3EB020023
:1012E00004EB010AA0EB050600EB0C07AAEB0508CE
:1012F0000AEB0C09FFF7B2F9A3EB010004EB020AB9
:10130000A0EB050600EB0C07AAEB05080AEB0C099D
:10131000FFF7A4F9A3EB0100A4EB020AA0EB05067A
:1013200000EB0C07AAEB05080AEB0C09FFF796F98E
:10133000A3EB0200A4EB010AA0EB050600EB0C07EF
:10134000AAEB05080AEB0C09FFF788F903EB02008A
:10135000A4EB010AA0EB050600EB0C07AAEB0508BD
:101360000AEB0C09FFF77AF903EB0100A4EB020A80
:10137000A0EB050600EB0C07AAEB05080AEB0C092D
:10138000FFF76CF9BDE8FF9F0101010010040100A7
:1013900020080200020202001000002014000020B9
:1013A000180000200C000020080000202DE9C04398
:1013B0000E4606F13207904608F13209FFF74EF962
:1013C000BDE8C0832DE9FF5F4FF000064FF4A07722
:1013D0004FF000084FF4F0794FF69E4BFFF73EF9BF
:1013E0004FF00A064FF49B774FF028084FF4DC7952
:1013F0004FF6FF7BFFF732F94FF4FC6B4FF00A0119
:101400004FF00003062B1DD0E54810F803904FF075
:1014100000044FF02802082C0FD04FF0010A0AFAFE
:1014200004FA19EA0A0F03D040F2FF7BFFF7BEFF70
:1014300002F1320204F10104EDE701F1320103F19E
:101440000103DFE7BDE8FF9F2DE9F75F57469A46A6
:1014500000F053F8A34247D04FF01F0B4FF00F009E
:10146000012F0ED106F1320708F13209FFF7F6F825
:10147000FFF752F903F1010308F13208A342F1D159
:1014800032E0022F0ED106F1320708F13209FFF7E0
:10149000E5F8FFF741F9A3F10103A8F13208A342EF
:1014A000F1D121E0042F0ED108F1320906F1320703
:1014B000FFF7D4F8FFF730F903F1080306F132061D
:1014C000A342F1D110E0082F0ED108F1320906F144
:1014D0003207FFF7C3F8FFF71FF9A3F10803A6F1DE
:1014E0003206A342F1D1FFE70EB431464246AD4B7E
:1014F000FFF765F80EBCBDE8F79F3FB54FF032052A
:101500004FEADA0404FB05F303F10A060AF00704C4
:1015100004FB05F303F128083FBD2DE9E7445146DC
:1015200001F00F01042906D008291ED0012935D069
:10153000022950D06CE09A481C464FEAD40604F0C9
:1015400007054FF0010202FA05F2052E60D094481B
:1015500006F10106875D17425AD147EA020787550F
:1015600004F10804052EF2D152E01C464FEAD406DD
:1015700004F007054FF0010202FA05F2002E47D0F1
:101580008748A6F10106875D174241D147EA020765
:101590008755A4F10804002EF2D139E01C464FEA29
:1015A000D40604F007054FF0010202FA05F2072DF8
:1015B0002ED07B4805F101054FF0010202FA05F239
:1015C000875D174224D147EA0207875504F10104D9
:1015D000072DEED11CE01C464FEAD40604F00705A7
:1015E0004FF0010202FA05F2002D11D06C48A5F16E
:1015F00001054FF0010202FA05F2875D174207D19B
:1016000047EA02078755A4F10104002DEED1FFE758
:10161000BDE8E7842DE9FD5F4FEAD30603F0070735
:101620004FF00508A8EB06084FF00709A9EB0709DA
:10163000B8F1000F0BDD06F1010B594C14F80B50FB
:101640004FF0010000FA07F0054200D15DE0B8F16B
:10165000050F0BDAA6F1010B514C14F80B504FF0AB
:10166000010000FA07F0054200D14EE014F80850DE
:10167000B9F1000F0ADD4A4CA55D07F1010C4FF0EE
:10168000010000FA0CF0054200D13EE0B9F1070F6D
:101690000ADA434CA55DA7F1010C4FF0010000FAF6
:1016A0000CF0054200D130E03D4C2578FF2D1DD1D6
:1016B0006578FF2D1AD1A578FF2D17D1E578FF2D7C
:1016C00014D12579FF2D11D16579FF2D0ED14FF061
:1016D000FF014FF000064FF4A0774FF000084FF4E1
:1016E000F0794FF4FC6BFEF7B9FF10E040F6AA2149
:1016F0004FF000064FF4A0774FF000084FF4F07958
:101700004FF4784BFEF7AAFF01E04FF00001BDE86F
:10171000FD9F2DE9FF5F4FF00109CC46ACF1010CB4
:10172000214B13F80C301C464FF006020CFB02FC58
:101730004FF000021D4860441949835C8B5402F14C
:101740000102062AF6D1FFF73DFE2346FFF77CFE95
:10175000FFF760FF00290CD1FEF7CCFF0AF02F0A3B
:10176000BAF1200F1AD0BAF1000FF5D0FFF7D5FE6D
:10177000ECE74FF00100FEF7CFFFFEF7BBFF0AF0EA
:101780003F0ABAF1200F09D0BAF1000FF5D0FF29B6
:1017900008BF09F10109B9F1030FBEDDBDE8FF9FE4
:1017A0001C000020F0210008EA210008D8210008D0
:1017B0003FB5B248B24C2588002D0BD14FF0020541
:1017C000258019464FEA41010844028842F001028F
:1017D000028002E0A5F1010525803FBD1FB5A948A3
:1017E00021464FEA41010844028842F40042028047
:1017F0001FBD2DE9FF5F4FF00005A04829464FEAC5
:101800004101084402884FF040064FF050074FEA6C
:1018100005184FEA051909F110094FF002044FF0BD
:10182000010101FA04F102EA0103002B17D0C246BC
:10183000CC4608F10508A9F10509A6F11006A7F1A3
:1018400010074FF0000BFEF709FF06F1100607F135
:1018500010074FF61F0BFEF701FFD046E14606F1D9
:10186000100607F1100704F101040F2CD7DBA6F1D5
:101870001006A7F110074FF0000BFEF7EFFE05F181
:1018800001051E2DB9DBBDE8FF9F2DE9FF5F4FF07D
:1018900000051D2D41D07B4829464FEA41010844EF
:1018A00002884FF030064FF040074FEA05184FEA24
:1018B000051909F110094FF002044FF0010101FA76
:1018C00004F102EA0103002B17D0C246CC4608F10E
:1018D0000508A9F1050906F1100607F110074FF0F8
:1018E000000BFEF7BBFEA6F11006A7F110074FF69E
:1018F000205BFEF7B3FED046E14606F1100607F185
:10190000100704F101040F2CD7DB4FF030064FF025
:1019100040074FF0000BFEF7A1FE05F101051E2D5B
:10192000B7DBBDE8FF9F2DE9FF5F4FF000034FF0ED
:101930001E0252485349934208D030F813404FEAF0
:10194000440420F8134003F10103F4E74FF00003CF
:101950004A484C494FF000084FF01009934238D0E4
:1019600030F8134031F8135004EA050A24EA0A0457
:1019700025EA0A0520F8134021F813504FF010040F
:101980004FF000051AF0010F15D004EB051606F113
:1019900020074FF0000BFEF761FEA6F11006A7F13D
:1019A0001007FEF75BFE06F1100607F110074FF077
:1019B000050C00F0BFF805F101054FEA5A0ABAF12B
:1019C000000FDFD108F1100809F1100903F101033C
:1019D000C4E74FF0000329482A49934208D031F860
:1019E00013404FEA540421F8134003F10103F4E7D4
:1019F0004FF00003214823494FF000084FF0100931
:101A0000934238D030F8134031F8135004EA050AF5
:101A100024EA0A0425EA0A0520F8134021F81350A5
:101A20004FF030044FF000051AF0010F15D004EB11
:101A3000051606F120074FF0000BFEF70FFE06F12A
:101A4000100607F11007FEF709FEA6F11006A7F130
:101A500010074FF0050C00F06DF805F101054FEA95
:101A60005A0ABAF1000FDFD108F1100809F1100984
:101A700003F10103C4E7BDE8FF9F0000240000203C
:101A8000A2000020600000202DE9E05FBAFA8AFA87
:101A9000CAF11F0A4FF0010505EB8A054FEA051848
:101AA00008F130094FF488764FF4A0774FF0000B1F
:101AB000FEF7D4FD4FF04B0C00F03CF8BDE8E09F82
:101AC0002DE9C15F18460AF0030ABAF1020F03D0EC
:101AD000BAF1010F04D017E0022B18BF5B1E03E020
:101AE0001A2B18BF5B1CFFE74FEA00104FF00006EF
:101AF0004FF03007A0F1100800F120094FF0000B63
:101B0000FEF7ACFD00F085F9BDE8C19F2DE93F4827
:101B1000104800884FF496714FF4E1724FF00103C2
:101B20004FF006044FF003054FF61F0BFEF71EFEA5
:101B3000BDE83F882DE9C34F4FF496764FF4A07768
:101B40004FF4E1784FF4F0794FF0000BFEF786FD8B
:101B5000004801E09E000020018861440180FFF7F9
:101B6000D5FFBDE8C38F2DE93F48394800884FF4C1
:101B70008C714FF4E1724FF001034FF007044FF006
:101B800001054FF6205BFEF7F1FDBDE83F882DE92A
:101B9000C34F4FF48C7640F22B174FF4E1784FF49B
:101BA000F0794FF0000BFEF759FD29480188A1F1AB
:101BB00001010180002901DC4FF0AA0CFFF7D3FFDF
:101BC000BDE8C38F1FB523490978012912D0FEF75C
:101BD000ABFD044604F007044FF0010303FA04F3DD
:101BE0001D4A12781A4205D04FEA840404F1020417
:101BF000FFF7F4FD1FBD2DE9FF4F9B4617484FF03F
:101C000000031D2B21DA30F8131011F4004F19D006
:101C100013F0030419D003F103044FEA9404A4F170
:101C200001044FF0010202FA04F292460A4D2978AB
:101C300011420AD021EA02012970FFF725FF00298D
:101C400026D002E003F10103DBE7054800F00AF8C3
:101C5000A0000020A20000209C0000202400002002
:101C6000600000205E464FF0FF3706EB0702002AB7
:101C700006DB1C2A04DC30F8121011F0010F04D12D
:101C800007F10107012FF0DD05E0FFF780FF02E01B
:101C90004FF0FF0CFFE7BDE8FF8F2DE9C04F4FF479
:101CA000FC6B01F1060601F12A0702F1060802F1B8
:101CB0002A09FEF7D3FC4FF0000B01F1060601F1F3
:101CC000090702F1060802F10F09FEF7C7FC01F14E
:101CD000060601F1090702F1150802F11B09FEF7DA
:101CE000BDFC01F1060601F1090702F1210802F12C
:101CF0002A09FEF7B3FC01F1090601F1150702F10B
:101D0000090802F10C09FEF7A9FC01F1090601F12D
:101D1000150702F1240802F12709FEF79FFC01F1E3
:101D2000090601F10C0702F10F0802F12109FEF783
:101D300095FC01F10F0601F1150702F10F0802F100
:101D40002109FEF78BFC01F11E0601F1210702F1CA
:101D50000F0802F11209FEF781FC01F11E0601F1E4
:101D6000210702F11E0802F12109FEF777FC01F1BB
:101D70001E0601F12A0702F1060802F10909FEF721
:101D80006DFC01F11E0601F12A0702F1270802F19C
:101D90002A09FEF763FC01F1210601F12A0702F18D
:101DA000090802F10C09FEF759FC01F1210601F1C5
:101DB0002A0702F1240802F12709FEF74FFC01F17E
:101DC000240601F1270702F10C0802F10F09FEF7C2
:101DD00045FC01F1240601F1270702F1210802F177
:101DE0002409FEF73BFC01F1240601F1270702F16B
:101DF000120802F11E09FEF731FC01F1270601F17C
:101E00002A0702F10F0802F12109FEF727FCBDE8BD
:101E1000C08F2DE9C64F4FF000014FEA03124FF07B
:101E20001F0B0E4601F13007A2F1100802F1200944
:101E3000FEF714FC4FF0000B01F1200601F128071A
:101E4000A2F1040802F10409FEF708FC01F12006E2
:101E500001F1280702F10C0802F11409FEF7FEFB5C
:101E600001F1100601F11807A2F1040802F11409AA
:101E7000FEF7F4FBBDE8C68F2DE9FF5F4FF00006CB
:101E80004FF4A0774FF000084FF4F0794FF0000BBB
:101E9000FEF7E4FB4FF00306384806804FF00006DB
:101EA000374806804FF00006364806804FF07F0620
:101EB000354806704FF000064FF000031E2B08D087
:101EC000324820F81360324820F8136003F1010310
:101ED000F4E74FF000034FF488714FF01002072B26
:101EE00006D0FFF7DAFE03F1010302F14002F6E744
:101EF0004FF00E03FFF78DFFFFF735FEBDE8FF9FA4
:101F00002DE9FF5FFFF7B8FF4FF00E03FFF75AFE12
:101F1000FFF7BBFCFFF76DFCFFF74AFCFEF7F5FB94
:101F20000AF03F0ABAF1200F26D0FFF7C9FDFFF7EC
:101F3000FAFCFFF760FEBCF1FF0F03D0BCF1AA0F63
:101F40000DD0E3E74FF000064FF4A0774FF0000804
:101F50004FF4F0794FF61F0BFEF780FB0CE04FF0CB
:101F600000064FF4A0774FF000084FF4F0794FF6D9
:101F7000205BFEF773FBFFE7BDE8FF9FA00000209A
:101F80009E000020A20000209C00002024000020D1
:101F9000600000202DE9FF5F4FF000064FF4A077AE
:101FA0004FF000084FF050094FF0000BFEF756FBC2
:101FB0004FF000064FF4A0774FF4C8784FF4F07953
:101FC0004FF0000BFEF74AFB4FF000064FF4A077EE
:101FD0004FF050084FF4C8794FF69E4BFEF73EFB8A
:101FE0004FF000014FF050024FF00003082B33D0A8
:101FF0006B4850F823904FF00004202C25D04D461C
:1020000025FA04F505F00F05002D19D0012D08BFA4
:1020100048F2104B022D08BF46F20F0B032D08BFEC
:102020004FF4784B042D08BF4FF01F0B082D08BF4D
:102030004FF6E07BFFF7BAF939464A4600F00EF852
:1020400001F1280104F10404D7E702F128024FF05E
:10205000000103F10103C9E7BDE8FF9F2DE9FF5F20
:102060004FF028044FF00103A4EB030AA1EB030691
:102070000F46A2EB030802EB0409FEF7EFFAA1EB0F
:10208000030601EB0407A2EB03089146FEF7E6FA0C
:10209000A1EB030601EB040702EB0A0802EB0409BB
:1020A000FEF7DCFA01EB0A0601EB0407A2EB0308DA
:1020B00002EB0409FEF7D2FABDE8FF9F2DE9FF5FAE
:1020C000BDE8FF9F03B53748017811F0010F03D138
:1020D00041F00101017003E021F001010170FFE70F
:1020E00003BD2DE9FF5FBDE8FF9F2DE9F3434FF0EE
:1020F00028001C4604F0070101FB00F808F1500815
:1021000008F128094FEAD40101FB00F606F128077F
:102110004FF69E4BFEF7A2FA214D4FEAD30B55F82E
:102120002B5003F0070A4FF00F0C4FEA8A0A0CFA03
:102130000AFC25EA0C05DFF868C04CF82B50BDE816
:10214000F3832DE9FD5F164C4FF0080554F8040B9E
:102150004FF0080600F00F01042918D0082916D006
:102160004FEA1010761EF5D16D1EEFD14FF0010031
:102170004FF0FF014FF000064FF4A0774FF000083A
:102180004FF4F0794FF4FC6BFEF768FA01E04FF082
:102190000000BDE8FD5F2DE9FF5FBDE8FF9F000087
:1021A000B821000800000020FEF7CCFAFEF75AF92B
:1021B000FEF7D0F9FEF7DBFB0140141102401411C9
:1021C00001000000000088080000880801000000ED
:1021D000034014110140141181A581CBD9C100081D
:1021E000801054048CA088E0808024241300000018
:1021F0003200000032000000FF2EFF261F1F1F17B5
:102200001F171F171F171F171F173F173F173F17BE
:102210003F173F173F1F3F171E173E173F1F1F1740
:102220001F171F171F171F171F171F171F171F17FE
:102230001F1F1F1F1F1F1F1F3F1F3F171F1F1F1F76
:102240001F173F173F173F173F171F171F171F175E
:102250001F1F1F1F1F1F1F1F1F1F1F1F1F2F3F2756
:102260003F1F5F175F173F0F5F175F173F173F173E
:102270003F173F175F175F175F175F175F177F17CE
:102280005F175F173F173F173F173F173F173F175E
:102290003F173F173F173F173F173F173F173F178E
:1022A0003F173F173F173F175F175F177F175F17DE
:1022B0005F173F173F173F173F173F173F173F174E
:1022C0001F1F3F175F0F5F0F5F075F075F0F5F0FF6
:1022D0005F0F5F0F5F0F7F077F077F0F7F0F7F0FFE
:1022E0005F0F5F0F5F0F5F0F5F0F5F0F7F0F7F0F3E
:1022F0005F0F5F075F075F075F0F5F0F5F0F5F0F86
:102300007F0F5F0F5F0F5F0F5F0F5F0F7F0F7F0FFD
:102310005F075F0F5F0F5F0F5F0F5F0F5F0F5F0F55
:102320005F0F5F0F1F173F173F075F075F075F07CD
:102330005F077F0F5F075F075F075F075F075F0745
:102340005F075F075F073F073F075F075F075F079D
:102350007F077F077F077F077F077F077F077F074D
:102360007F075F075F075F073F073F073F075F077D
:102370005F075F073F075F075F075F075F077F072D
:102380007F077F075F075F073F175F175F0F5F07D5
:102390005F075F075F0F5F175F175F0F5F0F5F0FCD
:1023A0005F0F5F0F5F0F5F0F7F0F5F0F5F0F5F0F9D
:1023B0007F075F075F075F077F077F077F077F074D
:1023C0007F075F075F075F077F0F5F0F5F0F5F0F7D
:1023D0005F0F5F0F5F0F7F0F5F0F7F0F7F0F5F0F2D
:1023E0005F077F077F075F075F075F075F1F5F1755
:1023F0005F0F5F0F7F0F5F0F1F0FFF0EFF0EFF0EB0
:10240000FF0EFF0EFF0EFF0EFF0E1F0FFF0EFF0E43
:102410001F0F3F0F7F0F5F075F075F077F077F0774
:102420007F077F075F075F075F073F071F071F0FD4
:10243000FF0EFF0EFF0EFF0EFF0E1F0FFF061F0FFA
:10244000FF0EFF063F077F077F075F075F075F07F6
:102450003F173F0F5F0F5F0F5F0F1F0FBE063D0659
:102460003D063E063E063E063E063E063E063E064D
:102470005E065D069E061F0F5F0F5F0F5F077F07FB
:102480007F077F077F077F075F075F073F071F0FF4
:102490005D063D063E063E061E061E063E063D063F
:1024A0003E065E065E067E06DE065F0F7F0F7F0736
:1024B0005F075F073F175F0F5F0F7F0F7F0F1F07DC
:1024C0005E06DC051E06FE05FE05FE05FE05FE0594
:1024D000FE05FE05FD051D065E06FF0E5F0F5F0F84
:1024E0005F075F077F077F077F077F077F075F071C
:1024F0003F071F0F1D06FD05FD05DE05DE05DE0598
:10250000FD05FD05DD05FD05FD051D069E061F0FEC
:102510007F0F5F075F075F073F0F5F0F7F075F0753
:102520005F07FF065E06FD05FE05DE05DE05DE052E
:10253000DE05DE05DE05DE05FE05FD057E06FF0E79
:102540005F0F5F075F075F075F075F077F077F0713
:102550005F077F075F07FF061D06FE05FE05DE0518
:10256000DE05DE05DE05DE05DE05FE05FE051E06D2
:102570009E061F0F5F0F5F075F075F073F0F5F0F2D
:102580007F075F075F07FF065E06DE05DE05DE05E7
:10259000DF05DF05DF05DE05DF05DE05DE05FE05FF
:1025A0005E06FF0E5F0F5F075F075F075F075F074E
:1025B0007F077F075F075F075F07FF061D06FE05B2
:1025C000DE05DF05DE05DE05DE05DE05DE05FE05D2
:1025D000FE051E069E061F0F5F0F5F075F075F0762
:1025E0003F175F175F0F5F075F0FFF065E06DE0591
:1025F000DE05DF05DE05DE05DE05DE05DE05DE05C2
:10260000DE05DE055E06FF0E5F0F5F075F075F07F3
:102610005F075F077F077F075F075F075F0FFF06A3
:102620001D06FE05DF05DF05DF05DE05DE05DE052F
:10263000DF05DF05DE051E067E061F0F5F075F074D
:102640005F075F0F1F175F175F0F5F075F0FFF0EBB
:102650005E06FE05DE05DF05DE05DE05DE05DE05C0
:10266000DE05DE05DE05DE055E06FF0E5F0F5F0799
:102670005F075F075F075F077F077F075F077F07CA
:102680005F0FFF061E06FE05FE05DF05DF05DF0501
:10269000DE05DE05BF05DF05DE05FE057E061F0F34
:1026A0005F075F075F075F0F1F175F175F0F5F070A
:1026B0005F0FFF0E5E06FE05DE05DF05DE05DE05AB
:1026C000DE05DE05DE05DE05DE05DE057E061F070E
:1026D0005F075F077F077F075F075F077F077F074A
:1026E0007F077F075F07FF061E06FE05FE05DF0565
:1026F000DF05DF05DF05DE05BF05DF05DE05FE05BD
:102700007E061F0F5F0F5F075F075F071F175F17CB
:102710005F0F5F075F0FFF0E5E06FE05DE05DF053C
:10272000DF05DE05DE05DE05DE05DE05DE05FE0570
:102730007E061F075F077F077F077F075F075F072B
:102740007F077F077F077F075F07FF061D06FE05E0
:10275000FE05FF05DF05DF05DF05DF05BF05DF053A
:10276000DE05FE057E061F0F5F0F5F075F075F0731
:102770001F0F5F175F0F5F075F0FFF0E5E06FE05FF
:10278000DF05DF05DF05DF05DE05DE05DE05DE052D
:10279000DE05FE057E061F075F077F075F075F07F1
:1027A0005F075F075F077F077F077F075F0FFF0EEA
:1027B0001D06FE05FE05FF05DE05DE05DE05DF055F
:1027C000DF05DF05DE05FE057F061F0F5F0F5F07D4
:1027D0005F075F071F0F5F175F0F5F075F0FFF0E3A
:1027E0005E06FE05DE05DF05BF05DF05DE05DE054D
:1027F000DE05DE05DE05FD057E061F0F5F0F5F07A8
:102800005F075F075F075F075F075F075F077F0F70
:102810005F0FFF0E1E06FE05FE05FF05FF05DE0528
:10282000DE05DF05DF05DF05DE05FE057F061F0F80
:102830005F0F5F075F075F073F175F175F0F5F0F50
:102840005F0FFF0E5E06DD05DE05DE05DE05DE053B
:10285000DE05DE05DE05DE05DE05FD055E06FF0E96
:102860005F0F7F075F075F075F075F075F075F0710
:102870005F075F073F07FF0EFD05FE05DE05DE056E
:10288000DE05DE05BE05BE05FF05DE05DE05FD0530
:102890007E061F0F5F0F5F075F075F073F175F171A
:1028A0005F0F5F075F0FFF065E06FD05FE05DE0595
:1028B000DE05FE05FE05FE05FE05FE051D061D06E0
:1028C0007E06FF065F0F7F077F077F075F075F07B3
:1028D0005F075F075F073F073F071F0F1D061E06C5
:1028E000FE05FE05FE05DE05DE05DE05DE05FD0551
:1028F000FD051D069E061F0F5F0F5F0F5F075F0739
:102900003F0F5F0F5F075F075F0F1F07BE065E0683
:102910005E065E065E065E065E067E067E067E0637
:102920007E067E06BE061F077F077F077F077F079D
:102930007F077F075F075F075F075F073F071F0F7F
:102940007D065D065E065E063E063E063E065E06A9
:102950005E065E065E069D06DE063F077F075F0792
:102960005F075F071F0F5F0F5F077F077F077F0FFF
:102970001F07FF06FF06FF06FF0EFF0E1F0F1F0FAC
:102980001F0F1F0F1F07FF061F075F0F7F0F7F0718
:102990007F077F077F075F075F075F075F075F07A7
:1029A0005F073F073F0F1F0F1F0F1F0F1F0F1F0F47
:1029B0001F0F1F0F1F0F1F0FFF0E1F073F077F0760
:1029C0007F075F075F075F071F0F5F175F0F7F07B7
:1029D0009F077F075F0F5F0F5F0F5F0F5F0F5F0F37
:1029E0005F0F7F0F5F0F5F0F7F0F5F077F0F7F0FFF
:1029F0007F0F7F077F077F075F075F075F075F071F
:102A00005F075F075F075F077F0F7F0F7F0F5F0F16
:102A10005F0F5F0F5F0F7F0F5F0F5F0F5F0F5F0F26
:102A20007F077F077F075F075F075F071F175F1736
:102A30005F0F5F077F077F075F077F0F5F075F07F6
:102A40005F075F0F5F0F5F0F5F0F5F077F077F07F6
:102A50007F077F077F077F077F075F075F075F07A6
:102A60005F075F075F077F075F075F075F077F07F6
:102A70005F0F5F0F5F0F5F0F7F077F075F075F0FBE
:102A80005F0F7F0F7F077F077F077F075F075F0766
:102A90001F175F175F175E0F5F0F5F0F5F0F7F0FCF
:102AA0005F0F5F0F5F0F5F0F5F0F5F0F5F0F5F0FB6
:102AB0005F0F7F0F7F077F077F077F077F077F07F6
:102AC0007F075F075F075F077F077F075F075F0776
:102AD0009F0F7F0F9F0F9F0F9F0F9F0F9F0F9F0FA6
:102AE0005F0F5F0F7F177F0F7F0F7F077F077F0FBE
:102AF0005F0F5F0FFE2E3E375E2F3E275E275E275D
:102B00005E2F7F2F7F2F7F2F7F2F7F2F5F2F5F2FB6
:102B10005F275F275E277E1F7E177F0F5F077F0778
:102B20007F077F075F075F075F075F077F077F07F5
:102B30007F0F5F0F5E175E1F5E275E275E275E2793
:102B40005E275E279F2F7F2F7F2F7F2F5F273E27B8
:102B50003E275E275E273E271D675E673D5F5D5F00
:102B60003D57FF6F393EBB4E9B4E9B4EDC565A3E47
:102B70007B46DF6F1E573E575E577E4F7F3F5E1F7F
:102B80007F0F9F075F077F075F077F075F075F076D
:102B90005F075F073E0F5E275E3F7E4F7E575E5F9B
:102BA0001D57BF671D575A3EBB4E9B4EDC56393EE4
:102BB0009B469F673E575E5F5E5F3E5FBFA7FFAF6E
:102BC000DFA7FFA7BF9F5D978E1B4A024A0229021B
:102BD0004A02490231349F9FFFA7FFA7DF9FDF878B
:102BE000BF677E377F177F0F5F075F075F077F072E
:102BF0007F077F077F075F0F3E1F5E3FFF7FFF97C7
:102C0000FF9FFF9FBF9F9E97144D690229022802D4
:102C10006A028A02D4449E97DFA7FFA7DFA7DFA737
:102C2000DFDFFFDFFFD7FFDFFFDF7ECF6A2A210074
:102C3000A2008200820061002C43BED7FFDFFFD7D5
:102C4000FFD7FFBFFF877E4F5E1F7F0F3F077F07C6
:102C50005F077F077F077F077F075F173E275E5766
:102C6000FFA7FFCFFFD7FFD7FFDFFFDF516C61006A
:102C7000C200A20061008200EF5BDFD7FFDFFFDF51
:102C8000FFDFFFDFFFFFFFF7DFF7FFF7FFFF9EEF3D
:102C90008A528210E32003212421A2182C63DEF73C
:102CA000FFFFBEEFFFEFFFD7DF975E573E277F178F
:102CB0005F077F075F077F077F075F077F0F5E174D
:102CC0003E2F5E5FFFBFFFE7FFEFDFEFFFFFFFFF7E
:102CD0009294811044294429E32081100F7CFFFF46
:102CE000FFFFDFF7FFFFFFF7FFFFFFFFFFFFFFFF24
:102CF000FFFF7DEF6952C218C320E320232981180A
:102D00000B63DEFFFFFFFFF7FFEFFFD7DF9F5E5F85
:102D10003E2F7F175F0F7F0F5F0F5F0F5F075F070C
:102D20007F0F3F1F3E375E67FFBFFFE7FFEFFFF7F5
:102D3000FFFFFFFF9194A218C2200329E320811016
:102D40000F84FFFFFFFFFFFFFFFFFFFFDFFFDFF746
:102D5000FFFFFFFFFFFF7DF7494AA218E320E320B2
:102D6000032981182B6BDEFFFFFFFFFFFFF7FFDF5B
:102D7000DFA75E673E3F5F2F3F1F5F1F3F1F5F1F45
:102D80003F173F175F1F3F2F1F475E6FDFBFFFE7F4
:102D9000FFF7FFF7FFFFFFFF7194A218C220E228A0
:102DA000E220A1182F84FFFFFFFFFFFFFFFFFFFFBF
:102DB000FFFFFFFFFFFFFFFFFFFF7EF7494AA2185B
:102DC0000329C2200329A2184C73FFFFFFFFFFFF56
:102DD000FFFFFFE7BFB71E77FE561F47FF3EFF3ED0
:102DE000FF3EFF3EFF36FF36FF3EFF46FF561E7F8B
:102DF000FFC7FFEFFFEFFFF7FFFFFFFF9194A21860
:102E0000E320E328E32082180F84FFFFFFFFFFFF8A
:102E1000FFFFDFFFDFFFFFFFFFFFFFFFFFFF9EF76B
:102E20004952A2202429C320032981182C73DFFFD3
:102E3000FFFFFFFFFFFFFFEF7FC7BD967E769F6E10
:102E40007F667F6E9F6E9F6E7F6E7F669F6E7F6ECA
:102E50009E7EBE9EDFD7FFEFFFF7FFFFFFFFFFFF66
:102E600071946110E328E32803298218EF83FFFFA0
:102E7000FFFFDFFFFFFFFFFFFFFFDFF7FFFFFFFFAA
:102E8000FFFF7DF74952A220E328C220E328A220B9
:102E90004C6BDEFFFFFFFFFFFFFFFFF73FD73DB6A5
:102EA000BDA5DEA5DFA5BFA5BEA5BFA5BFA5BFA5C6
:102EB000BFA59EA5BDAD3DBEBFEFFFFFFFFFFFFF5E
:102EC000FFFFFFFF308CA218E328C220C320A21806
:102ED000CF83FFFFFFFFFFFFFFFFFFFFDFFFDFF7F6
:102EE000FFFFFFFFFFFF7DF76952C2202431032956
:102EF000032981182C6BDEFFFFFFFFFFFFFFFFFFA1
:102F00003FEFFDCD7DC57FCD7FCD5FCD7FCD7FCD2B
:102F10007FCD7FCD7FCD7EC59ECD1DD69FFFFFFF90
:102F2000FFFFDFFFFFFFFFFF71948218E328E32814
:102F3000E328A218EF83FFFFFFFFDFFFFFFFFFFF84
:102F4000FFFFFFFFFFFFDFFFFFFF7DF76952C218A2
:102F5000A218C220E32061100C6BFFFFFFFFDFFF10
:102F6000DFFFDFFFFFF6DDD53DCD5FDD5FDD3FDD60
:102F70003FDD3FDD3FDD3FDD5FD53ECD5DD5FDD59E
:102F80009FFFFFFFFFFFFFFFFFFFFFFF7194611037
:102F9000C320E328C32082181084FFFFFFFFFFFF38
:102FA000FFFFFFFFDFF7FFFFFFFFFFFFFFFF9EF7C2
:102FB0008952A218032924292429A2184C6BFFFF47
:102FC000FFFFDEFFFFFFDFFF1FFFDDDD5DD57FE5DC
:102FD0007FE53FE55FE57FE55FE55FE57FDD5ED5AA
:102FE0009ED51DDE9FFFFFFFFFFFDFFFFFFFFFFFFF
:102FF000B29CC31804292429E32082180F84FFFF00
:10300000FFFFBEF7FFFFFFFFBEF7FFFFDFFFFFFF82
:10301000FFFF3CE7484A200861106110611020085A
:10302000CB5A5DEFFFFFFFFFFFFFFFFF1FF7FCD550
:103030005CCD5DD55DDD3DD55DDD5DDD5DDD5DD509
:103040007DD55CCD9CCDFBD59FFFFFFFDFFFFFFF54
:10305000FFFFFFFF108400006110821061108210DA
:10306000EF83BEFFFFFFFFFFFFFFFFFFFFFFFFFF3D
:10307000DFFFFFFFFFFF5DEFCF7B8952895269526F
:1030800069526952308C9DF7FFFFFFFFFFFFDFFFA2
:103090003FF77DDEFDDDFDDDFDE5FDE5FDE5FDE563
:1030A000DDDDFDDDFDDDFCD51CD65CDEDFFFFFFFD9
:1030B000FFFFFFFFFFFFDFF713A52842284A494A19
:1030C000494A6952D39C9EF7FFFFFFFFFFFFFFFFB6
:1030D000DFF7FFFFFFFFFFFFFFFFFFFF1CE71CE71E
:1030E0009EF77DEF7DF71CE75CEFFFFFDFFFFFFF43
:1030F000FFFFFFFFDFFF7FF73FF75FF75FFF5FFF38
:103100007FFF5FFF5FFF5FFF7FFF5FFF7FFFBFFF0F
:10311000FFFFFFFFDFFFFFFFDFFFFFFFDEF73CE703
:10312000BEF77DF77DF7FBE69DF7FFFFFFFFFFFF93
:10313000FFFFFFFFDFFFFFFFFFFFFFFFBEF7FFFF08
:10314000FFFFFFFFFFFFFFFFFFFFFFFFFFFFFFFF8F
:10315000BEF7FFFFFFFFFFFFFFFFDFFFDFFFDFFF28
:10316000DFFFDFFFDFFFDFFFDFFFDFFFDFFFDFFF6F
:10317000DFFFFFFFDFFFFFFFFFFFFFFFFFFFFFFF9F
:10318000FFFFFFFFFFFFFFFFFFFFFFFFFFFFFFFF4F
:10319000DEFFFFFFFFFFFFFFFFFFFFFFFFFFFFFF60
:1031A000FFFFFFFFFFFFFFFFFFFFFFFFFFFFFFFF2F
:1031B000FFFFFFFFFFFFFFFFFFFFFFFFFFFFFFFF1F
:1031C000DFFFFFFFFFFFFFFFFFFFFFFFFFFFFFFF2F
:1031D000FFFFFFFFFFFFFFFFFFFFFFFFFFFFFFFFFF
:1031E000FFFFFFFFFFFFFFFFFFFFFFFFFFFFFFFFEF
:1031F000FFFFFFFFFFFFFFFFFFFFFFFFFFFFFFFFDF
:10320000FFFFFFFFFFFFFFFFFFFFFFFFFFFFFFFFCE
:10321000FFFFFFFFFFFFFFFFFFFFFFFFFFFFFFFFBE
:10322000FFFFFFFFFFFFFFFFFFFFFFFFFFFFFFFFAE
:10323000FFFFFFFFFFFFFFFFFFFFFFFFFFFFFFFF9E
:10324000FFFFFFFFFFFFFFFFFFFFFFFFFFFFFFFF8E
:10325000FFFFFFFFFFFFFFFFFFFFFFFFFFFFFFFF7E
:10326000FFFFFFFFFFFFFFFFFFFFFFFFFFFFFFFF6E
:10327000FFFFFFFFFFFFFFFFFFFFFFFFFFFFFFFF5E
:10328000FFFFFFFFFFFFFFFFFFFFFFFFFFFFFFFF4E
:10329000FFFFFFFFFFFFFFFFFFFFFFFFFFFFFFFF3E
:1032A000FFFFFFFFFFFFFFFFFFFFFFFFFFFFFFFF2E
:1032B000FFFFFFFFFFFFFFFFFFFFFFFFFFFFFFFF1E
:1032C000FFFFFFFFDFF7FFFFFFFFFFFFFFFFFFFF36
:1032D000FFFFFFFFFFFFFFFFFFFFFFFFFFFFFFFFFE
:1032E000FFFFFFFFFFFFFFFFFFFFFFFFFFFFFFFFEE
:1032F000FFFFFFFFFFFFFFFFFFFFFFFFFFFFFFFFDE
:10330000FFFFFFFFFFFFFFFFFFFFFFFFFFFFFFFFCD
:10331000FFFFFFFFFFFFFFFFFFFFFFFFFFFFFFFFBD
:10332000FFFFFFFFFFFFFFFFDFF7FFFFFFFFFFFFD5
:10333000FFFFFFFFFFFFFFFFFFFFFFFFFFFFFFFF9D
:10334000FFFFFFFFFFFFFFFFFFFFFFFFFFFFFFFF8D
:10335000FFFFFFFFFFFFFFFFFFFFFFFFFFFFFFFF7D
:10336000FFFFFFFFFFFFFFFFFFFFFFFFFFFFFFFF6D
:10337000FFFFFFFFFFFFFFFFFFFFFFFFFFFFFFFF5D
:10338000FFFFFFFFFFFFFFFFFFFFFFFFDFF7FFFF75
:10339000FFFFFFFFFFFFFFFFFFFFFFFFFFFFFFFF3D
:1033A000FFFFFFFFFFFFFFFFFFFFFFFFFFFFFFFF2D
:1033B000FFFFFFFFFFFFFFFFFFFFFFFFFFFFFFFF1D
:1033C000FFFFFFFFFFFFFFFFFFFFFFFFFFFFFFFF0D
:1033D000FFFFFFFFFFFFFFFFFFFFFFFFFFFFFFFFFD
:1033E000FFFFFFFFFFFFFFFFFFFFFFFFFFFFFFFFED
:1033F000FFF7FFFFFFFFFFFFFFFFFFFFFFFFFFFFE5
:10340000FFFFFFFFFFFFFFFFFFFFFFFFFFFFFFFFCC
:10341000FFFFFFFFFFFFFFFFFFFFFFFFFFFFFFFFBC
:10342000FFFFFFFFFFFFFFFFFFFFFFFFFFFFFFFFAC
:10343000FFFFFFFFFFFFFFFFFFFFFFFFFFFFFFFF9C
:10344000FFFFFFFFFFFFFFFFFFFFFFFFFFFFFFFF8C
:10345000FFFFFFFFFFF7FFFFFFFFFFFFFFFFFFFF84
:10346000FFFFFFFFFFFFFFFFFFFFFFFFFFFFFFFF6C
:10347000FFFFFFFFFFFFFFFFFFFFFFFFFFFFFFFF5C
:10348000FFFFFFFFFFFFFFFFFFFFFFFFFFFFFFFF4C
:10349000FFFFFFFFFFFFFFFFFFFFFFFFFFFFFFFF3C
:1034A000FFFFFFFFFFFFFFFFFFFFFFFFFFFFFFFF2C
:1034B000FFFFFFFFFFFFFFFFDFF7FFF7FFFFFFFF4C
:1034C000FFFFFFFFFFFFFFFFFFFFFFFFFFFFFFFF0C
:1034D000FFFFFFFFFFFFFFFFFFFFFFFFFFFFFFFFFC
:1034E000FFFFFFFFFFFFFFFFFFFFFFFFFFFFFFFFEC
:1034F000FFFFFFFFFFFFFFFFFFFFFFFFFFFFFFFFDC
:10350000FFFFFFFFFFFFFFFFFFFFFFFFFFFFFFFFCB
:10351000FFFFFFFFFFFFFFFFFFFFFFF7DFF7DFF713
:10352000FFFFFFFFFFFFFFFFFFFFFFFFFFFFFFFFAB
:10353000FFFFFFFFFFFFFFFFFFFFFFFFFFFFFFFF9B
:10354000FFFFFFFFFFFFFFFFFFFFFFFFFFFFFFFF8B
:10355000FFFFFFFFFFFFFFFFFFFFFFFFFFFFFFFF7B
:10356000FFFFFFFFFFFFFFFFFFFFFFFFFFFFFFFF6B
:10357000FFFFFFFFFFFFFFFFFFFFFFFFFFF7DFF78B
:103580006400000064000000000000000000000073
:10359000000000000000000000000000000000002B
:1035A000000000000000000000000000000000001B
:1035B000000000000000000000000000000000000B
:1035C00000000000000000000000000020002000BB
:1035D00000000000000000000000000000000000EB
:1035E0000000000020002000000800002000200053
:1035F0004000600840002000400020004000200003
:10360000200020004000200020002000200040007A
:103610004000400020000000000000000008000002
:10362000000020000000200000000000000000005A
:10363000000000000000000000000000000000008A
:10364000000000000000000000000000000000007A
:10365000000000000000000000000000000000006A
:10366000000000000000000000000000000000005A
:10367000000000000000000000000000000000004A
:10368000000000000000000000000000000000003A
:10369000000000000000000000000000000000002A
:1036A000000000000000000000000000000000001A
:1036B00020080000600080008000C000E000E00002
:1036C000C000C000C000A000C000A000C000C0003A
:1036D000C000A000C000C000C000C000A00080006A
:1036E000600000000000000000000000000000007A
:1036F00000000000000000000000000000000000CA
:1037000000000000000000000000000000000000B9
:1037100000000000000000000000000000000000A9
:103720000000000000000000000000000000000099
:103730000000000000000000000000000000000089
:103740000000000000000000000000000000000079
:103750000000000000000000000000000000000069
:103760000000000000000000000000000000000059
:10377000010001000000000021004000041AC83BC5
:10378000E63BE433E42BE32324242424242C0424E4
:1037900024240424242C042C042C042C232C232443
:1037A000232C042CC533663BE000400000000000E1
:1037B00000000000000020000000000000000000E9
:1037C00000000000000000000000000000000000F9
:1037D00000000000000000000000000000000000E9
:1037E00000000000000000000000000000000000D9
:1037F00000000000000000000000000000000000C9
:1038000000000000000000000000000000000000B8
:1038100000000000000000000000000000000000A8
:103820000000000000000000000000000000000098
:103830000000000000000000010001000100010084
:10384000000060006733AF7E0D7F2C6F6C6F8C6F54
:103850006B676B5F6B674B676C674B5F6C674B6746
:103860004C674C676B676B6F6B6F4C6F0D776E7E41
:103870004001600000000100010000000000200085
:103880000000000000000000000000000000000038
:103890000000000000000000000000000000000028
:1038A0000000000000000000000000000000000018
:1038B0000000000000000000000000000000000008
:1038C00000000000000000000000000000000000F8
:1038D00000000000000000000000000000000000E8
:1038E00000000000000000000000000000000000D8
:1038F0000000000000000000200020002000000068
:10390000010001000100000041008000A5232D7787
:10391000495F6857A84FC84FA847A847A84F884F86
:10392000A94F884F894F894F694F694F894F8857F1
:103930008857895F2A5F8C6E60014000000001009B
:103940000000000000002000000000000000000057
:103950000000000000000000000000000000000067
:103960000000000000000000000000000000000057
:103970000000000000000000000000000000000047
:103980000000000000000000000000000000000037
:103990000000000000000000000000000000000027
:1039A0000000000000000000000000000000000017
:1039B0000000000000000000000000000000000007
:1039C0002000200020002000000000000000000077
:1039D0000000A000E4236B6F8857E74FE747C63F1E
:1039E000E73FE73FE847C747E84FC847E84FC84FBA
:1039F000C94FC947E847E84FE84FC8578957CB66D2
:103A000060014000000000000000000020002000D5
:103A100000000000000000000000000000000000A6
:103A20000000000000000000000000000000000096
:103A30000000000000000000000000000000000086
:103A40000000000000000000000000000000000076
:103A50000000000000000000000000000000000066
:103A60000000000000000000000000000000000056
:103A70000000000000000000000000000000000046
:103A800000000000000000002000200020002000B6
:103A900000000000000000002000C000E3236B6F66
:103AA0008757E757E747E747E73FE747E84FC84704
:103AB000E84FC847C84FC84FE847E83FE747E747E0
:103AC000E747E84FA84FCA5E6001400000002100B0
:103AD00000000000200020000000000000000000A6
:103AE00000000000000000000000000000000000D6
:103AF00000000000000000000000000000000000C6
:103B000000000000000000000000000000000000B5
:103B100000000000000000000000000000000000A5
:103B20000000000000000000000000000000000095
:103B30000000000000000000000000000000000085
:103B40000000000000000000000000000000000075
:103B500020002000200020000000000000000000E5
:103B60002000C000C21B8B6FA857E74FC747E8472C
:103B7000E747E747E84FC84FE84FC84FE84FE747E8
:103B8000E847E847E747E747E74FE84FA94FCA5EEE
:103B90006001200020000000000000002000000064
:103BA0000000000000000000000000000000000015
:103BB0000000000000000000000000000000000005
:103BC00000000000000000000000000000000000F5
:103BD00000000000000000000000000000000000E5
:103BE00000000000000000000000000000000000D5
:103BF00000000000000000000000000000000000C5
:103C000000000000000000000000000000000000B4
:103C1000000000000000000000000000200800007C
:103C200000002000000040000000C00003246B6F73
:103C3000484FC957E957A747E847E84FE957C957D9
:103C4000A84FC84FA747E74FE747E747E747E74F82
:103C5000E84FC857A957CA5E600140000000200025
:103C60000000000000000000000000000000000054
:103C70000000000000000000000000000000000044
:103C80000000000000000000000000000000000034
:103C90000000000000000000000000000000000024
:103CA0000000000000000000000000000000000014
:103CB0000000000000000000000000000000000004
:103CC00000000000000000000000000000000000F4
:103CD00000000000000000000000000000000000E4
:103CE0000000000000002000800080006000400014
:103CF000A0002001021C8C6F6957A94FC84FC7470D
:103D0000C84FC8576857495F6A5FAA5F8957684FAD
:103D1000884FA85788578957695F6A5F4B5F8C66E1
:103D200040014000200020000000000000000000D2
:103D30000000000000000000000000000000000083
:103D40000000000000000000000000000000000073
:103D50000000000000000000000000000000000063
:103D60000000000000000000000000000000000053
:103D70000000000000000000000000000000000043
:103D80000000000000000000000000000000000033
:103D90000000000000000000200000000000000003
:103DA0000000000000000000000040002000C000F3
:103DB0000001C000200180012001C001200C6A57D1
:103DC000684FE94FC84FE84FA84FCA670B672D7778
:103DD0000D6FEC662C670C672C6F2C6F0C6F0D77DA
:103DE000ED76EE76EE764F7E00014000000020007A
:103DF00000000000000000000000000000000000C3
:103E000000000000000000000000000000000000B2
:103E100000000000000000000000000000000000A2
:103E20000000000000000000000000000000000092
:103E30000000000000000000000000000000000082
:103E40000000000000000000000000000000000072
:103E50000000000000000000000000000000000062
:103E60000000000000000000000000000000000052
:103E700000002000A0008843AE75CD6D0C5EEB55B0
:103E80002B5E2A4EC846EA576747C847E747E74FC1
:103E9000C957C435A002400240022002600240021D
:103EA0002002200200020002000200020002A00123
:103EB0008000000000002000000000000000000062
:103EC00000000000000000000000000000000000F2
:103ED00000000000000000000000000000000000E2
:103EE00000000000000000000000000000000000D2
:103EF00000000000000000000000000000000000C2
:103F000000000000000000000000000000000000B1
:103F100000000000000000000000000000000000A1
:103F20000000000000000000000000000000000091
:103F30000000000000000000200060000001694C4B
:103F4000CE7E0C6F4B676B5F4A5F6A57A94FE84F95
:103F5000A747E747E747C74FCA6765356001C00015
:103F6000A0006000A000A000800080006000800031
:103F700060008000A0004000200000000000200041
:103F80002000000000000000000000000000000011
:103F90000000000000000000000000000000000021
:103FA0000000000000000000000000000000000011
:103FB0000000000000000000000000000000000001
:103FC00000000000000000000000000000000000F1
:103FD00000000000000000000000000000000000E1
:103FE00000000000000000000000000000000000D1
:103FF00000000000000000000000000000000000C1
:1040000000006000000187442D776A67A957A74721
:10401000C94FA84FE847E747E847C747E647C74FB4
:104020008A5F273DE0002000000000004000000003
:1040300020002000000020000000000040000000E0
:104040000000000000002000200020000000000010
:104050000000000000000000000000000000000060
:104060000000000000000000000000000000000050
:104070000000000000000000000000000000000040
:104080000000000000000000000000000000000030
:104090000000000000000000000000000000000020
:1040A0000000000000000000000000000000000010
:1040B0000000000000000000000000000000000000
:1040C0000000000000000000200080000001A73C6C
:1040D0002C6FAA5FC747E747E847E747E747E74747
:1040E000E84FE747E647E74F8B67273DC0000100F1
:1040F00001080108000800000000000000000000A6
:10410000000000000000000000002000200000006F
:10411000200000000000000000000000000000007F
:10412000000000000000000000000000000000008F
:10413000000000000000000000000000000000007F
:10414000000000000000000000000000000000006F
:10415000000000000000000000000000000000005F
:10416000000000000000000000000000000000004F
:10417000000000000000000000000000000000003F
:10418000000000000000000000000000000000002F
:1041900020006000E000A7444C6F8957A63FE74726
:1041A000E747E74FE747E747C847E84FE647C74FC6
:1041B0008B67E73CA0000100010800080008200808
:1041C000000020002000200020000000200000004F
:1041D000000020002000000000000000000020007F
:1041E00000000000000000000000000000000000CF
:1041F00000000000000000000000000000000000BF
:1042000000000000000000000000000000000000AE
:10421000000000000000000000000000000000009E
:104220000000000000000000000800000000000086
:1042300020000000000020002000200000000000FE
:10424000200020000000000000000000000000002E
:10425000000800002000000020002000C00087446B
:104260002B6FA9578747E847E847E747E74FE747F6
:10427000E847E847E74FC7578B67073DE000200056
:1042800000000000000000000000200020002000CE
:10429000200020002000000000002000000000009E
:1042A00000000000200020000000000000000000CE
:1042B00000000000000000000000000000000000FE
:1042C00000000000000000000000000000000000EE
:1042D00000000000000000000000000000000000DE
:1042E00000000000000000000000000000000000CE
:1042F00000000000000021000000200080002000DD
:104300004000200060082000400020000000000065
:104310000000200020004008000000004000400095
:1043200020006000E000A74C8C6FC95FC84FE847D1
:10433000E847E747E74FE74FE847E847E74FA75722
:104340008A67273DC00040004000800040002000F8
:10435000400040004000600040004000400020005D
:10436000000000000000000000000000000020002D
:10437000000000000000000000000000000000003D
:10438000000000000000000000000000000000002D
:10439000000000000000000000000000000000001D
:1043A000000000000000000000000000000000000D
:1043B00000000000000000000008000800000000ED
:1043C000200060004000400040004000800080006D
:1043D00040006000200000002100000000002000DC
:1043E00040006000600080004000A0002001A63C6A
:1043F0002A678857E84FE747E747E747E64FE6472A
:10440000E847E847E74FC7578A67663D2001E00065
:10441000A0008000600060006000800060008000FC
:10442000600040006000200020000000000000004C
:10443000000000000000000000000000000000007C
:10444000000000000000000000000000000000006C
:10445000000000000000000000000000000000005C
:10446000000000000000000000000000000000004C
:10447000000000000000000000000000000000003C
:1044800000000000200000002000C00002126212A4
:1044900042124112200A41120212E0006000400064
:1044A0000000210020004000C211221241028202BD
:1044B000820A4002A002A745CB67C84FC747E7471B
:1044C000E747E747E647E747E847E847E74FC74F8B
:1044D000A95FE535A00280028002600A4102410A1C
:1044E00040026002600A610A410A210A2212C211D6
:1044F00080002000200000000000000000000000FC
:1045000000000000000000000000000000000000AB
:10451000000000000000000000000000000000009B
:10452000000000000000000000000000000000008B
:10453000000000000000000000000000000000007B
:10454000000000000000000021000000000040000A
:104550004000A009AF860E770D770C6F2C77ED76B3
:104560004F7E8001200000000100000020000001BB
:104570008B652E7F2D674C5F2B67AC776B67695718
:10458000A747E747E747E73FE73FE73FE747E74713
:10459000E847E847E847C847A84FCA5F6B676B6FB3
:1045A0006B6F4B6F6B6F6C6F6B676C676B676C6F70
:1045B0006C6F4C6F0D776E7E000140002000000094
:1045C00000000000000000000000000000000000EB
:1045D00000000000000000000000000000000000DB
:1045E00000000000000000000000000000000000CB
:1045F00000000000000000000000000000000000BB
:1046000000000000000000000000000000000000AA
:104610000000000000004000600080010D772A5F6C
:10462000495FAA5F89574A5FCE7680016000010822
:10463000010001082000C000C85D6A67694FC94FCA
:10464000C857A857C84FC74FE747E747E73FE7476F
:10465000E73FE747E747E747E847E947E847E847ED
:10466000C847C847C857884FC857E857A857A84FE2
:10467000A84FC84FA84FC84FA84F894F4A578B66BD
:104680006001400020000000000000000000000069
:10469000000000000000000000000000000000001A
:1046A000000000000000000000000000000000000A
:1046B00000000000000000000000000000000000FA
:1046C00000000000000000000000000000000000EA
:1046D0000000000000000000210000002000200079
:1046E0006000E001EC668A578857E95FA74F695779
:1046F000AD66E00180000000010001002000E00044
:10470000E855AA5FA847E847C74FE757E84FE7478C
:10471000E747E74FE847E747E747E747E74FE74F10
:10472000E847E847E847E847E747E747E74FE74F05
:10473000E74FC747C847E847E847E84FE84FE84F23
:10474000E84FC9578A57AB5E800140004000000027
:104750002000000000000000000000000000000039
:104760000000000000000000000000000000000049
:104770000000000000000000000000000000000039
:104780000000000000000000000000000000000029
:104790000000000000000000000000000000000019
:1047A00000000000200040004000A0014C67894F3D
:1047B000E957C74FE74FA957ED6EA0016000000011
:1047C0000000000020000001E74DA957C847E84756
:1047D000E74FE74FE747E74FE74FE74FE84FE74738
:1047E000E74FE64FE74FE74FE74FE747E747E74732
:1047F000C747E74FE647E747E747E747E847E74761
:10480000E847E84FE84FE84FE84FC84FA957AB5E7D
:1048100060014000200000002000000000000000B7
:104820000000000000000000000000000000000088
:104830000000000000000000000000000000000078
:104840000000000000000000000000000000000068
:104850000000000000000000000000000000000058
:104860000000000000000000000020000000200008
:104870004000C0012C5FA94FE857E74FC64FC95F02
:10488000AC66C00140002008200000000000E000ED
:10489000C74DAA5FC947C847C747C747E847E74763
:1048A000E757E74FE74FE74FE74FC647E74FE74781
:1048B000E84FE747E747E747E747E747E647E74780
:1048C000E747E747E847E847E84FC74FE857E74F6C
:1048D000E857A84FAA5FAB5E40014000000000000F
:1048E00000000000000000000000000000000000C8
:1048F00000000000000000000000000000000000B8
:1049000000000000000000000000000000000000A7
:104910000000000000000000000000000000000097
:104920000000000000000000000000000000000087
:1049300040000000000020004000E0012C5F89479B
:10494000A74FA64FC74FA95FCD6EA001A0000000E2
:10495000200020004000C000C84D6A57A947C84742
:10496000C847E847E83FE847E74FC757E757E757E3
:10497000C74FC74FE74FA63FE747E747E747E74738
:10498000E747E74FE747E747E747E74FE84FE84F95
:10499000E857E857C74FC84FE857884F8A57AB6664
:1049A000800140000000000000000000200800001E
:1049B00000000000000000000000000000000000F7
:1049C00000000000000000000000000000000000E7
:1049D00000000000000000000000000000000000D7
:1049E00000000000000000000000000000000000C7
:1049F0000000000000000000000000000000200097
:104A0000200060012D6F6A4FA957E95FA8578A6798
:104A10008C6EC001C0004000400040002000C0007B
:104A2000E955AB5FC94FE947E83FE83FC737E8477B
:104A3000C857A8578857674FA85FC85FE857A74768
:104A4000E747E747E73FE747E74FE74FE747E747EE
:104A5000E747E747E747E847863FE84FA8478847E3
:104A6000A84FA94F4B578C666001800040000000A2
:104A700040080000000000000000000000000000EE
:104A80000000000000000000000000000000000026
:104A90000000000000000000000000000000000016
:104AA0000000000000000000000000000000000006
:104AB00000000000000000000000000000000000F6
:104AC00000000000000020004000A009AF764D6FFC
:104AD0004C6F2B676C770C77AE7E20020001E000F4
:104AE000C000E000C0008001C7458A5FA94FC847E9
:104AF000E847C73FE947A94F6A5F6B6F6B6F6C6F01
:104B00006C774A678A5FE957E74FE747E73FE74730
:104B1000E74FE74FE747E847E747E847E847C84F29
:104B2000EA5F8A578B5F4B5F6C676C672D6FAE7661
:104B3000C0012001E000A000C00080008000200033
:104B40002000000000000000000000000000000045
:104B50000000000000000000000000000000000055
:104B60000000000000000000000000000000000045
:104B70000000000000000000000000000000000035
:104B80000000000000000000200000000000000005
:104B90000000E000E422442344232423442B032385
:104BA000A53325348634C63C8534C534A53CE4346D
:104BB000C756C85FC857E857C84F884FAA57031D44
:104BC000A113421B421B83234323621B65356A5F8B
:104BD000884FE74FE747E747E74FE74FE74FE8479B
:104BE000C84FC84FC94F8A57884EA00BA21B431B02
:104BF0006323431B231BA423C73C642C8534A634A6
:104C00006534663C2844600140000000000000005C
:104C10000000000000000000000000000000000094
:104C20000000000000000000000000000000000084
:104C30000000000000000000000000000000000074
:104C40000000000000000000000000000000000064
:104C5000000000000000000020006000A000A00094
:104C6000400080008000E00060016D764D772A5F93
:104C70006B678B678B6F8967A857C757C757C74F35
:104C8000E85788578C6740032001E000C000A0006F
:104C9000E000200103246B678857E74FE747E63FB2
:104CA000C74FC74FE74FE747E74FE84FC94F6A572E
:104CB000E95580012001A000A000C000C0008001D3
:104CC000AC6E2B676C678C674C674D77AE7E410A84
:104CD0006000000000000000000000000000000074
:104CE00000000000000000000000000000000000C4
:104CF00000000000000000000000000000000000B4
:104D000000000000000000000000000000000000A3
:104D1000000000000000000020004108000000002A
:104D20002008200080006000A10000004000A000DA
:104D300080016C6E4B676957894F8847A84FC84FF1
:104D4000C747E74FE857E74FE747A84F6C6720038F
:104D5000E0008000600040008000E000E31B4B6743
:104D6000684FC747E73FE847E84FE84FE747E7475F
:104D7000E74FE74FC84F6A5F0B5E4001C00040003D
:104D800040008000800060016B5EAB676957484758
:104D9000694F2A5FCC6640028000000000000000DE
:104DA0000000000000000000000000000000000003
:104DB00000000000000000000000000000000000F3
:104DC00000000000000000000000000000000000E3
:104DD00000000000000000000000000000000000D3
:104DE000000000000000000040080000200020003B
:104DF000200000002000800080016C662A5FC957F7
:104E0000E94FC847C747E747E747E747E84FE7475E
:104E1000E747A8474B5F6213A000000000000000B6
:104E20002000C00003248C6FC957E747C63FE73F07
:104E3000E84FE84FE847E747E74FE74FE84F6A5F3B
:104E4000AA5DE0004000400000000000400060015A
:104E50008A5E8A578847C847C84F69574D6F800296
:104E600080000000000000000000000000000000C2
:104E70000000000000000000000000000000000032
:104E80000000000000000000000000000000000022
:104E90000000000000000000000000000000000012
:104EA0000000000000000000000000000000000002
:104EB0000000200020002000000020002000A000B2
:104EC00040018C664A5FC94FE84FE747E747E7472D
:104ED000E74FC747C747E84FE84F88474B67410B45
:104EE00080002108000000082000C000E3238C6F30
:104EF000684FE84FE84FE84FC847E84FE847E847B2
:104F0000E84FC84FC84F6B5FAB6500014000000021
:104F10000100200040004001AB66AA57E84FE74778
:104F2000E847894F2C6F60028000000000000000FD
:104F30000000000000000000000000000000000071
:104F40000000000000000000000000000000000061
:104F50000000000000000000000000000000000051
:104F60000000000000000000000000000000000041
:104F700000000000000000000000000020002000F1
:104F8000210000002000A000A0016C664A5FA95724
:104F9000C84FE74FE747E74FE747C747E847E84FBE
:104FA000C747A94F4B67200B800000002108000075
:104FB0002000C000E3236C6F674FE84FE84FC84FF5
:104FC000C847E847E847E847E84FC84FC84F6A670F
:104FD000AB5D0001600000000100000040006001C6
:104FE0008B5E8957E74FE647E74F89572D77400299
:104FF0008000000000000000000000000000000031
:1050000000000000000000000000000000000000A0
:105010000000000000000000000000000000000090
:105020000000000000000000000000000000000080
:105030000000000000000000000000000000000070
:1050400000000000000000000000000020006000E0
:1050500060016D766C6F6957A84FA84FA84FC84F75
:10506000C747E747E847E847A747A9578C6F811329
:10507000C0000000000020002000E000E31B6B6780
:10508000684FE84FE84FC74FE747E747E747E7472D
:10509000E84FC84FC84F8A67AA5D200180002000F2
:1050A00000000000200060018B66A957E74FE6472B
:1050B000E84F695F0E7720028000000000000000CA
:1050C00000000000000000000000000000000000E0
:1050D00000000000000000000000000000000000D0
:1050E00000000000000000000000000000000000C0
:1050F00000000000000000000000000000000000B0
:10510000000000000000010001000100000000009C
:10511000010000000000A00060012D760C776B6795
:105120006A5F8A5F8A5FA957C84FE84FC747C7477A
:10513000E94F884F4A5F40032001E0008000A00053
:10514000C000200123146B5FA94FC747C747E74F33
:10515000E747E747E747E747E84FC84FC84F8A6741
:10516000AA5D2001800020000000000020006001F6
:10517000AB66A957E74FE747C84F6957ED7620025E
:10518000800000000000000000000000000000009F
:10519000000000000000000000000000000000000F
:1051A00000000000000000000000000000000000FF
:1051B00000000000000000000000000000000000EF
:1051C00000000000000000000000000000000000DF
:1051D0000100010000000000000021082000400044
:1051E00020014C6D6D7EAC766B66CC6ECC6ECA5E6B
:1051F0006957C84FC747E847C747C857AA67400C11
:105200002002C0018001A0016001E00182144A5720
:10521000C94FE847C747E747E747E747E747E74753
:10522000E84FC84FC84F8A67AA5D000160000000C0
:105230000000000040006001AA5EA957E747E74769
:10524000E84769570D772002800000000000000049
:10525000000000000000000000000000000000004E
:10526000000000000000000000000000000000003E
:10527000000000000000000000000000000000002E
:10528000000000000000000000000000000000001E
:10529000000000000000000000000000000000000E
:1052A000200800000000400080008009C001E001EB
:1052B0000002C001C0018002063EC957E84FC7473F
:1052C000C84FC857A95FE84E8A566B5E4B5E2B6687
:1052D0004B662A560A57CA57A847C747C747E747E2
:1052E000E747E747E747E747E84FC84FC84F8A67B0
:1052F000AB5D0001600000000000200020006001A4
:10530000AA56A84FE747E747E84F89572D6F400255
:10531000800000000000000000000000000000000D
:10532000000000000000000000000000000000007D
:10533000000000000000000000000000000000006D
:10534000000000000000000000000000000000005D
:10535000000000000000000000000000000000004D
:1053600000000000200020000000000000080000F5
:1053700020006000C000A000C000A000C0004001EC
:10538000C74D6957C84FE847E84FE84F8747C957A7
:10539000AA5F4A576A5F8B674A676A67AA5FA84F26
:1053A000C847E847E747E747E747E74FE747E847A2
:1053B000E84FC84FC84F6A5FAB65E000400000008F
:1053C0000000200040006001AA56A94FC84FC847FE
:1053D000E84F89572D6F4002800000000000000058
:1053E00000000000000000000000000000000000BD
:1053F00000000000000000000000000000000000AD
:10540000000000000000000000000000000000009C
:10541000000000000000000000000000000000008C
:1054200000000000000000002000200020002000FC
:1054300000004008000000000000000040004000A4
:10544000400040006000C000E9558A5FC84FE8474F
:10545000A747E84FC84FE84FA847C94FA84FA84FE4
:10546000A85FC85FC857A747E847E847E73FE7474F
:10547000E747E74FE847E847E84FC84FC84F6B5F3B
:10548000AB65E0006000000000002000400060010B
:10549000CA5EA957C94FC84FC94F69572D6F4002FF
:1054A000800000000000000000000000000000007C
:1054B00000000000000000000000000000000000EC
:1054C00000000000000000000000000000000000DC
:1054D00000000000000000000000000000000000CC
:1054E00000000000000000000000000000000000BC
:1054F00020002000400020002008000000000108DB
:105500000100010001000000000000000000C000D8
:10551000C9558A5FC847E747C747C74FC84FC84FF5
:10552000E84FE84FE84FE74FE757E74FE74FE747C8
:10553000E73FE73FE747E747E747E74FE847E84701
:10554000E84FC847C84F8B5FAB5D200140000000AB
:105550000000200040006001CA5EA957A94FA84F73
:10556000C9576A5F0D77200280000000000000002C
:10557000000000000000000000000000000000002B
:10558000000000000000000000000000000000001B
:10559000000000000000000000000000000000000B
:1055A00000000000000000000000000000000000FB
:1055B000000000000000000000002000200020008B
:1055C00020000000000000000100010001000100B7
:1055D000000000000000C000C94D8A5FC847E73FD7
:1055E000C747C84FC84FE84FE74FE747E74FE74F78
:1055F000E64FE64FE747E747E73FE73FE747E7473D
:10560000E747E74FE747E747E847C847C84F8B5F9B
:10561000AB5D200140000000000000004000600180
:10562000AA5EA957A84FA84FA84F695F2D776002BF
:1056300080000000000000000000000000000000EA
:10564000000000000000000000000000000000005A
:10565000000000000000000000000000000000004A
:10566000000000000000000000000000000000003A
:10567000000000000000000000000000000000002A
:10568000000000000000000000000000000000001A
:105690000000000000000000000000002000E0000A
:1056A000C84D8A5FC847E73FE74FC84FC84FC84F4C
:1056B000E74FE74FE74FE74FE747E747E747E84759
:1056C000E747E747E747E747E747E74FE747E74762
:1056D000E747E747C84F8A5FCA55200160000000CE
:1056E0000008000040008001CA5EA84FC84FE84F84
:1056F000C84FA95F2C6F4002A0000000000000000E
:105700000000000000000000000000000000000099
:105710000000000000000000000000000000000089
:105720000000000000000000000000000000000079
:105730000000000000000000000000000000000069
:105740000000000000000000000000000000000059
:105750000000000000000000000000000008000839
:10576000000000002000E000C84D895FC847E747FF
:10577000E747E84FC84FE84FE74FE74FE74FE747A6
:10578000E747E747E847E847E747E747E747E647A8
:10579000E647E64FE647E647E747E747C84F8B5FF0
:1057A000CA5D200160000008000800004000800180
:1057B000AB5E8957A94F884F884F6A5F2C6F600294
:1057C000A000200000000000000000000000000019
:1057D00000000000000000000000000000000000C9
:1057E00000000000000000000000000000000000B9
:1057F00000000000000000000000000000000000A9
:105800000000000000000000000000000000000098
:105810000000000000000000000000000000000088
:105820000000200020000008000000000000E00050
:10583000C855895FC847E747E747E747E847E8476C
:10584000E747E747E747E747E747E847C84FE84FF5
:10585000E847E747E747E647E647E74FE647E647D3
:10586000E747E747C84F6B5FCA5D20016000000053
:105870000000000060004001AD764C676C672A5F55
:105880008C674C6FCD764002800020000000000045
:105890000000000000000000000000000000000008
:1058A00000000000000000000000000000000000F8
:1058B00000000000000000000000000000000000E8
:1058C00000000000000000000000000000000000D8
:1058D00000000000000000000000000000000000C8
:1058E0000000000000000000000020002000000870
:1058F000000000002000E000C855895FC84FE7475E
:10590000E747E747E847E847E747E747E747E74725
:10591000E747E847E84FE84FE74FE747E747E747FC
:10592000E747E747E747E747E747E747C84F6B677A
:10593000AB5D000160000000000000004000E000DE
:10594000A94CE844084DC744494DE944894C8001BD
:1059500060000000000000000000000000000000E7
:105960000000000000000000000000000000000037
:105970000000000000000000000000000000000027
:105980000000000000000000000000000000000017
:105990000000000000000000000000000000000007
:1059A00000000000000000000000000000000000F7
:1059B0000000000000000000000020002000E000C7
:1059C000C855895FC84FE747E747E747E847E847D3
:1059D000E747E74FE747E747E73FE747E74FE74F47
:1059E000E74FE74FE747E747E847E84FE747E7472D
:1059F000E747E747C84F6B678B5D000160002000F9
:105A000000000000000040008000E000E000800096
:105A1000A0008000C0004000200000000000000046
:105A20000000000000000000000000000000000076
:105A30000000000000000000000000000000000066
:105A40000000000000000000000000000000000056
:105A50000000000000000000000000000000000046
:105A60000000000000002000000000000000000016
:105A70000000000000000000000000000000000026
:105A8000000020002000E000C8558A5FC84FE747AB
:105A9000E747E747E847E847E747E74FE847E8478A
:105AA000E747E747E74FE74FE74FE74FE747E74766
:105AB000E847E847E847E747E747E747C84F6B67E6
:105AC0008B5D00018000200000000000000000004D
:105AD00060004000000020002000000000000000E6
