:020000040800F2
:1000000000060020950100089D0100089F010008DE
:10001000A1010008A3010008A501000800000000DC
:10002000000000000000000000000000A701000820
:10003000A901000800000000AB010008AD010008A4
:10004000AF010008AF010008AF010008AF010008D0
:10005000AF010008AF010008AF010008AF010008C0
:10006000AF010008AF010008AF010008AF010008B0
:10007000AF010008AF010008AF010008AF010008A0
:10008000AF010008AF010008AF0100080000000048
:10009000000000000000000000000000AF010008A8
:1000A000AF010008AF010008AF010008AF01000870
:1000B000AF010008AF010008AF010008AF01000860
:1000C000AF010008AF010008AF010008AF01000850
:1000D000AF010008AF010008AF01000800000000F8
:1000E000AF010008AF010008AF01000800000000E8
:1000F000000000000000000000000000AF01000848
:1001000000000000AF010008AF010008AF010008C7
:1001100000000000000000000000000000000000DF
:10012000AF010008AF010008AF010008AF010008EF
:10013000AF01000800000000000000000000000007
:10014000000000000000000000000000AF010008F7
:10015000AF010008AF010008AF010008AF010008BF
:10016000AF010008AF01000800000000000000001F
:10017000000000000000000000000000000000007F
:1001800000000000AF0100080000000000000000B7
:10019000AF0100080948804709480047FEE7FEE72D
:1001A000FEE7FEE7FEE7FEE7FEE7FEE7FEE7FEE727
:1001B00004480549054A064B70470000DD01000868
:1001C000FD050008000000200006002000020020BD
:1001D0000002002070477047704700004EF68851BB
:1001E000CEF20001086840F470000860704700001B
:1001F00007B5F14801684FF0010241EA02010160D0
:10020000ED4801684FF0010241EA42010160EA480D
:1002100001684FF0010241EA82010160E7484FF0B6
:1002200055320260E6484FF055320260E5484FF023
:1002300055320260E4484FF0FF320260E3484FF06D
:10024000FF320260E2484FF0FF320260E1484FF0B7
:1002500000020260E0484FF000020260DF484FF009
:1002600000020260DE484FF055320260DD484FF078
:1002700055320260DC484FF05532026007BD2DE96F
:10028000FF5FDA484FF000024FF0010101FA02F17E
:10029000016000F02AF802F10102102AF4DBBDE847
:1002A000FF9F2DE9FF5FD2484FF000024FF00101A0
:1002B00001FA02F1016000F018F802F10102102ABF
:1002C000F4DBBDE8FF9F2DE9FF5FCA484FF0000255
:1002D0004FF0010101FA02F1016000F006F802F1AD
:1002E0000102102AF4DBBDE8FF9F01B5C2480238C5
:1002F0000028FCDC01BD06B5BC490A6822F04002BA
:100300000A6022F020020A6042F008020A6022F02D
:10031000FF0200F0FF0042EA00020A6022F0100231
:100320000A6042F010020A6042F040020A60BDE832
:10033000064006B5AD490A6822F040020A6042F064
:1003400020020A6042F008020A6022F0FF0200F078
:10035000FF0042EA00020A6022F010020A6042F046
:1003600010020A6042F040020A60BDE8064007B58C
:100370009E490A6822F080020A6000F015F942F0F6
:1003800080020A6000F010F94FF03A00FFF7B3FF67
:100390004FF05500FFF7CDFF4FF01100FFF7ABFF17
:1003A00000F002F94FF02100FFF7A5FF4FF0290000
:1003B000FFF7A1FFBDE807403EB505464FF02A0014
:1003C000FFF799FF4FF00000FFF7B3FF4FF0A000D9
:1003D000FFF7AFFF4FF00000FFF7ABFF4FF0EF006C
:1003E000FFF7A7FF4FF02B00FFF785FF4FF000004E
:1003F000FFF79FFF4FF00000FFF79BFF4FF001005A
:10040000FFF797FF4FF03F00FFF793FF4FF02C00EF
:10041000FFF771FF4FEA152105F0FF024FF4163385
:100420000846FFF786FF1046FFF783FF5B1EF7D1F4
:10043000BDE83E403EB505464FF02A00FFF75BFFA2
:100440004FF00000FFF775FF4FF05000FFF771FF0E
:100450004FF00000FFF76DFF4FF0A000FFF769FFBE
:100460004FF02B00FFF747FF4FF00000FFF761FF51
:100470004FF00000FFF75DFF4FF00100FFF759FF5D
:100480004FF03F00FFF755FF4FF02C00FFF733FF11
:100490004FEA152105F0FF024FF416330846FFF727
:1004A00048FF1046FFF745FF5B1EF7D1BDE83E4011
:1004B0003EB505464FF02A00FFF71DFF4FF0000044
:1004C000FFF737FF4FF00000FFF733FF4FF000005A
:1004D000FFF72FFF4FF05000FFF72BFF4FF02B00DF
:1004E000FFF709FF4FF00000FFF723FF4FF0000078
:1004F000FFF71FFF4FF00100FFF71BFF4FF03F001A
:10050000FFF717FF4FF02C00FFF7F5FE4FEA15211C
:1005100005F0FF024FF416330846FFF70AFF1046B6
:10052000FFF707FF5B1EF7D1BDE83E403EB505462D
:100530004FF02A00FFF7DFFE4FF00000FFF7F9FE53
:100540004FF06900FFF7F5FE4FF00000FFF7F1FEF6
:100550004FF08200FFF7EDFE4FF02B00FFF7CBFED0
:100560004FF00000FFF7E5FE4FF09500FFF7E1FECA
:100570004FF00000FFF7DDFE4FF0A000FFF7D9FEBF
:100580004FF02C00FFF7B7FE4FEA152105F0FF02F0
:100590004FF416330846FFF7CCFE1046FFF7C9FEAE
:1005A0005B1EF7D1BDE83E4001B51348401EFDD1AA
:1005B000BDE80140704700003038024000000240B2
:1005C0000004024000080240080002400804024003
:1005D00008080240040002400404024004080240EB
:1005E0000C0002400C0402400C08024014000240BF
:1005F000140402401408024004605600FFF7F8FD9E
:10060000FFF7B5FE4FF47840FFF7D6FE4FF000003D
:10061000FFF74EFF4FF6FF70FFF70CFF4FF6E0704D
:04062000FFF784FF5D
:040000050800019559
:00000001FF
