:020000040800F2
:1000000010060020950100089D0100089F010008CE
:10001000A1010008A3010008A501000800000000DC
:10002000000000000000000000000000A701000820
:10003000A901000800000000AB010008AD010008A4
:10004000AF010008AF010008AF010008AF010008D0
:10005000AF010008AF010008AF010008AF010008C0
:10006000AF010008AF010008AF010008AF010008B0
:10007000AF010008AF010008AF010008AF010008A0
:10008000AF010008AF010008AF0100080000000048
:10009000000000000000000000000000AF010008A8
:1000A000AF010008AF010008AF010008AF01000870
:1000B000AF010008AF010008AF010008AF01000860
:1000C000AF010008AF010008AF010008AF01000850
:1000D000AF010008AF010008AF01000800000000F8
:1000E000AF010008AF010008AF01000800000000E8
:1000F000000000000000000000000000AF01000848
:1001000000000000AF010008AF010008AF010008C7
:1001100000000000000000000000000000000000DF
:10012000AF010008AF010008AF010008AF010008EF
:10013000AF01000800000000000000000000000007
:10014000000000000000000000000000AF010008F7
:10015000AF010008AF010008AF010008AF010008BF
:10016000AF010008AF01000800000000000000001F
:10017000000000000000000000000000000000007F
:1001800000000000AF0100080000000000000000B7
:10019000AF0100080948804709480047FEE7FEE72D
:1001A000FEE7FEE7FEE7FEE7FEE7FEE7FEE7FEE727
:1001B00004480549054A064B70470000DD01000868
:1001C0007D0B000810000020100600201002002007
:1001D0001002002070477047704700004EF68851AB
:1001E000CEF20001086840F470000860704700001B
:1001F00003B5A248016841F007010160A0484FF033
:10020000553101609F484FF0FF3101609E484FF02B
:10021000000101609D484FF0553101609C484FF04E
:10022000000101609B484FF0FF3101609A484FF098
:100230000001016099484FF05531016003BD06B5DA
:1002400097490A6822F400420A6022F480520A6048
:1002500042F480620A6022F0FF0200F0FF0042EAEE
:1002600000020A6022F400620A6042F400620A603E
:1002700042F400420A6006BD704706B588490A6824
:1002800022F400420A6042F480520A6042F4806222
:100290000A6022F0FF0200F0FF0042EA00020A605A
:1002A00022F400620A6042F400620A6042F40042F2
:1002B0000A6006BD704707B579490A6822F4807262
:1002C0000A6000F0D3F842F480720A6000F0CEF8C1
:1002D0004FF03A00FFF7B3FF4FF05500FFF7CDFFA7
:1002E0004FF0C500FFF7ABFF4FF05400FFF7C5FF1D
:1002F0004FF00000FFF7C1FF4FF03600FFF79FFF00
:100300004FF00800FFF7B9FF4FF01100FFF797FF1C
:1003100000F0ACF84FF02900FFF791FF07BD7047E0
:100320002DE9FF5F53F8044B53F8045B4FF02A00AC
:10033000FFF785FF4FEA1120FFF79FFFC8B2FFF7D5
:100340009CFF01EB0400A0F101004FEA1020FFF731
:1003500094FF01EB0400A0F10100FFF78EFF4FF0C6
:100360002B00FFF76CFF4FEA1220FFF786FFD0B299
:10037000FFF783FF02EB0500A0F101004FEA102018
:10038000FFF77BFF02EB0500A0F10100FFF775FF0F
:100390004FF02C00FFF753FF04FB05F633F8020B78
:1003A0004FEA102100F0FF020846FFF766FF1046F3
:1003B000FFF763FF761EF1D1BDE8FF9F70472DE97F
:1003C0003E5C5D464FF02A00FFF739FFB2464FEA28
:1003D0001A2A5046FFF751FF3046FFF74EFFBA4644
:1003E0004FEA1A2A5046FFF748FF3846FFF745FF05
:1003F0004FF02B00FFF723FFC2464FEA1A2A504660
:10040000FFF73BFF4046FFF738FFCA464FEA1A2A7C
:100410005046FFF732FF4846FFF72FFF4FF02C0002
:10042000FFF70DFF4FEA152105F0FF02A7EB060BC2
:100430000BF10A0BA9EB080C0CF10A0C0BFB0CF3EB
:100440000846FFF71AFF1046FFF717FF5B1EF7D1AC
:10045000BDE83E5C704702B54FF0000A1148D0F885
:1004600000A04FF00A0000F001F802BD2DE9FF5F87
:100470000D49091A0029FCDCBDE8FF9F3038024015
:100480000000024008000240040002400C0002404C
:100490000004024008040240040402400C0402402C
:1004A0001400024010040240046056002DE9FF478A
:1004B0004FF000064FF4A0774FF000084FF4F079AA
:1004C0004FF0000BFFF77BFF4FF008064FF49C77CF
:1004D0004FF008084FF49C794FF6FF7BFFF76FFF52
:1004E0004FF068064FF070074FF008084FF49C7902
:1004F0004FF0000BFFF763FF4FF0D0064FF0D80727
:100500004FF008084FF49C794FF0000BFFF757FFAE
:100510004FF008064FF49C774FF068084FF07009D1
:100520004FF0000BFFF74BFF4FF008064FF49C779E
:100530004FF0D0084FF0D8094FF0000BFFF73FFF06
:10054000BDE8FF4770472DE9FF5FA1F108060F46A0
:10055000A2F1080802F16809FFF731FFA1F10806CE
:1005600001F16807A2F108089146FFF728FFA1F101
:10057000080601F1680702F1600802F16809FFF757
:100580001EFF01F1600601F16807A2F1080802F1FF
:100590006809FFF714FFBDE8FF9F2DE900584FF0F1
:1005A000000BFFF7D0FFD4460CF00F0CBCF1010F8D
:1005B00009D0BCF1020F0BD0BCF1040F12D0BCF17A
:1005C000080F0AD013E0D82A11D002F168020EE019
:1005D000082A0CD0A2F1680209E0082907D0A1F18D
:1005E000680104E0D82902D001F16801FFE74FF665
:1005F000E07BFFF7A8FFBDE800982DE9FF5F4FF013
:10060000000C082909D070290AD0D8290BD0082A53
:100610000CD0702A0DD0D82A0ED00CF1010CF6E7C0
:100620000CF1020CF3E70CF1040CF0E70CF1080CF0
:1006300005E00CF1100C02E00CF1200CFFE7BCF11E
:10064000240F17D0BCF1220F17D0BCF1210F17D007
:10065000BCF1140F17D0BCF1120F17D0BCF1110F61
:1006600017D0BCF10C0F17D0BCF10A0F17D0BCF19A
:10067000090F17D04FF0010C17E04FF0020C14E0F7
:100680004FF0030C11E04FF0040C0EE04FF0050C9E
:100690000BE04FF0060C08E04FF0070C05E04FF0C0
:1006A000080C02E04FF0090CFFE7DFF884B0DBF83C
:1006B00000B04FEA4C04A4F102044FF0030505FA20
:1006C00004F50BEA050525FA04F5022D58D0012D95
:1006D00056D04FF0030505FA04F52BEA050BDFF8B9
:1006E00054A0DAF800A00AF0020ABAF1020F02D010
:1006F000BAF1000F22D0AAF1020A4FF0010505FA63
:1007000004F54BEA050B0A48C0F800B04FF060034F
:100710004FF0000B00F04EF90648C0F800A0064864
:10072000D0F800A00AF1010AC0F800A034E00000EF
:100730000000002004000020080000200AF1020A46
:100740004FF0020505FA04F54BEA050B0948C0F81D
:1007500000B04FF060034FF0000B00F05DF9064869
:10076000C0F800A00548D0F800A00AF1010AC0F8BE
:1007700000A011E00000002004000020080000207C
:100780004FF4784BFFF7DFFE4FF00500FFF76EFEEA
:100790004FF6E07BFFF7D7FEBDE8FF9F2DE9FF5F37
:1007A0004FF00001EE4844F2041241F2410341F2DD
:1007B0001014EC4DEC4E42F2820742F2202848F22F
:1007C0000829DFF8A8A3DFF8A8B3016801EA02014D
:1007D000914253D0016801F0150115294ED00168EE
:1007E00001EA0301994249D0016801EA0401A142EA
:1007F00044D0016801EA0501A9423FD0016801EA3D
:100800000601B1423AD0016801F4A861B1F5A86FC0
:1008100034D0016801F4A831B1F5A83F2ED00168A9
:1008200001EA0701B9422FD0016801EA08014145F8
:100830002AD0016801F02A012A2925D0016801EA9D
:100840000901494520D0016801EA0A0151451BD040
:10085000016801F42861B1F5286F15D0016801F431
:100860002831B1F5283F0FD0016801EA0B01594545
:100870000AD0C04E3668092E0CD011E000F012F8F4
:100880004FF0FF3101600BE000F027F84FF0FF312F
:10089000016005E000F03BF84FF0FF310160FFE739
:1008A000BDE8FF9F2DE9FF5F4FF000064FF4A077F2
:1008B0004FF000084FF4F0794FF6FF7BFFF77FFD14
:1008C0004FF071014FF0C1024FF060034FF2FF0B88
:1008D00000F070F8A848BDE8FF9F2DE9FF5F4FF0DA
:1008E00000064FF4A0774FF000084FF4F0794FF670
:1008F000FF7BFFF764FD4FF071014FF0C1024FF035
:1009000060034FF2FF0B00F087F8BDE8FF9F2DE971
:10091000FF5F4FF000064FF4A0774FF000084FF450
:10092000F0794FF4784BFFF74AFDBDE8FF9F00B523
:1009300000BD2DE9FF5F5FF804C24FF0100BCCF84B
:1009400000B0FFF7B3FD5FF818C24FF0000BCCF812
:1009500000B05FF81CC24FF0000BCCF800B04FF0B5
:1009600070014FF070024FF6E07BFFF7ECFDFFF7F0
:1009700072FD0AF01F0ABAF1000FF8D0BAF1100F99
:1009800002D0FFF70AFEF2E7FFF737FE4FF0000B49
:10099000FFF7D9FDFFF702FF71480068B0F1FF3F94
:1009A00000D0DCE7FFF757FD0AF01F0ABAF1000F8D
:1009B000F8D0C6E72DE9FF5F4FF0070A55464FEA2A
:1009C0005505AAEB050CACF1010C4FF0000401EB4E
:1009D0000400A0EB050600EB0C0702EB0400A0EB03
:1009E000050800EB0C09FFF7EAFCA3EB0400A0F1FB
:1009F00001000844A0EB050600EB0C0702EB040025
:100A0000A0EB050800EB0C09FFF7D9FC04F1010489
:100A10009C42DCDBBDE8FF9F2DE9FF5F4FF0060A3B
:100A200055464FEA5505AAEB050CACF1010C1846EA
:100A30004FEA500001EB000302EB00044FF000010D
:100A4000024602F101024FF00107A7EB000700F098
:100A500013F891420EDC002F03DDA2F10102A7EB97
:100A6000420707EB410707F1010700F005F801F124
:100A70000101EEE7BDE8FF9F2DE9FF5F03EB0100F9
:100A800004EB020AA0EB050600EB0C07AAEB050835
:100A90000AEB0C09FFF793FC03EB020004EB010ADD
:100AA000A0EB050600EB0C07AAEB05080AEB0C0906
:100AB000FFF785FCA3EB020004EB010AA0EB05069F
:100AC00000EB0C07AAEB05080AEB0C09FFF777FC13
:100AD000A3EB010004EB020AA0EB050600EB0C07F8
:100AE000AAEB05080AEB0C09FFF769FCA3EB010070
:100AF000A4EB020AA0EB050600EB0C07AAEB050825
:100B00000AEB0C09FFF75BFCA3EB0200A4EB010A64
:100B1000A0EB050600EB0C07AAEB05080AEB0C0995
:100B2000FFF74DFC03EB0200A4EB010AA0EB050666
:100B300000EB0C07AAEB05080AEB0C09FFF73FFCDA
:100B400003EB0100A4EB020AA0EB050600EB0C0787
:100B5000AAEB05080AEB0C09FFF731FCBDE8FF9F83
:100B60000000002001010100100401002008020023
:100B7000020202000800002004000020FFF738FBFA
:100B8000FFF799FBFFF7D5FE000000000000000012
:040B90000000000061
:040000050800019559
:00000001FF
