:020000040800F2
:10000000C0060020950300089D0300089F03000818
:10001000A1030008A3030008A503000800000000D6
:10002000000000000000000000000000A70300081E
:10003000A903000800000000AB030008AD0300089E
:10004000AF030008AF030008AF030008AF030008C8
:10005000AF030008AF030008AF030008AF030008B8
:10006000AF030008AF030008AF030008AF030008A8
:10007000AF030008AF030008AF030008AF03000898
:10008000AF030008AF030008AF0300080000000042
:10009000000000000000000000000000AF030008A6
:1000A000AF030008AF030008AF030008AF03000868
:1000B000AF030008AF030008AF030008AF03000858
:1000C000AF030008AF030008AF030008AF03000848
:1000D000AF030008AF030008AF03000800000000F2
:1000E000AF030008AF030008AF03000800000000E2
:1000F000000000000000000000000000AF03000846
:1001000000000000AF030008AF030008AF030008C1
:1001100000000000000000000000000000000000DF
:10012000AF030008AF030008AF030008AF030008E7
:10013000AF03000800000000000000000000000005
:10014000000000000000000000000000AF030008F5
:10015000AF030008AF030008AF030008AF030008B7
:10016000AF030008AF03000800000000000000001B
:10017000000000000000000000000000000000007F
:1001800000000000AF0300080000000000000000B5
:10019000AF0300082DE9FF5F4FF000064FF4A07792
:1001A0004FF000084FF4F0794FF4784B00F01CFA50
:1001B0004FF0000B4FF000014FF00003502B1DD00B
:1001C000494850F803904FF000044FF000021E2CF5
:1001D0000FD04FF0010A0AFA04FA19EA0A0F03D005
:1001E0004FF0000B00F00CF802F1100204F10104D2
:1001F000EDE701F1100103F10403DFE7BDE8FF9F24
:100200002DE9C0430E4606F13207904608F1320947
:1002100000F0EAF9BDE8C0832DE9FF5F4FF000066A
:100220004FF4A0774FF000084FF4F0794FF4784B7B
:1002300000F0DAF94FF0000B4FF000014FF000032F
:10024000142B1BD0284810F803904FF000044FF0F7
:100250000002202C0DD04FF0010A0AFA04FA19EA24
:100260000A0F01D0FFF7CCFF02F1100204F10104E4
:10027000EFE701F1100103F10103E1E7BDE8FF9FA2
:100280002DE9FF5F4FF000064FF4A0774FF0000814
:100290004FF4F0794FF47C4B00F0A6F94FF00001D9
:1002A0004FF4E0724FF4FC6BFFF7AAFF4FF4987124
:1002B0004FF010024FF01F0BFFF7A2FF4FF0000BA3
:1002C0004FF000014FF00003142B20D04FF000043A
:1002D0004FF00002202C15D04FF0010A0AFA04FA60
:1002E000014800F003F800006800002010F80390B7
:1002F00019EA0A0F01D0FFF783FF02F1100204F19F
:100300000104E7E701F1100103F10103DCE7BDE8B7
:10031000FF5F70472DE9FF5F0E4601F11007904621
:1003200002F1100900F060F9BDE8FF5F70472DE9A8
:1003300000584FF0000BFFF7EDFFD4460CF00F0C08
:10034000BCF1010F09D0BCF1020F0CD0BCF1040FBD
:1003500014D0BCF1080F0BD015E0B2F5E87F12D035
:1003600002F110020FE0002A0DD0A2F110020AE003
:10037000B1F5A07F07D0A1F1100104E0102902D04F
:1003800001F11001FFE74FF4FC6BFFF7C3FFBDE87D
:10039000009800000948804709480047FEE7FEE74B
:1003A000FEE7FEE7FEE7FEE7FEE7FEE7FEE7FEE725
:1003B00004480549054A064B70470000DD03000864
:1003C00065140008C0000020C0060020C002002004
:1003D000C002002070477047704700004EF68851F9
:1003E000CEF20001086840F4700008607047000019
:1003F00003B53148016841F0070101602F484FF013
:10040000553101602E484FF0FF3101602D484FF00B
:10041000000101602C484FF0553101602B484FF02E
:10042000000101602A484FF0FF31016029484FF078
:100430000001016028484FF05531016003BD06B549
:1004400026490A6822F400420A6022F480520A60B7
:1004500042F480620A6022F0FF0200F0FF0042EAEC
:1004600000020A6022F400620A6042F400620A603C
:1004700042F400420A6006BD704706B517490A6893
:1004800022F400420A6042F480520A6042F4806220
:100490000A6022F0FF0200F0FF0042EA00020A6058
:1004A00022F400620A6042F400620A6042F40042F0
:1004B0000A6006BD7047000030380240000002406C
:1004C00008000240040002400C0002400004024008
:1004D00008040240040402400C04024014000240DC
:1004E00007B5FC490A6822F480720A6000F0D3F86C
:1004F00042F480720A6000F0CEF84FF03A00FFF745
:100500009EFF4FF05500FFF7B8FF4FF0C500FFF713
:1005100096FF4FF05400FFF7B0FF4FF00000FFF7D9
:10052000ACFF4FF03600FFF78AFF4FF00800FFF7EF
:10053000A4FF4FF01100FFF782FF00F0ACF84FF07E
:100540002900FFF77CFF07BD70472DE9FF5F53F8D7
:10055000044B53F8045B4FF02A00FFF770FF4FEA9B
:100560001120FFF78AFFC8B2FFF787FF01EB0400F5
:10057000A0F101004FEA1020FFF77FFF01EB04001C
:10058000A0F10100FFF779FF4FF02B00FFF757FFB5
:100590004FEA1220FFF771FFD0B2FFF76EFF02EBB8
:1005A0000500A0F101004FEA1020FFF766FF02EB03
:1005B0000500A0F10100FFF760FF4FF02C00FFF7EE
:1005C0003EFF04FB05F633F8020B4FEA102100F062
:1005D000FF020846FFF751FF1046FFF74EFF761E59
:1005E000F1D1BDE8FF9F70472DE93E5C5D464FF0BD
:1005F0002A00FFF724FFB2464FEA1A2A5046FFF7B7
:100600003CFF3046FFF739FFBA464FEA1A2A5046F8
:10061000FFF733FF3846FFF730FF4FF02B00FFF7AF
:100620000EFFC2464FEA1A2A5046FFF726FF404601
:10063000FFF723FFCA464FEA1A2A5046FFF71DFF6D
:100640004846FFF71AFF4FF02C00FFF7F8FE4FEA7D
:10065000152105F0FF02A7EB060B0BF10A0BA9EB26
:10066000080C0CF10A0C0BFB0CF30846FFF705FF16
:100670001046FFF702FF5B1EF7D1BDE83E5C7047F6
:1006800002B54FF0000A9448D0F800A04FF00A00DD
:1006900000F001F802BD2DE9FF5F9049091A002919
:1006A000FCDCBDE8FF9F02B58D490868002808BF43
:1006B000012080EA403080EA504080EA4010086023
:1006C00002BD88480068002808BF012084490860EE
:1006D00070472DE9E043A94604EB030505EB8305CC
:1006E00000F013F800F041F807464FF0000627FA33
:1006F00006FC0CF0FF0C00F081F82A4406F1080615
:10070000B9F10109F3D1BDE8E0833EB501464FF0F0
:1007100000024FF01003144604F00F05052D28BF0A
:10072000D21C04F0F0054FEA1515052D28BF303214
:1007300004F470654FEA1525052D28BF02F54072B7
:1007400004F470454FEA1535052D28BF02F54052D7
:100750004FEA420211F4004F18BF42F001024FEA83
:1007600041015B1ED7D110463EBD7EB54FF0000261
:100770004FF000014FF0040300F00F04002C14D0E0
:10078000012C15D0022C16D0032C17D0042C18D015
:10079000052C19D0062C1AD0072C1BD0082C1CD0E5
:1007A000092C1DD04FF000051CE04FF03F0519E06B
:1007B0004FF0060516E04FF05B0513E04FF04F05D4
:1007C00010E04FF066050DE04FF06D050AE04FF0C8
:1007D0007D0507E04FF0070504E04FF07F0501E0DD
:1007E0004FF06F0505FA01F642EA060201F1080131
:1007F0004FEA10105B1EBFD110467EBD2DE9E043CD
:100800001CF0010F0CD002EB030808EB040901EB0C
:1008100003061E442644264406EB0307FFF7E4FEC6
:100820001CF0020F0DD0904602EB030901EB040609
:100830001E441E4401EB03071F4427442744FFF7CF
:10084000D3FE1CF0040F08D0904608EB030901EB1F
:10085000030606EB0407FFF7C7FE1CF0080F08D0DD
:1008600002EB030808EB04090E4601EB0307FFF750
:10087000BBFE1CF0100F0AD002EB0308A04408EBEB
:10088000030901EB030606EB0407FFF7ADFE1CF0BE
:10089000200F0FD002EB0308A04408EB030901EB83
:1008A00003061E44264401EB03071F442744274444
:1008B000FFF79AFE1CF0400F0AD002EB030808EB8A
:1008C000040901EB0306264406EB0307FFF78CFE41
:1008D000BDE8E083140002401004024004605600AA
:1008E0000000002018E000E02DE9FF474FF000066F
:1008F0004FF4A0774FF000084FF4F0794FF0000B61
:10090000FFF772FE4FF008064FF49C774FF008088F
:100910004FF49C794FF6FF7BFFF766FE4FF06806B9
:100920004FF070074FF008084FF49C794FF0000B20
:10093000FFF75AFE4FF0D0064FF0D8074FF00808E7
:100940004FF49C794FF0000BFFF74EFE4FF0080676
:100950004FF49C774FF068084FF070094FF0000B90
:10096000FFF742FE4FF008064FF49C774FF0D00897
:100970004FF0D8094FF0000BFFF736FE4FF4BE7270
:100980004FF050014FF032034FF4784B00F07AFAF9
:100990008E48006840F27B124FF01E014FF00203B8
:1009A0004FF010044FF00205FFF793FE4FF4BE72B4
:1009B0004FF0FA014FF032034FF4784B00F09AFAFF
:1009C0008348006840F27B124FF0C8014FF00203E9
:1009D0004FF010044FF00205FFF77BFEBDE8FF4724
:1009E00070472DE9FF5FA1F108060F46A2F1080844
:1009F00002F16809FFF7F8FDA1F1080601F16807A7
:100A0000A2F108089146FFF7EFFDA1F1080601F1F8
:100A1000680702F1600802F16809FFF7E5FD01F1DE
:100A2000600601F16807A2F1080802F16809FFF702
:100A3000DBFDBDE8FF9F2DE900584FF0000BFFF7ED
:100A4000D0FFD4460CF00F0CBCF1010F09D0BCF163
:100A5000020F0BD0BCF1040F12D0BCF1080F0AD06A
:100A600013E0D82A11D002F168020EE0082A0CD057
:100A7000A2F1680209E0082907D0A1F1680104E0A9
:100A8000D82902D001F16801FFE74FF6E07BFFF7BC
:100A9000A8FFBDE800982DE9FF5F4FF0000C082982
:100AA00009D070290AD0D8290BD0082A0CD0702A76
:100AB0000DD0D82A0ED00CF1010CF6E70CF1020C87
:100AC000F3E70CF1040CF0E70CF1080C05E00CF175
:100AD000100C02E00CF1200CFFE7BCF1240F17D042
:100AE000BCF1220F17D0BCF1210F17D0BCF1140FAD
:100AF00017D0BCF1120F17D0BCF1110F17D0BCF1F9
:100B00000C0F17D0BCF10A0F17D0BCF1090F17D08A
:100B10004FF0010C17E04FF0020C14E04FF0030C03
:100B200011E04FF0040C0EE04FF0050C0BE04FF01D
:100B3000060C08E04FF0070C05E04FF0080C02E04F
:100B40004FF0090CFFE7DFF88CB0DBF800B04FEA9C
:100B50004C04A4F102044FF0030505FA04F50BEA76
:100B6000050525FA04F5022D5CD0012D5AD04FF071
:100B7000030505FA04F52BEA050BDFF85CA0DAF8AB
:100B800000A00AF0020ABAF1020F02D0BAF1000F77
:100B900026D0AAF1020A4FF0010505FA04F54BEA46
:100BA000050B0C48C0F800B04FF060034FF0000B8D
:100BB00000F068F90848C0F800A00848D0F800A084
:100BC0000AF1010AC0F800A038E00000100000207F
:100BD0001400002004000020080000200C00002069
:100BE0000AF1020A4FF0020505FA04F54BEA050B7B
:100BF0000948C0F800B04FF060034FF0000B00F060
:100C000079F90648C0F800A00548D0F800A00AF11C
:100C1000010AC0F800A011E0040000200800002034
:100C20000C0000204FF4784BFFF7DBFE4FF005007F
:100C3000FFF731FD4FF6E07BFFF7D3FEBDE8FF9FE6
:100C40002DE9FF5F4FF00001FF4844F2041241F22A
:100C5000410341F21014FD4DFD4E42F2820742F273
:100C6000202848F20829DFF8ECA3DFF8ECB301688C
:100C700001EA0201914253D0016801F015011529E2
:100C80004ED0016801EA0301994249D0016801EAA6
:100C90000401A14244D0016801EA0501A9423FD004
:100CA000016801EA0601B1423AD0016801F4A86185
:100CB000B1F5A86F34D0016801F4A831B1F5A83FAF
:100CC0002ED0016801EA0701B94236D0016801EA75
:100CD0000801414531D0016801F02A012A292CD0B0
:100CE000016801EA0901494527D0016801EA0A01C2
:100CF000514522D0016801F42861B1F5286F1CD05C
:100D0000016801F42831B1F5283F16D0016801EAE5
:100D10000B01594511D0D14E3668092E1AD01FE06B
:100D200000F020F8CE49D1F800C00CF1010CC1F858
:100D300000C04FF0FF31016012E000F02EF8C94909
:100D4000D1F800C00CF1010CC1F800C04FF0FF3128
:100D5000016005E000F03BF84FF0FF310160FFE774
:100D6000BDE8FF9F2DE9FF5F4FF000064FF4A0772D
:100D70004FF000084FF4F0794FF6FF7BFFF734FC9B
:100D80004FF071014FF0C1024FF060034FF2FF0BC3
:100D900000F078F8B448BDE8FF9F2DE9FF5F4FF001
:100DA00000064FF4A0774FF000084FF4F0794FF6AB
:100DB000FF7BFFF719FC4FF071014FF0C1024FF0BC
:100DC00060034FF2FF0B00F095F8BDE8FF9F2DE99F
:100DD000FF5F4FF000064FF4A0774FF000084FF48C
:100DE000F0794FF4784BFFF7FFFBBDE8FF9F00B5AC
:100DF00000BD2DE9FF5F5FF820C24FF0100BCCF86B
:100E000000B097484FF00001016096484FF0000194
:100E10000160FFF769FD5FF844C24FF0000BCCF8AA
:100E200000B05FF848C24FF0000BCCF800B04FF0B4
:100E300070014FF070024FF6E07BFFF7D2FDFFF735
:100E40001FFC0AF01F0ABAF1000FF8D0BAF1100F18
:100E500002D0FFF7F0FDF2E7FFF71DFE4FF0000BA9
:100E6000FFF7BFFDFFF7ECFE77480068B0F1FF3FEA
:100E700000D0DCE7FFF704FC0AF01F0ABAF1000F0C
:100E8000F8D0C6E72DE9FF5F01F10A0102F10A027D
:100E9000A3F114034FF0080A55464FEA5505AAEB93
:100EA000050CACF1010C4FF0000401EB0400A0EBC9
:100EB000050600EB0C0702EB0400A0EB050800EBB5
:100EC0000C09FFF791FBA3EB0400A0F1010008441B
:100ED000A0EB050600EB0C0702EB0400A0EB0508F5
:100EE00000EB0C09FFF780FB04F101049C42DCDB02
:100EF000BDE8FF9F2DE9FF5F01F10A0102F10A023F
:100F0000A3F114034FF0080A55464FEA5505AAEB22
:100F1000050CACF1010C18464FEA500001EB000340
:100F200002EB00044FF00001024602F101024FF013
:100F30000107A7EB000700F013F891420EDC002F29
:100F400003DDA2F10102A7EB420707EB410707F11E
:100F5000010700F005F801F10101EEE7BDE8FF9F90
:100F60002DE9FF5F03EB010004EB020AA0EB05068D
:100F700000EB0C07AAEB05080AEB0C09FFF734FBA2
:100F800003EB020004EB010AA0EB050600EB0C07E3
:100F9000AAEB05080AEB0C09FFF726FBA3EB0200FE
:100FA00004EB010AA0EB050600EB0C07AAEB050811
:100FB0000AEB0C09FFF718FBA3EB010004EB020A94
:100FC000A0EB050600EB0C07AAEB05080AEB0C09E1
:100FD000FFF70AFBA3EB0100A4EB020AA0EB050656
:100FE00000EB0C07AAEB05080AEB0C09FFF7FCFA6B
:100FF000A3EB0200A4EB010AA0EB050600EB0C0733
:10100000AAEB05080AEB0C09FFF7EEFA03EB020066
:10101000A4EB010AA0EB050600EB0C07AAEB050800
:101020000AEB0C09FFF7E0FA03EB0100A4EB020A5C
:10103000A0EB050600EB0C07AAEB05080AEB0C0970
:10104000FFF7D2FABDE8FF9F040000200101010074
:101050001004010020080200020202000C0000201F
:101060001000002014000020080000202DE9C043DB
:101070000E4606F13207904608F13209FFF7B4FA3E
:10108000BDE8C0832DE9FF5F4FF000064FF4A07765
:101090004FF000084FF4F0794FF6B20BFFF7A4FAC7
:1010A0004FF00A064FF49B774FF028084FF4DC7995
:1010B00040F2FF7BFFF798FA4FF6205B4FF00A01F2
:1010C0004FF00003062B1DD0E34810F803904FF0BB
:1010D00000044FF02802082C0FD04FF0010A0AFA42
:1010E00004FA19EA0A0F03D04FF6205BFFF7BEFFA0
:1010F00002F1320204F10104EDE701F1320103F1E2
:101100000103DFE7BDE8FF9F2DE9F75F57469A46E9
:1011100000F054F8A34247D04FF6E07B4FF00F00A9
:10112000012F0ED106F1320708F13209FFF75CFA00
:10113000FFF7B1FA03F1010308F13208A342F1D13C
:1011400032E0022F0ED106F1320708F13209FFF723
:101150004BFAFFF7A0FAA3F10103A8F13208A3426A
:10116000F1D121E0042F0ED108F1320906F1320746
:10117000FFF73AFAFFF78FFA03F1080306F1320698
:10118000A342F1D110E0082F0ED108F1320906F187
:101190003207FFF729FAFFF77EFAA3F10803A6F159
:1011A0003206A342F1D1FFE706F1320708F1320916
:1011B0004FF0000BFFF718FABDE8F79F3FB54FF06F
:1011C00032054FEADA0404FB05F303F10A060AF0DC
:1011D000070404FB05F303F128083FBD2DE9E744AC
:1011E000514601F00F01042906D008291ED001291B
:1011F00035D0022950D06CE097481C464FEAD406FF
:1012000004F007054FF0010202FA05F2052E60D046
:10121000914806F10106875D17425AD147EA020755
:10122000875504F10804052EF2D152E01C464FEA1E
:10123000D40604F007054FF0010202FA05F2002E71
:1012400047D08548A6F10106875D174241D147EA9C
:1012500002078755A4F10804002EF2D139E01C469C
:101260004FEAD40604F007054FF0010202FA05F236
:10127000072D2ED0784805F101054FF0010202FA42
:1012800005F2875D174224D147EA0207875504F12A
:101290000104072DEED11CE01C464FEAD40604F0F1
:1012A00007054FF0010202FA05F2002D11D06A483D
:1012B000A5F101054FF0010202FA05F2875D174220
:1012C00007D147EA02078755A4F10104002DEED1AA
:1012D000FFE7BDE8E7842DE9FD5F4FEAD30603F0A1
:1012E00007074FF00508A8EB06084FF00709A9EB20
:1012F0000709B8F1000F0BDD06F1010B564C14F88D
:101300000B504FF0010000FA07F0054200D15DE0FC
:10131000B8F1050F0BDAA6F1010B4F4C14F80B5086
:101320004FF0010000FA07F0054200D14EE014F83A
:101330000850B9F1000F0ADD474CA55D07F1010C1B
:101340004FF0010000FA0CF0054200D13EE0B9F187
:10135000070F0ADA404CA55DA7F1010C4FF0010020
:1013600000FA0CF0054200D130E03B4C2578FF2D0F
:101370001DD16578FF2D1AD1A578FF2D17D1E578FD
:10138000FF2D14D12579FF2D11D16579FF2D0ED1B7
:101390004FF0FF014FF000064FF4A0774FF0000828
:1013A0004FF4F0794FF4FC6BFFF71EF910E040F6B4
:1013B000AA214FF000064FF4A0774FF000084FF439
:1013C000F0794FF4784BFFF70FF901E04FF000018F
:1013D000BDE8FD9F2DE9FF5F4FF00309CC46ACF15E
:1013E000010C1E4B13F80C301C464FF006020CFB90
:1013F00002FC4FF000021A4860441749835C8B548A
:1014000002F10102062AF6D1FFF73CFE2346FFF760
:101410007BFEFFF760FF002909D1FFF731F90AF0E1
:101420000F0ABAF1000FF8D0FFF7D8FEEFE74FF040
:101430000100FFF730F9FFF723F90AF01F0ABAF1AC
:10144000000FF8D0FF2908BF09F10109B9F1030F16
:10145000C4DDBDE8FF9F0000B8000020A214000812
:1014600090140008FFF72DF9FEF7C2FFFFF738F8D8
:10147000FFF719F94FF032014FF032024FF002033B
:101480004FF010044FF0040540F2FF2BFFF721F955
:1014900081A581CBD9C10008801054048CA088E0BC
:1014A00080802424130000000100000000000000E0
:1014B000000000000000000000000000000000002C
:1014C000000000003AFFEB132A0029162E7FA91412
:1014D0002041AF15E061ED1B0E21EF15CA2E091456
:1014E0004A2AF914FA2A8117803C1F1C8004150827
:1014F0008405D50B84FD570A7401500B1CFC500960
:101500001084700910BF000FFE80FF010200000070
:10151000000000103AFFEB132A0029162E7FA914B1
:101520002041AF15E061ED1B0E21EF15CA2E091405
:101530004A2AF914FA2A8117803C1F1C80041508D6
:101540008405D50B84FD570A7401500B1CFC50090F
:101550001084700910BF000FFE80FF010200000020
:08156000000000000000000083
:040000050800039557
:00000001FF
