:020000040800F2
:1000000008060020950100089D0100089F010008D6
:10001000A1010008A3010008A501000800000000DC
:10002000000000000000000000000000A701000820
:10003000A901000800000000AB010008AD010008A4
:10004000AF010008AF010008AF010008AF010008D0
:10005000AF010008AF010008AF010008AF010008C0
:10006000AF010008AF010008AF010008AF010008B0
:10007000AF010008AF010008AF010008AF010008A0
:10008000AF010008AF010008AF0100080000000048
:10009000000000000000000000000000AF010008A8
:1000A000AF010008AF010008AF010008AF01000870
:1000B000AF010008AF010008AF010008AF01000860
:1000C000AF010008AF010008AF010008AF01000850
:1000D000AF010008AF010008AF01000800000000F8
:1000E000AF010008AF010008AF01000800000000E8
:1000F000000000000000000000000000AF01000848
:1001000000000000AF010008AF010008AF010008C7
:1001100000000000000000000000000000000000DF
:10012000AF010008AF010008AF010008AF010008EF
:10013000AF01000800000000000000000000000007
:10014000000000000000000000000000AF010008F7
:10015000AF010008AF010008AF010008AF010008BF
:10016000AF010008AF01000800000000000000001F
:10017000000000000000000000000000000000007F
:1001800000000000AF0100080000000000000000B7
:10019000AF0100080948804709480047FEE7FEE72D
:1001A000FEE7FEE7FEE7FEE7FEE7FEE7FEE7FEE727
:1001B00004480549054A064B70470000DD01000868
:1001C000710A00080800002008060020080200202C
:1001D0000802002070477047704700004EF68851B3
:1001E000CEF20001086840F470000860704700001B
:1001F00007B5174801684FF0010241EA02010160AA
:10020000134801684FF0010241EA420101601048C1
:1002100001684FF0010241EA820101600D484FF090
:10022000553202600C484FF0000202600B484FF05C
:10023000553202600A484FF0FF32026009484FF021
:10024000FF32026008484FF0FF32026000F00EF803
:100250003038024000000240000402400008024022
:100260000800024008040240080802400B484FF012
:10027000000202600A484FF00002026009484FF095
:100280000002026008484FF05532026007484FF004
:100290005532026006484FF05532026004000240B9
:1002A00004040240040802400C0002400C04024016
:1002B0000C08024007BD06B509490A6822F400424D
:1002C0000A6022F480520A6042F480620A6022F0DE
:1002D000FF0200F0FF0042EA00020A6000F002F8AC
:1002E0001400024022F400620A6042F400620A60D4
:1002F00042F400420A6006BD704706B509490A6823
:1003000022F400420A6042F480520A6042F48062A1
:100310000A6022F0FF0200F0FF0042EA00020A60D9
:1003200000F002F81400024022F400620A6042F475
:1003300000620A6042F400420A6006BD704707B5D9
:1003400000F000F80A490A6822F480720A6000F09E
:10035000B4F942F480720A6000F0AFF94FF03A004D
:10036000FFF7A9FF4FF05500FFF7C7FF00F002F8B5
:10037000140002404FF0C500FFF79DFF4FF05400FE
:10038000FFF7BBFF4FF00000FFF7B7FF4FF036005D
:10039000FFF791FF4FF00800FFF7AFFF4FF011009C
:1003A000FFF789FF00F089F94FF02900FFF783FF7D
:1003B00007BD70472DE9FF5F53F8044B53F8045B0A
:1003C0004FF02A00FFF777FF4FEA1120FFF795FF64
:1003D000C8B2FFF792FF01EB0400A0F101004FEA61
:1003E0001020FFF78AFF01EB0400A0F10100FFF7E6
:1003F00084FF4FF02B00FFF75EFF4FEA1220FFF75C
:100400007CFFD0B2FFF779FF02EB0500A0F10100FD
:100410004FEA1020FFF771FF02EB0500A0F1010089
:10042000FFF76BFF4FF02C00FFF745FF04FB05F6CD
:1004300033F8020B4FEA102100F0FF020846FFF7E5
:100440005CFF1046FFF759FF761EF1D1BDE8FF9F14
:1004500070472DE9FF474FF000064FF4A0774FF0AB
:1004600000084FF4F0794FF0000B00F0DAF84FF08D
:1004700008064FF49C774FF008084FF49C794FF62C
:10048000FF7B00F0CEF84FF068064FF070074FF09A
:1004900008084FF49C794FF0000B00F0C2F84FF0C1
:1004A000D0064FF0D8074FF008084FF49C794FF072
:1004B000000B00F0B6F84FF008064FF49C774FF0B1
:1004C00068084FF070094FF0000B00F0AAF84FF0E9
:1004D00008064FF49C774FF0D0084FF0D8094FF042
:1004E000000B00F09EF8BDE8FF47704700B5A1F192
:1004F00008060F46A2F1080802F1680900F04EF85C
:10050000A1F1080601F16807A2F10808914600F080
:1005100045F8A1F1080601F1680702F1600802F14F
:10052000680900F03BF801F1600601F16807A2F1EB
:10053000080802F1680900F031F800BD2DE9005803
:100540004FF0000BFFF7D2FFD4460CF00F0CBCF1BC
:10055000010F09D0BCF1020F0BD0BCF1040F12D077
:10056000BCF1080F0AD013E0D82A11D002F16802BA
:100570000EE0082A0CD0A2F1680209E0082907D091
:10058000A1F1680104E0D82902D001F16801FFE778
:100590004FF6E07BFFF7AAFFBDE800983EB55D4649
:1005A0004FF02A00FFF787FEB2464FEA1A2A50465C
:1005B000FFF7A3FE3046FFF7A0FEBA464FEA1A2A1D
:1005C0005046FFF79AFE3846FFF797FE4FF02B0094
:1005D000FFF771FEC2464FEA1A2A5046FFF78DFE1A
:1005E0004046FFF78AFECA464FEA1A2A5046FFF7EE
:1005F00084FE4846FFF781FE4FF02C00FFF75BFEBC
:100600004FEA152105F0FF024FF496630846FFF705
:1006100074FE1046FFF771FE5B1EF7D1BDE83E4049
:1006200070473EB55D464FF02A00FFF744FEB246E4
:100630004FEA1A2A5046FFF760FE3046FFF75DFE8C
:10064000BA464FEA1A2A5046FFF757FE3846FFF7D8
:1006500054FE4FF02B00FFF72EFEC2464FEA1A2A37
:100660005046FFF74AFE4046FFF747FECA464FEAAC
:100670001A2A5046FFF741FE4846FFF73EFE4FF06C
:100680002C00FFF718FE4FEA152105F0FF024FF48A
:1006900016330846FFF731FE1046FFF72EFE5B1EAD
:1006A000F7D1BDE83E40704700B54FF0000A004862
:1006B00010040240D0F800A000BD02B500490000BF
:1006C00004605600091A0029FCDC02BD2DE9FF5F19
:1006D0004FF0000C082909D070290AD0D8290BD076
:1006E000082A0CD0702A0DD0D82A0ED00CF1010C9B
:1006F000F6E70CF1020CF3E70CF1040CF0E70CF157
:10070000080C05E00CF1100C02E00CF1200CFFE7E6
:10071000BCF1240F17D0BCF1220F17D0BCF1210F70
:1007200017D0BCF1140F17D0BCF1120F17D0BCF1C9
:10073000110F17D0BCF10C0F17D0BCF10A0F17D056
:10074000BCF1090F17D04FF0010C17E04FF0020C6D
:1007500014E04FF0030C11E04FF0040C0EE04FF0EA
:10076000050C0BE04FF0060C08E04FF0070C05E01D
:100770004FF0080C02E04FF0090CFFE74FEA4C0481
:10078000641E0125A5400BEA05054FF0010606FA97
:1007900004F6B54240E0641E0325A5402BEA050B94
:1007A000DFF800A002000020DAF800A0BAF1000F84
:1007B00002D0BAF1010F18D00AF1010ADFF800B037
:1007C00000000020DBF800B00225A5405BEA050B25
:1007D0000048000000000020C0F800B0004B0000FE
:1007E0007C0A0008FFF7E6FD22E0AAF1010A5FF8A3
:1007F00030B0000000000020DBF800B00325A54069
:100800005BEA050B0048000000000020C0F800B0C3
:10081000084BFFF7CFFD0BE04FF4784BFFF766FE78
:100820004FF00500FFF749FF4FF6E07BFFF75EFE54
:10083000014800005843000802000020C0F800A052
:10084000BDE8FF9F2DE9FF5F004800000000002089
:100850004CF20C3243F2C30343F23034064D074EE0
:1008600042F2820742F2202848F20829DFF810A05D
:10087000DFF810B0DFF810C003030300300C0300F2
:100880002008020002020200AAAA0200016801EA8E
:100890000201914253D0016801F03F013F294ED03F
:1008A000016801EA0301994249D0016801EA0401A3
:1008B000A14244D0016801EA0501A9423FD0016884
:1008C00001EA0601B1423AD0016801F47C61B1F558
:1008D0007C6F34D0016801F47C31B1F57C3F2ED0BF
:1008E000016801EA0701B94230D0016801EA080154
:1008F00041452BD0016801F02A012A2926D0016840
:1009000001EA0901494521D0016801EA0A0151457E
:100910001CD0016801F42861B1F5286F16D0016878
:1009200001F42831B1F5283F10D0016801EA0B012C
:1009300059450BD0016801EA0C0161450DD000F06A
:1009400015F8006840F6FF7101600DE000F028F82E
:10095000006840F6FF71016006E000F03BF80068B7
:1009600040F6FF710160FFE7BDE8FF9F2DE9FF5FE3
:100970004FF000064FF4A0774FF000084FF4F079E5
:100980004FF2FF00FFF74DFE4FF050014FF078029D
:10099000004B000058430008FFF70CFDBDE8FF9F27
:1009A0002DE9FF5F4FF000064FF4A0774FF00008ED
:1009B0004FF4F0794FF2FF00FFF733FE4FF0500194
:1009C0004FF07802004B00007C0A0008FFF7F2FCB1
:1009D000BDE8FF9F2DE9FF5F4FF000064FF4A077C1
:1009E0004FF000084FF4F0794FF47840FFF719FE0C
:1009F000BDE8FF9F00B500BD2DE9FF5FFFF729FDB2
:100A00005FF844C2000000204FF0000BCCF800B0AB
:100A10004FF070014FF07002FFF746FE0AF01F0A18
:100A2000BAF1000FF8D0BAF1100F02D0FFF786FD2F
:100A3000F2E7FFF74BFEFFF705FF0048000000203C
:100A4000006840F6FF79484500D0E5E74FF0010027
:100A5000FFF733FE4FF000064FF4A0774FF0000889
:100A60004FF4F0794FF6E070FFF7DBFDBDE8FF9F34
:100A7000FFF7BEFBFFF763FCFFF7BEFF600000005F
:100A800060000000FFFFFFFFFFFFFFFFFFFFFFFF12
:100A9000FFFFFFFFFFFFFFFFFFFFFFFFFFFFFFFF66
:100AA000FFFFFFFFFFFFFFFFFFFFFFFFFFFFFFFF56
:100AB000FFFFFFFFFFFFFFFFFFFFFFFFFFFFFFFF46
:100AC000FFFFFFFFFFFFFFFFFFFFFFFFFFFFFFFF36
:100E8000FFFFFFFFFFFFDFFFFFFFFFFFFFFFFFFF92
:100E9000FFFFFFFF1CE738C634A530846D6BEB5AAB
:100EA0008A52694A694A8A52EB5A8E73308434A551
:100EB00038C6FBDEFFFFFFFFFFFFFFFFFFFFFFFF67
:100EC000DFFFFFFFFFFFFFFFFFFFFFFFFFFFFFFF52
:100ED000FFFFFFFFFFFFFFFFFFFFFFFFFFFFFFFF22
:100EE000FFFFFFFFFFFFFFFFFFFFFFFFFFFFFFFF12
:100EF000FFFFFFFFFFFFFFFFFFFFFFFFFFFFFFFF02
:100F0000FFFFFFFFFFFFFFFFFFFFFFFFFFFFFFFFF1
:100F1000FFFFFFFFFFFFFFFFFFFFFFFFFFFFFFFFE1
:100F2000FFFFFFFFFFFFFFFFFFFFFFFFFFFFFFFFD1
:100F3000FFFFFFFFFFFFFFFFFFFFFFFFFFFFFFFFC1
:100F4000FFFFFFFFFFFFFFFFFFFFFFFFBAD6D39CAE
:100F5000CB5A652941080000000000000000000095
:100F60000000000000000000000000000000000081
:100F7000000041084529CB5AD39CBAD6DFFFFFFFBA
:100F8000FFFFFFFFFFFFFFFFFFFFFFFFFFFFFFFF71
:100F9000FFFFFFFFFFFFFFFFFFFFFFFFFFFFFFFF61
:100FA000FFFFFFFFFFFFFFFFFFFFFFFFFFFFFFFF51
:100FB000FFFFFFFFFFFFFFFFFFFFFFFFFFFFFFFF41
:100FC000FFFFFFFFFFFFFFFFFFFFFFFFFFFFFFFF31
:100FD000FFFFFFFFFFFFFFFFFFFFFFFFFFFFFFFF21
:100FE000FFFFFFFFFFFFFFFFFFFFFFFFFFFFFFFF11
:100FF000FFFFFFFFFFFFFFFFFFFFFFFFFFFFFFFF01
:10100000FFFFFFFFFFFF59CECF7B652900000000E7
:1010100020000000000000000000000000000000B0
:1010200000000000000000000000000000000000C0
:101030000000000000000000000000004529CF7BF8
:1010400059CEFFFFFFFFFFFFFFFFFFFFFFFFFFFF87
:10105000FFFFFFFFFFFFFFFFFFFFFFFFFFFFFFFFA0
:10106000FFFFFFFFFFFFFFFFFFFFFFFFFFFFFFFF90
:10107000FFFFFFFFFFFFFFFFFFFFFFFFFFFFFFFF80
:10108000FFFFFFFFFFFFFFFFFFFFFFFFFFFFFFFF70
:10109000FFFFFFFFFFFFFFFFFFFFFFFFFFFFFFFF60
:1010A000FFFFFFFFFFFFFFFFFFFFFFFFFFFFFFFF50
:1010B000FFFFFFFFFFFFFFFFFFFFFFFFFFFFFFFF40
:1010C0007DEFD39CA631000000000000000000006E
:1010D0000000000000000000000000000000000010
:1010E0000000000000000000000000000000000000
:1010F00000000000000000000000000000000000F0
:101100000000A631D39C5DEFFFFFFFFFFFFFFFFF55
:10111000FFFFFFFFFFFFFFFFFFFFFFFFFFFFFFFFDF
:10112000FFFFFFFFFFFFFFFFFFFFFFFFFFFFFFFFCF
:10113000FFFFFFFFFFFFFFFFFFFFFFFFFFFFFFFFBF
:10114000FFFFFFFFFFFFFFFFFFFFFFFFFFFFFFFFAF
:10115000FFFFFFFFFFFFFFFFFFFFFFFFFFFFFFFF9F
:10116000FFFFFFFFFFFFFFFFFFFFFFFFFFFFFFFF8F
:10117000FFFFFFFFFFFFFFFFFFFFFFFF5DEFEF7BC5
:10118000C318000020000000000000000000000064
:10119000000000000000000000000000000000004F
:1011A000000000000000000000000000000000003F
:1011B000000000000000000000000000000000002F
:1011C000000020000000C318CF7B3CE7FFFFFFFFBB
:1011D000FFFFFFFFFFFFFFFFFFFFFFFFFFFFFFFF1F
:1011E000DFFFFFFFFFFFFFFFFFFFFFFFFFFFFFFF2F
:1011F000FFFFFFFFFFFFFFFFFFFFFFFFFFFFFFFFFF
:10120000FFFFFFFFFFFFFFFFFFFFFFFFFFFFFFFFEE
:10121000FFFFFFFFFFFFFFFFFFFFFFFFFFFFFFFFDE
:10122000FFFFFFFFFFFFFFFFFFFFDFFFFFFFFFFFEE
:10123000DFFFFFFFFFFFFFFFBEF73084A2100000BB
:10124000200000000000000000000000000000007E
:10125000000000000000000000000000000000008E
:10126000000000000000000000000000000000007E
:10127000000000000000000000000000000000006E
:1012800000000000000020000000A2101084BEF743
:10129000FFFFFFFFFFFFFFFFFFFFFFFFFFFFFFFF5E
:1012A000FFFFFFFFFFFFFFFFFFFFFFFFFFFFFFFF4E
:1012B000FFFFFFFFFFFFFFFFFFFFFFFFFFFFFFFF3E
:1012C000FFFFFFFFFFFFFFFFFFFFFFFFFFFFFFFF2E
:1012D000FFFFFFFFFFFFFFFFFFFFFFFFFFFFFFFF1E
:1012E000FFFFFFFFFFFFFFFFFFFFFFFFFFFFDFFF2E
:1012F000FFFFFFFFFFFF96B5042100000000000084
:1013000000000000000020000000000000000000BD
:1013100020000000000000000000000000000000AD
:1013200000000000000000000000000000000000BD
:10133000000000000000200000000000000000008D
:101340002000000000000000000000000000042158
:1013500096B5FFFFFFFFFFFFFFFFFFFFFFFFFFFF50
:10136000DFFFFFFFFFFFFFFFFFFFFFFFFFFFFFFFAD
:10137000FFFFFFFFFFFFFFFFFFFFFFFFFFFFFFFF7D
:10138000FFFFFFFFFFFFFFFFFFFFFFFFFFFFFFFF6D
:10139000FFFFFFFFFFFFFFFFFFFFFFFFFFFFFFFF5D
:1013A000FFFFFFFFFFFFFFFFFFFFFFFFDFFFFFFF6D
:1013B000FFFF3CE7CB5A00000000000000000000E7
:1013C00020000000000000000000000020000000DD
:1013D00000000000000000000000000000006108A4
:1013E000A210A210A210A2106108000000000000CC
:1013F00000000000000000000000200000000000CD
:1014000000000000000000000000000000002000BC
:101410000000CB5A3CE7FFFFFFFFFFFFFFFFDFFFAE
:10142000FFFFFFFFFFFFFFFFFFFFFFFFFFFFFFFFCC
:10143000FFFFFFFFFFFFFFFFFFFFFFFFFFFFFFFFBC
:10144000FFFFFFFFFFFFFFFFFFFFFFFFFFFFFFFFAC
:10145000FFFFFFFFFFFFFFFFFFFFFFFFFFFFFFFF9C
:10146000FFFFFFFFFFFFFFFFFFFFFFFFFFFFFFFF8C
:1014700096B50421000000000000000000000000FC
:10148000000000000000000000000000000000005C
:101490000000821008424D6BF39CF7BD9AD61CE702
:1014A0007DEFBEF7BEF77DEF1CE79AD6F7BDF39C44
:1014B0004D6B084282100000000000000000000098
:1014C000000000000000000000000000000000001C
:1014D00000000000042175ADFFFFFFFFFFFFFFFFCD
:1014E000FFFFFFFFFFFFFFFFFFFFFFFFFFFFFFFF0C
:1014F000FFFFFFFFFFFFFFFFFFFFFFFFFFFFFFFFFC
:10150000FFFFFFFFFFFFFFFFFFFFFFFFFFFFFFFFEB
:10151000FFFFFFFFFFFFFFFFFFFFFFFFFFFFFFFFDB
:10152000FFFFFFFFFFFFDFFFFFFFDFFFFFFF308455
:1015300000000000000000000000000000000000AB
:1015400000000000000000000000000024216D6B7E
:10155000B6B57DEFFFFFFFFFFFFFFFFFFFFFFFFFC0
:10156000FFFFFFFFFFFFFFFFFFFFFFFFFFFFFFFF8B
:10157000FFFFFFFF7DEFD7BD6D6B45290000000029
:10158000000000000000000000000000000000005B
:1015900000002000000000001084FFFFDFFFFFFFBD
:1015A000FFFFFFFFFFFFFFFFFFFFFFFFFFFFFFFF4B
:1015B000FFFFFFFFFFFFFFFFFFFFFFFFFFFFFFFF3B
:1015C000FFFFFFFFFFFFFFFFFFFFFFFFFFFFFFFF2B
:1015D000FFFFFFFFFFFFFFFFFFFFFFFFFFFFFFFF1B
:1015E000FFFFFFFFFFFFFFFFFFFFBEF7CB5A00002B
:1015F00000000000000000000000000000000000EB
:101600000000000000002000CB5AD7BDDFFFFFFF25
:10161000FFFFFFFFFFFFFFFFFFFFFFFFFFFFFFFFDA
:10162000FFFFFFFFFFFFFFFFFFFFFFFFFFFFFFFFCA
:10163000FFFFFFFFFFFFFFFFFFFFDFFFD7BDCB5A1D
:101640004108000000000000000000000000000051
:1016500000000000000000000000AA52DFFFFFFFB2
:10166000FFFFFFFFFFFFFFFFFFFFFFFFFFFFFFFF8A
:10167000FFFFFFFFFFFFFFFFFFFFFFFFFFFFFFFF7A
:10168000FFFFFFFFFFFFFFFFFFFFFFFFFFFFFFFF6A
:10169000FFFFFFFFFFFFFFFFFFFFFFFFFFFFFFFF5A
:1016A000FFFFFFFFFFFFFFFF7DEFE73900000000B6
:1016B000000000000000000000000000000000002A
:1016C000000041086D6BDBDEFFFFDFFFFFFFFFFF68
:1016D000FFFFFFFFFFFFFFFFFFFFFFFFFFFFFFFF1A
:1016E000FFFFFFFFFFFFFFFFFFFFFFFFFFFFFFFF0A
:1016F000FFFFFFFFFFFFFFFFFFFFFFFFDFFFFFFF1A
:10170000FBDE6D6B410800000000000000000000DF
:10171000000000000000000000000000E7397DEF3D
:10172000FFFFFFFFFFFFFFFFFFFFFFFFFFFFFFFFC9
:10173000FFFFFFFFFFFFFFFFFFFFFFFFFFFFFFFFB9
:10174000FFFFFFFFFFFFFFFFFFFFFFFFFFFFFFFFA9
:10175000FFFFFFFFFFFFFFFFDFFFFFFFFFFFFFFFB9
:10176000FFFFFFFFFFFF3CE7A63100000000000085
:101770000000000000000000000020000000000049
:101780000C63DBDEFFFFFFFFFFFFFFFFFFFFDFFF5D
:10179000FFFFFFFFFFFFFFFFFFFFFFFFFFFFFFFF59
:1017A000FFFFFFFFFFFFFFFFFFFFFFFFFFFFFFFF49
:1017B000FFFFFFFFFFFFFFFFDFFFFFFFFFFFFFFF59
:1017C000FFFFFFFFDBDE0C630000000020000000D5
:1017D0000000000000000000000000000000A63132
:1017E0003CE7FFFFFFFFDFFFFFFFFFFFFFFFDFFF24
:1017F000FFFFFFFFFFFFFFFFFFFFFFFFFFFFFFFFF9
:10180000FFFFFFFFFFFFFFFFFFFFFFFFFFFFFFFFE8
:10181000FFFFFFFFFFFFFFFFFFFFFFFFFFFFFFFFD8
:10182000FFFFFFFF9EF78631000000000000000070
:101830002000000000000000000000004529D7BD86
:10184000FFFFFFFFFFFFFFFFFFFFFFFFFFFFFFFFA8
:10185000FFFFFFFFFFFFFFFFFFFFFFFFFFFFFFFF98
:10186000FFFFFFFFFFFFFFFFFFFFFFFFFFFFFFFF88
:10187000FFFFFFFFDFFFFFFFFFFFFFFFFFFFFFFF98
:10188000FFFFFFFFFFFFFFFFD7BD4529000000005E
:101890000000000000002000000000000000000028
:1018A00065297DEFFFFFFFFFFFFFFFFFFFFFFFFF4A
:1018B000FFFFFFFFFFFFFFFFFFFFFFFFFFFFFFFF38
:1018C000FFFFFFFFFFFFFFFFFFFFFFFFFFFFFFFF28
:1018D000FFFFFFFFFFFFFFFFFFFFFFFFFFFFFFFF18
:1018E000FFFFDFFFE73900002000000000000000DC
:1018F000000000000000000000006D6BDFFFFFFF34
:10190000FFFFFFFFFFFFFFFFFFFFFFFFFFFFFFFFE7
:10191000DFFFFFFFFFFFFFFFFFFFFFFFFFFFFFFFF7
:10192000FFFFFFFFFFFFFFFFFFFFFFFFFFFFFFFFC7
:10193000FFFFFFFFFFFFDFFFFFFFFFFFDFFFFFFFF7
:10194000FFFFFFFFFFFFFFFFFFFFDFFF6D6B0000EB
:101950002000000000000000000000000000200047
:101960000000C739FFFFFFFFFFFFFFFFDFFFFFFFA3
:10197000DFFFFFFFFFFFFFFFFFFFFFFFFFFFFFFF97
:10198000FFFFFFFFFFFFFFFFFFFFFFFFFFFFFFFF67
:10199000FFFFFFFFFFFFFFFFFFFFFFFFFFFFFFFF57
:1019A000FFFFAA520000000000000000000000003D
:1019B000000000000000410834A5DFFFFFFFFFFF2B
:1019C000FFFFFFFFFFFFFFFFFFFFFFFFFFFFFFFF27
:1019D000FFFFFFFFFFFFFFFFFFFFFFFFFFFFFFFF17
:1019E000FFFFFFFFFFFFFFFFFFFFFFFFFFFFFFFF07
:1019F000FFFFFFFFFFFFFFFFFFFFFFFFFFFFFFFFF7
:101A0000FFFFFFFFFFFFFFFFFFFFFFFFFFFF34A50B
:101A1000410800000000000000000000000000007D
:101A2000000000008A52FFFFFFFFFFFFFFFFFFFFE4
:101A3000FFFFFFFFFFFFFFFFFFFFFFFFFFFFFFFFB6
:101A4000FFFFFFFFFFFFFFFFFFFFFFFFFFFFFFFFA6
:101A5000FFFFFFFFFFFFFFFFFFFFFFFFFFFFDFFFB6
:101A600030840000000000000000000000000000C2
:101A700000000000C31879CEFFFFFFFFFFFFFFFF4C
:101A8000FFFFFFFFFFFFFFFFFFFFFFFFFFFFFFFF66
:101A9000FFFFFFFFFFFFFFFFFFFFFFFFFFFFFFFF56
:101AA000FFFFFFFFFFFFFFFFFFFFFFFFFFFFFFFF46
:101AB000FFFFFFFFFFFFFFFFFFFFFFFFFFFFFFFF36
:101AC000FFFFFFFFFFFFFFFFFFFFFFFFFFFFFFFF26
:101AD00079CEE318000000000000000000000000C4
:101AE0002000000000001084DFFFFFFFFFFFFFFF6A
:101AF000FFFFFFFFFFFFFFFFFFFFFFFFFFFFFFFFF6
:101B0000FFFFFFFFFFFFFFFFFFFFFFFFFFFFFFFFE5
:101B1000FFFFFFFFFFFFDFFFFFFFFFFFFFFFD7BD5F
:101B200000000000000000000000000000000000B5
:101B3000000024211CE7DFFFFFFFFFFFFFFFFFFF87
:101B4000FFFFFFFFFFFFFFFFFFFFFFFFFFFFFFFFA5
:101B5000FFFFFFFFFFFFFFFFFFFFFFFFFFFFFFFF95
:101B6000FFFFFFFFFFFFFFFFFFFFFFFFFFFFFFFF85
:101B7000FFFFFFFFFFFFFFFFFFFFFFFFFFFFFFFF75
:101B8000FFFFFFFFFFFFFFFFFFFFFFFFFFFFFFFF65
:101B9000DFFF1CE7452900000000000000000000F6
:101BA0000000000000000000B6B5FFFFFFFFFFFFD0
:101BB000FFFFFFFFFFFFFFFFFFFFFFFFFFFFFFFF35
:101BC000FFFFFFFFFFFFFFFFFFFFFFFFFFFFFFFF25
:101BD000FFFFFFFFFFFFDFFFFFFFFFFF5DEFC3180A
:101BE00000000000000000000000000000000000F5
:101BF00024213CE7FFFFFFFFFFFFFFFFFFFFFFFF89
:101C0000FFFFFFFFFFFFFFFFFFFFFFFFFFFFFFFFE4
:101C1000FFFFFFFFFFFFFFFFFFFFFFFFFFFFFFFFD4
:101C2000FFFFFFFFFFFFFFFFFFFFFFFFFFFFFFFFC4
:101C3000FFFFFFFFFFFFFFFFFFFFFFFFFFFFFFFFB4
:101C4000FFFFFFFFFFFFFFFFFFFFFFFFFFFFFFFFA4
:101C5000FFFFFFFF3CE72421000000000000000020
:101C60000000000000000000C3183CE7FFFFFFFF7A
:101C7000DFFFFFFFFFFFFFFFFFFFFFFFFFFFFFFF94
:101C8000FFFFFFFFFFFFFFFFFFFFFFFFFFFFFFFF64
:101C9000FFFFFFFFFFFFFFFFFFFFFFFFAA52200034
:101CA0000000000000000000000000000000C31859
:101CB0001CE7FFFFFFFFFFFFFFFFFFFFFFFFFFFF2F
:101CC000FFFFFFFFFFFFFFFFFFFFFFFFFFFFFFFF24
:101CD000FFFFFFFFFFFFFFFFFFFFFFFFFFFFFFFF14
:101CE000FFFFFFFFFFFFFFFFFFFFFFFFFFFFFFFF04
:101CF000FFFFFFFFFFFFFFFFFFFFFFFFFFFFFFFFF4
:101D0000FFFFFFFFFFFFFFFFFFFFFFFFFFFFFFFFE3
:101D1000FFFFFFFFFFFF1CE7C318000000000000EB
:101D200000000000000000002000AA52FFFFFFFF9B
:101D3000FFFFFFFFFFFFFFFFFFFFFFFFFFFFFFFFB3
:101D4000FFFFFFFFFFFFFFFFFFFFFFFFFFFFFFFFA3
:101D5000FFFFFFFFFFFFFFFFFFFFD7BD00000000F9
:101D6000000000000000000000000000200079CE0C
:101D7000FFFFFFFFFFFFFFFFFFFFFFFFFFFFFFFF73
:101D8000FFFFFFFFFFFFFFFFFFFFFFFFFFFFFFFF63
:101D9000FFFFFFFFFFFFFFFFFFFFFFFFFFFFFFFF53
:101DA000FFFFFFFFFFFFFFFFFFFFFFFFFFFFFFFF43
:101DB000FFFFFFFFFFFFFFFFFFFFFFFFFFFFFFFF33
:101DC000FFFFFFFFFFFFFFFFFFFFFFFFFFFFFFFF23
:101DD000FFFFFFFFDFFFFFFF79CE4108000000009B
:101DE000000000002000000000000000B6B5FFFF6A
:101DF000FFFFFFFFFFFFFFFFFFFFFFFFFFFFFFFFF3
:101E0000FFFFFFFFFFFFFFFFFFFFFFFFFFFFFFFFE2
:101E1000FFFFFFFFFFFFDFFFBEF704210000000010
:101E200000000000000000000000000055ADFFFFB2
:101E3000FFFFFFFFFFFFFFFFFFFFFFFFFFFFFFFFB2
:101E4000FFFFFFFFFFFFFFFFFFFFFFFFFFFFFFFFA2
:101E5000FFFFFFFFFFFFFFFFFFFFFFFFFFFFFFFF92
:101E6000FFFFFFFFFFFFFFFFFFFFFFFFFFFFFFFF82
:101E7000FFFFFFFFFFFFFFFFFFFFFFFFFFFFFFFF72
:101E8000FFFFFFFFFFFFFFFFFFFFFFFFFFFFFFFF62
:101E9000FFFFFFFFFFFFFFFFFFFF55AD000000004A
:101EA0000000000000000000000000000421BEF758
:101EB000FFFFFFFFFFFFFFFFFFFFFFFFFFFFFFFF32
:101EC000FFFFFFFFFFFFFFFFFFFFFFFFFFFFFFFF22
:101ED000FFFFFFFFFFFFFFFF308400000000000056
:101EE000000000000000000000002C63FFFFFFFF67
:101EF000FFFFFFFFFFFFFFFFFFFFFFFFFFFFFFFFF2
:101F0000FFFFFFFFFFFFFFFFFFFFFFFFFFFFFFFFE1
:101F1000FFFFFFFFFFFFFFFFFFFFFFFFFFFFFFFFD1
:101F2000FFFFFFFFFFFFFFFFFFFFFFFFFFFFFFFFC1
:101F3000FFFFFFFFFFFFFFFFFFFFFFFFFFFFFFFFB1
:101F4000FFFFFFFFFFFFFFFFFFFFFFFFFFFFFFFFA1
:101F5000FFFFFFFFFFFFFFFFDFFFFFFF2C6300001E
:101F600000000000000000000000000000003084BD
:101F7000FFFFFFFFFFFFFFFFFFFFFFFFFFFFFFFF71
:101F8000FFFFFFFFFFFFFFFFFFFFFFFFFFFFFFFF61
:101F9000FFFFFFFFFFFF7DEF610800002000000052
:101FA00000000000000000002421DFFFDFFFFFFF32
:101FB000FFFFFFFFFFFFFFFFFFFFFFFFFFFFFFFF31
:101FC000FFFFFFFFFFFFFFFFFFFFFFFFFFFFFFFF21
:101FD000FFFFFFFFFFFFFFFFFFFFFFFFFFFFFFFF11
:101FE000FFFFFFFFFFFFFFFFFFFFFFFFFFFFFFFF01
:101FF000FFFFFFFFFFFFFFFFFFFFFFFFFFFFFFFFF1
:10200000FFFFFFFFFFFFFFFFFFFFFFFFFFFFFFFFE0
:10201000FFFFFFFFFFFFFFFFFFFFDFFFDFFF4529A0
:102020000000000000000000000020000000610827
:102030005DEFFFFFFFFFFFFFFFFFFFFFFFFFFFFF62
:10204000FFFFFFFFFFFFFFFFFFFFFFFFFFFFFFFFA0
:10205000FFFFFFFFFFFFEF7B00000000000000001C
:10206000000000002000000018C6DFFFFFFFFFFF98
:10207000FFFFFFFFFFFFFFFFFFFFFFFFFFFFFFFF70
:10208000FFFFFFFFFFFFFFFFFFFFFFFFFFFFFFFF60
:10209000FFFFFFFFFFFFFFFFFFFFFFFFFFFFFFFF50
:1020A000FFFFFFFFFFFFFFFFFFFFFFFFFFFFFFFF40
:1020B000FFFFFFFFFFFFFFFFFFFFFFFFFFFFFFFF30
:1020C000FFFFFFFFFFFFFFFFFFFFFFFFFFFFFFFF20
:1020D000FFFFFFFFFFFFFFFFFFFFFFFFFFFF38C610
:1020E00000000000000000000000000000000000F0
:1020F000EF7BFFFFFFFFFFFFFFFFFFFFFFFFFFFF84
:10210000FFFFFFFFFFFFFFFFFFFFFFFFFFFFFFFFDF
:10211000FFFFFFFF9EF7A21020000000000020003C
:10212000000000000000EB5AFFFFDFFFFFFFFFFF92
:10213000FFFFFFFFFFFFFFFFFFFFFFFFFFFFFFFFAF
:10214000FFFFFFFFFFFFFFFFFFFFFFFFFFFFFFFF9F
:10215000FFFFFFFFFFFFFFFFFFFFFFFFFFFFFFFF8F
:10216000FFFFFFFFFFFFFFFFFFFFFFFFFFFFFFFF7F
:10217000FFFFFFFFFFFFFFFFFFFFFFFFFFFFFFFF6F
:10218000FFFFFFFFFFFFFFFFFFFFFFFFFFFFFFFF5F
:10219000FFFFFFFFFFFFFFFFFFFFFFFFFFFFFFFF4F
:1021A000EB5A0000000000002000000000000000CA
:1021B00082109EF7FFFFFFFFFFFFFFFFFFFFFFFF04
:1021C000FFFFFFFFFFFFFFFFFFFFFFFFFFFFFFFF1F
:1021D000FFFFFFFFD39C0000000000000000000094
:1021E0000000000020001CE7FFFFFFFFFFFFFFFFD4
:1021F000FFFFFFFFFFFFFFFFFFFFFFFFFFFFFFFFEF
:10220000FFFFFFFFFFFFFFFFFFFFFFFFFFFFFFFFDE
:10221000FFFFFFFFFFFFFFFFFFFFFFFFFFFFFFFFCE
:10222000FFFFFFFFFFFFFFFFFFFFFFFFFFFFFFFFBE
:10223000FFFFFFFFFFFFFFFFFFFFFFFFFFFFFFFFAE
:10224000FFFFFFFFFFFFFFFFFFFFFFFFFFFFFFFF9E
:10225000FFFFFFFFFFFFFFFFFFFFFFFFFFFFFFFF8E
:102260001CE7410800000000000000000000000022
:102270000000D39CFFFFFFFFFFFFFFFFFFFFFFFFFB
:10228000FFFFFFFFFFFFFFFFFFFFFFFFFFFFFFFF5E
:10229000FFFFFFFF8631200000000000200000004B
:1022A000000000006D6BFFFFFFFFFFFFFFFFFFFF60
:1022B000FFFFFFFFFFFFFFFFFFFFFFFFFFFFFFFF2E
:1022C000FFFFFFFFFFFFFFFFFFFFFFFFFFFFFFFF1E
:1022D000FFFFFFFFFFFFFFFFFFFFFFFFFFFFFFFF0E
:1022E000FFFFFFFFFFFFFFFFFFFFFFFFFFFFFFFFFE
:1022F000FFFFFFFFFFFFFFFFFFFFFFFFFFFFFFFFEE
:10230000FFFFFFFFFFFFFFFFFFFFFFFFFFFFFFFFDD
:10231000FFFFFFFFFFFFFFFFFFFFFFFFFFFFFFFFCD
:10232000FFFF6D6B000000000000000000000000D7
:1023300000008631FFFFFFFFFFFFFFFFFFFFFFFFF2
:10234000FFFFFFFFFFFFFFFFFFFFFFFFFFFFDFFFBD
:10235000FFFF59CE00000000200000000000000038
:1023600000002000FBDEFFFFFFFFFFFFFFFFFFFF7E
:10237000FFFFFFFFFFFFFFFFFFFFFFFFFFFFFFFF6D
:10238000FFFFFFFFFFFFFFFFFFFFFFFFFFFFFFFF5D
:10239000FFFFFFFFFFFFFFFFFFFFFFFFFFFFFFFF4D
:1023A000FFFFFFFFFFFFFFFFFFFFFFFFFFFFFFFF3D
:1023B000FFFFFFFFFFFFFFFFFFFFFFFFFFFFFFFF2D
:1023C000FFFFFFFFFFFFFFFFFFFFFFFFFFFFFFFF1D
:1023D000FFFFFFFFFFFFFFFFFFFFDFFFFFFFFFFF2D
:1023E000FFFF1CE7200000000000000000002000AC
:1023F0000000000059CEFFFFDFFFFFFFFFFFFFFFE0
:10240000FFFFFFFFFFFFFFFFFFFFFFFFFFFFDFFFFC
:10241000FFFFAE730000000000000000000000009D
:102420000000AA52FFFFDFFFFFFFFFFFFFFFFFFFDC
:10243000FFFFFFFFFFFFFFFFFFFFFFFFFFFFFFFFAC
:10244000FFFFFFFFFFFFFFFFFFFFFFFFFFFFFFFF9C
:10245000FFFFFFFFFFFFFFFFFFFFFFFFFFFFFFFF8C
:10246000FFFFFFFFFFFFFFFFFFFFFFFFFFFFFFFF7C
:10247000FFFFFFFFFFFFFFFFFFFFFFFFFFFFFFFF6C
:10248000FFFFFFFFFFFFFFFFFFFFFFFFFFFFFFFF5C
:10249000FFFFFFFFFFFFFFFFFFFFFFFFFFFFFFFF4C
:1024A000DFFFFFFFAA520000000000000000000054
:1024B00000000000AE73FFFFFFFFFFFFFFFFFFFF05
:1024C000FFFFFFFFFFFFFFFFFFFFFFFFFFFFFFFF1C
:1024D000DFFF4529000000000000000000000000B0
:1024E000000018C6FFFFFFFFFFFFDFFFFFFFFFFF3A
:1024F000FFFFFFFFFFFFFFFFFFFFFFFFFFFFFFFFEC
:10250000FFFFFFFFFFFFFFFFFFFFFFFFFFFFFFFFDB
:10251000FFFFFFFFFFFFFFFFFFFFFFFFFFFFFFFFCB
:10252000FFFFFFFFFFFFFFFFFFFFFFFFFFFFFFFFBB
:10253000FFFFFFFFFFFFFFFFFFFFFFFFFFFFFFFFAB
:10254000FFFFFFFFFFFFFFFFFFFFFFFFFFFFFFFF9B
:10255000FFFFFFFFFFFFFFFFFFFFFFFFFFFFFFFF8B
:10256000FFFFFFFF18C60000000000000000000091
:10257000000000004529DFFFFFFFFFFFFFFFFFFF17
:10258000FFFFFFFFFFFFFFFFFFFFFFFFFFFFFFFF5B
:10259000BAD60000000000000000000000000000AB
:1025A0000421DFFFFFFFFFFFFFFFFFFFFFFFFFFF34
:1025B000FFFFFFFFFFFFFFFFFFFFFFFFFFFFFFFF2B
:1025C000FFFFFFFFFFFFFFFFFFFFFFFFFFFFFFFF1B
:1025D000FFFFFFFFFFFFFFFFFFFFFFFFFFFFFFFF0B
:1025E000FFFFFFFFFFFFFFFFFFFFFFFFFFFFFFFFFB
:1025F000FFFFFFFFFFFFFFFFFFFFFFFFFFFFFFFFEB
:10260000FFFFFFFFFFFFFFFFFFFFFFFFFFFFFFFFDA
:10261000FFFFFFFFFFFFFFFFFFFFFFFFFFFFFFFFCA
:10262000FFFFFFFFDFFF04210000000000000000AB
:10263000000000000000BAD6FFFFFFFFFFFFFFFF12
:10264000FFFFFFFFFFFFFFFFFFFFFFFFFFFFFFFF9A
:10265000D39C0000200000000000000000000000EB
:102660006D6BFFFFFFFFFFFFFFFFFFFFFFFFFFFFA0
:10267000DFFFFFFFFFFFFFFFFFFFFFFFFFFFFFFF8A
:10268000FFFFFFFFFFFFFFFFFFFFFFFFFFFFFFFF5A
:10269000FFFFFFFFFFFFFFFFFFFFFFFFFFFFFFFF4A
:1026A000FFFFFFFFFFFFFFFFFFFFFFFFFFFFFFFF3A
:1026B000FFFFFFFFFFFFFFFFFFFFFFFFFFFFFFFF2A
:1026C000FFFFFFFFFFFFFFFFFFFFFFFFFFFFFFFF1A
:1026D000FFFFFFFFFFFFFFFFFFFFFFFFFFFFFFFF0A
:1026E000FFFFFFFFFFFF6D6B000000000000000018
:1026F000000020000000D39CFFFFFFFFFFFFFFFF53
:10270000FFFFFFFFFFFFFFFFFFFFFFFFFFFFFFFFD9
:10271000AA520000000000000000000000000000BD
:10272000D7BDFFFFFFFFFFFFFFFFFFFFFFFFFFFF23
:10273000DFFFFFFFFFFFFFFFFFFFFFFFFFFFFFFFC9
:10274000FFFFFFFFFFFFFFFFFFFFFFFFFFFFFFFF99
:10275000FFFFFFFFFFFFFFFFFFFFFFFFFFFFFFFF89
:10276000FFFFFFFFFFFFFFFFFFFFFFFFFFFFFFFF79
:10277000FFFFFFFFFFFFFFFFFFFFFFFFFFFFFFFF69
:10278000FFFFFFFFFFFFFFFFFFFFFFFFFFFFFFFF59
:10279000FFFFFFFFFFFFFFFFFFFFFFFFFFFFFFFF49
:1027A000FFFFFFFFFFFFF7BD00000000000000007B
:1027B000000000002000AA52FFFFFFFFFFFFFFFF05
:1027C000FFFFFFFFFFFFFFFFFFFFFFFFFFFFFFFF19
:1027D00045290000000000000000000000008210F9
:1027E0009EF7FFFFFFFFFFFFFFFFFFFFFFFFFFFF62
:1027F000FFFFFFFFFFFFFFFFFFFFFFFFFFFFFFFFE9
:10280000FFFFFFFFFFFFFFFFFFFFFFFFFFFFFFFFD8
:10281000FFFFFFFFFFFFFFFFFFFFFFFFFFFFFFFFC8
:10282000FFFFFFFFFFFFFFFFFFFFFFFFFFFFFFFFB8
:10283000FFFFFFFFFFFFFFFFFFFFFFFFFFFFFFFFA8
:10284000FFFFFFFFFFFFFFFFFFFFFFFFFFFFFFFF98
:10285000FFFFFFFFFFFFFFFFFFFFFFFFFFFFFFFF88
:10286000FFFFFFFFFFFF9EF7821000000000000047
:102870000000000000002421FFFFFFFFFFFFFFFF1B
:10288000FFFFFFFFFFFFFFFFFFFFFFFFFFFF1CE753
:1028900041080000000000000000000000000842A5
:1028A000FFFFFFFFFFFFFFFFFFFFFFFFFFFFFFFF38
:1028B000FFFFFFFFFFFFFFFFFFFFFFFFFFFFFFFF28
:1028C000FFFFFFFFFFFFFFFFFFFFFFFFFFFFFFFF18
:1028D000FFFFFFFFFFFFFFFFFFFFFFFFFFFFFFFF08
:1028E000FFFFFFFFFFFFFFFFFFFFFFFFFFFFFFFFF8
:1028F000FFFFFFFFFFFFFFFFFFFFFFFFFFFFFFFFE8
:10290000FFFFFFFFFFFFFFFFFFFFFFFFFFFFFFFFD7
:10291000FFFFFFFFFFFFFFFFFFFFFFFFFFFFFFFFC7
:10292000FFFFFFFFFFFFFFFF084200000000000065
:1029300000000000000020003CE7FFFFFFFFFFFF5A
:10294000FFFFFFFFFFFFFFFFFFFFFFFFFFFF38C697
:1029500000000000000000000000000000004D6BBF
:10296000FFFFFFFFFFFFFFFFFFFFFFFFFFFFFFFF77
:10297000FFFFFFFFFFFFFFFFFFFFFFFFFFFFFFFF67
:10298000FFFFFFFFFFFFFFFFFFFFFFFFFFFFFFFF57
:10299000FFFFFFFFFFFFFFFFFFFFFFFFFFFFFFFF47
:1029A000FFFFFFFFFFFFFFFFFFFFFFFFFFFFFFFF37
:1029B000FFFFFFFFFFFFFFFFFFFFFFFFFFFFFFFF27
:1029C000FFFFFFFFFFFFFFFFFFFFFFFFFFFFFFFF17
:1029D000FFFFFFFFFFFFFFFFFFFFFFFFFFFFFFFF07
:1029E000FFFFFFFFFFFFFFFF6D6B00000000000017
:1029F000000000000000000038C6FFFFFFFFFFFFDF
:102A0000FFFFFFFFFFFFFFFFFFFFFFFFFFFF14A51B
:102A10000000000000000000000000000000F39C27
:102A2000FFFFFFFFFFFFFFFFFFFFFFFFFFFFFFFFB6
:102A3000FFFFFFFFFFFFFFFFFFFFFFFFFFFFFFFFA6
:102A4000FFFFFFFFFFFFFFFFFFFFFFFFFFFFFFFF96
:102A5000FFFFFFFFFFFFFFFFFFFFFFFFFFFFFFFF86
:102A6000FFFFFFFFFFFFFFFFFFFFFFFFFFFFFFFF76
:102A7000FFFFFFFFFFFFFFFFFFFFFFFFFFFFFFFF66
:102A8000FFFFFFFFFFFFFFFFFFFFFFFFFFFFFFFF56
:102A9000FFFFFFFFFFFFFFFFFFFFFFFFFFFFFFFF46
:102AA000FFFFFFFFFFFFFFFFF39C0000000000009F
:102AB000000000000000000014A5FFFFFFFFFFFF63
:102AC000FFFFFFFFFFFFFFFFFFFFFFFFFFFF108480
:102AD0000000000000000000000000000000F7BD42
:102AE000FFFFFFFFFFFFFFFFFFFFFFFFFFFFFFFFF6
:102AF000FFFFFFFFFFFFFFFFFFFFFFFFFFFFFFFFE6
:102B0000FFFFFFFFFFFFFFFFFFFFFFFFFFFFFFFFD5
:102B1000FFFFFFFFFFFFFFFFFFFFFFFFFFFFFFFFC5
:102B2000FFFFFFFFFFFFFFFFFFFFFFFFFFFFFFFFB5
:102B3000FFFFFFFFFFFFFFFFFFFFFFFFFFFFFFFFA5
:102B4000FFFFFFFFFFFFFFFFFFFFFFFFFFFFFFFF95
:102B5000FFFFFFFFFFFFFFFFFFFFFFFFFFFFFFFF85
:102B6000FFFFFFFFFFFFFFFF18C60000000000008F
:102B700000000000000000001084FFFFFFFFFFFFC7
:102B8000FFFFFFFFFFFFFFFFFFFFFFFFFFFF6D6B7B
:102B90000000000000000000000000000000BAD6A5
:102BA000FFFFFFFFFFFFFFFFFFFFFFFFFFFFFFFF35
:102BB000FFFFFFFFFFFFFFFFFFFFFFFFFFFFFFFF25
:102BC000FFFFFFFFFFFFFFFFFFFFFFFFFFFFFFFF15
:102BD000FFFFFFFFFFFFFFFFFFFFFFFFFFFFFFFF05
:102BE000FFFFFFFFFFFFFFFFFFFFFFFFFFFFFFFFF5
:102BF000FFFFFFFFFFFFFFFFFFFFFFFFFFFFFFFFE5
:102C0000FFFFFFFFFFFFFFFFFFFFFFFFFFFFFFFFD4
:102C1000FFFFFFFFFFFFFFFFFFFFFFFFFFFFFFFFC4
:102C2000FFFFFFFFFFFFFFFFBAD60000000000001C
:102C300000000000000000004D6BFFFFFFFFFFFFE2
:102C4000FFFFFFFFFFFFFFFFFFFFFFFFFFFFEB5A4D
:102C500000000000000000000000000061083CE7E8
:102C6000FFFFFFFFFFFFFFFFFFFFFFFFFFFFFFFF74
:102C7000FFFFFFFFFFFFFFFFFFFFFFFFFFFFFFFF64
:102C8000FFFFFFFFFFFFFFFFFFFFFFFFFFFFFFFF54
:102C9000FFFFFFFFFFFFFFFFFFFFFFFFFFFFFFFF44
:102CA000FFFFFFFFFFFFFFFFFFFFFFFFFFFFFFFF34
:102CB000FFFFFFFFFFFFFFFFFFFFFFFFFFFFFFFF24
:102CC000FFFFFFFFFFFFFFFFFFFFFFFFFFFFFFFF14
:102CD000FFFFFFFFFFFFFFFFFFFFFFFFFFFFFFFF04
:102CE000FFFFFFFFFFFFFFFF3CE761080000000060
:102CF0000000000000000000CB5AFFFFFFFFFFFFB5
:102D0000FFFFFFFFFFFFFFFFFFFFFFFFFFFF8A52F5
:102D1000000000000000000000000000A2107DEF95
:102D2000FFFFFFFFFFFFFFFFFFFFFFFFFFFFFFFFB3
:102D3000FFFFFFFFFFFFFFFFFFFFFFFFFFFFFFFFA3
:102D4000FFFFFFFFFFFFFFFFFFFFFFFFFFFFFFFF93
:102D5000FFFFFFFFFFFFFFFFFFFFFFFFFFFFFFFF83
:102D6000FFFFFFFFFFFFFFFFFFFFFFFFFFFFFFFF73
:102D7000FFFFFFFFFFFFFFFFFFFFFFFFFFFFFFFF63
:102D8000FFFFFFFFFFFFFFFFFFFFFFFFFFFFFFFF53
:102D9000FFFFFFFFFFFFFFFFFFFFFFFFFFFFFFFF43
:102DA000FFFFFFFFFFFFFFFF9EF7A21000000000E4
:102DB00000000000000000008A52FFFFFFFFFFFF3D
:102DC000FFFFFFFFFFFFFFFFFFFFFFFFFFFF494A7E
:102DD000000000000000000000000000C3189EF783
:102DE000FFFFFFFFFFFFFFFFFFFFFFFFFFFFFFFFF3
:102DF000FFFFFFFFFFFFFFFFFFFFFFFFFFFFFFFFE3
:102E0000FFFFFFFFFFFFFFFFFFFFFFFFFFFFFFFFD2
:102E1000FFFFFFFFFFFFFFFFFFFFFFFFFFFFFFFFC2
:102E2000FFFFFFFFFFFFFFFFFFFFFFFFFFFFFFFFB2
:102E3000FFFFFFFFFFFFFFFFFFFFFFFFFFFFFFFFA2
:102E4000FFFFFFFFFFFFFFFFFFFFFFFFFFFFFFFF92
:102E5000FFFFFFFFFFFFFFFFFFFFFFFFFFFFFFFF82
:102E6000FFFFFFFFFFFFFFFFBEF7C31800000000DA
:102E70000000000000000000494AFFFFFFFFFFFFC5
:102E8000FFFFFFFFFFFFFFFFFFFFFFFFFFFF494ABD
:102E9000000000000000000000000000C3189EF7C2
:102EA000FFFFFFFFFFFFFFFFFFFFFFFFFFFFFFFF32
:102EB000FFFFFFFFFFFFFFFFFFFFFFFFFFFFFFFF22
:102EC000FFFFFFFFFFFFFFFFFFFFFFFFFFFFFFFF12
:102ED000FFFFFFFFFFFFFFFFFFFFFFFFFFFFFFFF02
:102EE000FFFFFFFFFFFFFFFFFFFFFFFFFFFFFFFFF2
:102EF000FFFFFFFFFFFFFFFFFFFFFFFFFFFFFFFFE2
:102F0000FFFFFFFFFFFFFFFFFFFFFFFFFFFFFFFFD1
:102F1000FFFFFFFFFFFFFFFFFFFFFFFFFFFFFFFFC1
:102F2000FFFFFFFFFFFFFFFFBEF7C3180000000019
:102F30000000000000000000494AFFFFFFFFFFFF04
:102F4000FFFFFFFFFFFFFFFFFFFFFFFFFFFF8A52B3
:102F5000000000000000000000000000A2107DEF53
:102F6000FFFFFFFFFFFFFFFFFFFFFFFFFFFFFFFF71
:102F7000FFFFFFFFFFFFFFFFFFFFFFFFFFFFFFFF61
:102F8000FFFFFFFFFFFFFFFFFFFFFFFFFFFFFFFF51
:102F9000FFFFFFFFFFFFFFFFFFFFFFFFFFFFFFFF41
:102FA000FFFFFFFFFFFFFFFFFFFFFFFFFFFFFFFF31
:102FB000FFFFFFFFFFFFFFFFFFFFFFFFFFFFFFFF21
:102FC000FFFFFFFFFFFFFFFFFFFFFFFFFFFFFFFF11
:102FD000FFFFFFFFFFFFFFFFFFFFFFFFFFFFFFFF01
:102FE000FFFFFFFFFFFFFFFF9EF7A21000000000A2
:102FF00000000000000000008A52FFFFFFFFFFFFFB
:10300000FFFFFFFFFFFFFFFFFFFFFFFFFFFFEB5A89
:1030100000000000000000000000000061081CE744
:10302000FFFFFFFFFFFFFFFFFFFFFFFFFFFFFFFFB0
:10303000FFFFFFFFFFFFFFFFFFFFFFFFFFFFFFFFA0
:10304000FFFFFFFFFFFFFFFFFFFFFFFFFFFFFFFF90
:10305000FFFFFFFFFFFFFFFFFFFFFFFFFFFFFFFF80
:10306000FFFFFFFFFFFFFFFFFFFFFFFFFFFFFFFF70
:10307000FFFFFFFFFFFFFFFFFFFFFFFFFFFFFFFF60
:10308000FFFFFFFFFFFFFFFFFFFFFFFFFFFFFFFF50
:10309000FFFFFFFFFFFFFFFFFFFFFFFFFFFFFFFF40
:1030A000FFFFFFFFFFFFFFFF3CE76108000000009C
:1030B0000000000000000000CB5AFFFFFFFFFFFFF1
:1030C000FFFFFFFFFFFFFFFFFFFFFFFFFFFF4D6B56
:1030D0000000000000000000000000000000BAD660
:1030E000FFFFFFFFFFFFFFFFFFFFFFFFFFFFFFFFF0
:1030F000FFFFFFFFFFFFFFFFFFFFFFFFFFFFFFFFE0
:10310000FFFFFFFFFFFFFFFFFFFFFFFFFFFFFFFFCF
:10311000FFFFFFFFFFFFFFFFFFFFFFFFFFFFFFFFBF
:10312000FFFFFFFFFFFFFFFFFFFFFFFFFFFFFFFFAF
:10313000FFFFFFFFFFFFFFFFFFFFFFFFFFFFFFFF9F
:10314000FFFFFFFFFFFFFFFFFFFFFFFFFFFFFFFF8F
:10315000FFFFFFFFFFFFFFFFFFFFFFFFFFFFFFFF7F
:10316000FFFFFFFFFFFFFFFFBAD6000000000000D7
:1031700000000000000000004D6BFFFFFFFFFFFF9D
:10318000FFFFFFFFFFFFFFFFFFFFFFFFFFFF1084B9
:103190000000000000000000000000000000F7BD7B
:1031A000FFFFFFFFFFFFFFFFFFFFFFFFFFFFFFFF2F
:1031B000FFFFFFFFFFFFFFFFFFFFFFFFFFFFFFFF1F
:1031C000FFFFFFFFFFFFFFFFFFFFFFFFFFFFFFFF0F
:1031D000FFFFFFFFFFFFFFFFFFFFFFFFFFFFFFFFFF
:1031E000FFFFFFFFFFFFFFFFFFFFFFFFFFFFFFFFEF
:1031F000FFFFFFFFFFFFFFFFFFFFFFFFFFFFFFFFDF
:10320000FFFFFFFFFFFFFFFFFFFFFFFFFFFFFFFFCE
:10321000FFFFFFFFFFFFFFFFFFFFFFFFFFFFFFFFBE
:10322000FFFFFFFFFFFFFFFF18C6000000000000C8
:1032300000000000000000001084FFFFFFFFFFFF00
:10324000FFFFFFFFFFFFFFFFFFFFFFFFFFFF14A5D3
:103250000000000000000000000000000000F39CDF
:10326000FFFFFFFFFFFFFFFFFFFFFFFFFFFFFFFF6E
:10327000FFFFFFFFFFFFFFFFFFFFFFFFFFFFFFFF5E
:10328000FFFFFFFFFFFFFFFFFFFFFFFFFFFFFFFF4E
:10329000FFFFFFFFFFFFFFFFFFFFFFFFFFFFFFFF3E
:1032A000FFFFFFFFFFFFFFFFFFFFFFFFFFFFFFFF2E
:1032B000FFFFFFFFFFFFFFFFFFFFFFFFFFFFFFFF1E
:1032C000FFFFFFFFFFFFFFFFFFFFFFFFFFFFFFFF0E
:1032D000FFFFFFFFFFFFFFFFFFFFFFFFFFFFFFFFFE
:1032E000FFFFFFFFFFFFFFFFF39C00000000000057
:1032F000000000000000000014A5FFFFFFFFFFFF1B
:10330000FFFFFFFFFFFFFFFFFFFFFFFFFFFF38C6CD
:1033100000000000000000000000000000004D6BF5
:10332000FFFFFFFFFFFFFFFFFFFFFFFFFFFFFFFFAD
:10333000FFFFFFFFFFFFFFFFFFFFFFFFFFFFFFFF9D
:10334000FFFFFFFFFFFFFFFFFFFFFFFFFFFFFFFF8D
:10335000FFFFFFFFFFFFFFFFFFFFFFFFFFFFFFFF7D
:10336000FFFFFFFFFFFFFFFFFFFFFFFFFFFFFFFF6D
:10337000FFFFFFFFFFFFFFFFFFFFFFFFFFFFFFFF5D
:10338000FFFFFFFFFFFFFFFFFFFFFFFFFFFFFFFF4D
:10339000FFFFFFFFFFFFFFFFFFFFFFFFFFFFFFFF3D
:1033A000FFFFFFFFFFFFFFFF6D6B0000000000004D
:1033B000000000000000000038C6FFFFFFFFFFFF15
:1033C000FFFFFFFFFFFFFFFFFFFFFFFFFFFF1CE708
:1033D0002000000000000000000000000000084283
:1033E000FFFFFFFFFFFFFFFFFFFFFFFFFFFFFFFFED
:1033F000FFFFFFFFFFFFFFFFFFFFFFFFFFFFFFFFDD
:10340000FFFFFFFFFFFFFFFFFFFFFFFFFFFFFFFFCC
:10341000FFFFFFFFFFFFFFFFFFFFFFFFFFFFFFFFBC
:10342000FFFFFFFFFFFFFFFFFFFFFFFFFFFFFFFFAC
:10343000FFFFFFFFFFFFFFFFFFFFFFFFFFFFFFFF9C
:10344000FFFFFFFFFFFFFFFFFFFFFFFFFFFFFFFF8C
:10345000FFFFFFFFFFFFFFFFFFFFFFFFFFFFFFFF7C
:10346000FFFFFFFFFFFFFFFF08420000000000001A
:1034700000000000000041081CE7FFFFFFFFFFFF06
:10348000FFFFFFFFFFFFFFFFFFFFFFFFFFFFFFFF4C
:103490004529000000000000000000000000610855
:1034A0009EF7FFFFFFFFFFFFFFFFFFFFFFFFFFFF95
:1034B000FFFFFFFFFFFFFFFFFFFFFFFFFFFFFFFF1C
:1034C000FFFFFFFFFFFFFFFFFFFFFFFFFFFFFFFF0C
:1034D000FFFFFFFFFFFFFFFFFFFFFFFFFFFFFFFFFC
:1034E000FFFFFFFFFFFFFFFFFFFFFFFFFFFFFFFFEC
:1034F000FFFFFFFFFFFFFFFFFFFFFFFFFFFFFFFFDC
:10350000FFFFFFFFFFFFFFFFFFFFFFFFFFFFFFFFCB
:10351000FFFFFFFFFFFFFFFFFFFFFFFFFFFFFFFFBB
:10352000FFFFFFFFFFFF9EF782100000000000007A
:103530000000000000002421FFFFFFFFFFFFFFFF4E
:10354000FFFFFFFFFFFFFFFFFFFFFFFFFFFFFFFF8B
:10355000AA5200000000000000000000000000006F
:10356000F7BDFFFFFFFFFFFFFFFFFFFFFFFFFFFFB5
:10357000FFFFFFFFFFFFFFFFFFFFFFFFFFFFFFFF5B
:10358000FFFFFFFFFFFFFFFFFFFFFFFFFFFFFFFF4B
:10359000FFFFFFFFFFFFFFFFFFFFFFFFFFFFFFFF3B
:1035A000FFFFFFFFFFFFFFFFFFFFFFFFFFFFFFFF2B
:1035B000FFFFFFFFFFFFFFFFFFFFFFFFFFFFFFFF1B
:1035C000FFFFFFFFFFFFFFFFFFFFFFFFFFFFFFFF0B
:1035D000FFFFFFFFFFFFFFFFFFFFFFFFFFFFFFFFFB
:1035E000FFFFFFFFFFFFF7BD00000000000000002D
:1035F000000000000000AA52FFFFFFFFFFFFFFFFD7
:10360000FFFFFFFFFFFFFFFFFFFFFFFFFFFFFFFFCA
:10361000D39C00002000000000000000000000001B
:103620006D6BFFFFFFFFFFFFFFFFFFFFFFFFFFFFD0
:10363000FFFFFFFFFFFFFFFFFFFFFFFFFFFFFFFF9A
:10364000FFFFFFFFFFFFFFFFFFFFFFFFFFFFFFFF8A
:10365000FFFFFFFFFFFFFFFFFFFFFFFFFFFFFFFF7A
:10366000FFFFFFFFFFFFFFFFFFFFFFFFFFFFFFFF6A
:10367000FFFFFFFFFFFFFFFFFFFFFFFFFFFFFFFF5A
:10368000FFFFFFFFFFFFFFFFFFFFFFFFFFFFFFFF4A
:10369000FFFFFFFFFFFFDFFFFFFFFFFFFFFFFFFF5A
:1036A000FFFFFFFFFFFF8E7300000000000000001F
:1036B000000020000000D39CFFFFFFFFFFFFFFFF83
:1036C000FFFFFFFFFFFFFFFFFFFFFFFFFFFFFFFF0A
:1036D000BAD600000000000000000000000000005A
:1036E0000421DFFFFFFFFFFFFFFFFFFFFFFFFFFFE3
:1036F000FFFFFFFFFFFFFFFFFFFFFFFFFFFFFFFFDA
:10370000FFFFFFFFFFFFFFFFFFFFFFFFFFFFFFFFC9
:10371000FFFFFFFFFFFFFFFFFFFFFFFFFFFFFFFFB9
:10372000FFFFFFFFFFFFFFFFFFFFFFFFFFFFFFFFA9
:10373000FFFFFFFFFFFFFFFFFFFFFFFFFFFFFFFF99
:10374000FFFFFFFFFFFFFFFFFFFFFFFFFFFFFFFF89
:10375000FFFFFFFFFFFFFFFFFFFFFFFFFFFFFFFF79
:10376000FFFFFFFFDFFF242100000000000000003A
:10377000000000000000BAD6FFFFFFFFFFFFFFFFC1
:10378000FFFFFFFFFFFFFFFFFFFFFFFFFFFFFFFF49
:10379000DFFF4529000000000000000000000000DD
:1037A000000018C6FFFFFFFFFFFFFFFFFFFFFFFF47
:1037B000FFFFFFFFFFFFFFFFFFFFFFFFFFFFFFFF19
:1037C000FFFFFFFFFFFFFFFFFFFFFFFFFFFFFFFF09
:1037D000FFFFFFFFFFFFFFFFFFFFFFFFFFFFFFFFF9
:1037E000FFFFFFFFFFFFFFFFFFFFFFFFFFFFFFFFE9
:1037F000FFFFFFFFFFFFFFFFFFFFFFFFFFFFFFFFD9
:10380000FFFFFFFFFFFFFFFFFFFFFFFFFFFFFFFFC8
:10381000FFFFFFFFFFFFFFFFFFFFFFFFFFFFFFFFB8
:10382000FFFFFFFF18C600000000000000000000BE
:10383000000000004529DFFFFFFFFFFFFFFFFFFF44
:10384000FFFFFFFFFFFFFFFFFFFFFFFFFFFFDFFFA8
:10385000FFFFAE7300000000000000000000000049
:103860000000AA52FFFFDFFFFFFFFFFFFFFFFFFF88
:10387000FFFFFFFFFFFFFFFFFFFFFFFFFFFFFFFF58
:10388000FFFFFFFFFFFFFFFFFFFFFFFFFFFFFFFF48
:10389000FFFFFFFFFFFFFFFFFFFFFFFFFFFFFFFF38
:1038A000FFFFFFFFFFFFFFFFFFFFFFFFFFFFFFFF28
:1038B000FFFFFFFFFFFFFFFFFFFFFFFFFFFFFFFF18
:1038C000FFFFFFFFFFFFFFFFFFFFFFFFFFFFFFFF08
:1038D000FFFFFFFFFFFFFFFFFFFFFFFFFFFFFFFFF8
:1038E000DFFFFFFFAA520000000000000000000000
:1038F00000000000AE73FFFFDFFFFFFFFFFFFFFFD1
:10390000FFFFFFFFFFFFFFFFFFFFFFFFFFFFDFFFE7
:10391000FFFF59CE00000000200000000000000062
:10392000000020001CE7FFFFFFFFFFFFDFFFFFFF9E
:10393000FFFFFFFFFFFFFFFFFFFFFFFFFFFFFFFF97
:10394000FFFFFFFFFFFFFFFFFFFFFFFFFFFFFFFF87
:10395000FFFFFFFFFFFFFFFFFFFFFFFFFFFFFFFF77
:10396000FFFFFFFFFFFFFFFFFFFFFFFFFFFFFFFF67
:10397000FFFFFFFFFFFFFFFFFFFFFFFFFFFFFFFF57
:10398000FFFFFFFFFFFFFFFFFFFFFFFFFFFFFFFF47
:10399000FFFFFFFFFFFFFFFFFFFFDFFFFFFFFFFF57
:1039A000FFFF1CE7200000000000000000002000D6
:1039B0000000000059CEFFFFDFFFFFFFFFFFFFFF0A
:1039C000FFFFFFFFFFFFFFFFFFFFFFFFFFFFFFFF07
:1039D000FFFFFFFF86310000000000000000000034
:1039E000000000006D6BFFFFFFFFFFFFFFFFFFFF09
:1039F000FFFFFFFFFFFFFFFFFFFFFFFFFFFFFFFFD7
:103A0000FFFFFFFFFFFFFFFFFFFFFFFFFFFFFFFFC6
:103A1000FFFFFFFFFFFFFFFFFFFFFFFFFFFFFFFFB6
:103A2000FFFFFFFFFFFFFFFFFFFFFFFFFFFFFFFFA6
:103A3000FFFFFFFFFFFFFFFFFFFFFFFFFFFFFFFF96
:103A4000FFFFFFFFFFFFFFFFFFFFFFFFFFFFFFFF86
:103A5000FFFFFFFFFFFFFFFFFFFFFFFFFFFFFFFF76
:103A6000FFFF6D6B00000000000000000000000080
:103A700000006529FFFFFFFFFFFFFFFFFFFFFFFFC4
:103A8000FFFFFFFFFFFFFFFFFFFFFFFFFFFFFFFF46
:103A9000FFFFFFFFD39C00000000000000000000BB
:103AA0000000000041081CE7FFFFFFFFFFFFFFFFD2
:103AB000FFFFFFFFFFFFFFFFFFFFFFFFFFFFFFFF16
:103AC000FFFFFFFFFFFFFFFFFFFFFFFFFFFFFFFF06
:103AD000FFFFFFFFFFFFFFFFFFFFFFFFFFFFFFFFF6
:103AE000FFFFFFFFFFFFFFFFFFFFFFFFFFFFFFFFE6
:103AF000FFFFFFFFFFFFFFFFFFFFFFFFFFFFFFFFD6
:103B0000FFFFFFFFFFFFFFFFFFFFFFFFFFFFFFFFC5
:103B1000FFFFFFFFFFFFFFFFFFFFFFFFFFFFFFFFB5
:103B20001CE7410800000000000020000000000029
:103B30000000D39CFFFFFFFFFFFFFFFFFFFFFFFF22
:103B4000FFFFFFFFFFFFFFFFFFFFFFFFFFFFFFFF85
:103B5000FFFFFFFF9EF7A210000000000000000022
:103B6000000000000000CB5AFFFFDFFFFFFFFFFF58
:103B7000FFFFFFFFFFFFFFFFFFFFFFFFFFFFFFFF55
:103B8000FFFFFFFFFFFFFFFFFFFFFFFFFFFFFFFF45
:103B9000FFFFFFFFFFFFFFFFFFFFFFFFFFFFFFFF35
:103BA000FFFFFFFFFFFFFFFFFFFFFFFFFFFFFFFF25
:103BB000FFFFFFFFFFFFFFFFFFFFFFFFFFFFFFFF15
:103BC000FFFFFFFFFFFFFFFFFFFFFFFFFFFFFFFF05
:103BD000FFFFFFFFFFFFFFFFFFFFFFFFDFFFFFFF15
:103BE000CB5A000000000000200000000000000090
:103BF00082109EF7FFFFFFFFFFFFFFFFFFFFFFFFAA
:103C0000FFFFFFFFFFFFFFFFFFFFFFFFFFFFFFFFC4
:103C1000FFFFFFFFFFFFEF7B000000000000000040
:103C2000000000000000000018C6FFFFFFFFFFFFBC
:103C3000FFFFFFFFFFFFFFFFFFFFFFFFFFFFFFFF94
:103C4000FFFFFFFFFFFFFFFFFFFFFFFFFFFFFFFF84
:103C5000FFFFFFFFFFFFFFFFFFFFFFFFFFFFFFFF74
:103C6000FFFFFFFFFFFFFFFFFFFFFFFFFFFFFFFF64
:103C7000FFFFFFFFFFFFFFFFFFFFFFFFFFFFFFFF54
:103C8000FFFFFFFFFFFFFFFFFFFFFFFFFFFFFFFF44
:103C9000FFFFFFFFFFFFFFFFFFFFFFFFFFFF18C654
:103CA00000000000000020000000000020000000D4
:103CB000CF7BFFFFFFFFFFFFFFFFFFFFFFFFFFFFC8
:103CC000FFFFFFFFFFFFFFFFFFFFFFFFFFFFFFFF04
:103CD000FFFFFFFFFFFF7DEF6108000020000000F5
:103CE00000000000000000004529DFFFFFFFFFFF8C
:103CF000FFFFFFFFFFFFFFFFFFFFFFFFFFFFFFFFD4
:103D0000FFFFFFFFFFFFFFFFFFFFFFFFFFFFFFFFC3
:103D1000FFFFFFFFFFFFFFFFFFFFFFFFFFFFFFFFB3
:103D2000FFFFFFFFFFFFFFFFFFFFFFFFFFFFFFFFA3
:103D3000FFFFFFFFFFFFFFFFFFFFFFFFFFFFFFFF93
:103D4000FFFFFFFFFFFFFFFFFFFFFFFFFFFFFFFF83
:103D5000FFFFFFFFFFFFFFFFFFFFFFFFDFFF452923
:103D600000000000000000000000000000006108EA
:103D70005DEFFFFFFFFFFFFFFFFFFFFFFFFFFFFF05
:103D8000FFFFFFFFFFFFFFFFFFFFFFFFFFFFFFFF43
:103D9000FFFFFFFFFFFFFFFF308400000000000077
:103DA000000000000000000000004D6BFFFFFFFF5F
:103DB000DFFFFFFFFFFFFFFFFFFFFFFFFFFFFFFF33
:103DC000FFFFFFFFFFFFFFFFFFFFFFFFFFFFFFFF03
:103DD000FFFFFFFFFFFFFFFFFFFFFFFFFFFFFFFFF3
:103DE000FFFFFFFFFFFFFFFFFFFFFFFFFFFFFFFFE3
:103DF000FFFFFFFFFFFFFFFFFFFFFFFFFFFFFFFFD3
:103E0000FFFFFFFFFFFFFFFFFFFFFFFFFFFFFFFFC2
:103E1000FFFFFFFFFFFFDFFFFFFFFFFF4D6B000016
:103E200000000000000000000000000000001084FE
:103E3000FFFFFFFFFFFFFFFFFFFFFFFFFFFFFFFF92
:103E4000FFFFFFFFFFFFFFFFFFFFFFFFFFFFFFFF82
:103E5000FFFFFFFFFFFFDFFFBEF7042100000000B0
:103E600020000000200000000000000055ADFFFF12
:103E7000FFFFFFFFFFFFFFFFFFFFFFFFFFFFFFFF52
:103E8000FFFFFFFFFFFFFFFFFFFFFFFFFFFFFFFF42
:103E9000FFFFFFFFFFFFFFFFFFFFFFFFFFFFFFFF32
:103EA000FFFFFFFFFFFFFFFFFFFFFFFFFFFFFFFF22
:103EB000FFFFFFFFFFFFFFFFFFFFFFFFFFFFFFFF12
:103EC000FFFFFFFFFFFFFFFFFFFFFFFFFFFFFFFF02
:103ED000FFFFFFFFFFFFFFFFFFFF75AD00000000CA
:103EE000000000000000000000000000E3189EF742
:103EF000FFFFFFFFFFFFFFFFFFFFFFFFFFFFFFFFD2
:103F0000FFFFFFFFFFFFFFFFFFFFFFFFFFFFFFFFC1
:103F1000FFFFFFFFFFFFFFFFFFFFB6B50000000040
:103F2000000000000000000000000000200079CE2A
:103F3000FFFFFFFFFFFFFFFFFFFFFFFFFFFFFFFF91
:103F4000FFFFFFFFFFFFFFFFFFFFFFFFFFFFFFFF81
:103F5000FFFFFFFFFFFFFFFFFFFFFFFFFFFFFFFF71
:103F6000FFFFFFFFFFFFFFFFFFFFFFFFFFFFFFFF61
:103F7000FFFFFFFFFFFFFFFFFFFFFFFFFFFFFFFF51
:103F8000FFFFFFFFFFFFFFFFFFFFFFFFFFFFFFFF41
:103F9000FFFFFFFFFFFFFFFF79CE200000000000C2
:103FA000000000002000000000000000B6B5FFFF88
:103FB000FFFFFFFFFFFFFFFFFFFFFFFFFFFFFFFF11
:103FC000FFFFFFFFFFFFFFFFFFFFFFFFFFFFFFFF01
:103FD000FFFFFFFFFFFFFFFFFFFFDFFFAA522000F1
:103FE0000000000000000000000000000000C318F6
:103FF0001CE7FFFFFFFFFFFFFFFFFFFFFFFFFFFFCC
:10400000FFFFFFFFFFFFFFFFFFFFFFFFFFFFFFFFC0
:10401000FFFFFFFFFFFFFFFFFFFFFFFFFFFFFFFFB0
:10402000FFFFFFFFFFFFFFFFFFFFFFFFFFFFFFFFA0
:10403000FFFFFFFFFFFFFFFFFFFFFFFFFFFFFFFF90
:10404000FFFFFFFFFFFFFFFFFFFFFFFFFFFFFFFF80
:10405000FFFFFFFFFFFF1CE7C31800000000000088
:10406000000000000000000000008A52FFFFFFFF78
:10407000FFFFFFFFFFFFFFFFFFFFFFFFFFFFFFFF50
:10408000FFFFFFFFFFFFFFFFFFFFFFFFFFFFFFFF40
:10409000FFFFFFFFFFFFDFFFFFFFFFFF3CE7C3184E
:1040A0000000000000000000000000000000000010
:1040B00024213CE7FFFFFFFFFFFFFFFFFFFFFFFFA4
:1040C000FFFFFFFFFFFFFFFFFFFFFFFFFFFFFFFF00
:1040D000FFFFFFFFFFFFFFFFFFFFFFFFFFFFFFFFF0
:1040E000FFFFFFFFFFFFFFFFFFFFFFFFFFFFFFFFE0
:1040F000FFFFFFFFFFFFFFFFFFFFFFFFFFFFFFFFD0
:10410000FFFFFFFFFFFFFFFFFFFFFFFFFFFFFFFFBF
:10411000FFFFFFFF3CE7242100000000000000003B
:104120000000000000000000C3183CE7FFFFFFFF95
:10413000DFFFFFFFFFFFFFFFFFFFFFFFFFFFFFFFAF
:10414000FFFFFFFFFFFFFFFFFFFFFFFFFFFFFFFF7F
:10415000FFFFFFFFFFFFFFFFFFFFFFFFFFFFB6B502
:10416000000000000000000000000000000000004F
:10417000000045291CE7DFFFFFFFDFFFFFFFFFFF18
:10418000FFFFFFFFFFFFFFFFFFFFFFFFFFFFFFFF3F
:10419000FFFFFFFFFFFFFFFFFFFFFFFFFFFFFFFF2F
:1041A000FFFFFFFFFFFFFFFFFFFFFFFFFFFFFFFF1F
:1041B000FFFFFFFFFFFFFFFFFFFFFFFFFFFFFFFF0F
:1041C000FFFFFFFFFFFFFFFFFFFFFFFFFFFFFFFFFF
:1041D000FFFFFBDE4529000000000000000000009A
:1041E0000000000000000000B6B5FFFFFFFFFFFF6A
:1041F000FFFFFFFFFFFFFFFFFFFFFFFFFFFFFFFFCF
:10420000FFFFFFFFFFFFFFFFFFFFFFFFFFFFFFFFBE
:10421000FFFFFFFFFFFFFFFFFFFFFFFFFFFFDFFFCE
:1042200010840000000000000000000000000000FA
:1042300000000000C3189AD6FFFFFFFFFFFFFFFF3B
:10424000FFFFFFFFFFFFFFFFFFFFFFFFFFFFFFFF7E
:10425000FFFFFFFFFFFFFFFFFFFFFFFFFFFFFFFF6E
:10426000FFFFFFFFFFFFFFFFFFFFFFFFFFFFFFFF5E
:10427000FFFFFFFFFFFFFFFFFFFFFFFFFFFFFFFF4E
:10428000FFFFFFFFFFFFFFFFFFFFFFFFFFFFFFFF3E
:104290009AD6E318000000000000000000000000B3
:1042A0000000000000001084FFFFFFFFDFFFFFFFA2
:1042B000FFFFFFFFFFFFFFFFFFFFFFFFFFFFFFFF0E
:1042C000FFFFFFFFFFFFFFFFFFFFFFFFFFFFFFFFFE
:1042D000FFFFFFFFFFFFFFFFFFFFFFFFFFFFFFFFEE
:1042E000FFFF8A52000000000000000000000000F4
:1042F000000000000000410834A5FFFFFFFFFFFFA2
:10430000FFFFFFFFFFFFFFFFFFFFFFFFFFFFFFFFBD
:10431000FFFFFFFFFFFFFFFFFFFFFFFFFFFFFFFFAD
:10432000FFFFFFFFFFFFFFFFFFFFFFFFFFFFFFFF9D
:10433000FFFFFFFFFFFFFFFFFFFFFFFFFFFFFFFF8D
:10434000FFFFFFFFFFFFFFFFFFFFFFFFFFFF34A5A2
:104350004108000000000000600000006000000054
:10436000FFFFFFFFFFFFFFFFFFFFFFFFFFFFFFFF5D
:10437000FFFFFFFFFFFFFFFFFFFFFFFFFFFFFFFF4D
:10438000FFFFFFFFFFFFFFFFFFFFFFFFFFFFFFFF3D
:10439000FFFFFFFFFFFFFFFFFFFFFFFFFFFFFFFF2D
:10507000DFFFFFFFFFFFFFFFFFFFFFFFFFFFFFFF60
:10508000FFFFFFFFFFFFFFFFFFFFFFFFFFFFFFFF30
:10509000FFFFFFFFFFFFFFFFFFFFFFFFFFFFFFFF20
:1050A000FFFFFFFFFFFFFFFFFFFFFFFFFFFFFFFF10
:1050B000FFFFFFFFFFFFFFFFFFFFFFFFFFFFFFFF00
:1050C000FFFFFFFFFFFFFFFFFFFFFFFFFFFFFFFFF0
:1050D000FFFFFFFFFFFFFFFFFFFFFFFFFFFFFFFFE0
:1050E000FFFFFFFFFFFFFFFFFFFFFFFFFFFFFFFFD0
:1050F000FFFFFFFFFFFFFFFFFFFFFFFFFFFFFFFFC0
:10510000FFFFFFFFFFFFFFFFFFFFFFFFFFFFFFFFAF
:10511000B6B530843084718C518C30843084518C9D
:10512000518C30843084718C30843084518C59CED1
:10513000FFFFFFFFFFFFFFFFFFFFFFFFFFFFFFFF7F
:10514000FFFFFFFFFFFFFFFFFFFFFFFFFFFFFFFF6F
:10515000FFFFFFFFDFFFFFFFDFFF9AD63084518C98
:10516000518C518C3084718CB294DFFFFFFFFFFFB4
:10517000FFFFFFFFFFFFFFFFFFFFFFFFFFFFFFFF3F
:10518000FFFFFFFFFFFFFFFFFFFFFFFFFFFFFFFF2F
:10519000FFFFFFFFFFFFFFFFFFFFFFFFFFFFFFFF1F
:1051A000FFFFFFFFFFFFFFFFFFFFFFFFFFFFFFFF0F
:1051B000FFFFFFFFFFFFFFFFFFFFFFFFFFFFFFFFFF
:1051C000FFFFFFFFFFFFFFFFFFFFFFFFFFFFFFFFEF
:1051D000B6B5000020000000000000000000000044
:1051E0000000200000000000000000000000E7397F
:1051F000FFFFFFFFFFFFFFFFFFFFFFFFFFFFFFFFBF
:10520000FFFFFFFFFFFFFFFFFFFFFFFFFFFFFFFFAE
:10521000FFFFFFFFFFFFFFFFDFFFA63100000000E1
:1052200000000000000000003084FFFFDFFFFFFFF0
:10523000FFFFFFFFFFFFFFFFFFFFFFFFFFFFFFFF7E
:10524000FFFFFFFFFFFFFFFFFFFFFFFFFFFFFFFF6E
:10525000FFFFFFFFFFFFFFFFFFFFFFFFFFFFFFFF5E
:10526000FFFFFFFFFFFFFFFFFFFFFFFFFFFFFFFF4E
:10527000FFFFFFFFFFFFFFFFFFFFFFFFFFFFFFFF3E
:10528000FFFFFFFFFFFFFFFFFFFFFFFFFFFFFFFF2E
:10529000FFFFEB5A000000000000000000000000CB
:1052A00000000000000000000000000000000000FE
:1052B00014A5FFFFFFFFFFFFFFFFFFFFFFFFFFFF43
:1052C000FFFFFFFFFFFFFFFFFFFFFFFFFFFFFFFFEE
:1052D000FFFFFFFFFFFFFFFF108400000000000042
:1052E000000000000000C739DFFFFFFFFFFFFFFFE6
:1052F000FFFFFFFFFFFFFFFFFFFFFFFFFFFFFFFFBE
:10530000FFFFFFFFFFFFFFFFFFFFFFFFFFFFFFFFAD
:10531000FFFFFFFFFFFFFFFFFFFFFFFFFFFFFFFF9D
:10532000FFFFFFFFFFFFFFFFFFFFFFFFFFFFFFFF8D
:10533000FFFFFFFFFFFFFFFFFFFFFFFFFFFFFFFF7D
:10534000FFFFFFFFFFFFFFFFFFFFFFFFFFFFFFFF6D
:10535000FFFFFBDE821000002000000000000000C4
:10536000000000000000000000000000000000003D
:1053700045297DEFFFFFFFFFFFFFFFFFFFFFFFFF5F
:10538000FFFFFFFFFFFFFFFFFFFFFFFFFFFFFFFF2D
:10539000FFFFFFFFFFFFBAD661080000000000001A
:1053A00000000000610879CEFFFFDFFFFFFFFFFF75
:1053B000FFFFFFFFFFFFFFFFFFFFFFFFFFFFFFFFFD
:1053C000FFFFFFFFFFFFFFFFFFFFFFFFFFFFFFFFED
:1053D000FFFFFFFFFFFFFFFFFFFFFFFFFFFFFFFFDD
:1053E000FFFFFFFFFFFFFFFFFFFFFFFFFFFFFFFFCD
:1053F000FFFFFFFFFFFFFFFFFFFFFFFFFFFFFFFFBD
:10540000FFFFFFFFFFFFFFFFFFFFFFFFFFFFFFFFAC
:10541000FFFFFFFFAE73000000000000200000004F
:10542000000020000000000000000000000000005C
:1054300000009294FFFFFFFFFFFFFFFFFFFFFFFF52
:10544000FFFFFFFFFFFFFFFFFFFFFFFFFFFFFFFF6C
:10545000FFFFFFFFDFFF28422000000000002000C8
:10546000000000003084FFFFFFFFFFFFFFFFFFFF92
:10547000FFFFFFFFFFFFFFFFFFFFFFFFFFFFFFFF3C
:10548000FFFFFFFFFFFFFFFFFFFFFFFFFFFFFFFF2C
:10549000FFFFFFFFFFFFFFFFFFFFFFFFFFFFFFFF1C
:1054A000FFFFFFFFFFFFFFFFFFFFFFFFFFFFFFFF0C
:1054B000FFFFFFFFFFFFFFFFFFFFFFFFFFFFFFFFFC
:1054C000FFFFFFFFFFFFFFFFFFFFFFFFFFFFFFFFEC
:1054D000FFFFFFFF5DEFE318000000000000000089
:1054E000200000000000000000000000000000009C
:1054F0000000C3185DEFFFFFFFFFFFFFFFFFFFFF8F
:10550000FFFFFFFFFFFFFFFFFFFFFFFFFFFFFFFFAB
:10551000FFFFFFFFD39C0000200000000000000000
:105520000000A631DFFFFFFFFFFFFFFFFFFFFFFFD0
:10553000FFFFFFFFFFFFFFFFFFFFFFFFFFFFFFFF7B
:10554000FFFFFFFFFFFFFFFFFFFFFFFFFFFFFFFF6B
:10555000FFFFFFFFFFFFFFFFFFFFFFFFFFFFFFFF5B
:10556000FFFFFFFFFFFFFFFFFFFFFFFFFFFFFFFF4B
:10557000FFFFFFFFFFFFFFFFFFFFFFFFFFFFFFFF3B
:10558000FFFFFFFFFFFFFFFFFFFFFFFFFFFFFFFF2B
:10559000FFFFFFFFFFFFB2940000000000000000CB
:1055A0008210F7BDBAD6BAD6BAD6CB5A00000000E0
:1055B00000000000AE73FFFFFFFFFFFFFFFFFFFFD4
:1055C000FFFFFFFFFFFFFFFFFFFFFFFFFFFFFFFFEB
:1055D000FFFFDBDE82100000200000000000000062
:1055E0000000F7BDFFFFFFFFFFFFFFFFFFFFFFFF13
:1055F000FFFFFFFFFFFFFFFFFFFFFFFFFFFFFFFFBB
:10560000FFFFFFFFFFFFFFFFFFFFFFFFFFFFFFFFAA
:10561000FFFFFFFFFFFFFFFFFFFFFFFFFFFFFFFF9A
:10562000FFFFFFFFFFFFFFFFFFFFFFFFFFFFFFFF8A
:10563000FFFFFFFFFFFFFFFFFFFFFFFFFFFFFFFF7A
:10564000FFFFFFFFFFFFFFFFFFFFFFFFFFFFFFFF6A
:10565000FFFFFFFFFFFFDFFF6529000000000000E4
:1056600000001084FFFFFFFFFFFFFBDE610800006A
:10567000000020006108BAD6FFFFFFFFFFFFFFFF19
:10568000FFFFFFFFFFFFFFFFDFFFFFFFFFFFFFFF4A
:10569000FFFFEB5A000000000000000020000000A7
:1056A0004D6BFFFFFFFFDFFFFFFFFFFFFFFFFFFF70
:1056B000FFFFFFFFFFFFFFFFFFFFFFFFFFFFFFFFFA
:1056C000FFFFFFFFFFFFFFFFFFFFFFFFFFFFFFFFEA
:1056D000FFFFFFFFFFFFFFFFFFFFFFFFFFFFFFFFDA
:1056E000FFFFFFFFFFFFFFFFFFFFFFFFFFFFFFFFCA
:1056F000FFFFFFFFFFFFFFFFFFFFFFFFFFFFFFFFBA
:10570000FFFFFFFFFFFFFFFFFFFFFFFFFFFFFFFFA9
:10571000FFFFDFFFFFFFFFFF96B520000000000046
:1057200000006108BAD6FFFFDFFFFFFFEF7B00003C
:105730000000000000000C63FFFFFFFFFFFFFFFF02
:10574000FFFFFFFFFFFFFFFFFFFFFFFFFFFFFFFF69
:1057500055AD000000000000000000000000242102
:105760005DEFFFFFFFFFFFFFFFFFFFFFFFFFFFFFFB
:10577000FFFFFFFFFFFFFFFFFFFFFFFFFFFFFFFF39
:10578000FFFFFFFFFFFFFFFFFFFFFFFFFFFFFFFF29
:10579000FFFFFFFFFFFFFFFFFFFFFFFFFFFFFFFF19
:1057A000FFFFFFFFFFFFFFFFFFFFFFFFFFFFFFFF09
:1057B000FFFFFFFFFFFFFFFFFFFFFFFFFFFFFFFFF9
:1057C000FFFFFFFFFFFFFFFFFFFFFFFFFFFFFFFFE9
:1057D000FFFFFFFFFFFFFFFFFFFF28420000000069
:1057E000000000000C63FFFFFFFFFFFF3CE7042108
:1057F000000000000000000018C6FFFFFFFFFFFFD1
:10580000FFFFFFFFFFFFFFFFFFFFFFFFFFFF5DEF5A
:10581000042100000000000000000000000075AD41
:10582000FFFFFFFFFFFFFFFFFFFFFFFFFFFFFFFF88
:10583000FFFFFFFFFFFFFFFFFFFFFFFFFFFFFFFF78
:10584000FFFFFFFFFFFFFFFFFFFFFFFFFFFFFFFF68
:10585000FFFFFFFFFFFFFFFFFFFFFFFFFFFFFFFF58
:10586000FFFFFFFFFFFFFFFFFFFFFFFFFFFFFFFF48
:10587000FFFFFFFFFFFFFFFFFFFFFFFFFFFFFFFF38
:10588000FFFFFFFFFFFFFFFFFFFFFFFFFFFFFFFF28
:10589000FFFFFFFFFFFFFFFFFFFF79CE20000000AB
:1058A00000000000000038C6FFFFDFFFFFFF718C23
:1058B00000002000000000002842FFFFFFFFFFFF64
:1058C000FFFFFFFFDFFFFFFFFFFFFFFFFFFFEB5AC1
:1058D000000000000000000020000000AA52FFFFAE
:1058E000DFFFFFFFFFFFFFFFFFFFFFFFFFFFFFFFE8
:1058F000FFFFFFFFFFFFFFFFFFFFFFFFFFFFFFFFB8
:10590000FFFFFFFFFFFFFFFFFFFFFFFFFFFFFFFFA7
:10591000FFFFFFFFFFFFFFFFFFFFFFFFFFFFFFFF97
:10592000FFFFFFFFFFFFFFFFFFFFFFFFFFFFFFFF87
:10593000FFFFFFFFFFFFFFFFFFFFFFFFFFFFFFFF77
:10594000FFFFFFFFFFFFFFFFFFFFFFFFFFFFFFFF67
:10595000FFFFDFFFFFFFFFFFFFFFFFFFCB5A00004E
:105960000000000000000842DFFFFFFFFFFF9EF77E
:105970004529000000000000000075ADFFFFFFFF9B
:10598000FFFFFFFFFFFFFFFFDFFFFFFF96B50000F8
:1059900000000000410820000000A210FBDEFFFF15
:1059A000FFFFBEF7FFFFFFFFFFFFFFFFFFFFFFFF50
:1059B000FFFFFFFFFFFFFFFFFFFFFFFFFFFFFFFFF7
:1059C000FFFFFFFFFFFFFFFFFFFFFFFFFFFFFFFFE7
:1059D000FFFFFFFFFFFFFFFFFFFFFFFFFFFFFFFFD7
:1059E000FFFFFFFFFFFFFFFFFFFFFFFFFFFFFFFFC7
:1059F000FFFFFFFFFFFFFFFFFFFFFFFFFFFFFFFFB7
:105A0000FFFFFFFFFFFFFFFFFFFFFFFFFFFFFFFFA6
:105A1000FFFFFFFFFFFFFFFFFFFFFFFFDBDE610870
:105A2000000000002000000075ADFFFFDFFFFFFF5A
:105A300055AD2000000020000000A631DFFFFFFF71
:105A4000DFFFFFFFFFFFFFFFFFFF9EF7652900005D
:105A50000000000000000000000014A5FFFFFFFF91
:105A6000FFFFFFFFFFFFFFFFFFFFFFFFFFFFFFFF46
:105A7000FFFFFFFFFFFFFFFFFFFFFFFFFFFFFFFF36
:105A8000FFFFFFFFFFFFFFFFFFFFFFFFFFFFFFFF26
:105A9000FFFFFFFFFFFFFFFFFFFFFFFFFFFFFFFF16
:105AA000FFFFFFFFFFFFFFFFFFFFFFFFFFFFFFFF06
:105AB000FFFFFFFFFFFFFFFFFFFFFFFFFFFFFFFFF6
:105AC000FFFFFFFFFFFFFFFFFFFFFFFFFFFFFFFFE6
:105AD000FFFFFFFFFFFFFFFFFFFFFFFFDFFFAE73D3
:105AE00000000000000000006529BEF7FFFFFFFF77
:105AF000FFFFE7390000200000000000D39CFFFFFB
:105B0000FFFFFFFFFFFFFFFFFFFFCF7B0000000055
:105B10000000000020000000494AFFFFFFFFFFFFD8
:105B2000FFFFFFFFFFFFFFFFFFFFFFFFFFFFFFFF85
:105B3000FFFFFFFFFFFFFFFFFFFFFFFFFFFFFFFF75
:105B4000FFFFFFFFFFFFFFFFFFFFFFFFFFFFFFFF65
:105B5000FFFFFFFFFFFFFFFFFFFFFFFFFFFFFFFF55
:105B6000FFFFFFFFFFFFFFFFFFFFFFFFFFFFFFFF45
:105B7000FFFFFFFFFFFFFFFFFFFFFFFFFFFFFFFF35
:105B8000FFFFFFFFFFFFFFFFFFFFFFFFFFFFFFFF25
:105B9000FFFFFFFFFFFFFFFFFFFFFFFFDFFF7DEFC7
:105BA000E3180000000000002000B294FFFFFFFF98
:105BB000FFFF18C60000000000000000E3189EF779
:105BC000FFFFFFFFFFFFFFFF38C641080000000096
:105BD00000000000000041089AD6FFFFDFFFFFFF32
:105BE000FFFFFFFFFFFFFFFFFFFFFFFFFFFFFFFFC5
:105BF000FFFFFFFFFFFFFFFFFFFFFFFFFFFFFFFFB5
:105C0000FFFFFFFFFFFFFFFFFFFFFFFFFFFFFFFFA4
:105C1000FFFFFFFFFFFFFFFFFFFFFFFFFFFFFFFF94
:105C2000FFFFFFFFFFFFFFFFFFFFFFFFFFFFFFFF84
:105C3000FFFFFFFFFFFFFFFFFFFFFFFFFFFFFFFF74
:105C4000FFFFFFFFFFFFFFFFFFFFFFFFFFFFFFFF64
:105C5000FFFFFFFFFFFFFFFFFFFFFFFFFFFFDFFF74
:105C600092940000200020000000C3185DEFFFFFA9
:105C7000FFFFFFFFAA520000000000002000108478
:105C8000FFFFFFFFFFFFBEF786310000200000008E
:105C90000000000000001084FFFFFFFFFFFFFFFF78
:105CA000FFFFFFFFFFFFFFFFFFFFFFFFFFFFFFFF04
:105CB000FFFFFFFFFFFFFFFFFFFFFFFFFFFFFFFFF4
:105CC000FFFFFFFFFFFFFFFFFFFFFFFFFFFFFFFFE4
:105CD000FFFFFFFFFFFFFFFFFFFFFFFFFFFFFFFFD4
:105CE000FFFFFFFFFFFFFFFFFFFFFFFFFFFFFFFFC4
:105CF000FFFFFFFFFFFFFFFFFFFFFFFFFFFFFFFFB4
:105D0000FFFFFFFFFFFFFFFFFFFFFFFFFFFFFFFFA3
:105D1000FFFFFFFFFFFFFFFFFFFFFFFFFFFFFFFF93
:105D2000BEF7A6310000000020000000CF7BFFFF7F
:105D3000FFFFDFFF9AD64108000020000000C318D3
:105D40001CE7FFFFFFFF3084000000000000200080
:105D500000000000C739DFFFDFFFFFFFFFFFFFFF8D
:105D6000FFFFFFFFFFFFFFFFFFFFFFFFFFFFFFFF43
:105D7000FFFFFFFFFFFFFFFFFFFFFFFFFFFFFFFF33
:105D8000FFFFFFFFFFFFFFFFFFFFFFFFFFFFFFFF23
:105D9000FFFFFFFFFFFFFFFFFFFFFFFFFFFFFFFF13
:105DA000FFFFFFFFFFFFFFFFFFFFFFFFFFFFFFFF03
:105DB000FFFFFFFFFFFFFFFFFFFFFFFFFFFFFFFFF3
:105DC000FFFFFFFFFFFFFFFFFFFFFFFFFFFFFFFFE3
:105DD000FFFFFFFFFFFFFFFFFFFFFFFFFFFFFFFFD3
:105DE000FFFF75AD00000000000000008210BAD671
:105DF000FFFFFFFFFFFF4D6B0000000000000000F1
:105E00006D6BFFFFBAD66108000020002000000083
:105E10002000410838C6DFFFFFFFDFFFFFFFFFFF65
:105E2000FFFFFFFFFFFFFFFFFFFFFFFFFFFFFFFF82
:105E3000FFFFFFFFFFFFFFFFFFFFFFFFFFFFFFFF72
:105E4000FFFFFFFFFFFFFFFFFFFFFFFFFFFFFFFF62
:105E5000FFFFFFFFFFFFFFFFFFFFFFFFFFFFFFFF52
:105E6000FFFFFFFFFFFFFFFFFFFFFFFFFFFFFFFF42
:105E7000FFFFFFFFFFFFFFFFFFFFFFFFFFFFFFFF32
:105E8000FFFFFFFFFFFFFFFFFFFFFFFFFFFFFFFF22
:105E9000FFFFFFFFFFFFFFFFFFFFFFFFFFFFFFFF12
:105EA000FFFFFFFF494A0000000000000000EB5A1E
:105EB000FFFFFFFFFFFF1CE7C318000020000000EA
:105EC000410859CE8A520000000000000000200066
:105ED0000000AE73FFFFFFFFFFFFFFFFDFFFFFFFCD
:105EE000FFFFFFFFFFFFFFFFFFFFFFFFFFFFFFFFC2
:105EF000FFFFFFFFFFFFFFFFFFFFFFFFFFFFFFFFB2
:105F0000FFFFFFFFFFFFFFFFFFFFFFFFFFFFFFFFA1
:105F1000FFFFFFFFFFFFFFFFFFFFFFFFFFFFFFFF91
:105F2000FFFFFFFFFFFFFFFFFFFFFFFFFFFFFFFF81
:105F3000FFFFFFFFFFFFFFFFFFFFFFFFFFFFFFFF71
:105F4000FFFFFFFFFFFFFFFFFFFFFFFFFFFFFFFF61
:105F5000FFFFFFFFFFFFFFFFFFFFFFFFFFFFFFFF51
:105F6000FFFFFFFF38C60000000000000000200017
:105F700038C6FFFFFFFFFFFF308400000000000075
:105F80000000E31800000000000000000000000016
:105F900024217DEFFFFFFFFFDFFFFFFFFFFFDFFF9C
:105FA000FFFFFFFFFFFFFFFFFFFFFFFFFFFFFFFF01
:105FB000FFFFFFFFFFFFFFFFFFFFFFFFFFFFFFFFF1
:105FC000FFFFFFFFFFFFFFFFFFFFFFFFFFFFFFFFE1
:105FD000FFFFFFFFFFFFFFFFFFFFFFFFFFFFFFFFD1
:105FE000FFFFFFFFFFFFFFFFFFFFFFFFFFFFFFFFC1
:105FF000FFFFFFFFFFFFFFFFFFFFFFFFFFFFFFFFB1
:10600000FFFFFFFFFFFFFFFFFFFFFFFFFFFFFFFFA0
:10601000FFFFFFFFFFFFFFFFFFFFFFFFFFFFFFFF90
:10602000FFFFFFFFFFFFCB5A000020000000000031
:10603000494AFFFFFFFFFFFF9EF7452900000000D0
:106040000000000000002000000000000000200010
:1060500096B5FFFFFFFFFFFFFFFFFFFFFFFFFFFF03
:10606000FFFFFFFFFFFFFFFFFFFFFFFFFFFFFFFF40
:10607000FFFFFFFFFFFFFFFFFFFFFFFFFFFFFFFF30
:10608000FFFFFFFFFFFFFFFFFFFFFFFFFFFFFFFF20
:10609000FFFFFFFFFFFFFFFFFFFFFFFFFFFFFFFF10
:1060A000FFFFFFFFFFFFFFFFFFFFFFFFFFFFFFFF00
:1060B000FFFFFFFFFFFFFFFFFFFFFFFFFFFFFFFFF0
:1060C000FFFFFFFFFFFFFFFFFFFFFFFFFFFFFFFFE0
:1060D000FFFFFFFFFFFFFFFFFFFFFFFFFFFFFFFFD0
:1060E000FFFFDFFFFFFFFBDE410800002000000094
:1060F000000034A5FFFFFFFFFFFFD39C000000005E
:1061000000000000000000000000000000000C6320
:10611000FFFFFFFFFFFFFFFFDFFFFFFFFFFFFFFFAF
:10612000FFFFFFFFFFFFFFFFFFFFFFFFFFFFFFFF7F
:10613000FFFFFFFFFFFFFFFFFFFFFFFFFFFFFFFF6F
:10614000FFFFFFFFFFFFFFFFFFFFFFFFFFFFFFFF5F
:10615000FFFFFFFFFFFFFFFFFFFFFFFFFFFFFFFF4F
:10616000FFFFFFFFFFFFFFFFFFFFFFFFFFFFFFFF3F
:10617000FFFFFFFFFFFFFFFFFFFFFFFFFFFFFFFF2F
:10618000FFFFFFFFFFFFFFFFFFFFFFFFFFFFFFFF1F
:10619000FFFFFFFFFFFFFFFFFFFFFFFFFFFFFFFF0F
:1061A000FFFFFFFFFFFFFFFFAE73000000000000D6
:1061B00000006529DFFFDFFFFFFFFFFF86310000E2
:1061C00000000000000000000000000004213CE787
:1061D000FFFFFFFFFFFFFFFFFFFFFFFFFFFFFFFFCF
:1061E000FFFFFFFFFFFFFFFFFFFFFFFFFFFFFFFFBF
:1061F000FFFFFFFFFFFFFFFFFFFFFFFFFFFFFFFFAF
:10620000FFFFFFFFFFFFFFFFFFFFFFFFFFFFFFFF9E
:10621000FFFFFFFFFFFFFFFFFFFFFFFFFFFFFFFF8E
:10622000FFFFFFFFFFFFFFFFFFFFFFFFFFFFFFFF7E
:10623000FFFFFFFFFFFFFFFFFFFFFFFFFFFFFFFF6E
:10624000FFFFFFFFFFFFFFFFFFFFFFFFFFFFFFFF5E
:10625000FFFFFFFFFFFFFFFFFFFFFFFFFFFFFFFF4E
:10626000FFFFFFFFFFFFFFFF7DEFE31800000000CF
:10627000000000009294FFFFFFFFFFFFB6B5000093
:10628000200000000000000000000000F39CFFFF61
:10629000FFFFFFFFFFFFFFFFFFFFFFFFFFFFFFFF0E
:1062A000FFFFFFFFFFFFFFFFFFFFFFFFFFFFFFFFFE
:1062B000FFFFFFFFFFFFFFFFFFFFFFFFFFFFFFFFEE
:1062C000FFFFFFFFFFFFFFFFFFFFFFFFFFFFFFFFDE
:1062D000FFFFFFFFFFFFFFFFFFFFFFFFFFFFFFFFCE
:1062E000FFFFFFFFFFFFFFFFFFFFFFFFFFFFFFFFBE
:1062F000FFFFFFFFFFFFFFFFFFFFFFFFFFFFFFFFAE
:10630000FFFFFFFFFFFFFFFFFFFFFFFFFFFFFFFF9D
:10631000FFFFFFFFFFFFFFFFFFFFFFFFFFFFFFFF8D
:10632000FFFFFFFFFFFFFFFFFFFFB2940000000031
:1063300000000000C3187DEFFFFFDFFFFFFF494AA9
:1063400000002000000000000000AA52FFFFFFFF35
:10635000FFFFFFFFFFFFFFFFFFFFFFFFFFFFFFFF4D
:10636000FFFFFFFFFFFFFFFFFFFFFFFFFFFFFFFF3D
:10637000FFFFFFFFFFFFFFFFFFFFFFFFFFFFFFFF2D
:10638000FFFFFFFFFFFFFFFFFFFFFFFFFFFFFFFF1D
:10639000FFFFFFFFFFFFFFFFFFFFFFFFFFFFFFFF0D
:1063A000FFFFFFFFFFFFFFFFFFFFFFFFFFFFFFFFFD
:1063B000FFFFFFFFFFFFFFFFFFFFFFFFFFFFFFFFED
:1063C000FFFFFFFFFFFFFFFFFFFFFFFFFFFFFFFFDD
:1063D000FFFFFFFFFFFFFFFFFFFFFFFFFFFFFFFFCD
:1063E000FFFFFFFFFFFFFFFFDFFFDFFF8631000042
:1063F0000000000000008E73FFFFFFFFFFFF38C6A4
:106400000000000000000000200038C6FFFFFFFF72
:10641000FFFFFFFFFFFFFFFFFFFFFFFFFFFFFFFF8C
:10642000FFFFFFFFFFFFFFFFFFFFFFFFFFFFFFFF7C
:10643000FFFFFFFFFFFFFFFFFFFFFFFFFFFFFFFF6C
:10644000FFFFFFFFFFFFFFFFFFFFFFFFFFFFFFFF5C
:10645000FFFFFFFFFFFFFFFFFFFFFFFFFFFFFFFF4C
:10646000FFFFFFFFFFFFFFFFFFFFFFFFFFFFFFFF3C
:10647000FFFFFFFFFFFFFFFFFFFFFFFFFFFFFFFF2C
:10648000FFFFFFFFFFFFFFFFFFFFFFFFFFFFFFFF1C
:10649000FFFFFFFFFFFFFFFFFFFFFFFFFFFFFFFF0C
:1064A000FFFFFFFFFFFFFFFFFFFFFFFF75AD0000D6
:1064B0002000000000004108BAD6FFFFFFFFFFFFE9
:1064C0002C630000000000000000AE73FFFFFFFF20
:1064D000FFFFFFFFFFFFFFFFFFFFFFFFFFFFFFFFCC
:1064E000FFFFFFFFFFFFFFFFFFFFFFFFFFFFFFFFBC
:1064F000FFFFFFFFFFFFFFFFFFFFFFFFFFFFFFFFAC
:10650000FFFFFFFFFFFFFFFFFFFFFFFFFFFFFFFF9B
:10651000FFFFFFFFFFFFFFFFFFFFFFFFFFFFFFFF8B
:10652000FFFFFFFFFFFFFFFFFFFFFFFFFFFFFFFF7B
:10653000FFFFFFFFFFFFFFFFFFFFFFFFFFFFFFFF6B
:10654000FFFFFFFFFFFFFFFFFFFFFFFFFFFFFFFF5B
:10655000FFFFFFFFFFFFFFFFFFFFFFFFFFFFFFFF4B
:10656000FFFFFFFFFFFFFFFFDFFFDFFFFFFF494AE6
:106570000000200000000000CB5AFFFFDFFFFFFFFC
:10658000DBDE821000002000000041089AD6FFFFE9
:10659000FFFFFFFFFFFFFFFFFFFFFFFFFFFFFFFF0B
:1065A000FFFFFFFFFFFFFFFFFFFFFFFFFFFFFFFFFB
:1065B000FFFFFFFFFFFFFFFFFFFFFFFFFFFFFFFFEB
:1065C000FFFFFFFFFFFFFFFFFFFFFFFFFFFFFFFFDB
:1065D000FFFFFFFFFFFFFFFFFFFFFFFFFFFFFFFFCB
:1065E000FFFFFFFFFFFFFFFFFFFFFFFFFFFFFFFFBB
:1065F000FFFFFFFFFFFFFFFFFFFFFFFFFFFFFFFFAB
:10660000FFFFFFFFFFFFFFFFFFFFFFFFFFFFFFFF9A
:10661000FFFFFFFFFFFFFFFFFFFFFFFFFFFFFFFF8A
:10662000FFFFFFFFFFFFDFFFFFFFFFFFFFFF59CE71
:1066300041080000000000000000F7BDFFFFFFFF61
:10664000FFFFCF7B0000000020000000CB5AFFFFBF
:10665000FFFFFFFFFFFFFFFFFFFFFFFFFFFFFFFF4A
:10666000FFFFFFFFFFFFFFFFFFFFFFFFFFFFFFFF3A
:10667000FFFFFFFFFFFFFFFFFFFFFFFFFFFFFFFF2A
:10668000FFFFFFFFFFFFFFFFFFFFFFFFFFFFFFFF1A
:10669000FFFFFFFFFFFFFFFFFFFFFFFFFFFFFFFF0A
:1066A000FFFFFFFFFFFFFFFFFFFFFFFFFFFFFFFFFA
:1066B000FFFFFFFFFFFFFFFFFFFFFFFFFFFFFFFFEA
:1066C000FFFFFFFFFFFFFFFFFFFFFFFFFFFFFFFFDA
:1066D000FFFFFFFFFFFFFFFFFFFFFFFFFFFFFFFFCA
:1066E000FFFFFFFFFFFFFFFFFFFFFFFFFFFFFFFFBA
:1066F0000C6300000000000000000842FFFFFFFFE5
:10670000FFFF5DEFE3180000000000002000F7BD70
:10671000FFFFFFFFFFFFFFFFFFFFFFFFFFFFFFFF89
:10672000FFFFFFFFFFFFFFFFFFFFFFFFFFFFFFFF79
:10673000FFFFFFFFFFFFFFFFFFFFFFFFFFFFFFFF69
:10674000FFFFFFFFFFFFFFFFFFFFFFFFFFFFFFFF59
:10675000FFFFFFFFFFFFFFFFFFFFFFFFFFFFFFFF49
:10676000FFFFFFFFFFFFFFFFFFFFFFFFFFFFFFFF39
:10677000FFFFFFFFFFFFFFFFFFFFFFFFFFFFFFFF29
:10678000FFFFFFFFFFFFFFFFFFFFFFFFFFFFFFFF19
:10679000FFFFFFFFFFFFFFFFFFFFFFFFFFFFFFFF09
:1067A000FFFFFFFFFFFFFFFFFFFFFFFFFFFFFFFFF9
:1067B0001CE74108000000000000000055ADFFFF8D
:1067C000FFFFFFFF9294000000000000000008425D
:1067D000FFFFFFFFFFFFFFFFFFFFFFFFFFFFFFFFC9
:1067E000FFFFFFFFFFFFFFFFFFFFFFFFFFFFFFFFB9
:1067F000FFFFFFFFFFFFFFFFFFFFFFFFFFFFFFFFA9
:10680000FFFFFFFFFFFFFFFFFFFFFFFFFFFFFFFF98
:10681000FFFFFFFFFFFFFFFFFFFFFFFFFFFFFFFF88
:10682000FFFFFFFFFFFFFFFFFFFFFFFFFFFFFFFF78
:10683000FFFFFFFFFFFFFFFFFFFFFFFFFFFFFFFF68
:10684000FFFFFFFFFFFFFFFFFFFFFFFFFFFFFFFF58
:10685000FFFFFFFFFFFFFFFFFFFFFFFFFFFFFFFF48
:10686000FFFFFFFFFFFFFFFFFFFFFFFFFFFFFFFF38
:10687000DFFFCF7B20000000000000006529BEF78D
:10688000FFFFFFFFBEF745290000000000000000E9
:1068900055ADFFFFFFFFFFFFFFFFFFFFFFFFFFFF04
:1068A000FFFFFFFFFFFFFFFFFFFFFFFFFFFFFFFFF8
:1068B000FFFFFFFFFFFFFFFFFFFFFFFFFFFFFFFFE8
:1068C000FFFFFFFFFFFFFFFFFFFFFFFFFFFFFFFFD8
:1068D000FFFFFFFFFFFFFFFFFFFFFFFFFFFFFFFFC8
:1068E000FFFFFFFFFFFFFFFFFFFFFFFFFFFFFFFFB8
:1068F000FFFFFFFFFFFFFFFFFFFFFFFFFFFFFFFFA8
:10690000FFFFFFFFFFFFFFFFFFFFFFFFFFFFFFFF97
:10691000FFFFFFFFFFFFFFFFFFFFFFFFFFFFFFFF87
:10692000FFFFFFFFFFFFFFFFFFFFFFFFFFFFFFFF77
:10693000FFFF9EF7A2100000200000000000718CF5
:10694000FFFFFFFFFFFF55AD00000000000000004B
:106950008631DFFFFFFFFFFFFFFFFFFFFFFFFFFFAE
:10696000FFFFFFFFFFFFFFFFFFFFFFFFFFFFFFFF37
:10697000FFFFFFFFFFFFFFFFFFFFFFFFFFFFFFFF27
:10698000FFFFFFFFFFFFFFFFFFFFFFFFFFFFFFFF17
:10699000FFFFFFFFFFFFFFFFFFFFFFFFFFFFFFFF07
:1069A000FFFFFFFFFFFFFFFFFFFFFFFFFFFFFFFFF7
:1069B000FFFFFFFFFFFFFFFFFFFFFFFFFFFFFFFFE7
:1069C000FFFFFFFFFFFFFFFFFFFFFFFFFFFFFFFFD7
:1069D000FFFFFFFFFFFFFFFFFFFFFFFFFFFFFFFFC7
:1069E000FFFFFFFFFFFFFFFFFFFFFFFFFFFFFFFFB7
:1069F000FFFF34A541080000000000000000E3187C
:106A00001CE7FFFFFFFFFFFFC73900000000000089
:106A10000000B294FFFFFFFFFFFFFFFFFFFFFFFF3C
:106A2000FFFFFFFFFFFFFFFFFFFFFFFFFFFFFFFF76
:106A3000FFFFFFFFFFFFFFFFFFFFFFFFFFFFFFFF66
:106A4000FFFFFFFFFFFFFFFFFFFFFFFFFFFFFFFF56
:106A5000FFFFFFFFFFFFFFFFFFFFFFFFFFFFFFFF46
:106A6000FFFFFFFFFFFFFFFFFFFFFFFFFFFFFFFF36
:106A7000FFFFFFFFFFFFFFFFFFFFFFFFFFFFFFFF26
:106A8000FFFFFFFFFFFFFFFFFFFFFFFFFFFFFFFF16
:106A9000FFFFFFFFFFFFFFFFFFFFFFFFFFFFFFFF06
:106AA000FFFFFFFFFFFFFFFFFFFFFFFFFFFFFFFFF6
:106AB0005DEF042100000000000000000000000065
:106AC0008E73FFFFFFFFFFFF38C6000000000000CD
:106AD000000004215DEFDFFFFFFFFFFFFFFFFFFF6F
:106AE000FFFFFFFFFFFFFFFFFFFFFFFFFFFFFFFFB6
:106AF000FFFFFFFFFFFFFFFFFFFFFFFFFFFFFFFFA6
:106B0000FFFFFFFFFFFFFFFFFFFFFFFFFFFFFFFF95
:106B1000FFFFFFFFFFFFFFFFFFFFFFFFFFFFFFFF85
:106B2000FFFFFFFFFFFFFFFFFFFFFFFFFFFFFFFF75
:106B3000FFFFFFFFFFFFFFFFFFFFFFFFFFFFFFFF65
:106B4000FFFFFFFFFFFFFFFFFFFFFFFFFFFFFFFF55
:106B5000FFFFFFFFFFFFFFFFFFFFFFFFFFFFFFFF45
